{
	"contracts/ProductStore.sol": {
		"ProductStore": {
			"abi": [
				{
					"inputs": [
						{
							"internalType": "address",
							"name": "_identificationContract",
							"type": "address"
						},
						{
							"internalType": "address",
							"name": "_depositContract",
							"type": "address"
						}
					],
					"stateMutability": "nonpayable",
					"type": "constructor"
				},
				{
					"inputs": [
						{
							"internalType": "bytes32",
							"name": "_productId",
							"type": "bytes32"
						},
						{
							"internalType": "uint256",
							"name": "_pricePerUnit",
							"type": "uint256"
						},
						{
							"internalType": "uint256",
							"name": "_quantity",
							"type": "uint256"
						}
					],
					"name": "addProductToStore",
					"outputs": [],
					"stateMutability": "nonpayable",
					"type": "function"
				},
				{
					"inputs": [
						{
							"internalType": "bytes32",
							"name": "_productId",
							"type": "bytes32"
						}
					],
					"name": "checkProductAvailability",
					"outputs": [
						{
							"internalType": "uint256",
							"name": "",
							"type": "uint256"
						}
					],
					"stateMutability": "view",
					"type": "function"
				},
				{
					"inputs": [],
					"name": "depositContractAddress",
					"outputs": [
						{
							"internalType": "address",
							"name": "",
							"type": "address"
						}
					],
					"stateMutability": "view",
					"type": "function"
				},
				{
					"inputs": [],
					"name": "identificationContractAddress",
					"outputs": [
						{
							"internalType": "address",
							"name": "",
							"type": "address"
						}
					],
					"stateMutability": "view",
					"type": "function"
				},
				{
					"inputs": [],
					"name": "owner",
					"outputs": [
						{
							"internalType": "address",
							"name": "",
							"type": "address"
						}
					],
					"stateMutability": "view",
					"type": "function"
				},
				{
					"inputs": [
						{
							"internalType": "bytes32",
							"name": "_productId",
							"type": "bytes32"
						},
						{
							"internalType": "uint256",
							"name": "_quantity",
							"type": "uint256"
						}
					],
					"name": "purchaseProduct",
					"outputs": [],
					"stateMutability": "payable",
					"type": "function"
				},
				{
					"inputs": [
						{
							"internalType": "bytes32",
							"name": "_productId",
							"type": "bytes32"
						},
						{
							"internalType": "uint256",
							"name": "_pricePerUnit",
							"type": "uint256"
						}
					],
					"name": "setProductPrice",
					"outputs": [],
					"stateMutability": "nonpayable",
					"type": "function"
				},
				{
					"inputs": [
						{
							"internalType": "bytes32",
							"name": "",
							"type": "bytes32"
						}
					],
					"name": "storeInventory",
					"outputs": [
						{
							"internalType": "uint256",
							"name": "pricePerUnit",
							"type": "uint256"
						},
						{
							"internalType": "uint256",
							"name": "quantity",
							"type": "uint256"
						}
					],
					"stateMutability": "view",
					"type": "function"
				}
			],
			"devdoc": {
				"kind": "dev",
				"methods": {},
				"version": 1
			},
			"evm": {
				"assembly": "    /* \"contracts/ProductStore.sol\":64:2514  contract ProductStore {... */\n  mstore(0x40, 0x80)\n    /* \"contracts/ProductStore.sol\":354:576  constructor(address _identificationContract, address _depositContract) {... */\n  callvalue\n  dup1\n  iszero\n  tag_1\n  jumpi\n  0x00\n  dup1\n  revert\ntag_1:\n  pop\n  mload(0x40)\n  sub(codesize, bytecodeSize)\n  dup1\n  bytecodeSize\n  dup4\n  codecopy\n  dup2\n  dup2\n  add\n  0x40\n  mstore\n  dup2\n  add\n  swap1\n  tag_2\n  swap2\n  swap1\n  tag_3\n  jump\t// in\ntag_2:\n    /* \"contracts/ProductStore.sol\":443:453  msg.sender */\n  caller\n    /* \"contracts/ProductStore.sol\":435:440  owner */\n  0x00\n  dup1\n    /* \"contracts/ProductStore.sol\":435:453  owner = msg.sender */\n  0x0100\n  exp\n  dup2\n  sload\n  dup2\n  0xffffffffffffffffffffffffffffffffffffffff\n  mul\n  not\n  and\n  swap1\n  dup4\n  0xffffffffffffffffffffffffffffffffffffffff\n  and\n  mul\n  or\n  swap1\n  sstore\n  pop\n    /* \"contracts/ProductStore.sol\":495:518  _identificationContract */\n  dup2\n    /* \"contracts/ProductStore.sol\":463:492  identificationContractAddress */\n  0x01\n  0x00\n    /* \"contracts/ProductStore.sol\":463:518  identificationContractAddress = _identificationContract */\n  0x0100\n  exp\n  dup2\n  sload\n  dup2\n  0xffffffffffffffffffffffffffffffffffffffff\n  mul\n  not\n  and\n  swap1\n  dup4\n  0xffffffffffffffffffffffffffffffffffffffff\n  and\n  mul\n  or\n  swap1\n  sstore\n  pop\n    /* \"contracts/ProductStore.sol\":553:569  _depositContract */\n  dup1\n    /* \"contracts/ProductStore.sol\":528:550  depositContractAddress */\n  0x02\n  0x00\n    /* \"contracts/ProductStore.sol\":528:569  depositContractAddress = _depositContract */\n  0x0100\n  exp\n  dup2\n  sload\n  dup2\n  0xffffffffffffffffffffffffffffffffffffffff\n  mul\n  not\n  and\n  swap1\n  dup4\n  0xffffffffffffffffffffffffffffffffffffffff\n  and\n  mul\n  or\n  swap1\n  sstore\n  pop\n    /* \"contracts/ProductStore.sol\":354:576  constructor(address _identificationContract, address _depositContract) {... */\n  pop\n  pop\n    /* \"contracts/ProductStore.sol\":64:2514  contract ProductStore {... */\n  jump(tag_6)\n    /* \"#utility.yul\":88:205   */\ntag_8:\n    /* \"#utility.yul\":197:198   */\n  0x00\n    /* \"#utility.yul\":194:195   */\n  dup1\n    /* \"#utility.yul\":187:199   */\n  revert\n    /* \"#utility.yul\":334:460   */\ntag_10:\n    /* \"#utility.yul\":371:378   */\n  0x00\n    /* \"#utility.yul\":411:453   */\n  0xffffffffffffffffffffffffffffffffffffffff\n    /* \"#utility.yul\":404:409   */\n  dup3\n    /* \"#utility.yul\":400:454   */\n  and\n    /* \"#utility.yul\":389:454   */\n  swap1\n  pop\n    /* \"#utility.yul\":334:460   */\n  swap2\n  swap1\n  pop\n  jump\t// out\n    /* \"#utility.yul\":466:562   */\ntag_11:\n    /* \"#utility.yul\":503:510   */\n  0x00\n    /* \"#utility.yul\":532:556   */\n  tag_20\n    /* \"#utility.yul\":550:555   */\n  dup3\n    /* \"#utility.yul\":532:556   */\n  tag_10\n  jump\t// in\ntag_20:\n    /* \"#utility.yul\":521:556   */\n  swap1\n  pop\n    /* \"#utility.yul\":466:562   */\n  swap2\n  swap1\n  pop\n  jump\t// out\n    /* \"#utility.yul\":568:690   */\ntag_12:\n    /* \"#utility.yul\":641:665   */\n  tag_22\n    /* \"#utility.yul\":659:664   */\n  dup2\n    /* \"#utility.yul\":641:665   */\n  tag_11\n  jump\t// in\ntag_22:\n    /* \"#utility.yul\":634:639   */\n  dup2\n    /* \"#utility.yul\":631:666   */\n  eq\n    /* \"#utility.yul\":621:684   */\n  tag_23\n  jumpi\n    /* \"#utility.yul\":680:681   */\n  0x00\n    /* \"#utility.yul\":677:678   */\n  dup1\n    /* \"#utility.yul\":670:682   */\n  revert\n    /* \"#utility.yul\":621:684   */\ntag_23:\n    /* \"#utility.yul\":568:690   */\n  pop\n  jump\t// out\n    /* \"#utility.yul\":696:839   */\ntag_13:\n    /* \"#utility.yul\":753:758   */\n  0x00\n    /* \"#utility.yul\":784:790   */\n  dup2\n    /* \"#utility.yul\":778:791   */\n  mload\n    /* \"#utility.yul\":769:791   */\n  swap1\n  pop\n    /* \"#utility.yul\":800:833   */\n  tag_25\n    /* \"#utility.yul\":827:832   */\n  dup2\n    /* \"#utility.yul\":800:833   */\n  tag_12\n  jump\t// in\ntag_25:\n    /* \"#utility.yul\":696:839   */\n  swap3\n  swap2\n  pop\n  pop\n  jump\t// out\n    /* \"#utility.yul\":845:1352   */\ntag_3:\n    /* \"#utility.yul\":924:930   */\n  0x00\n    /* \"#utility.yul\":932:938   */\n  dup1\n    /* \"#utility.yul\":981:983   */\n  0x40\n    /* \"#utility.yul\":969:978   */\n  dup4\n    /* \"#utility.yul\":960:967   */\n  dup6\n    /* \"#utility.yul\":956:979   */\n  sub\n    /* \"#utility.yul\":952:984   */\n  slt\n    /* \"#utility.yul\":949:1068   */\n  iszero\n  tag_27\n  jumpi\n    /* \"#utility.yul\":987:1066   */\n  tag_28\n  tag_8\n  jump\t// in\ntag_28:\n    /* \"#utility.yul\":949:1068   */\ntag_27:\n    /* \"#utility.yul\":1107:1108   */\n  0x00\n    /* \"#utility.yul\":1132:1196   */\n  tag_29\n    /* \"#utility.yul\":1188:1195   */\n  dup6\n    /* \"#utility.yul\":1179:1185   */\n  dup3\n    /* \"#utility.yul\":1168:1177   */\n  dup7\n    /* \"#utility.yul\":1164:1186   */\n  add\n    /* \"#utility.yul\":1132:1196   */\n  tag_13\n  jump\t// in\ntag_29:\n    /* \"#utility.yul\":1122:1196   */\n  swap3\n  pop\n    /* \"#utility.yul\":1078:1206   */\n  pop\n    /* \"#utility.yul\":1245:1247   */\n  0x20\n    /* \"#utility.yul\":1271:1335   */\n  tag_30\n    /* \"#utility.yul\":1327:1334   */\n  dup6\n    /* \"#utility.yul\":1318:1324   */\n  dup3\n    /* \"#utility.yul\":1307:1316   */\n  dup7\n    /* \"#utility.yul\":1303:1325   */\n  add\n    /* \"#utility.yul\":1271:1335   */\n  tag_13\n  jump\t// in\ntag_30:\n    /* \"#utility.yul\":1261:1335   */\n  swap2\n  pop\n    /* \"#utility.yul\":1216:1345   */\n  pop\n    /* \"#utility.yul\":845:1352   */\n  swap3\n  pop\n  swap3\n  swap1\n  pop\n  jump\t// out\n    /* \"contracts/ProductStore.sol\":64:2514  contract ProductStore {... */\ntag_6:\n  dataSize(sub_0)\n  dup1\n  dataOffset(sub_0)\n  0x00\n  codecopy\n  0x00\n  return\nstop\n\nsub_0: assembly {\n        /* \"contracts/ProductStore.sol\":64:2514  contract ProductStore {... */\n      mstore(0x40, 0x80)\n      jumpi(tag_1, lt(calldatasize, 0x04))\n      shr(0xe0, calldataload(0x00))\n      dup1\n      0x788e72a5\n      gt\n      tag_10\n      jumpi\n      dup1\n      0x788e72a5\n      eq\n      tag_6\n      jumpi\n      dup1\n      0x88bac96d\n      eq\n      tag_7\n      jumpi\n      dup1\n      0x8da5cb5b\n      eq\n      tag_8\n      jumpi\n      dup1\n      0xd45fb2c4\n      eq\n      tag_9\n      jumpi\n      jump(tag_1)\n    tag_10:\n      dup1\n      0x0162df93\n      eq\n      tag_2\n      jumpi\n      dup1\n      0x14db1271\n      eq\n      tag_3\n      jumpi\n      dup1\n      0x2a4dbd2b\n      eq\n      tag_4\n      jumpi\n      dup1\n      0x58148048\n      eq\n      tag_5\n      jumpi\n    tag_1:\n      0x00\n      dup1\n      revert\n        /* \"contracts/ProductStore.sol\":1527:1667  function checkProductAvailability(bytes32 _productId) public view returns (uint) {... */\n    tag_2:\n      callvalue\n      dup1\n      iszero\n      tag_11\n      jumpi\n      0x00\n      dup1\n      revert\n    tag_11:\n      pop\n      tag_12\n      0x04\n      dup1\n      calldatasize\n      sub\n      dup2\n      add\n      swap1\n      tag_13\n      swap2\n      swap1\n      tag_14\n      jump\t// in\n    tag_13:\n      tag_15\n      jump\t// in\n    tag_12:\n      mload(0x40)\n      tag_16\n      swap2\n      swap1\n      tag_17\n      jump\t// in\n    tag_16:\n      mload(0x40)\n      dup1\n      swap2\n      sub\n      swap1\n      return\n        /* \"contracts/ProductStore.sol\":118:162  address public identificationContractAddress */\n    tag_3:\n      callvalue\n      dup1\n      iszero\n      tag_18\n      jumpi\n      0x00\n      dup1\n      revert\n    tag_18:\n      pop\n      tag_19\n      tag_20\n      jump\t// in\n    tag_19:\n      mload(0x40)\n      tag_21\n      swap2\n      swap1\n      tag_22\n      jump\t// in\n    tag_21:\n      mload(0x40)\n      dup1\n      swap2\n      sub\n      swap1\n      return\n        /* \"contracts/ProductStore.sol\":168:205  address public depositContractAddress */\n    tag_4:\n      callvalue\n      dup1\n      iszero\n      tag_23\n      jumpi\n      0x00\n      dup1\n      revert\n    tag_23:\n      pop\n      tag_24\n      tag_25\n      jump\t// in\n    tag_24:\n      mload(0x40)\n      tag_26\n      swap2\n      swap1\n      tag_22\n      jump\t// in\n    tag_26:\n      mload(0x40)\n      dup1\n      swap2\n      sub\n      swap1\n      return\n        /* \"contracts/ProductStore.sol\":1299:1521  function setProductPrice(bytes32 _productId, uint _pricePerUnit) public onlyAuthorizedProducer(_productId) {... */\n    tag_5:\n      callvalue\n      dup1\n      iszero\n      tag_27\n      jumpi\n      0x00\n      dup1\n      revert\n    tag_27:\n      pop\n      tag_28\n      0x04\n      dup1\n      calldatasize\n      sub\n      dup2\n      add\n      swap1\n      tag_29\n      swap2\n      swap1\n      tag_30\n      jump\t// in\n    tag_29:\n      tag_31\n      jump\t// in\n    tag_28:\n      stop\n        /* \"contracts/ProductStore.sol\":1673:2512  function purchaseProduct(bytes32 _productId, uint _quantity) public payable {... */\n    tag_6:\n      tag_32\n      0x04\n      dup1\n      calldatasize\n      sub\n      dup2\n      add\n      swap1\n      tag_33\n      swap2\n      swap1\n      tag_30\n      jump\t// in\n    tag_33:\n      tag_34\n      jump\t// in\n    tag_32:\n      stop\n        /* \"contracts/ProductStore.sol\":1006:1285  function addProductToStore(bytes32 _productId, uint _pricePerUnit, uint _quantity) public onlyAuthorizedProducer(_productId) {... */\n    tag_7:\n      callvalue\n      dup1\n      iszero\n      tag_35\n      jumpi\n      0x00\n      dup1\n      revert\n    tag_35:\n      pop\n      tag_36\n      0x04\n      dup1\n      calldatasize\n      sub\n      dup2\n      add\n      swap1\n      tag_37\n      swap2\n      swap1\n      tag_38\n      jump\t// in\n    tag_37:\n      tag_39\n      jump\t// in\n    tag_36:\n      stop\n        /* \"contracts/ProductStore.sol\":92:112  address public owner */\n    tag_8:\n      callvalue\n      dup1\n      iszero\n      tag_40\n      jumpi\n      0x00\n      dup1\n      revert\n    tag_40:\n      pop\n      tag_41\n      tag_42\n      jump\t// in\n    tag_41:\n      mload(0x40)\n      tag_43\n      swap2\n      swap1\n      tag_22\n      jump\t// in\n    tag_43:\n      mload(0x40)\n      dup1\n      swap2\n      sub\n      swap1\n      return\n        /* \"contracts/ProductStore.sol\":298:347  mapping(bytes32 => Product) public storeInventory */\n    tag_9:\n      callvalue\n      dup1\n      iszero\n      tag_44\n      jumpi\n      0x00\n      dup1\n      revert\n    tag_44:\n      pop\n      tag_45\n      0x04\n      dup1\n      calldatasize\n      sub\n      dup2\n      add\n      swap1\n      tag_46\n      swap2\n      swap1\n      tag_14\n      jump\t// in\n    tag_46:\n      tag_47\n      jump\t// in\n    tag_45:\n      mload(0x40)\n      tag_48\n      swap3\n      swap2\n      swap1\n      tag_49\n      jump\t// in\n    tag_48:\n      mload(0x40)\n      dup1\n      swap2\n      sub\n      swap1\n      return\n        /* \"contracts/ProductStore.sol\":1527:1667  function checkProductAvailability(bytes32 _productId) public view returns (uint) {... */\n    tag_15:\n        /* \"contracts/ProductStore.sol\":1602:1606  uint */\n      0x00\n        /* \"contracts/ProductStore.sol\":1625:1639  storeInventory */\n      0x03\n        /* \"contracts/ProductStore.sol\":1625:1651  storeInventory[_productId] */\n      0x00\n        /* \"contracts/ProductStore.sol\":1640:1650  _productId */\n      dup4\n        /* \"contracts/ProductStore.sol\":1625:1651  storeInventory[_productId] */\n      dup2\n      mstore\n      0x20\n      add\n      swap1\n      dup2\n      mstore\n      0x20\n      add\n      0x00\n      keccak256\n        /* \"contracts/ProductStore.sol\":1625:1660  storeInventory[_productId].quantity */\n      0x01\n      add\n      sload\n        /* \"contracts/ProductStore.sol\":1618:1660  return storeInventory[_productId].quantity */\n      swap1\n      pop\n        /* \"contracts/ProductStore.sol\":1527:1667  function checkProductAvailability(bytes32 _productId) public view returns (uint) {... */\n      swap2\n      swap1\n      pop\n      jump\t// out\n        /* \"contracts/ProductStore.sol\":118:162  address public identificationContractAddress */\n    tag_20:\n      0x01\n      0x00\n      swap1\n      sload\n      swap1\n      0x0100\n      exp\n      swap1\n      div\n      0xffffffffffffffffffffffffffffffffffffffff\n      and\n      dup2\n      jump\t// out\n        /* \"contracts/ProductStore.sol\":168:205  address public depositContractAddress */\n    tag_25:\n      0x02\n      0x00\n      swap1\n      sload\n      swap1\n      0x0100\n      exp\n      swap1\n      div\n      0xffffffffffffffffffffffffffffffffffffffff\n      and\n      dup2\n      jump\t// out\n        /* \"contracts/ProductStore.sol\":1299:1521  function setProductPrice(bytes32 _productId, uint _pricePerUnit) public onlyAuthorizedProducer(_productId) {... */\n    tag_31:\n        /* \"contracts/ProductStore.sol\":1394:1404  _productId */\n      dup2\n        /* \"contracts/ProductStore.sol\":769:792  address producerAddress */\n      0x00\n        /* \"contracts/ProductStore.sol\":822:851  identificationContractAddress */\n      0x01\n      0x00\n      swap1\n      sload\n      swap1\n      0x0100\n      exp\n      swap1\n      div\n      0xffffffffffffffffffffffffffffffffffffffff\n      and\n        /* \"contracts/ProductStore.sol\":800:867  ProductIdentification(identificationContractAddress).getProductInfo */\n      0xffffffffffffffffffffffffffffffffffffffff\n      and\n      0x5cbd47e3\n        /* \"contracts/ProductStore.sol\":868:878  _productId */\n      dup4\n        /* \"contracts/ProductStore.sol\":800:879  ProductIdentification(identificationContractAddress).getProductInfo(_productId) */\n      mload(0x40)\n      dup3\n      0xffffffff\n      and\n      0xe0\n      shl\n      dup2\n      mstore\n      0x04\n      add\n      tag_52\n      swap2\n      swap1\n      tag_53\n      jump\t// in\n    tag_52:\n      0x00\n      mload(0x40)\n      dup1\n      dup4\n      sub\n      dup2\n      dup7\n      gas\n      staticcall\n      iszero\n      dup1\n      iszero\n      tag_55\n      jumpi\n      returndatasize\n      0x00\n      dup1\n      returndatacopy\n      revert(0x00, returndatasize)\n    tag_55:\n      pop\n      pop\n      pop\n      pop\n      mload(0x40)\n      returndatasize\n      0x00\n      dup3\n      returndatacopy\n      returndatasize\n      not(0x1f)\n      0x1f\n      dup3\n      add\n      and\n      dup3\n      add\n      dup1\n      0x40\n      mstore\n      pop\n      dup2\n      add\n      swap1\n      tag_56\n      swap2\n      swap1\n      tag_57\n      jump\t// in\n    tag_56:\n        /* \"contracts/ProductStore.sol\":768:879  (address producerAddress, , ) = ProductIdentification(identificationContractAddress).getProductInfo(_productId) */\n      pop\n      pop\n      swap1\n      pop\n        /* \"contracts/ProductStore.sol\":916:926  msg.sender */\n      caller\n        /* \"contracts/ProductStore.sol\":897:926  producerAddress == msg.sender */\n      0xffffffffffffffffffffffffffffffffffffffff\n      and\n        /* \"contracts/ProductStore.sol\":897:912  producerAddress */\n      dup2\n        /* \"contracts/ProductStore.sol\":897:926  producerAddress == msg.sender */\n      0xffffffffffffffffffffffffffffffffffffffff\n      and\n      eq\n        /* \"contracts/ProductStore.sol\":889:982  require(producerAddress == msg.sender, \"You are not an authorized producer for this product\") */\n      tag_58\n      jumpi\n      mload(0x40)\n      0x08c379a000000000000000000000000000000000000000000000000000000000\n      dup2\n      mstore\n      0x04\n      add\n      tag_59\n      swap1\n      tag_60\n      jump\t// in\n    tag_59:\n      mload(0x40)\n      dup1\n      swap2\n      sub\n      swap1\n      revert\n    tag_58:\n        /* \"contracts/ProductStore.sol\":1416:1439  Product storage product */\n      0x00\n        /* \"contracts/ProductStore.sol\":1442:1456  storeInventory */\n      0x03\n        /* \"contracts/ProductStore.sol\":1442:1468  storeInventory[_productId] */\n      0x00\n        /* \"contracts/ProductStore.sol\":1457:1467  _productId */\n      dup7\n        /* \"contracts/ProductStore.sol\":1442:1468  storeInventory[_productId] */\n      dup2\n      mstore\n      0x20\n      add\n      swap1\n      dup2\n      mstore\n      0x20\n      add\n      0x00\n      keccak256\n        /* \"contracts/ProductStore.sol\":1416:1468  Product storage product = storeInventory[_productId] */\n      swap1\n      pop\n        /* \"contracts/ProductStore.sol\":1501:1514  _pricePerUnit */\n      dup4\n        /* \"contracts/ProductStore.sol\":1478:1485  product */\n      dup2\n        /* \"contracts/ProductStore.sol\":1478:1498  product.pricePerUnit */\n      0x00\n      add\n        /* \"contracts/ProductStore.sol\":1478:1514  product.pricePerUnit = _pricePerUnit */\n      dup2\n      swap1\n      sstore\n      pop\n        /* \"contracts/ProductStore.sol\":1406:1521  {... */\n      pop\n        /* \"contracts/ProductStore.sol\":758:1000  {... */\n      pop\n        /* \"contracts/ProductStore.sol\":1299:1521  function setProductPrice(bytes32 _productId, uint _pricePerUnit) public onlyAuthorizedProducer(_productId) {... */\n      pop\n      pop\n      pop\n      jump\t// out\n        /* \"contracts/ProductStore.sol\":1673:2512  function purchaseProduct(bytes32 _productId, uint _quantity) public payable {... */\n    tag_34:\n        /* \"contracts/ProductStore.sol\":1759:1782  Product storage product */\n      0x00\n        /* \"contracts/ProductStore.sol\":1785:1799  storeInventory */\n      0x03\n        /* \"contracts/ProductStore.sol\":1785:1811  storeInventory[_productId] */\n      0x00\n        /* \"contracts/ProductStore.sol\":1800:1810  _productId */\n      dup5\n        /* \"contracts/ProductStore.sol\":1785:1811  storeInventory[_productId] */\n      dup2\n      mstore\n      0x20\n      add\n      swap1\n      dup2\n      mstore\n      0x20\n      add\n      0x00\n      keccak256\n        /* \"contracts/ProductStore.sol\":1759:1811  Product storage product = storeInventory[_productId] */\n      swap1\n      pop\n        /* \"contracts/ProductStore.sol\":1821:1836  uint totalPrice */\n      0x00\n        /* \"contracts/ProductStore.sol\":1862:1871  _quantity */\n      dup3\n        /* \"contracts/ProductStore.sol\":1839:1846  product */\n      dup3\n        /* \"contracts/ProductStore.sol\":1839:1859  product.pricePerUnit */\n      0x00\n      add\n      sload\n        /* \"contracts/ProductStore.sol\":1839:1871  product.pricePerUnit * _quantity */\n      tag_63\n      swap2\n      swap1\n      tag_64\n      jump\t// in\n    tag_63:\n        /* \"contracts/ProductStore.sol\":1821:1871  uint totalPrice = product.pricePerUnit * _quantity */\n      swap1\n      pop\n        /* \"contracts/ProductStore.sol\":1902:1912  totalPrice */\n      dup1\n        /* \"contracts/ProductStore.sol\":1889:1898  msg.value */\n      callvalue\n        /* \"contracts/ProductStore.sol\":1889:1912  msg.value >= totalPrice */\n      lt\n      iszero\n        /* \"contracts/ProductStore.sol\":1881:1947  require(msg.value >= totalPrice, \"Insufficient funds to purchase\") */\n      tag_65\n      jumpi\n      mload(0x40)\n      0x08c379a000000000000000000000000000000000000000000000000000000000\n      dup2\n      mstore\n      0x04\n      add\n      tag_66\n      swap1\n      tag_67\n      jump\t// in\n    tag_66:\n      mload(0x40)\n      dup1\n      swap2\n      sub\n      swap1\n      revert\n    tag_65:\n        /* \"contracts/ProductStore.sol\":1985:1994  _quantity */\n      dup3\n        /* \"contracts/ProductStore.sol\":1965:1972  product */\n      dup3\n        /* \"contracts/ProductStore.sol\":1965:1981  product.quantity */\n      0x01\n      add\n      sload\n        /* \"contracts/ProductStore.sol\":1965:1994  product.quantity >= _quantity */\n      lt\n      iszero\n        /* \"contracts/ProductStore.sol\":1957:2043  require(product.quantity >= _quantity, \"Product not available in sufficient quantity\") */\n      tag_68\n      jumpi\n      mload(0x40)\n      0x08c379a000000000000000000000000000000000000000000000000000000000\n      dup2\n      mstore\n      0x04\n      add\n      tag_69\n      swap1\n      tag_70\n      jump\t// in\n    tag_69:\n      mload(0x40)\n      dup1\n      swap2\n      sub\n      swap1\n      revert\n    tag_68:\n        /* \"contracts/ProductStore.sol\":2082:2091  _quantity */\n      dup3\n        /* \"contracts/ProductStore.sol\":2062:2069  product */\n      dup3\n        /* \"contracts/ProductStore.sol\":2062:2078  product.quantity */\n      0x01\n      add\n      0x00\n        /* \"contracts/ProductStore.sol\":2062:2091  product.quantity -= _quantity */\n      dup3\n      dup3\n      sload\n      tag_71\n      swap2\n      swap1\n      tag_72\n      jump\t// in\n    tag_71:\n      swap3\n      pop\n      pop\n      dup2\n      swap1\n      sstore\n      pop\n        /* \"contracts/ProductStore.sol\":2165:2188  address producerAddress */\n      0x00\n        /* \"contracts/ProductStore.sol\":2218:2247  identificationContractAddress */\n      0x01\n      0x00\n      swap1\n      sload\n      swap1\n      0x0100\n      exp\n      swap1\n      div\n      0xffffffffffffffffffffffffffffffffffffffff\n      and\n        /* \"contracts/ProductStore.sol\":2196:2263  ProductIdentification(identificationContractAddress).getProductInfo */\n      0xffffffffffffffffffffffffffffffffffffffff\n      and\n      0x5cbd47e3\n        /* \"contracts/ProductStore.sol\":2264:2274  _productId */\n      dup7\n        /* \"contracts/ProductStore.sol\":2196:2275  ProductIdentification(identificationContractAddress).getProductInfo(_productId) */\n      mload(0x40)\n      dup3\n      0xffffffff\n      and\n      0xe0\n      shl\n      dup2\n      mstore\n      0x04\n      add\n      tag_73\n      swap2\n      swap1\n      tag_53\n      jump\t// in\n    tag_73:\n      0x00\n      mload(0x40)\n      dup1\n      dup4\n      sub\n      dup2\n      dup7\n      gas\n      staticcall\n      iszero\n      dup1\n      iszero\n      tag_75\n      jumpi\n      returndatasize\n      0x00\n      dup1\n      returndatacopy\n      revert(0x00, returndatasize)\n    tag_75:\n      pop\n      pop\n      pop\n      pop\n      mload(0x40)\n      returndatasize\n      0x00\n      dup3\n      returndatacopy\n      returndatasize\n      not(0x1f)\n      0x1f\n      dup3\n      add\n      and\n      dup3\n      add\n      dup1\n      0x40\n      mstore\n      pop\n      dup2\n      add\n      swap1\n      tag_76\n      swap2\n      swap1\n      tag_57\n      jump\t// in\n    tag_76:\n        /* \"contracts/ProductStore.sol\":2164:2275  (address producerAddress, , ) = ProductIdentification(identificationContractAddress).getProductInfo(_productId) */\n      pop\n      pop\n      swap1\n      pop\n        /* \"contracts/ProductStore.sol\":2293:2308  producerAddress */\n      dup1\n        /* \"contracts/ProductStore.sol\":2285:2318  payable(producerAddress).transfer */\n      0xffffffffffffffffffffffffffffffffffffffff\n      and\n        /* \"contracts/ProductStore.sol\":2285:2334  payable(producerAddress).transfer(totalPrice / 2) */\n      0x08fc\n        /* \"contracts/ProductStore.sol\":2332:2333  2 */\n      0x02\n        /* \"contracts/ProductStore.sol\":2319:2329  totalPrice */\n      dup5\n        /* \"contracts/ProductStore.sol\":2319:2333  totalPrice / 2 */\n      tag_77\n      swap2\n      swap1\n      tag_78\n      jump\t// in\n    tag_77:\n        /* \"contracts/ProductStore.sol\":2285:2334  payable(producerAddress).transfer(totalPrice / 2) */\n      swap1\n      dup2\n      iszero\n      mul\n      swap1\n      mload(0x40)\n      0x00\n      mload(0x40)\n      dup1\n      dup4\n      sub\n      dup2\n      dup6\n      dup9\n      dup9\n      call\n      swap4\n      pop\n      pop\n      pop\n      pop\n      iszero\n      dup1\n      iszero\n      tag_80\n      jumpi\n      returndatasize\n      0x00\n      dup1\n      returndatacopy\n      revert(0x00, returndatasize)\n    tag_80:\n      pop\n        /* \"contracts/ProductStore.sol\":2417:2427  totalPrice */\n      dup2\n        /* \"contracts/ProductStore.sol\":2405:2414  msg.value */\n      callvalue\n        /* \"contracts/ProductStore.sol\":2405:2427  msg.value > totalPrice */\n      gt\n        /* \"contracts/ProductStore.sol\":2401:2506  if (msg.value > totalPrice) {... */\n      iszero\n      tag_81\n      jumpi\n        /* \"contracts/ProductStore.sol\":2451:2461  msg.sender */\n      caller\n        /* \"contracts/ProductStore.sol\":2443:2471  payable(msg.sender).transfer */\n      0xffffffffffffffffffffffffffffffffffffffff\n      and\n        /* \"contracts/ProductStore.sol\":2443:2495  payable(msg.sender).transfer(msg.value - totalPrice) */\n      0x08fc\n        /* \"contracts/ProductStore.sol\":2484:2494  totalPrice */\n      dup4\n        /* \"contracts/ProductStore.sol\":2472:2481  msg.value */\n      callvalue\n        /* \"contracts/ProductStore.sol\":2472:2494  msg.value - totalPrice */\n      tag_82\n      swap2\n      swap1\n      tag_72\n      jump\t// in\n    tag_82:\n        /* \"contracts/ProductStore.sol\":2443:2495  payable(msg.sender).transfer(msg.value - totalPrice) */\n      swap1\n      dup2\n      iszero\n      mul\n      swap1\n      mload(0x40)\n      0x00\n      mload(0x40)\n      dup1\n      dup4\n      sub\n      dup2\n      dup6\n      dup9\n      dup9\n      call\n      swap4\n      pop\n      pop\n      pop\n      pop\n      iszero\n      dup1\n      iszero\n      tag_84\n      jumpi\n      returndatasize\n      0x00\n      dup1\n      returndatacopy\n      revert(0x00, returndatasize)\n    tag_84:\n      pop\n        /* \"contracts/ProductStore.sol\":2401:2506  if (msg.value > totalPrice) {... */\n    tag_81:\n        /* \"contracts/ProductStore.sol\":1749:2512  {... */\n      pop\n      pop\n      pop\n        /* \"contracts/ProductStore.sol\":1673:2512  function purchaseProduct(bytes32 _productId, uint _quantity) public payable {... */\n      pop\n      pop\n      jump\t// out\n        /* \"contracts/ProductStore.sol\":1006:1285  function addProductToStore(bytes32 _productId, uint _pricePerUnit, uint _quantity) public onlyAuthorizedProducer(_productId) {... */\n    tag_39:\n        /* \"contracts/ProductStore.sol\":1119:1129  _productId */\n      dup3\n        /* \"contracts/ProductStore.sol\":769:792  address producerAddress */\n      0x00\n        /* \"contracts/ProductStore.sol\":822:851  identificationContractAddress */\n      0x01\n      0x00\n      swap1\n      sload\n      swap1\n      0x0100\n      exp\n      swap1\n      div\n      0xffffffffffffffffffffffffffffffffffffffff\n      and\n        /* \"contracts/ProductStore.sol\":800:867  ProductIdentification(identificationContractAddress).getProductInfo */\n      0xffffffffffffffffffffffffffffffffffffffff\n      and\n      0x5cbd47e3\n        /* \"contracts/ProductStore.sol\":868:878  _productId */\n      dup4\n        /* \"contracts/ProductStore.sol\":800:879  ProductIdentification(identificationContractAddress).getProductInfo(_productId) */\n      mload(0x40)\n      dup3\n      0xffffffff\n      and\n      0xe0\n      shl\n      dup2\n      mstore\n      0x04\n      add\n      tag_86\n      swap2\n      swap1\n      tag_53\n      jump\t// in\n    tag_86:\n      0x00\n      mload(0x40)\n      dup1\n      dup4\n      sub\n      dup2\n      dup7\n      gas\n      staticcall\n      iszero\n      dup1\n      iszero\n      tag_88\n      jumpi\n      returndatasize\n      0x00\n      dup1\n      returndatacopy\n      revert(0x00, returndatasize)\n    tag_88:\n      pop\n      pop\n      pop\n      pop\n      mload(0x40)\n      returndatasize\n      0x00\n      dup3\n      returndatacopy\n      returndatasize\n      not(0x1f)\n      0x1f\n      dup3\n      add\n      and\n      dup3\n      add\n      dup1\n      0x40\n      mstore\n      pop\n      dup2\n      add\n      swap1\n      tag_89\n      swap2\n      swap1\n      tag_57\n      jump\t// in\n    tag_89:\n        /* \"contracts/ProductStore.sol\":768:879  (address producerAddress, , ) = ProductIdentification(identificationContractAddress).getProductInfo(_productId) */\n      pop\n      pop\n      swap1\n      pop\n        /* \"contracts/ProductStore.sol\":916:926  msg.sender */\n      caller\n        /* \"contracts/ProductStore.sol\":897:926  producerAddress == msg.sender */\n      0xffffffffffffffffffffffffffffffffffffffff\n      and\n        /* \"contracts/ProductStore.sol\":897:912  producerAddress */\n      dup2\n        /* \"contracts/ProductStore.sol\":897:926  producerAddress == msg.sender */\n      0xffffffffffffffffffffffffffffffffffffffff\n      and\n      eq\n        /* \"contracts/ProductStore.sol\":889:982  require(producerAddress == msg.sender, \"You are not an authorized producer for this product\") */\n      tag_90\n      jumpi\n      mload(0x40)\n      0x08c379a000000000000000000000000000000000000000000000000000000000\n      dup2\n      mstore\n      0x04\n      add\n      tag_91\n      swap1\n      tag_60\n      jump\t// in\n    tag_91:\n      mload(0x40)\n      dup1\n      swap2\n      sub\n      swap1\n      revert\n    tag_90:\n        /* \"contracts/ProductStore.sol\":1141:1164  Product storage product */\n      0x00\n        /* \"contracts/ProductStore.sol\":1167:1181  storeInventory */\n      0x03\n        /* \"contracts/ProductStore.sol\":1167:1193  storeInventory[_productId] */\n      0x00\n        /* \"contracts/ProductStore.sol\":1182:1192  _productId */\n      dup8\n        /* \"contracts/ProductStore.sol\":1167:1193  storeInventory[_productId] */\n      dup2\n      mstore\n      0x20\n      add\n      swap1\n      dup2\n      mstore\n      0x20\n      add\n      0x00\n      keccak256\n        /* \"contracts/ProductStore.sol\":1141:1193  Product storage product = storeInventory[_productId] */\n      swap1\n      pop\n        /* \"contracts/ProductStore.sol\":1226:1239  _pricePerUnit */\n      dup5\n        /* \"contracts/ProductStore.sol\":1203:1210  product */\n      dup2\n        /* \"contracts/ProductStore.sol\":1203:1223  product.pricePerUnit */\n      0x00\n      add\n        /* \"contracts/ProductStore.sol\":1203:1239  product.pricePerUnit = _pricePerUnit */\n      dup2\n      swap1\n      sstore\n      pop\n        /* \"contracts/ProductStore.sol\":1269:1278  _quantity */\n      dup4\n        /* \"contracts/ProductStore.sol\":1249:1256  product */\n      dup2\n        /* \"contracts/ProductStore.sol\":1249:1265  product.quantity */\n      0x01\n      add\n      0x00\n        /* \"contracts/ProductStore.sol\":1249:1278  product.quantity += _quantity */\n      dup3\n      dup3\n      sload\n      tag_93\n      swap2\n      swap1\n      tag_94\n      jump\t// in\n    tag_93:\n      swap3\n      pop\n      pop\n      dup2\n      swap1\n      sstore\n      pop\n        /* \"contracts/ProductStore.sol\":1131:1285  {... */\n      pop\n        /* \"contracts/ProductStore.sol\":758:1000  {... */\n      pop\n        /* \"contracts/ProductStore.sol\":1006:1285  function addProductToStore(bytes32 _productId, uint _pricePerUnit, uint _quantity) public onlyAuthorizedProducer(_productId) {... */\n      pop\n      pop\n      pop\n      pop\n      jump\t// out\n        /* \"contracts/ProductStore.sol\":92:112  address public owner */\n    tag_42:\n      0x00\n      dup1\n      sload\n      swap1\n      0x0100\n      exp\n      swap1\n      div\n      0xffffffffffffffffffffffffffffffffffffffff\n      and\n      dup2\n      jump\t// out\n        /* \"contracts/ProductStore.sol\":298:347  mapping(bytes32 => Product) public storeInventory */\n    tag_47:\n      mstore(0x20, 0x03)\n      dup1\n      0x00\n      mstore\n      keccak256(0x00, 0x40)\n      0x00\n      swap2\n      pop\n      swap1\n      pop\n      dup1\n      0x00\n      add\n      sload\n      swap1\n      dup1\n      0x01\n      add\n      sload\n      swap1\n      pop\n      dup3\n      jump\t// out\n        /* \"#utility.yul\":7:82   */\n    tag_95:\n        /* \"#utility.yul\":40:46   */\n      0x00\n        /* \"#utility.yul\":73:75   */\n      0x40\n        /* \"#utility.yul\":67:76   */\n      mload\n        /* \"#utility.yul\":57:76   */\n      swap1\n      pop\n        /* \"#utility.yul\":7:82   */\n      swap1\n      jump\t// out\n        /* \"#utility.yul\":88:205   */\n    tag_96:\n        /* \"#utility.yul\":197:198   */\n      0x00\n        /* \"#utility.yul\":194:195   */\n      dup1\n        /* \"#utility.yul\":187:199   */\n      revert\n        /* \"#utility.yul\":211:328   */\n    tag_97:\n        /* \"#utility.yul\":320:321   */\n      0x00\n        /* \"#utility.yul\":317:318   */\n      dup1\n        /* \"#utility.yul\":310:322   */\n      revert\n        /* \"#utility.yul\":334:411   */\n    tag_98:\n        /* \"#utility.yul\":371:378   */\n      0x00\n        /* \"#utility.yul\":400:405   */\n      dup2\n        /* \"#utility.yul\":389:405   */\n      swap1\n      pop\n        /* \"#utility.yul\":334:411   */\n      swap2\n      swap1\n      pop\n      jump\t// out\n        /* \"#utility.yul\":417:539   */\n    tag_99:\n        /* \"#utility.yul\":490:514   */\n      tag_137\n        /* \"#utility.yul\":508:513   */\n      dup2\n        /* \"#utility.yul\":490:514   */\n      tag_98\n      jump\t// in\n    tag_137:\n        /* \"#utility.yul\":483:488   */\n      dup2\n        /* \"#utility.yul\":480:515   */\n      eq\n        /* \"#utility.yul\":470:533   */\n      tag_138\n      jumpi\n        /* \"#utility.yul\":529:530   */\n      0x00\n        /* \"#utility.yul\":526:527   */\n      dup1\n        /* \"#utility.yul\":519:531   */\n      revert\n        /* \"#utility.yul\":470:533   */\n    tag_138:\n        /* \"#utility.yul\":417:539   */\n      pop\n      jump\t// out\n        /* \"#utility.yul\":545:684   */\n    tag_100:\n        /* \"#utility.yul\":591:596   */\n      0x00\n        /* \"#utility.yul\":629:635   */\n      dup2\n        /* \"#utility.yul\":616:636   */\n      calldataload\n        /* \"#utility.yul\":607:636   */\n      swap1\n      pop\n        /* \"#utility.yul\":645:678   */\n      tag_140\n        /* \"#utility.yul\":672:677   */\n      dup2\n        /* \"#utility.yul\":645:678   */\n      tag_99\n      jump\t// in\n    tag_140:\n        /* \"#utility.yul\":545:684   */\n      swap3\n      swap2\n      pop\n      pop\n      jump\t// out\n        /* \"#utility.yul\":690:1019   */\n    tag_14:\n        /* \"#utility.yul\":749:755   */\n      0x00\n        /* \"#utility.yul\":798:800   */\n      0x20\n        /* \"#utility.yul\":786:795   */\n      dup3\n        /* \"#utility.yul\":777:784   */\n      dup5\n        /* \"#utility.yul\":773:796   */\n      sub\n        /* \"#utility.yul\":769:801   */\n      slt\n        /* \"#utility.yul\":766:885   */\n      iszero\n      tag_142\n      jumpi\n        /* \"#utility.yul\":804:883   */\n      tag_143\n      tag_96\n      jump\t// in\n    tag_143:\n        /* \"#utility.yul\":766:885   */\n    tag_142:\n        /* \"#utility.yul\":924:925   */\n      0x00\n        /* \"#utility.yul\":949:1002   */\n      tag_144\n        /* \"#utility.yul\":994:1001   */\n      dup5\n        /* \"#utility.yul\":985:991   */\n      dup3\n        /* \"#utility.yul\":974:983   */\n      dup6\n        /* \"#utility.yul\":970:992   */\n      add\n        /* \"#utility.yul\":949:1002   */\n      tag_100\n      jump\t// in\n    tag_144:\n        /* \"#utility.yul\":939:1002   */\n      swap2\n      pop\n        /* \"#utility.yul\":895:1012   */\n      pop\n        /* \"#utility.yul\":690:1019   */\n      swap3\n      swap2\n      pop\n      pop\n      jump\t// out\n        /* \"#utility.yul\":1025:1102   */\n    tag_101:\n        /* \"#utility.yul\":1062:1069   */\n      0x00\n        /* \"#utility.yul\":1091:1096   */\n      dup2\n        /* \"#utility.yul\":1080:1096   */\n      swap1\n      pop\n        /* \"#utility.yul\":1025:1102   */\n      swap2\n      swap1\n      pop\n      jump\t// out\n        /* \"#utility.yul\":1108:1226   */\n    tag_102:\n        /* \"#utility.yul\":1195:1219   */\n      tag_147\n        /* \"#utility.yul\":1213:1218   */\n      dup2\n        /* \"#utility.yul\":1195:1219   */\n      tag_101\n      jump\t// in\n    tag_147:\n        /* \"#utility.yul\":1190:1193   */\n      dup3\n        /* \"#utility.yul\":1183:1220   */\n      mstore\n        /* \"#utility.yul\":1108:1226   */\n      pop\n      pop\n      jump\t// out\n        /* \"#utility.yul\":1232:1454   */\n    tag_17:\n        /* \"#utility.yul\":1325:1329   */\n      0x00\n        /* \"#utility.yul\":1363:1365   */\n      0x20\n        /* \"#utility.yul\":1352:1361   */\n      dup3\n        /* \"#utility.yul\":1348:1366   */\n      add\n        /* \"#utility.yul\":1340:1366   */\n      swap1\n      pop\n        /* \"#utility.yul\":1376:1447   */\n      tag_149\n        /* \"#utility.yul\":1444:1445   */\n      0x00\n        /* \"#utility.yul\":1433:1442   */\n      dup4\n        /* \"#utility.yul\":1429:1446   */\n      add\n        /* \"#utility.yul\":1420:1426   */\n      dup5\n        /* \"#utility.yul\":1376:1447   */\n      tag_102\n      jump\t// in\n    tag_149:\n        /* \"#utility.yul\":1232:1454   */\n      swap3\n      swap2\n      pop\n      pop\n      jump\t// out\n        /* \"#utility.yul\":1460:1586   */\n    tag_103:\n        /* \"#utility.yul\":1497:1504   */\n      0x00\n        /* \"#utility.yul\":1537:1579   */\n      0xffffffffffffffffffffffffffffffffffffffff\n        /* \"#utility.yul\":1530:1535   */\n      dup3\n        /* \"#utility.yul\":1526:1580   */\n      and\n        /* \"#utility.yul\":1515:1580   */\n      swap1\n      pop\n        /* \"#utility.yul\":1460:1586   */\n      swap2\n      swap1\n      pop\n      jump\t// out\n        /* \"#utility.yul\":1592:1688   */\n    tag_104:\n        /* \"#utility.yul\":1629:1636   */\n      0x00\n        /* \"#utility.yul\":1658:1682   */\n      tag_152\n        /* \"#utility.yul\":1676:1681   */\n      dup3\n        /* \"#utility.yul\":1658:1682   */\n      tag_103\n      jump\t// in\n    tag_152:\n        /* \"#utility.yul\":1647:1682   */\n      swap1\n      pop\n        /* \"#utility.yul\":1592:1688   */\n      swap2\n      swap1\n      pop\n      jump\t// out\n        /* \"#utility.yul\":1694:1812   */\n    tag_105:\n        /* \"#utility.yul\":1781:1805   */\n      tag_154\n        /* \"#utility.yul\":1799:1804   */\n      dup2\n        /* \"#utility.yul\":1781:1805   */\n      tag_104\n      jump\t// in\n    tag_154:\n        /* \"#utility.yul\":1776:1779   */\n      dup3\n        /* \"#utility.yul\":1769:1806   */\n      mstore\n        /* \"#utility.yul\":1694:1812   */\n      pop\n      pop\n      jump\t// out\n        /* \"#utility.yul\":1818:2040   */\n    tag_22:\n        /* \"#utility.yul\":1911:1915   */\n      0x00\n        /* \"#utility.yul\":1949:1951   */\n      0x20\n        /* \"#utility.yul\":1938:1947   */\n      dup3\n        /* \"#utility.yul\":1934:1952   */\n      add\n        /* \"#utility.yul\":1926:1952   */\n      swap1\n      pop\n        /* \"#utility.yul\":1962:2033   */\n      tag_156\n        /* \"#utility.yul\":2030:2031   */\n      0x00\n        /* \"#utility.yul\":2019:2028   */\n      dup4\n        /* \"#utility.yul\":2015:2032   */\n      add\n        /* \"#utility.yul\":2006:2012   */\n      dup5\n        /* \"#utility.yul\":1962:2033   */\n      tag_105\n      jump\t// in\n    tag_156:\n        /* \"#utility.yul\":1818:2040   */\n      swap3\n      swap2\n      pop\n      pop\n      jump\t// out\n        /* \"#utility.yul\":2046:2168   */\n    tag_106:\n        /* \"#utility.yul\":2119:2143   */\n      tag_158\n        /* \"#utility.yul\":2137:2142   */\n      dup2\n        /* \"#utility.yul\":2119:2143   */\n      tag_101\n      jump\t// in\n    tag_158:\n        /* \"#utility.yul\":2112:2117   */\n      dup2\n        /* \"#utility.yul\":2109:2144   */\n      eq\n        /* \"#utility.yul\":2099:2162   */\n      tag_159\n      jumpi\n        /* \"#utility.yul\":2158:2159   */\n      0x00\n        /* \"#utility.yul\":2155:2156   */\n      dup1\n        /* \"#utility.yul\":2148:2160   */\n      revert\n        /* \"#utility.yul\":2099:2162   */\n    tag_159:\n        /* \"#utility.yul\":2046:2168   */\n      pop\n      jump\t// out\n        /* \"#utility.yul\":2174:2313   */\n    tag_107:\n        /* \"#utility.yul\":2220:2225   */\n      0x00\n        /* \"#utility.yul\":2258:2264   */\n      dup2\n        /* \"#utility.yul\":2245:2265   */\n      calldataload\n        /* \"#utility.yul\":2236:2265   */\n      swap1\n      pop\n        /* \"#utility.yul\":2274:2307   */\n      tag_161\n        /* \"#utility.yul\":2301:2306   */\n      dup2\n        /* \"#utility.yul\":2274:2307   */\n      tag_106\n      jump\t// in\n    tag_161:\n        /* \"#utility.yul\":2174:2313   */\n      swap3\n      swap2\n      pop\n      pop\n      jump\t// out\n        /* \"#utility.yul\":2319:2793   */\n    tag_30:\n        /* \"#utility.yul\":2387:2393   */\n      0x00\n        /* \"#utility.yul\":2395:2401   */\n      dup1\n        /* \"#utility.yul\":2444:2446   */\n      0x40\n        /* \"#utility.yul\":2432:2441   */\n      dup4\n        /* \"#utility.yul\":2423:2430   */\n      dup6\n        /* \"#utility.yul\":2419:2442   */\n      sub\n        /* \"#utility.yul\":2415:2447   */\n      slt\n        /* \"#utility.yul\":2412:2531   */\n      iszero\n      tag_163\n      jumpi\n        /* \"#utility.yul\":2450:2529   */\n      tag_164\n      tag_96\n      jump\t// in\n    tag_164:\n        /* \"#utility.yul\":2412:2531   */\n    tag_163:\n        /* \"#utility.yul\":2570:2571   */\n      0x00\n        /* \"#utility.yul\":2595:2648   */\n      tag_165\n        /* \"#utility.yul\":2640:2647   */\n      dup6\n        /* \"#utility.yul\":2631:2637   */\n      dup3\n        /* \"#utility.yul\":2620:2629   */\n      dup7\n        /* \"#utility.yul\":2616:2638   */\n      add\n        /* \"#utility.yul\":2595:2648   */\n      tag_100\n      jump\t// in\n    tag_165:\n        /* \"#utility.yul\":2585:2648   */\n      swap3\n      pop\n        /* \"#utility.yul\":2541:2658   */\n      pop\n        /* \"#utility.yul\":2697:2699   */\n      0x20\n        /* \"#utility.yul\":2723:2776   */\n      tag_166\n        /* \"#utility.yul\":2768:2775   */\n      dup6\n        /* \"#utility.yul\":2759:2765   */\n      dup3\n        /* \"#utility.yul\":2748:2757   */\n      dup7\n        /* \"#utility.yul\":2744:2766   */\n      add\n        /* \"#utility.yul\":2723:2776   */\n      tag_107\n      jump\t// in\n    tag_166:\n        /* \"#utility.yul\":2713:2776   */\n      swap2\n      pop\n        /* \"#utility.yul\":2668:2786   */\n      pop\n        /* \"#utility.yul\":2319:2793   */\n      swap3\n      pop\n      swap3\n      swap1\n      pop\n      jump\t// out\n        /* \"#utility.yul\":2799:3418   */\n    tag_38:\n        /* \"#utility.yul\":2876:2882   */\n      0x00\n        /* \"#utility.yul\":2884:2890   */\n      dup1\n        /* \"#utility.yul\":2892:2898   */\n      0x00\n        /* \"#utility.yul\":2941:2943   */\n      0x60\n        /* \"#utility.yul\":2929:2938   */\n      dup5\n        /* \"#utility.yul\":2920:2927   */\n      dup7\n        /* \"#utility.yul\":2916:2939   */\n      sub\n        /* \"#utility.yul\":2912:2944   */\n      slt\n        /* \"#utility.yul\":2909:3028   */\n      iszero\n      tag_168\n      jumpi\n        /* \"#utility.yul\":2947:3026   */\n      tag_169\n      tag_96\n      jump\t// in\n    tag_169:\n        /* \"#utility.yul\":2909:3028   */\n    tag_168:\n        /* \"#utility.yul\":3067:3068   */\n      0x00\n        /* \"#utility.yul\":3092:3145   */\n      tag_170\n        /* \"#utility.yul\":3137:3144   */\n      dup7\n        /* \"#utility.yul\":3128:3134   */\n      dup3\n        /* \"#utility.yul\":3117:3126   */\n      dup8\n        /* \"#utility.yul\":3113:3135   */\n      add\n        /* \"#utility.yul\":3092:3145   */\n      tag_100\n      jump\t// in\n    tag_170:\n        /* \"#utility.yul\":3082:3145   */\n      swap4\n      pop\n        /* \"#utility.yul\":3038:3155   */\n      pop\n        /* \"#utility.yul\":3194:3196   */\n      0x20\n        /* \"#utility.yul\":3220:3273   */\n      tag_171\n        /* \"#utility.yul\":3265:3272   */\n      dup7\n        /* \"#utility.yul\":3256:3262   */\n      dup3\n        /* \"#utility.yul\":3245:3254   */\n      dup8\n        /* \"#utility.yul\":3241:3263   */\n      add\n        /* \"#utility.yul\":3220:3273   */\n      tag_107\n      jump\t// in\n    tag_171:\n        /* \"#utility.yul\":3210:3273   */\n      swap3\n      pop\n        /* \"#utility.yul\":3165:3283   */\n      pop\n        /* \"#utility.yul\":3322:3324   */\n      0x40\n        /* \"#utility.yul\":3348:3401   */\n      tag_172\n        /* \"#utility.yul\":3393:3400   */\n      dup7\n        /* \"#utility.yul\":3384:3390   */\n      dup3\n        /* \"#utility.yul\":3373:3382   */\n      dup8\n        /* \"#utility.yul\":3369:3391   */\n      add\n        /* \"#utility.yul\":3348:3401   */\n      tag_107\n      jump\t// in\n    tag_172:\n        /* \"#utility.yul\":3338:3401   */\n      swap2\n      pop\n        /* \"#utility.yul\":3293:3411   */\n      pop\n        /* \"#utility.yul\":2799:3418   */\n      swap3\n      pop\n      swap3\n      pop\n      swap3\n      jump\t// out\n        /* \"#utility.yul\":3424:3756   */\n    tag_49:\n        /* \"#utility.yul\":3545:3549   */\n      0x00\n        /* \"#utility.yul\":3583:3585   */\n      0x40\n        /* \"#utility.yul\":3572:3581   */\n      dup3\n        /* \"#utility.yul\":3568:3586   */\n      add\n        /* \"#utility.yul\":3560:3586   */\n      swap1\n      pop\n        /* \"#utility.yul\":3596:3667   */\n      tag_174\n        /* \"#utility.yul\":3664:3665   */\n      0x00\n        /* \"#utility.yul\":3653:3662   */\n      dup4\n        /* \"#utility.yul\":3649:3666   */\n      add\n        /* \"#utility.yul\":3640:3646   */\n      dup6\n        /* \"#utility.yul\":3596:3667   */\n      tag_102\n      jump\t// in\n    tag_174:\n        /* \"#utility.yul\":3677:3749   */\n      tag_175\n        /* \"#utility.yul\":3745:3747   */\n      0x20\n        /* \"#utility.yul\":3734:3743   */\n      dup4\n        /* \"#utility.yul\":3730:3748   */\n      add\n        /* \"#utility.yul\":3721:3727   */\n      dup5\n        /* \"#utility.yul\":3677:3749   */\n      tag_102\n      jump\t// in\n    tag_175:\n        /* \"#utility.yul\":3424:3756   */\n      swap4\n      swap3\n      pop\n      pop\n      pop\n      jump\t// out\n        /* \"#utility.yul\":3762:3880   */\n    tag_108:\n        /* \"#utility.yul\":3849:3873   */\n      tag_177\n        /* \"#utility.yul\":3867:3872   */\n      dup2\n        /* \"#utility.yul\":3849:3873   */\n      tag_98\n      jump\t// in\n    tag_177:\n        /* \"#utility.yul\":3844:3847   */\n      dup3\n        /* \"#utility.yul\":3837:3874   */\n      mstore\n        /* \"#utility.yul\":3762:3880   */\n      pop\n      pop\n      jump\t// out\n        /* \"#utility.yul\":3886:4108   */\n    tag_53:\n        /* \"#utility.yul\":3979:3983   */\n      0x00\n        /* \"#utility.yul\":4017:4019   */\n      0x20\n        /* \"#utility.yul\":4006:4015   */\n      dup3\n        /* \"#utility.yul\":4002:4020   */\n      add\n        /* \"#utility.yul\":3994:4020   */\n      swap1\n      pop\n        /* \"#utility.yul\":4030:4101   */\n      tag_179\n        /* \"#utility.yul\":4098:4099   */\n      0x00\n        /* \"#utility.yul\":4087:4096   */\n      dup4\n        /* \"#utility.yul\":4083:4100   */\n      add\n        /* \"#utility.yul\":4074:4080   */\n      dup5\n        /* \"#utility.yul\":4030:4101   */\n      tag_108\n      jump\t// in\n    tag_179:\n        /* \"#utility.yul\":3886:4108   */\n      swap3\n      swap2\n      pop\n      pop\n      jump\t// out\n        /* \"#utility.yul\":4114:4236   */\n    tag_109:\n        /* \"#utility.yul\":4187:4211   */\n      tag_181\n        /* \"#utility.yul\":4205:4210   */\n      dup2\n        /* \"#utility.yul\":4187:4211   */\n      tag_104\n      jump\t// in\n    tag_181:\n        /* \"#utility.yul\":4180:4185   */\n      dup2\n        /* \"#utility.yul\":4177:4212   */\n      eq\n        /* \"#utility.yul\":4167:4230   */\n      tag_182\n      jumpi\n        /* \"#utility.yul\":4226:4227   */\n      0x00\n        /* \"#utility.yul\":4223:4224   */\n      dup1\n        /* \"#utility.yul\":4216:4228   */\n      revert\n        /* \"#utility.yul\":4167:4230   */\n    tag_182:\n        /* \"#utility.yul\":4114:4236   */\n      pop\n      jump\t// out\n        /* \"#utility.yul\":4242:4385   */\n    tag_110:\n        /* \"#utility.yul\":4299:4304   */\n      0x00\n        /* \"#utility.yul\":4330:4336   */\n      dup2\n        /* \"#utility.yul\":4324:4337   */\n      mload\n        /* \"#utility.yul\":4315:4337   */\n      swap1\n      pop\n        /* \"#utility.yul\":4346:4379   */\n      tag_184\n        /* \"#utility.yul\":4373:4378   */\n      dup2\n        /* \"#utility.yul\":4346:4379   */\n      tag_109\n      jump\t// in\n    tag_184:\n        /* \"#utility.yul\":4242:4385   */\n      swap3\n      swap2\n      pop\n      pop\n      jump\t// out\n        /* \"#utility.yul\":4391:4508   */\n    tag_111:\n        /* \"#utility.yul\":4500:4501   */\n      0x00\n        /* \"#utility.yul\":4497:4498   */\n      dup1\n        /* \"#utility.yul\":4490:4502   */\n      revert\n        /* \"#utility.yul\":4514:4631   */\n    tag_112:\n        /* \"#utility.yul\":4623:4624   */\n      0x00\n        /* \"#utility.yul\":4620:4621   */\n      dup1\n        /* \"#utility.yul\":4613:4625   */\n      revert\n        /* \"#utility.yul\":4637:4739   */\n    tag_113:\n        /* \"#utility.yul\":4678:4684   */\n      0x00\n        /* \"#utility.yul\":4729:4731   */\n      0x1f\n        /* \"#utility.yul\":4725:4732   */\n      not\n        /* \"#utility.yul\":4720:4722   */\n      0x1f\n        /* \"#utility.yul\":4713:4718   */\n      dup4\n        /* \"#utility.yul\":4709:4723   */\n      add\n        /* \"#utility.yul\":4705:4733   */\n      and\n        /* \"#utility.yul\":4695:4733   */\n      swap1\n      pop\n        /* \"#utility.yul\":4637:4739   */\n      swap2\n      swap1\n      pop\n      jump\t// out\n        /* \"#utility.yul\":4745:4925   */\n    tag_114:\n        /* \"#utility.yul\":4793:4870   */\n      0x4e487b7100000000000000000000000000000000000000000000000000000000\n        /* \"#utility.yul\":4790:4791   */\n      0x00\n        /* \"#utility.yul\":4783:4871   */\n      mstore\n        /* \"#utility.yul\":4890:4894   */\n      0x41\n        /* \"#utility.yul\":4887:4888   */\n      0x04\n        /* \"#utility.yul\":4880:4895   */\n      mstore\n        /* \"#utility.yul\":4914:4918   */\n      0x24\n        /* \"#utility.yul\":4911:4912   */\n      0x00\n        /* \"#utility.yul\":4904:4919   */\n      revert\n        /* \"#utility.yul\":4931:5212   */\n    tag_115:\n        /* \"#utility.yul\":5014:5041   */\n      tag_190\n        /* \"#utility.yul\":5036:5040   */\n      dup3\n        /* \"#utility.yul\":5014:5041   */\n      tag_113\n      jump\t// in\n    tag_190:\n        /* \"#utility.yul\":5006:5012   */\n      dup2\n        /* \"#utility.yul\":5002:5042   */\n      add\n        /* \"#utility.yul\":5144:5150   */\n      dup2\n        /* \"#utility.yul\":5132:5142   */\n      dup2\n        /* \"#utility.yul\":5129:5151   */\n      lt\n        /* \"#utility.yul\":5108:5126   */\n      0xffffffffffffffff\n        /* \"#utility.yul\":5096:5106   */\n      dup3\n        /* \"#utility.yul\":5093:5127   */\n      gt\n        /* \"#utility.yul\":5090:5152   */\n      or\n        /* \"#utility.yul\":5087:5175   */\n      iszero\n      tag_191\n      jumpi\n        /* \"#utility.yul\":5155:5173   */\n      tag_192\n      tag_114\n      jump\t// in\n    tag_192:\n        /* \"#utility.yul\":5087:5175   */\n    tag_191:\n        /* \"#utility.yul\":5195:5205   */\n      dup1\n        /* \"#utility.yul\":5191:5193   */\n      0x40\n        /* \"#utility.yul\":5184:5206   */\n      mstore\n        /* \"#utility.yul\":4974:5212   */\n      pop\n        /* \"#utility.yul\":4931:5212   */\n      pop\n      pop\n      jump\t// out\n        /* \"#utility.yul\":5218:5347   */\n    tag_116:\n        /* \"#utility.yul\":5252:5258   */\n      0x00\n        /* \"#utility.yul\":5279:5299   */\n      tag_194\n      tag_95\n      jump\t// in\n    tag_194:\n        /* \"#utility.yul\":5269:5299   */\n      swap1\n      pop\n        /* \"#utility.yul\":5308:5341   */\n      tag_195\n        /* \"#utility.yul\":5336:5340   */\n      dup3\n        /* \"#utility.yul\":5328:5334   */\n      dup3\n        /* \"#utility.yul\":5308:5341   */\n      tag_115\n      jump\t// in\n    tag_195:\n        /* \"#utility.yul\":5218:5347   */\n      swap2\n      swap1\n      pop\n      jump\t// out\n        /* \"#utility.yul\":5353:5661   */\n    tag_117:\n        /* \"#utility.yul\":5415:5419   */\n      0x00\n        /* \"#utility.yul\":5505:5523   */\n      0xffffffffffffffff\n        /* \"#utility.yul\":5497:5503   */\n      dup3\n        /* \"#utility.yul\":5494:5524   */\n      gt\n        /* \"#utility.yul\":5491:5547   */\n      iszero\n      tag_197\n      jumpi\n        /* \"#utility.yul\":5527:5545   */\n      tag_198\n      tag_114\n      jump\t// in\n    tag_198:\n        /* \"#utility.yul\":5491:5547   */\n    tag_197:\n        /* \"#utility.yul\":5565:5594   */\n      tag_199\n        /* \"#utility.yul\":5587:5593   */\n      dup3\n        /* \"#utility.yul\":5565:5594   */\n      tag_113\n      jump\t// in\n    tag_199:\n        /* \"#utility.yul\":5557:5594   */\n      swap1\n      pop\n        /* \"#utility.yul\":5649:5653   */\n      0x20\n        /* \"#utility.yul\":5643:5647   */\n      dup2\n        /* \"#utility.yul\":5639:5654   */\n      add\n        /* \"#utility.yul\":5631:5654   */\n      swap1\n      pop\n        /* \"#utility.yul\":5353:5661   */\n      swap2\n      swap1\n      pop\n      jump\t// out\n        /* \"#utility.yul\":5667:5913   */\n    tag_118:\n        /* \"#utility.yul\":5748:5749   */\n      0x00\n        /* \"#utility.yul\":5758:5871   */\n    tag_201:\n        /* \"#utility.yul\":5772:5778   */\n      dup4\n        /* \"#utility.yul\":5769:5770   */\n      dup2\n        /* \"#utility.yul\":5766:5779   */\n      lt\n        /* \"#utility.yul\":5758:5871   */\n      iszero\n      tag_203\n      jumpi\n        /* \"#utility.yul\":5857:5858   */\n      dup1\n        /* \"#utility.yul\":5852:5855   */\n      dup3\n        /* \"#utility.yul\":5848:5859   */\n      add\n        /* \"#utility.yul\":5842:5860   */\n      mload\n        /* \"#utility.yul\":5838:5839   */\n      dup2\n        /* \"#utility.yul\":5833:5836   */\n      dup5\n        /* \"#utility.yul\":5829:5840   */\n      add\n        /* \"#utility.yul\":5822:5861   */\n      mstore\n        /* \"#utility.yul\":5794:5796   */\n      0x20\n        /* \"#utility.yul\":5791:5792   */\n      dup2\n        /* \"#utility.yul\":5787:5797   */\n      add\n        /* \"#utility.yul\":5782:5797   */\n      swap1\n      pop\n        /* \"#utility.yul\":5758:5871   */\n      jump(tag_201)\n    tag_203:\n        /* \"#utility.yul\":5905:5906   */\n      0x00\n        /* \"#utility.yul\":5896:5902   */\n      dup5\n        /* \"#utility.yul\":5891:5894   */\n      dup5\n        /* \"#utility.yul\":5887:5903   */\n      add\n        /* \"#utility.yul\":5880:5907   */\n      mstore\n        /* \"#utility.yul\":5729:5913   */\n      pop\n        /* \"#utility.yul\":5667:5913   */\n      pop\n      pop\n      pop\n      jump\t// out\n        /* \"#utility.yul\":5919:6353   */\n    tag_119:\n        /* \"#utility.yul\":6008:6013   */\n      0x00\n        /* \"#utility.yul\":6033:6099   */\n      tag_205\n        /* \"#utility.yul\":6049:6098   */\n      tag_206\n        /* \"#utility.yul\":6091:6097   */\n      dup5\n        /* \"#utility.yul\":6049:6098   */\n      tag_117\n      jump\t// in\n    tag_206:\n        /* \"#utility.yul\":6033:6099   */\n      tag_116\n      jump\t// in\n    tag_205:\n        /* \"#utility.yul\":6024:6099   */\n      swap1\n      pop\n        /* \"#utility.yul\":6122:6128   */\n      dup3\n        /* \"#utility.yul\":6115:6120   */\n      dup2\n        /* \"#utility.yul\":6108:6129   */\n      mstore\n        /* \"#utility.yul\":6160:6164   */\n      0x20\n        /* \"#utility.yul\":6153:6158   */\n      dup2\n        /* \"#utility.yul\":6149:6165   */\n      add\n        /* \"#utility.yul\":6198:6201   */\n      dup5\n        /* \"#utility.yul\":6189:6195   */\n      dup5\n        /* \"#utility.yul\":6184:6187   */\n      dup5\n        /* \"#utility.yul\":6180:6196   */\n      add\n        /* \"#utility.yul\":6177:6202   */\n      gt\n        /* \"#utility.yul\":6174:6286   */\n      iszero\n      tag_207\n      jumpi\n        /* \"#utility.yul\":6205:6284   */\n      tag_208\n      tag_112\n      jump\t// in\n    tag_208:\n        /* \"#utility.yul\":6174:6286   */\n    tag_207:\n        /* \"#utility.yul\":6295:6347   */\n      tag_209\n        /* \"#utility.yul\":6340:6346   */\n      dup5\n        /* \"#utility.yul\":6335:6338   */\n      dup3\n        /* \"#utility.yul\":6330:6333   */\n      dup6\n        /* \"#utility.yul\":6295:6347   */\n      tag_118\n      jump\t// in\n    tag_209:\n        /* \"#utility.yul\":6014:6353   */\n      pop\n        /* \"#utility.yul\":5919:6353   */\n      swap4\n      swap3\n      pop\n      pop\n      pop\n      jump\t// out\n        /* \"#utility.yul\":6373:6728   */\n    tag_120:\n        /* \"#utility.yul\":6440:6445   */\n      0x00\n        /* \"#utility.yul\":6489:6492   */\n      dup3\n        /* \"#utility.yul\":6482:6486   */\n      0x1f\n        /* \"#utility.yul\":6474:6480   */\n      dup4\n        /* \"#utility.yul\":6470:6487   */\n      add\n        /* \"#utility.yul\":6466:6493   */\n      slt\n        /* \"#utility.yul\":6456:6578   */\n      tag_211\n      jumpi\n        /* \"#utility.yul\":6497:6576   */\n      tag_212\n      tag_111\n      jump\t// in\n    tag_212:\n        /* \"#utility.yul\":6456:6578   */\n    tag_211:\n        /* \"#utility.yul\":6607:6613   */\n      dup2\n        /* \"#utility.yul\":6601:6614   */\n      mload\n        /* \"#utility.yul\":6632:6722   */\n      tag_213\n        /* \"#utility.yul\":6718:6721   */\n      dup5\n        /* \"#utility.yul\":6710:6716   */\n      dup3\n        /* \"#utility.yul\":6703:6707   */\n      0x20\n        /* \"#utility.yul\":6695:6701   */\n      dup7\n        /* \"#utility.yul\":6691:6708   */\n      add\n        /* \"#utility.yul\":6632:6722   */\n      tag_119\n      jump\t// in\n    tag_213:\n        /* \"#utility.yul\":6623:6722   */\n      swap2\n      pop\n        /* \"#utility.yul\":6446:6728   */\n      pop\n        /* \"#utility.yul\":6373:6728   */\n      swap3\n      swap2\n      pop\n      pop\n      jump\t// out\n        /* \"#utility.yul\":6734:6877   */\n    tag_121:\n        /* \"#utility.yul\":6791:6796   */\n      0x00\n        /* \"#utility.yul\":6822:6828   */\n      dup2\n        /* \"#utility.yul\":6816:6829   */\n      mload\n        /* \"#utility.yul\":6807:6829   */\n      swap1\n      pop\n        /* \"#utility.yul\":6838:6871   */\n      tag_215\n        /* \"#utility.yul\":6865:6870   */\n      dup2\n        /* \"#utility.yul\":6838:6871   */\n      tag_106\n      jump\t// in\n    tag_215:\n        /* \"#utility.yul\":6734:6877   */\n      swap3\n      swap2\n      pop\n      pop\n      jump\t// out\n        /* \"#utility.yul\":6883:7719   */\n    tag_57:\n        /* \"#utility.yul\":6981:6987   */\n      0x00\n        /* \"#utility.yul\":6989:6995   */\n      dup1\n        /* \"#utility.yul\":6997:7003   */\n      0x00\n        /* \"#utility.yul\":7046:7048   */\n      0x60\n        /* \"#utility.yul\":7034:7043   */\n      dup5\n        /* \"#utility.yul\":7025:7032   */\n      dup7\n        /* \"#utility.yul\":7021:7044   */\n      sub\n        /* \"#utility.yul\":7017:7049   */\n      slt\n        /* \"#utility.yul\":7014:7133   */\n      iszero\n      tag_217\n      jumpi\n        /* \"#utility.yul\":7052:7131   */\n      tag_218\n      tag_96\n      jump\t// in\n    tag_218:\n        /* \"#utility.yul\":7014:7133   */\n    tag_217:\n        /* \"#utility.yul\":7172:7173   */\n      0x00\n        /* \"#utility.yul\":7197:7261   */\n      tag_219\n        /* \"#utility.yul\":7253:7260   */\n      dup7\n        /* \"#utility.yul\":7244:7250   */\n      dup3\n        /* \"#utility.yul\":7233:7242   */\n      dup8\n        /* \"#utility.yul\":7229:7251   */\n      add\n        /* \"#utility.yul\":7197:7261   */\n      tag_110\n      jump\t// in\n    tag_219:\n        /* \"#utility.yul\":7187:7261   */\n      swap4\n      pop\n        /* \"#utility.yul\":7143:7271   */\n      pop\n        /* \"#utility.yul\":7331:7333   */\n      0x20\n        /* \"#utility.yul\":7320:7329   */\n      dup5\n        /* \"#utility.yul\":7316:7334   */\n      add\n        /* \"#utility.yul\":7310:7335   */\n      mload\n        /* \"#utility.yul\":7362:7380   */\n      0xffffffffffffffff\n        /* \"#utility.yul\":7354:7360   */\n      dup2\n        /* \"#utility.yul\":7351:7381   */\n      gt\n        /* \"#utility.yul\":7348:7465   */\n      iszero\n      tag_220\n      jumpi\n        /* \"#utility.yul\":7384:7463   */\n      tag_221\n      tag_97\n      jump\t// in\n    tag_221:\n        /* \"#utility.yul\":7348:7465   */\n    tag_220:\n        /* \"#utility.yul\":7489:7563   */\n      tag_222\n        /* \"#utility.yul\":7555:7562   */\n      dup7\n        /* \"#utility.yul\":7546:7552   */\n      dup3\n        /* \"#utility.yul\":7535:7544   */\n      dup8\n        /* \"#utility.yul\":7531:7553   */\n      add\n        /* \"#utility.yul\":7489:7563   */\n      tag_120\n      jump\t// in\n    tag_222:\n        /* \"#utility.yul\":7479:7563   */\n      swap3\n      pop\n        /* \"#utility.yul\":7281:7573   */\n      pop\n        /* \"#utility.yul\":7612:7614   */\n      0x40\n        /* \"#utility.yul\":7638:7702   */\n      tag_223\n        /* \"#utility.yul\":7694:7701   */\n      dup7\n        /* \"#utility.yul\":7685:7691   */\n      dup3\n        /* \"#utility.yul\":7674:7683   */\n      dup8\n        /* \"#utility.yul\":7670:7692   */\n      add\n        /* \"#utility.yul\":7638:7702   */\n      tag_121\n      jump\t// in\n    tag_223:\n        /* \"#utility.yul\":7628:7702   */\n      swap2\n      pop\n        /* \"#utility.yul\":7583:7712   */\n      pop\n        /* \"#utility.yul\":6883:7719   */\n      swap3\n      pop\n      swap3\n      pop\n      swap3\n      jump\t// out\n        /* \"#utility.yul\":7725:7894   */\n    tag_122:\n        /* \"#utility.yul\":7809:7820   */\n      0x00\n        /* \"#utility.yul\":7843:7849   */\n      dup3\n        /* \"#utility.yul\":7838:7841   */\n      dup3\n        /* \"#utility.yul\":7831:7850   */\n      mstore\n        /* \"#utility.yul\":7883:7887   */\n      0x20\n        /* \"#utility.yul\":7878:7881   */\n      dup3\n        /* \"#utility.yul\":7874:7888   */\n      add\n        /* \"#utility.yul\":7859:7888   */\n      swap1\n      pop\n        /* \"#utility.yul\":7725:7894   */\n      swap3\n      swap2\n      pop\n      pop\n      jump\t// out\n        /* \"#utility.yul\":7900:8138   */\n    tag_123:\n        /* \"#utility.yul\":8040:8074   */\n      0x596f7520617265206e6f7420616e20617574686f72697a65642070726f647563\n        /* \"#utility.yul\":8036:8037   */\n      0x00\n        /* \"#utility.yul\":8028:8034   */\n      dup3\n        /* \"#utility.yul\":8024:8038   */\n      add\n        /* \"#utility.yul\":8017:8075   */\n      mstore\n        /* \"#utility.yul\":8109:8130   */\n      0x657220666f7220746869732070726f6475637400000000000000000000000000\n        /* \"#utility.yul\":8104:8106   */\n      0x20\n        /* \"#utility.yul\":8096:8102   */\n      dup3\n        /* \"#utility.yul\":8092:8107   */\n      add\n        /* \"#utility.yul\":8085:8131   */\n      mstore\n        /* \"#utility.yul\":7900:8138   */\n      pop\n      jump\t// out\n        /* \"#utility.yul\":8144:8510   */\n    tag_124:\n        /* \"#utility.yul\":8286:8289   */\n      0x00\n        /* \"#utility.yul\":8307:8374   */\n      tag_227\n        /* \"#utility.yul\":8371:8373   */\n      0x33\n        /* \"#utility.yul\":8366:8369   */\n      dup4\n        /* \"#utility.yul\":8307:8374   */\n      tag_122\n      jump\t// in\n    tag_227:\n        /* \"#utility.yul\":8300:8374   */\n      swap2\n      pop\n        /* \"#utility.yul\":8383:8476   */\n      tag_228\n        /* \"#utility.yul\":8472:8475   */\n      dup3\n        /* \"#utility.yul\":8383:8476   */\n      tag_123\n      jump\t// in\n    tag_228:\n        /* \"#utility.yul\":8501:8503   */\n      0x40\n        /* \"#utility.yul\":8496:8499   */\n      dup3\n        /* \"#utility.yul\":8492:8504   */\n      add\n        /* \"#utility.yul\":8485:8504   */\n      swap1\n      pop\n        /* \"#utility.yul\":8144:8510   */\n      swap2\n      swap1\n      pop\n      jump\t// out\n        /* \"#utility.yul\":8516:8935   */\n    tag_60:\n        /* \"#utility.yul\":8682:8686   */\n      0x00\n        /* \"#utility.yul\":8720:8722   */\n      0x20\n        /* \"#utility.yul\":8709:8718   */\n      dup3\n        /* \"#utility.yul\":8705:8723   */\n      add\n        /* \"#utility.yul\":8697:8723   */\n      swap1\n      pop\n        /* \"#utility.yul\":8769:8778   */\n      dup2\n        /* \"#utility.yul\":8763:8767   */\n      dup2\n        /* \"#utility.yul\":8759:8779   */\n      sub\n        /* \"#utility.yul\":8755:8756   */\n      0x00\n        /* \"#utility.yul\":8744:8753   */\n      dup4\n        /* \"#utility.yul\":8740:8757   */\n      add\n        /* \"#utility.yul\":8733:8780   */\n      mstore\n        /* \"#utility.yul\":8797:8928   */\n      tag_230\n        /* \"#utility.yul\":8923:8927   */\n      dup2\n        /* \"#utility.yul\":8797:8928   */\n      tag_124\n      jump\t// in\n    tag_230:\n        /* \"#utility.yul\":8789:8928   */\n      swap1\n      pop\n        /* \"#utility.yul\":8516:8935   */\n      swap2\n      swap1\n      pop\n      jump\t// out\n        /* \"#utility.yul\":8941:9121   */\n    tag_125:\n        /* \"#utility.yul\":8989:9066   */\n      0x4e487b7100000000000000000000000000000000000000000000000000000000\n        /* \"#utility.yul\":8986:8987   */\n      0x00\n        /* \"#utility.yul\":8979:9067   */\n      mstore\n        /* \"#utility.yul\":9086:9090   */\n      0x11\n        /* \"#utility.yul\":9083:9084   */\n      0x04\n        /* \"#utility.yul\":9076:9091   */\n      mstore\n        /* \"#utility.yul\":9110:9114   */\n      0x24\n        /* \"#utility.yul\":9107:9108   */\n      0x00\n        /* \"#utility.yul\":9100:9115   */\n      revert\n        /* \"#utility.yul\":9127:9537   */\n    tag_64:\n        /* \"#utility.yul\":9167:9174   */\n      0x00\n        /* \"#utility.yul\":9190:9210   */\n      tag_233\n        /* \"#utility.yul\":9208:9209   */\n      dup3\n        /* \"#utility.yul\":9190:9210   */\n      tag_101\n      jump\t// in\n    tag_233:\n        /* \"#utility.yul\":9185:9210   */\n      swap2\n      pop\n        /* \"#utility.yul\":9224:9244   */\n      tag_234\n        /* \"#utility.yul\":9242:9243   */\n      dup4\n        /* \"#utility.yul\":9224:9244   */\n      tag_101\n      jump\t// in\n    tag_234:\n        /* \"#utility.yul\":9219:9244   */\n      swap3\n      pop\n        /* \"#utility.yul\":9279:9280   */\n      dup3\n        /* \"#utility.yul\":9276:9277   */\n      dup3\n        /* \"#utility.yul\":9272:9281   */\n      mul\n        /* \"#utility.yul\":9301:9331   */\n      tag_235\n        /* \"#utility.yul\":9319:9330   */\n      dup2\n        /* \"#utility.yul\":9301:9331   */\n      tag_101\n      jump\t// in\n    tag_235:\n        /* \"#utility.yul\":9290:9331   */\n      swap2\n      pop\n        /* \"#utility.yul\":9480:9481   */\n      dup3\n        /* \"#utility.yul\":9471:9478   */\n      dup3\n        /* \"#utility.yul\":9467:9482   */\n      div\n        /* \"#utility.yul\":9464:9465   */\n      dup5\n        /* \"#utility.yul\":9461:9483   */\n      eq\n        /* \"#utility.yul\":9441:9442   */\n      dup4\n        /* \"#utility.yul\":9434:9443   */\n      iszero\n        /* \"#utility.yul\":9414:9497   */\n      or\n        /* \"#utility.yul\":9391:9530   */\n      tag_236\n      jumpi\n        /* \"#utility.yul\":9510:9528   */\n      tag_237\n      tag_125\n      jump\t// in\n    tag_237:\n        /* \"#utility.yul\":9391:9530   */\n    tag_236:\n        /* \"#utility.yul\":9175:9537   */\n      pop\n        /* \"#utility.yul\":9127:9537   */\n      swap3\n      swap2\n      pop\n      pop\n      jump\t// out\n        /* \"#utility.yul\":9543:9723   */\n    tag_126:\n        /* \"#utility.yul\":9683:9715   */\n      0x496e73756666696369656e742066756e647320746f2070757263686173650000\n        /* \"#utility.yul\":9679:9680   */\n      0x00\n        /* \"#utility.yul\":9671:9677   */\n      dup3\n        /* \"#utility.yul\":9667:9681   */\n      add\n        /* \"#utility.yul\":9660:9716   */\n      mstore\n        /* \"#utility.yul\":9543:9723   */\n      pop\n      jump\t// out\n        /* \"#utility.yul\":9729:10095   */\n    tag_127:\n        /* \"#utility.yul\":9871:9874   */\n      0x00\n        /* \"#utility.yul\":9892:9959   */\n      tag_240\n        /* \"#utility.yul\":9956:9958   */\n      0x1e\n        /* \"#utility.yul\":9951:9954   */\n      dup4\n        /* \"#utility.yul\":9892:9959   */\n      tag_122\n      jump\t// in\n    tag_240:\n        /* \"#utility.yul\":9885:9959   */\n      swap2\n      pop\n        /* \"#utility.yul\":9968:10061   */\n      tag_241\n        /* \"#utility.yul\":10057:10060   */\n      dup3\n        /* \"#utility.yul\":9968:10061   */\n      tag_126\n      jump\t// in\n    tag_241:\n        /* \"#utility.yul\":10086:10088   */\n      0x20\n        /* \"#utility.yul\":10081:10084   */\n      dup3\n        /* \"#utility.yul\":10077:10089   */\n      add\n        /* \"#utility.yul\":10070:10089   */\n      swap1\n      pop\n        /* \"#utility.yul\":9729:10095   */\n      swap2\n      swap1\n      pop\n      jump\t// out\n        /* \"#utility.yul\":10101:10520   */\n    tag_67:\n        /* \"#utility.yul\":10267:10271   */\n      0x00\n        /* \"#utility.yul\":10305:10307   */\n      0x20\n        /* \"#utility.yul\":10294:10303   */\n      dup3\n        /* \"#utility.yul\":10290:10308   */\n      add\n        /* \"#utility.yul\":10282:10308   */\n      swap1\n      pop\n        /* \"#utility.yul\":10354:10363   */\n      dup2\n        /* \"#utility.yul\":10348:10352   */\n      dup2\n        /* \"#utility.yul\":10344:10364   */\n      sub\n        /* \"#utility.yul\":10340:10341   */\n      0x00\n        /* \"#utility.yul\":10329:10338   */\n      dup4\n        /* \"#utility.yul\":10325:10342   */\n      add\n        /* \"#utility.yul\":10318:10365   */\n      mstore\n        /* \"#utility.yul\":10382:10513   */\n      tag_243\n        /* \"#utility.yul\":10508:10512   */\n      dup2\n        /* \"#utility.yul\":10382:10513   */\n      tag_127\n      jump\t// in\n    tag_243:\n        /* \"#utility.yul\":10374:10513   */\n      swap1\n      pop\n        /* \"#utility.yul\":10101:10520   */\n      swap2\n      swap1\n      pop\n      jump\t// out\n        /* \"#utility.yul\":10526:10757   */\n    tag_128:\n        /* \"#utility.yul\":10666:10700   */\n      0x50726f64756374206e6f7420617661696c61626c6520696e2073756666696369\n        /* \"#utility.yul\":10662:10663   */\n      0x00\n        /* \"#utility.yul\":10654:10660   */\n      dup3\n        /* \"#utility.yul\":10650:10664   */\n      add\n        /* \"#utility.yul\":10643:10701   */\n      mstore\n        /* \"#utility.yul\":10735:10749   */\n      0x656e74207175616e746974790000000000000000000000000000000000000000\n        /* \"#utility.yul\":10730:10732   */\n      0x20\n        /* \"#utility.yul\":10722:10728   */\n      dup3\n        /* \"#utility.yul\":10718:10733   */\n      add\n        /* \"#utility.yul\":10711:10750   */\n      mstore\n        /* \"#utility.yul\":10526:10757   */\n      pop\n      jump\t// out\n        /* \"#utility.yul\":10763:11129   */\n    tag_129:\n        /* \"#utility.yul\":10905:10908   */\n      0x00\n        /* \"#utility.yul\":10926:10993   */\n      tag_246\n        /* \"#utility.yul\":10990:10992   */\n      0x2c\n        /* \"#utility.yul\":10985:10988   */\n      dup4\n        /* \"#utility.yul\":10926:10993   */\n      tag_122\n      jump\t// in\n    tag_246:\n        /* \"#utility.yul\":10919:10993   */\n      swap2\n      pop\n        /* \"#utility.yul\":11002:11095   */\n      tag_247\n        /* \"#utility.yul\":11091:11094   */\n      dup3\n        /* \"#utility.yul\":11002:11095   */\n      tag_128\n      jump\t// in\n    tag_247:\n        /* \"#utility.yul\":11120:11122   */\n      0x40\n        /* \"#utility.yul\":11115:11118   */\n      dup3\n        /* \"#utility.yul\":11111:11123   */\n      add\n        /* \"#utility.yul\":11104:11123   */\n      swap1\n      pop\n        /* \"#utility.yul\":10763:11129   */\n      swap2\n      swap1\n      pop\n      jump\t// out\n        /* \"#utility.yul\":11135:11554   */\n    tag_70:\n        /* \"#utility.yul\":11301:11305   */\n      0x00\n        /* \"#utility.yul\":11339:11341   */\n      0x20\n        /* \"#utility.yul\":11328:11337   */\n      dup3\n        /* \"#utility.yul\":11324:11342   */\n      add\n        /* \"#utility.yul\":11316:11342   */\n      swap1\n      pop\n        /* \"#utility.yul\":11388:11397   */\n      dup2\n        /* \"#utility.yul\":11382:11386   */\n      dup2\n        /* \"#utility.yul\":11378:11398   */\n      sub\n        /* \"#utility.yul\":11374:11375   */\n      0x00\n        /* \"#utility.yul\":11363:11372   */\n      dup4\n        /* \"#utility.yul\":11359:11376   */\n      add\n        /* \"#utility.yul\":11352:11399   */\n      mstore\n        /* \"#utility.yul\":11416:11547   */\n      tag_249\n        /* \"#utility.yul\":11542:11546   */\n      dup2\n        /* \"#utility.yul\":11416:11547   */\n      tag_129\n      jump\t// in\n    tag_249:\n        /* \"#utility.yul\":11408:11547   */\n      swap1\n      pop\n        /* \"#utility.yul\":11135:11554   */\n      swap2\n      swap1\n      pop\n      jump\t// out\n        /* \"#utility.yul\":11560:11754   */\n    tag_72:\n        /* \"#utility.yul\":11600:11604   */\n      0x00\n        /* \"#utility.yul\":11620:11640   */\n      tag_251\n        /* \"#utility.yul\":11638:11639   */\n      dup3\n        /* \"#utility.yul\":11620:11640   */\n      tag_101\n      jump\t// in\n    tag_251:\n        /* \"#utility.yul\":11615:11640   */\n      swap2\n      pop\n        /* \"#utility.yul\":11654:11674   */\n      tag_252\n        /* \"#utility.yul\":11672:11673   */\n      dup4\n        /* \"#utility.yul\":11654:11674   */\n      tag_101\n      jump\t// in\n    tag_252:\n        /* \"#utility.yul\":11649:11674   */\n      swap3\n      pop\n        /* \"#utility.yul\":11698:11699   */\n      dup3\n        /* \"#utility.yul\":11695:11696   */\n      dup3\n        /* \"#utility.yul\":11691:11700   */\n      sub\n        /* \"#utility.yul\":11683:11700   */\n      swap1\n      pop\n        /* \"#utility.yul\":11722:11723   */\n      dup2\n        /* \"#utility.yul\":11716:11720   */\n      dup2\n        /* \"#utility.yul\":11713:11724   */\n      gt\n        /* \"#utility.yul\":11710:11747   */\n      iszero\n      tag_253\n      jumpi\n        /* \"#utility.yul\":11727:11745   */\n      tag_254\n      tag_125\n      jump\t// in\n    tag_254:\n        /* \"#utility.yul\":11710:11747   */\n    tag_253:\n        /* \"#utility.yul\":11560:11754   */\n      swap3\n      swap2\n      pop\n      pop\n      jump\t// out\n        /* \"#utility.yul\":11760:11940   */\n    tag_130:\n        /* \"#utility.yul\":11808:11885   */\n      0x4e487b7100000000000000000000000000000000000000000000000000000000\n        /* \"#utility.yul\":11805:11806   */\n      0x00\n        /* \"#utility.yul\":11798:11886   */\n      mstore\n        /* \"#utility.yul\":11905:11909   */\n      0x12\n        /* \"#utility.yul\":11902:11903   */\n      0x04\n        /* \"#utility.yul\":11895:11910   */\n      mstore\n        /* \"#utility.yul\":11929:11933   */\n      0x24\n        /* \"#utility.yul\":11926:11927   */\n      0x00\n        /* \"#utility.yul\":11919:11934   */\n      revert\n        /* \"#utility.yul\":11946:12131   */\n    tag_78:\n        /* \"#utility.yul\":11986:11987   */\n      0x00\n        /* \"#utility.yul\":12003:12023   */\n      tag_257\n        /* \"#utility.yul\":12021:12022   */\n      dup3\n        /* \"#utility.yul\":12003:12023   */\n      tag_101\n      jump\t// in\n    tag_257:\n        /* \"#utility.yul\":11998:12023   */\n      swap2\n      pop\n        /* \"#utility.yul\":12037:12057   */\n      tag_258\n        /* \"#utility.yul\":12055:12056   */\n      dup4\n        /* \"#utility.yul\":12037:12057   */\n      tag_101\n      jump\t// in\n    tag_258:\n        /* \"#utility.yul\":12032:12057   */\n      swap3\n      pop\n        /* \"#utility.yul\":12076:12077   */\n      dup3\n        /* \"#utility.yul\":12066:12101   */\n      tag_259\n      jumpi\n        /* \"#utility.yul\":12081:12099   */\n      tag_260\n      tag_130\n      jump\t// in\n    tag_260:\n        /* \"#utility.yul\":12066:12101   */\n    tag_259:\n        /* \"#utility.yul\":12123:12124   */\n      dup3\n        /* \"#utility.yul\":12120:12121   */\n      dup3\n        /* \"#utility.yul\":12116:12125   */\n      div\n        /* \"#utility.yul\":12111:12125   */\n      swap1\n      pop\n        /* \"#utility.yul\":11946:12131   */\n      swap3\n      swap2\n      pop\n      pop\n      jump\t// out\n        /* \"#utility.yul\":12137:12328   */\n    tag_94:\n        /* \"#utility.yul\":12177:12180   */\n      0x00\n        /* \"#utility.yul\":12196:12216   */\n      tag_262\n        /* \"#utility.yul\":12214:12215   */\n      dup3\n        /* \"#utility.yul\":12196:12216   */\n      tag_101\n      jump\t// in\n    tag_262:\n        /* \"#utility.yul\":12191:12216   */\n      swap2\n      pop\n        /* \"#utility.yul\":12230:12250   */\n      tag_263\n        /* \"#utility.yul\":12248:12249   */\n      dup4\n        /* \"#utility.yul\":12230:12250   */\n      tag_101\n      jump\t// in\n    tag_263:\n        /* \"#utility.yul\":12225:12250   */\n      swap3\n      pop\n        /* \"#utility.yul\":12273:12274   */\n      dup3\n        /* \"#utility.yul\":12270:12271   */\n      dup3\n        /* \"#utility.yul\":12266:12275   */\n      add\n        /* \"#utility.yul\":12259:12275   */\n      swap1\n      pop\n        /* \"#utility.yul\":12294:12297   */\n      dup1\n        /* \"#utility.yul\":12291:12292   */\n      dup3\n        /* \"#utility.yul\":12288:12298   */\n      gt\n        /* \"#utility.yul\":12285:12321   */\n      iszero\n      tag_264\n      jumpi\n        /* \"#utility.yul\":12301:12319   */\n      tag_265\n      tag_125\n      jump\t// in\n    tag_265:\n        /* \"#utility.yul\":12285:12321   */\n    tag_264:\n        /* \"#utility.yul\":12137:12328   */\n      swap3\n      swap2\n      pop\n      pop\n      jump\t// out\n\n    auxdata: 0xa2646970667358221220317cb1e9836b81e385ea7e3e6a5f35fd1bb954249f7bc36b084482435b093e9f64736f6c63430008120033\n}\n",
				"bytecode": {
					"linkReferences": {},
					"object": "60806040523480156200001157600080fd5b506040516200105c3803806200105c83398181016040528101906200003791906200016b565b336000806101000a81548173ffffffffffffffffffffffffffffffffffffffff021916908373ffffffffffffffffffffffffffffffffffffffff16021790555081600160006101000a81548173ffffffffffffffffffffffffffffffffffffffff021916908373ffffffffffffffffffffffffffffffffffffffff16021790555080600260006101000a81548173ffffffffffffffffffffffffffffffffffffffff021916908373ffffffffffffffffffffffffffffffffffffffff1602179055505050620001b2565b600080fd5b600073ffffffffffffffffffffffffffffffffffffffff82169050919050565b6000620001338262000106565b9050919050565b620001458162000126565b81146200015157600080fd5b50565b60008151905062000165816200013a565b92915050565b6000806040838503121562000185576200018462000101565b5b6000620001958582860162000154565b9250506020620001a88582860162000154565b9150509250929050565b610e9a80620001c26000396000f3fe60806040526004361061007b5760003560e01c8063788e72a51161004e578063788e72a51461013c57806388bac96d146101585780638da5cb5b14610181578063d45fb2c4146101ac5761007b565b80630162df931461008057806314db1271146100bd5780632a4dbd2b146100e85780635814804814610113575b600080fd5b34801561008c57600080fd5b506100a760048036038101906100a291906107aa565b6101ea565b6040516100b491906107f0565b60405180910390f35b3480156100c957600080fd5b506100d261020a565b6040516100df919061084c565b60405180910390f35b3480156100f457600080fd5b506100fd610230565b60405161010a919061084c565b60405180910390f35b34801561011f57600080fd5b5061013a60048036038101906101359190610893565b610256565b005b61015660048036038101906101519190610893565b610393565b005b34801561016457600080fd5b5061017f600480360381019061017a91906108d3565b6105bf565b005b34801561018d57600080fd5b50610196610718565b6040516101a3919061084c565b60405180910390f35b3480156101b857600080fd5b506101d360048036038101906101ce91906107aa565b61073c565b6040516101e1929190610926565b60405180910390f35b600060036000838152602001908152602001600020600101549050919050565b600160009054906101000a900473ffffffffffffffffffffffffffffffffffffffff1681565b600260009054906101000a900473ffffffffffffffffffffffffffffffffffffffff1681565b816000600160009054906101000a900473ffffffffffffffffffffffffffffffffffffffff1673ffffffffffffffffffffffffffffffffffffffff16635cbd47e3836040518263ffffffff1660e01b81526004016102b4919061095e565b600060405180830381865afa1580156102d1573d6000803e3d6000fd5b505050506040513d6000823e3d601f19601f820116820180604052508101906102fa9190610b1b565b505090503373ffffffffffffffffffffffffffffffffffffffff168173ffffffffffffffffffffffffffffffffffffffff161461036c576040517f08c379a000000000000000000000000000000000000000000000000000000000815260040161036390610c0d565b60405180910390fd5b60006003600086815260200190815260200160002090508381600001819055505050505050565b600060036000848152602001908152602001600020905060008282600001546103bc9190610c5c565b905080341015610401576040517f08c379a00000000000000000000000000000000000000000000000000000000081526004016103f890610cea565b60405180910390fd5b8282600101541015610448576040517f08c379a000000000000000000000000000000000000000000000000000000000815260040161043f90610d7c565b60405180910390fd5b8282600101600082825461045c9190610d9c565b925050819055506000600160009054906101000a900473ffffffffffffffffffffffffffffffffffffffff1673ffffffffffffffffffffffffffffffffffffffff16635cbd47e3866040518263ffffffff1660e01b81526004016104c0919061095e565b600060405180830381865afa1580156104dd573d6000803e3d6000fd5b505050506040513d6000823e3d601f19601f820116820180604052508101906105069190610b1b565b505090508073ffffffffffffffffffffffffffffffffffffffff166108fc6002846105319190610dff565b9081150290604051600060405180830381858888f1935050505015801561055c573d6000803e3d6000fd5b50813411156105b8573373ffffffffffffffffffffffffffffffffffffffff166108fc833461058b9190610d9c565b9081150290604051600060405180830381858888f193505050501580156105b6573d6000803e3d6000fd5b505b5050505050565b826000600160009054906101000a900473ffffffffffffffffffffffffffffffffffffffff1673ffffffffffffffffffffffffffffffffffffffff16635cbd47e3836040518263ffffffff1660e01b815260040161061d919061095e565b600060405180830381865afa15801561063a573d6000803e3d6000fd5b505050506040513d6000823e3d601f19601f820116820180604052508101906106639190610b1b565b505090503373ffffffffffffffffffffffffffffffffffffffff168173ffffffffffffffffffffffffffffffffffffffff16146106d5576040517f08c379a00000000000000000000000000000000000000000000000000000000081526004016106cc90610c0d565b60405180910390fd5b6000600360008781526020019081526020016000209050848160000181905550838160010160008282546107099190610e30565b92505081905550505050505050565b60008054906101000a900473ffffffffffffffffffffffffffffffffffffffff1681565b60036020528060005260406000206000915090508060000154908060010154905082565b6000604051905090565b600080fd5b600080fd5b6000819050919050565b61078781610774565b811461079257600080fd5b50565b6000813590506107a48161077e565b92915050565b6000602082840312156107c0576107bf61076a565b5b60006107ce84828501610795565b91505092915050565b6000819050919050565b6107ea816107d7565b82525050565b600060208201905061080560008301846107e1565b92915050565b600073ffffffffffffffffffffffffffffffffffffffff82169050919050565b60006108368261080b565b9050919050565b6108468161082b565b82525050565b6000602082019050610861600083018461083d565b92915050565b610870816107d7565b811461087b57600080fd5b50565b60008135905061088d81610867565b92915050565b600080604083850312156108aa576108a961076a565b5b60006108b885828601610795565b92505060206108c98582860161087e565b9150509250929050565b6000806000606084860312156108ec576108eb61076a565b5b60006108fa86828701610795565b935050602061090b8682870161087e565b925050604061091c8682870161087e565b9150509250925092565b600060408201905061093b60008301856107e1565b61094860208301846107e1565b9392505050565b61095881610774565b82525050565b6000602082019050610973600083018461094f565b92915050565b6109828161082b565b811461098d57600080fd5b50565b60008151905061099f81610979565b92915050565b600080fd5b600080fd5b6000601f19601f8301169050919050565b7f4e487b7100000000000000000000000000000000000000000000000000000000600052604160045260246000fd5b6109f8826109af565b810181811067ffffffffffffffff82111715610a1757610a166109c0565b5b80604052505050565b6000610a2a610760565b9050610a3682826109ef565b919050565b600067ffffffffffffffff821115610a5657610a556109c0565b5b610a5f826109af565b9050602081019050919050565b60005b83811015610a8a578082015181840152602081019050610a6f565b60008484015250505050565b6000610aa9610aa484610a3b565b610a20565b905082815260208101848484011115610ac557610ac46109aa565b5b610ad0848285610a6c565b509392505050565b600082601f830112610aed57610aec6109a5565b5b8151610afd848260208601610a96565b91505092915050565b600081519050610b1581610867565b92915050565b600080600060608486031215610b3457610b3361076a565b5b6000610b4286828701610990565b935050602084015167ffffffffffffffff811115610b6357610b6261076f565b5b610b6f86828701610ad8565b9250506040610b8086828701610b06565b9150509250925092565b600082825260208201905092915050565b7f596f7520617265206e6f7420616e20617574686f72697a65642070726f64756360008201527f657220666f7220746869732070726f6475637400000000000000000000000000602082015250565b6000610bf7603383610b8a565b9150610c0282610b9b565b604082019050919050565b60006020820190508181036000830152610c2681610bea565b9050919050565b7f4e487b7100000000000000000000000000000000000000000000000000000000600052601160045260246000fd5b6000610c67826107d7565b9150610c72836107d7565b9250828202610c80816107d7565b91508282048414831517610c9757610c96610c2d565b5b5092915050565b7f496e73756666696369656e742066756e647320746f2070757263686173650000600082015250565b6000610cd4601e83610b8a565b9150610cdf82610c9e565b602082019050919050565b60006020820190508181036000830152610d0381610cc7565b9050919050565b7f50726f64756374206e6f7420617661696c61626c6520696e207375666669636960008201527f656e74207175616e746974790000000000000000000000000000000000000000602082015250565b6000610d66602c83610b8a565b9150610d7182610d0a565b604082019050919050565b60006020820190508181036000830152610d9581610d59565b9050919050565b6000610da7826107d7565b9150610db2836107d7565b9250828203905081811115610dca57610dc9610c2d565b5b92915050565b7f4e487b7100000000000000000000000000000000000000000000000000000000600052601260045260246000fd5b6000610e0a826107d7565b9150610e15836107d7565b925082610e2557610e24610dd0565b5b828204905092915050565b6000610e3b826107d7565b9150610e46836107d7565b9250828201905080821115610e5e57610e5d610c2d565b5b9291505056fea2646970667358221220317cb1e9836b81e385ea7e3e6a5f35fd1bb954249f7bc36b084482435b093e9f64736f6c63430008120033",
					"opcodes": "PUSH1 0x80 PUSH1 0x40 MSTORE CALLVALUE DUP1 ISZERO PUSH3 0x11 JUMPI PUSH1 0x0 DUP1 REVERT JUMPDEST POP PUSH1 0x40 MLOAD PUSH3 0x105C CODESIZE SUB DUP1 PUSH3 0x105C DUP4 CODECOPY DUP2 DUP2 ADD PUSH1 0x40 MSTORE DUP2 ADD SWAP1 PUSH3 0x37 SWAP2 SWAP1 PUSH3 0x16B JUMP JUMPDEST CALLER PUSH1 0x0 DUP1 PUSH2 0x100 EXP DUP2 SLOAD DUP2 PUSH20 0xFFFFFFFFFFFFFFFFFFFFFFFFFFFFFFFFFFFFFFFF MUL NOT AND SWAP1 DUP4 PUSH20 0xFFFFFFFFFFFFFFFFFFFFFFFFFFFFFFFFFFFFFFFF AND MUL OR SWAP1 SSTORE POP DUP2 PUSH1 0x1 PUSH1 0x0 PUSH2 0x100 EXP DUP2 SLOAD DUP2 PUSH20 0xFFFFFFFFFFFFFFFFFFFFFFFFFFFFFFFFFFFFFFFF MUL NOT AND SWAP1 DUP4 PUSH20 0xFFFFFFFFFFFFFFFFFFFFFFFFFFFFFFFFFFFFFFFF AND MUL OR SWAP1 SSTORE POP DUP1 PUSH1 0x2 PUSH1 0x0 PUSH2 0x100 EXP DUP2 SLOAD DUP2 PUSH20 0xFFFFFFFFFFFFFFFFFFFFFFFFFFFFFFFFFFFFFFFF MUL NOT AND SWAP1 DUP4 PUSH20 0xFFFFFFFFFFFFFFFFFFFFFFFFFFFFFFFFFFFFFFFF AND MUL OR SWAP1 SSTORE POP POP POP PUSH3 0x1B2 JUMP JUMPDEST PUSH1 0x0 DUP1 REVERT JUMPDEST PUSH1 0x0 PUSH20 0xFFFFFFFFFFFFFFFFFFFFFFFFFFFFFFFFFFFFFFFF DUP3 AND SWAP1 POP SWAP2 SWAP1 POP JUMP JUMPDEST PUSH1 0x0 PUSH3 0x133 DUP3 PUSH3 0x106 JUMP JUMPDEST SWAP1 POP SWAP2 SWAP1 POP JUMP JUMPDEST PUSH3 0x145 DUP2 PUSH3 0x126 JUMP JUMPDEST DUP2 EQ PUSH3 0x151 JUMPI PUSH1 0x0 DUP1 REVERT JUMPDEST POP JUMP JUMPDEST PUSH1 0x0 DUP2 MLOAD SWAP1 POP PUSH3 0x165 DUP2 PUSH3 0x13A JUMP JUMPDEST SWAP3 SWAP2 POP POP JUMP JUMPDEST PUSH1 0x0 DUP1 PUSH1 0x40 DUP4 DUP6 SUB SLT ISZERO PUSH3 0x185 JUMPI PUSH3 0x184 PUSH3 0x101 JUMP JUMPDEST JUMPDEST PUSH1 0x0 PUSH3 0x195 DUP6 DUP3 DUP7 ADD PUSH3 0x154 JUMP JUMPDEST SWAP3 POP POP PUSH1 0x20 PUSH3 0x1A8 DUP6 DUP3 DUP7 ADD PUSH3 0x154 JUMP JUMPDEST SWAP2 POP POP SWAP3 POP SWAP3 SWAP1 POP JUMP JUMPDEST PUSH2 0xE9A DUP1 PUSH3 0x1C2 PUSH1 0x0 CODECOPY PUSH1 0x0 RETURN INVALID PUSH1 0x80 PUSH1 0x40 MSTORE PUSH1 0x4 CALLDATASIZE LT PUSH2 0x7B JUMPI PUSH1 0x0 CALLDATALOAD PUSH1 0xE0 SHR DUP1 PUSH4 0x788E72A5 GT PUSH2 0x4E JUMPI DUP1 PUSH4 0x788E72A5 EQ PUSH2 0x13C JUMPI DUP1 PUSH4 0x88BAC96D EQ PUSH2 0x158 JUMPI DUP1 PUSH4 0x8DA5CB5B EQ PUSH2 0x181 JUMPI DUP1 PUSH4 0xD45FB2C4 EQ PUSH2 0x1AC JUMPI PUSH2 0x7B JUMP JUMPDEST DUP1 PUSH4 0x162DF93 EQ PUSH2 0x80 JUMPI DUP1 PUSH4 0x14DB1271 EQ PUSH2 0xBD JUMPI DUP1 PUSH4 0x2A4DBD2B EQ PUSH2 0xE8 JUMPI DUP1 PUSH4 0x58148048 EQ PUSH2 0x113 JUMPI JUMPDEST PUSH1 0x0 DUP1 REVERT JUMPDEST CALLVALUE DUP1 ISZERO PUSH2 0x8C JUMPI PUSH1 0x0 DUP1 REVERT JUMPDEST POP PUSH2 0xA7 PUSH1 0x4 DUP1 CALLDATASIZE SUB DUP2 ADD SWAP1 PUSH2 0xA2 SWAP2 SWAP1 PUSH2 0x7AA JUMP JUMPDEST PUSH2 0x1EA JUMP JUMPDEST PUSH1 0x40 MLOAD PUSH2 0xB4 SWAP2 SWAP1 PUSH2 0x7F0 JUMP JUMPDEST PUSH1 0x40 MLOAD DUP1 SWAP2 SUB SWAP1 RETURN JUMPDEST CALLVALUE DUP1 ISZERO PUSH2 0xC9 JUMPI PUSH1 0x0 DUP1 REVERT JUMPDEST POP PUSH2 0xD2 PUSH2 0x20A JUMP JUMPDEST PUSH1 0x40 MLOAD PUSH2 0xDF SWAP2 SWAP1 PUSH2 0x84C JUMP JUMPDEST PUSH1 0x40 MLOAD DUP1 SWAP2 SUB SWAP1 RETURN JUMPDEST CALLVALUE DUP1 ISZERO PUSH2 0xF4 JUMPI PUSH1 0x0 DUP1 REVERT JUMPDEST POP PUSH2 0xFD PUSH2 0x230 JUMP JUMPDEST PUSH1 0x40 MLOAD PUSH2 0x10A SWAP2 SWAP1 PUSH2 0x84C JUMP JUMPDEST PUSH1 0x40 MLOAD DUP1 SWAP2 SUB SWAP1 RETURN JUMPDEST CALLVALUE DUP1 ISZERO PUSH2 0x11F JUMPI PUSH1 0x0 DUP1 REVERT JUMPDEST POP PUSH2 0x13A PUSH1 0x4 DUP1 CALLDATASIZE SUB DUP2 ADD SWAP1 PUSH2 0x135 SWAP2 SWAP1 PUSH2 0x893 JUMP JUMPDEST PUSH2 0x256 JUMP JUMPDEST STOP JUMPDEST PUSH2 0x156 PUSH1 0x4 DUP1 CALLDATASIZE SUB DUP2 ADD SWAP1 PUSH2 0x151 SWAP2 SWAP1 PUSH2 0x893 JUMP JUMPDEST PUSH2 0x393 JUMP JUMPDEST STOP JUMPDEST CALLVALUE DUP1 ISZERO PUSH2 0x164 JUMPI PUSH1 0x0 DUP1 REVERT JUMPDEST POP PUSH2 0x17F PUSH1 0x4 DUP1 CALLDATASIZE SUB DUP2 ADD SWAP1 PUSH2 0x17A SWAP2 SWAP1 PUSH2 0x8D3 JUMP JUMPDEST PUSH2 0x5BF JUMP JUMPDEST STOP JUMPDEST CALLVALUE DUP1 ISZERO PUSH2 0x18D JUMPI PUSH1 0x0 DUP1 REVERT JUMPDEST POP PUSH2 0x196 PUSH2 0x718 JUMP JUMPDEST PUSH1 0x40 MLOAD PUSH2 0x1A3 SWAP2 SWAP1 PUSH2 0x84C JUMP JUMPDEST PUSH1 0x40 MLOAD DUP1 SWAP2 SUB SWAP1 RETURN JUMPDEST CALLVALUE DUP1 ISZERO PUSH2 0x1B8 JUMPI PUSH1 0x0 DUP1 REVERT JUMPDEST POP PUSH2 0x1D3 PUSH1 0x4 DUP1 CALLDATASIZE SUB DUP2 ADD SWAP1 PUSH2 0x1CE SWAP2 SWAP1 PUSH2 0x7AA JUMP JUMPDEST PUSH2 0x73C JUMP JUMPDEST PUSH1 0x40 MLOAD PUSH2 0x1E1 SWAP3 SWAP2 SWAP1 PUSH2 0x926 JUMP JUMPDEST PUSH1 0x40 MLOAD DUP1 SWAP2 SUB SWAP1 RETURN JUMPDEST PUSH1 0x0 PUSH1 0x3 PUSH1 0x0 DUP4 DUP2 MSTORE PUSH1 0x20 ADD SWAP1 DUP2 MSTORE PUSH1 0x20 ADD PUSH1 0x0 KECCAK256 PUSH1 0x1 ADD SLOAD SWAP1 POP SWAP2 SWAP1 POP JUMP JUMPDEST PUSH1 0x1 PUSH1 0x0 SWAP1 SLOAD SWAP1 PUSH2 0x100 EXP SWAP1 DIV PUSH20 0xFFFFFFFFFFFFFFFFFFFFFFFFFFFFFFFFFFFFFFFF AND DUP2 JUMP JUMPDEST PUSH1 0x2 PUSH1 0x0 SWAP1 SLOAD SWAP1 PUSH2 0x100 EXP SWAP1 DIV PUSH20 0xFFFFFFFFFFFFFFFFFFFFFFFFFFFFFFFFFFFFFFFF AND DUP2 JUMP JUMPDEST DUP2 PUSH1 0x0 PUSH1 0x1 PUSH1 0x0 SWAP1 SLOAD SWAP1 PUSH2 0x100 EXP SWAP1 DIV PUSH20 0xFFFFFFFFFFFFFFFFFFFFFFFFFFFFFFFFFFFFFFFF AND PUSH20 0xFFFFFFFFFFFFFFFFFFFFFFFFFFFFFFFFFFFFFFFF AND PUSH4 0x5CBD47E3 DUP4 PUSH1 0x40 MLOAD DUP3 PUSH4 0xFFFFFFFF AND PUSH1 0xE0 SHL DUP2 MSTORE PUSH1 0x4 ADD PUSH2 0x2B4 SWAP2 SWAP1 PUSH2 0x95E JUMP JUMPDEST PUSH1 0x0 PUSH1 0x40 MLOAD DUP1 DUP4 SUB DUP2 DUP7 GAS STATICCALL ISZERO DUP1 ISZERO PUSH2 0x2D1 JUMPI RETURNDATASIZE PUSH1 0x0 DUP1 RETURNDATACOPY RETURNDATASIZE PUSH1 0x0 REVERT JUMPDEST POP POP POP POP PUSH1 0x40 MLOAD RETURNDATASIZE PUSH1 0x0 DUP3 RETURNDATACOPY RETURNDATASIZE PUSH1 0x1F NOT PUSH1 0x1F DUP3 ADD AND DUP3 ADD DUP1 PUSH1 0x40 MSTORE POP DUP2 ADD SWAP1 PUSH2 0x2FA SWAP2 SWAP1 PUSH2 0xB1B JUMP JUMPDEST POP POP SWAP1 POP CALLER PUSH20 0xFFFFFFFFFFFFFFFFFFFFFFFFFFFFFFFFFFFFFFFF AND DUP2 PUSH20 0xFFFFFFFFFFFFFFFFFFFFFFFFFFFFFFFFFFFFFFFF AND EQ PUSH2 0x36C JUMPI PUSH1 0x40 MLOAD PUSH32 0x8C379A000000000000000000000000000000000000000000000000000000000 DUP2 MSTORE PUSH1 0x4 ADD PUSH2 0x363 SWAP1 PUSH2 0xC0D JUMP JUMPDEST PUSH1 0x40 MLOAD DUP1 SWAP2 SUB SWAP1 REVERT JUMPDEST PUSH1 0x0 PUSH1 0x3 PUSH1 0x0 DUP7 DUP2 MSTORE PUSH1 0x20 ADD SWAP1 DUP2 MSTORE PUSH1 0x20 ADD PUSH1 0x0 KECCAK256 SWAP1 POP DUP4 DUP2 PUSH1 0x0 ADD DUP2 SWAP1 SSTORE POP POP POP POP POP POP JUMP JUMPDEST PUSH1 0x0 PUSH1 0x3 PUSH1 0x0 DUP5 DUP2 MSTORE PUSH1 0x20 ADD SWAP1 DUP2 MSTORE PUSH1 0x20 ADD PUSH1 0x0 KECCAK256 SWAP1 POP PUSH1 0x0 DUP3 DUP3 PUSH1 0x0 ADD SLOAD PUSH2 0x3BC SWAP2 SWAP1 PUSH2 0xC5C JUMP JUMPDEST SWAP1 POP DUP1 CALLVALUE LT ISZERO PUSH2 0x401 JUMPI PUSH1 0x40 MLOAD PUSH32 0x8C379A000000000000000000000000000000000000000000000000000000000 DUP2 MSTORE PUSH1 0x4 ADD PUSH2 0x3F8 SWAP1 PUSH2 0xCEA JUMP JUMPDEST PUSH1 0x40 MLOAD DUP1 SWAP2 SUB SWAP1 REVERT JUMPDEST DUP3 DUP3 PUSH1 0x1 ADD SLOAD LT ISZERO PUSH2 0x448 JUMPI PUSH1 0x40 MLOAD PUSH32 0x8C379A000000000000000000000000000000000000000000000000000000000 DUP2 MSTORE PUSH1 0x4 ADD PUSH2 0x43F SWAP1 PUSH2 0xD7C JUMP JUMPDEST PUSH1 0x40 MLOAD DUP1 SWAP2 SUB SWAP1 REVERT JUMPDEST DUP3 DUP3 PUSH1 0x1 ADD PUSH1 0x0 DUP3 DUP3 SLOAD PUSH2 0x45C SWAP2 SWAP1 PUSH2 0xD9C JUMP JUMPDEST SWAP3 POP POP DUP2 SWAP1 SSTORE POP PUSH1 0x0 PUSH1 0x1 PUSH1 0x0 SWAP1 SLOAD SWAP1 PUSH2 0x100 EXP SWAP1 DIV PUSH20 0xFFFFFFFFFFFFFFFFFFFFFFFFFFFFFFFFFFFFFFFF AND PUSH20 0xFFFFFFFFFFFFFFFFFFFFFFFFFFFFFFFFFFFFFFFF AND PUSH4 0x5CBD47E3 DUP7 PUSH1 0x40 MLOAD DUP3 PUSH4 0xFFFFFFFF AND PUSH1 0xE0 SHL DUP2 MSTORE PUSH1 0x4 ADD PUSH2 0x4C0 SWAP2 SWAP1 PUSH2 0x95E JUMP JUMPDEST PUSH1 0x0 PUSH1 0x40 MLOAD DUP1 DUP4 SUB DUP2 DUP7 GAS STATICCALL ISZERO DUP1 ISZERO PUSH2 0x4DD JUMPI RETURNDATASIZE PUSH1 0x0 DUP1 RETURNDATACOPY RETURNDATASIZE PUSH1 0x0 REVERT JUMPDEST POP POP POP POP PUSH1 0x40 MLOAD RETURNDATASIZE PUSH1 0x0 DUP3 RETURNDATACOPY RETURNDATASIZE PUSH1 0x1F NOT PUSH1 0x1F DUP3 ADD AND DUP3 ADD DUP1 PUSH1 0x40 MSTORE POP DUP2 ADD SWAP1 PUSH2 0x506 SWAP2 SWAP1 PUSH2 0xB1B JUMP JUMPDEST POP POP SWAP1 POP DUP1 PUSH20 0xFFFFFFFFFFFFFFFFFFFFFFFFFFFFFFFFFFFFFFFF AND PUSH2 0x8FC PUSH1 0x2 DUP5 PUSH2 0x531 SWAP2 SWAP1 PUSH2 0xDFF JUMP JUMPDEST SWAP1 DUP2 ISZERO MUL SWAP1 PUSH1 0x40 MLOAD PUSH1 0x0 PUSH1 0x40 MLOAD DUP1 DUP4 SUB DUP2 DUP6 DUP9 DUP9 CALL SWAP4 POP POP POP POP ISZERO DUP1 ISZERO PUSH2 0x55C JUMPI RETURNDATASIZE PUSH1 0x0 DUP1 RETURNDATACOPY RETURNDATASIZE PUSH1 0x0 REVERT JUMPDEST POP DUP2 CALLVALUE GT ISZERO PUSH2 0x5B8 JUMPI CALLER PUSH20 0xFFFFFFFFFFFFFFFFFFFFFFFFFFFFFFFFFFFFFFFF AND PUSH2 0x8FC DUP4 CALLVALUE PUSH2 0x58B SWAP2 SWAP1 PUSH2 0xD9C JUMP JUMPDEST SWAP1 DUP2 ISZERO MUL SWAP1 PUSH1 0x40 MLOAD PUSH1 0x0 PUSH1 0x40 MLOAD DUP1 DUP4 SUB DUP2 DUP6 DUP9 DUP9 CALL SWAP4 POP POP POP POP ISZERO DUP1 ISZERO PUSH2 0x5B6 JUMPI RETURNDATASIZE PUSH1 0x0 DUP1 RETURNDATACOPY RETURNDATASIZE PUSH1 0x0 REVERT JUMPDEST POP JUMPDEST POP POP POP POP POP JUMP JUMPDEST DUP3 PUSH1 0x0 PUSH1 0x1 PUSH1 0x0 SWAP1 SLOAD SWAP1 PUSH2 0x100 EXP SWAP1 DIV PUSH20 0xFFFFFFFFFFFFFFFFFFFFFFFFFFFFFFFFFFFFFFFF AND PUSH20 0xFFFFFFFFFFFFFFFFFFFFFFFFFFFFFFFFFFFFFFFF AND PUSH4 0x5CBD47E3 DUP4 PUSH1 0x40 MLOAD DUP3 PUSH4 0xFFFFFFFF AND PUSH1 0xE0 SHL DUP2 MSTORE PUSH1 0x4 ADD PUSH2 0x61D SWAP2 SWAP1 PUSH2 0x95E JUMP JUMPDEST PUSH1 0x0 PUSH1 0x40 MLOAD DUP1 DUP4 SUB DUP2 DUP7 GAS STATICCALL ISZERO DUP1 ISZERO PUSH2 0x63A JUMPI RETURNDATASIZE PUSH1 0x0 DUP1 RETURNDATACOPY RETURNDATASIZE PUSH1 0x0 REVERT JUMPDEST POP POP POP POP PUSH1 0x40 MLOAD RETURNDATASIZE PUSH1 0x0 DUP3 RETURNDATACOPY RETURNDATASIZE PUSH1 0x1F NOT PUSH1 0x1F DUP3 ADD AND DUP3 ADD DUP1 PUSH1 0x40 MSTORE POP DUP2 ADD SWAP1 PUSH2 0x663 SWAP2 SWAP1 PUSH2 0xB1B JUMP JUMPDEST POP POP SWAP1 POP CALLER PUSH20 0xFFFFFFFFFFFFFFFFFFFFFFFFFFFFFFFFFFFFFFFF AND DUP2 PUSH20 0xFFFFFFFFFFFFFFFFFFFFFFFFFFFFFFFFFFFFFFFF AND EQ PUSH2 0x6D5 JUMPI PUSH1 0x40 MLOAD PUSH32 0x8C379A000000000000000000000000000000000000000000000000000000000 DUP2 MSTORE PUSH1 0x4 ADD PUSH2 0x6CC SWAP1 PUSH2 0xC0D JUMP JUMPDEST PUSH1 0x40 MLOAD DUP1 SWAP2 SUB SWAP1 REVERT JUMPDEST PUSH1 0x0 PUSH1 0x3 PUSH1 0x0 DUP8 DUP2 MSTORE PUSH1 0x20 ADD SWAP1 DUP2 MSTORE PUSH1 0x20 ADD PUSH1 0x0 KECCAK256 SWAP1 POP DUP5 DUP2 PUSH1 0x0 ADD DUP2 SWAP1 SSTORE POP DUP4 DUP2 PUSH1 0x1 ADD PUSH1 0x0 DUP3 DUP3 SLOAD PUSH2 0x709 SWAP2 SWAP1 PUSH2 0xE30 JUMP JUMPDEST SWAP3 POP POP DUP2 SWAP1 SSTORE POP POP POP POP POP POP POP JUMP JUMPDEST PUSH1 0x0 DUP1 SLOAD SWAP1 PUSH2 0x100 EXP SWAP1 DIV PUSH20 0xFFFFFFFFFFFFFFFFFFFFFFFFFFFFFFFFFFFFFFFF AND DUP2 JUMP JUMPDEST PUSH1 0x3 PUSH1 0x20 MSTORE DUP1 PUSH1 0x0 MSTORE PUSH1 0x40 PUSH1 0x0 KECCAK256 PUSH1 0x0 SWAP2 POP SWAP1 POP DUP1 PUSH1 0x0 ADD SLOAD SWAP1 DUP1 PUSH1 0x1 ADD SLOAD SWAP1 POP DUP3 JUMP JUMPDEST PUSH1 0x0 PUSH1 0x40 MLOAD SWAP1 POP SWAP1 JUMP JUMPDEST PUSH1 0x0 DUP1 REVERT JUMPDEST PUSH1 0x0 DUP1 REVERT JUMPDEST PUSH1 0x0 DUP2 SWAP1 POP SWAP2 SWAP1 POP JUMP JUMPDEST PUSH2 0x787 DUP2 PUSH2 0x774 JUMP JUMPDEST DUP2 EQ PUSH2 0x792 JUMPI PUSH1 0x0 DUP1 REVERT JUMPDEST POP JUMP JUMPDEST PUSH1 0x0 DUP2 CALLDATALOAD SWAP1 POP PUSH2 0x7A4 DUP2 PUSH2 0x77E JUMP JUMPDEST SWAP3 SWAP2 POP POP JUMP JUMPDEST PUSH1 0x0 PUSH1 0x20 DUP3 DUP5 SUB SLT ISZERO PUSH2 0x7C0 JUMPI PUSH2 0x7BF PUSH2 0x76A JUMP JUMPDEST JUMPDEST PUSH1 0x0 PUSH2 0x7CE DUP5 DUP3 DUP6 ADD PUSH2 0x795 JUMP JUMPDEST SWAP2 POP POP SWAP3 SWAP2 POP POP JUMP JUMPDEST PUSH1 0x0 DUP2 SWAP1 POP SWAP2 SWAP1 POP JUMP JUMPDEST PUSH2 0x7EA DUP2 PUSH2 0x7D7 JUMP JUMPDEST DUP3 MSTORE POP POP JUMP JUMPDEST PUSH1 0x0 PUSH1 0x20 DUP3 ADD SWAP1 POP PUSH2 0x805 PUSH1 0x0 DUP4 ADD DUP5 PUSH2 0x7E1 JUMP JUMPDEST SWAP3 SWAP2 POP POP JUMP JUMPDEST PUSH1 0x0 PUSH20 0xFFFFFFFFFFFFFFFFFFFFFFFFFFFFFFFFFFFFFFFF DUP3 AND SWAP1 POP SWAP2 SWAP1 POP JUMP JUMPDEST PUSH1 0x0 PUSH2 0x836 DUP3 PUSH2 0x80B JUMP JUMPDEST SWAP1 POP SWAP2 SWAP1 POP JUMP JUMPDEST PUSH2 0x846 DUP2 PUSH2 0x82B JUMP JUMPDEST DUP3 MSTORE POP POP JUMP JUMPDEST PUSH1 0x0 PUSH1 0x20 DUP3 ADD SWAP1 POP PUSH2 0x861 PUSH1 0x0 DUP4 ADD DUP5 PUSH2 0x83D JUMP JUMPDEST SWAP3 SWAP2 POP POP JUMP JUMPDEST PUSH2 0x870 DUP2 PUSH2 0x7D7 JUMP JUMPDEST DUP2 EQ PUSH2 0x87B JUMPI PUSH1 0x0 DUP1 REVERT JUMPDEST POP JUMP JUMPDEST PUSH1 0x0 DUP2 CALLDATALOAD SWAP1 POP PUSH2 0x88D DUP2 PUSH2 0x867 JUMP JUMPDEST SWAP3 SWAP2 POP POP JUMP JUMPDEST PUSH1 0x0 DUP1 PUSH1 0x40 DUP4 DUP6 SUB SLT ISZERO PUSH2 0x8AA JUMPI PUSH2 0x8A9 PUSH2 0x76A JUMP JUMPDEST JUMPDEST PUSH1 0x0 PUSH2 0x8B8 DUP6 DUP3 DUP7 ADD PUSH2 0x795 JUMP JUMPDEST SWAP3 POP POP PUSH1 0x20 PUSH2 0x8C9 DUP6 DUP3 DUP7 ADD PUSH2 0x87E JUMP JUMPDEST SWAP2 POP POP SWAP3 POP SWAP3 SWAP1 POP JUMP JUMPDEST PUSH1 0x0 DUP1 PUSH1 0x0 PUSH1 0x60 DUP5 DUP7 SUB SLT ISZERO PUSH2 0x8EC JUMPI PUSH2 0x8EB PUSH2 0x76A JUMP JUMPDEST JUMPDEST PUSH1 0x0 PUSH2 0x8FA DUP7 DUP3 DUP8 ADD PUSH2 0x795 JUMP JUMPDEST SWAP4 POP POP PUSH1 0x20 PUSH2 0x90B DUP7 DUP3 DUP8 ADD PUSH2 0x87E JUMP JUMPDEST SWAP3 POP POP PUSH1 0x40 PUSH2 0x91C DUP7 DUP3 DUP8 ADD PUSH2 0x87E JUMP JUMPDEST SWAP2 POP POP SWAP3 POP SWAP3 POP SWAP3 JUMP JUMPDEST PUSH1 0x0 PUSH1 0x40 DUP3 ADD SWAP1 POP PUSH2 0x93B PUSH1 0x0 DUP4 ADD DUP6 PUSH2 0x7E1 JUMP JUMPDEST PUSH2 0x948 PUSH1 0x20 DUP4 ADD DUP5 PUSH2 0x7E1 JUMP JUMPDEST SWAP4 SWAP3 POP POP POP JUMP JUMPDEST PUSH2 0x958 DUP2 PUSH2 0x774 JUMP JUMPDEST DUP3 MSTORE POP POP JUMP JUMPDEST PUSH1 0x0 PUSH1 0x20 DUP3 ADD SWAP1 POP PUSH2 0x973 PUSH1 0x0 DUP4 ADD DUP5 PUSH2 0x94F JUMP JUMPDEST SWAP3 SWAP2 POP POP JUMP JUMPDEST PUSH2 0x982 DUP2 PUSH2 0x82B JUMP JUMPDEST DUP2 EQ PUSH2 0x98D JUMPI PUSH1 0x0 DUP1 REVERT JUMPDEST POP JUMP JUMPDEST PUSH1 0x0 DUP2 MLOAD SWAP1 POP PUSH2 0x99F DUP2 PUSH2 0x979 JUMP JUMPDEST SWAP3 SWAP2 POP POP JUMP JUMPDEST PUSH1 0x0 DUP1 REVERT JUMPDEST PUSH1 0x0 DUP1 REVERT JUMPDEST PUSH1 0x0 PUSH1 0x1F NOT PUSH1 0x1F DUP4 ADD AND SWAP1 POP SWAP2 SWAP1 POP JUMP JUMPDEST PUSH32 0x4E487B7100000000000000000000000000000000000000000000000000000000 PUSH1 0x0 MSTORE PUSH1 0x41 PUSH1 0x4 MSTORE PUSH1 0x24 PUSH1 0x0 REVERT JUMPDEST PUSH2 0x9F8 DUP3 PUSH2 0x9AF JUMP JUMPDEST DUP2 ADD DUP2 DUP2 LT PUSH8 0xFFFFFFFFFFFFFFFF DUP3 GT OR ISZERO PUSH2 0xA17 JUMPI PUSH2 0xA16 PUSH2 0x9C0 JUMP JUMPDEST JUMPDEST DUP1 PUSH1 0x40 MSTORE POP POP POP JUMP JUMPDEST PUSH1 0x0 PUSH2 0xA2A PUSH2 0x760 JUMP JUMPDEST SWAP1 POP PUSH2 0xA36 DUP3 DUP3 PUSH2 0x9EF JUMP JUMPDEST SWAP2 SWAP1 POP JUMP JUMPDEST PUSH1 0x0 PUSH8 0xFFFFFFFFFFFFFFFF DUP3 GT ISZERO PUSH2 0xA56 JUMPI PUSH2 0xA55 PUSH2 0x9C0 JUMP JUMPDEST JUMPDEST PUSH2 0xA5F DUP3 PUSH2 0x9AF JUMP JUMPDEST SWAP1 POP PUSH1 0x20 DUP2 ADD SWAP1 POP SWAP2 SWAP1 POP JUMP JUMPDEST PUSH1 0x0 JUMPDEST DUP4 DUP2 LT ISZERO PUSH2 0xA8A JUMPI DUP1 DUP3 ADD MLOAD DUP2 DUP5 ADD MSTORE PUSH1 0x20 DUP2 ADD SWAP1 POP PUSH2 0xA6F JUMP JUMPDEST PUSH1 0x0 DUP5 DUP5 ADD MSTORE POP POP POP POP JUMP JUMPDEST PUSH1 0x0 PUSH2 0xAA9 PUSH2 0xAA4 DUP5 PUSH2 0xA3B JUMP JUMPDEST PUSH2 0xA20 JUMP JUMPDEST SWAP1 POP DUP3 DUP2 MSTORE PUSH1 0x20 DUP2 ADD DUP5 DUP5 DUP5 ADD GT ISZERO PUSH2 0xAC5 JUMPI PUSH2 0xAC4 PUSH2 0x9AA JUMP JUMPDEST JUMPDEST PUSH2 0xAD0 DUP5 DUP3 DUP6 PUSH2 0xA6C JUMP JUMPDEST POP SWAP4 SWAP3 POP POP POP JUMP JUMPDEST PUSH1 0x0 DUP3 PUSH1 0x1F DUP4 ADD SLT PUSH2 0xAED JUMPI PUSH2 0xAEC PUSH2 0x9A5 JUMP JUMPDEST JUMPDEST DUP2 MLOAD PUSH2 0xAFD DUP5 DUP3 PUSH1 0x20 DUP7 ADD PUSH2 0xA96 JUMP JUMPDEST SWAP2 POP POP SWAP3 SWAP2 POP POP JUMP JUMPDEST PUSH1 0x0 DUP2 MLOAD SWAP1 POP PUSH2 0xB15 DUP2 PUSH2 0x867 JUMP JUMPDEST SWAP3 SWAP2 POP POP JUMP JUMPDEST PUSH1 0x0 DUP1 PUSH1 0x0 PUSH1 0x60 DUP5 DUP7 SUB SLT ISZERO PUSH2 0xB34 JUMPI PUSH2 0xB33 PUSH2 0x76A JUMP JUMPDEST JUMPDEST PUSH1 0x0 PUSH2 0xB42 DUP7 DUP3 DUP8 ADD PUSH2 0x990 JUMP JUMPDEST SWAP4 POP POP PUSH1 0x20 DUP5 ADD MLOAD PUSH8 0xFFFFFFFFFFFFFFFF DUP2 GT ISZERO PUSH2 0xB63 JUMPI PUSH2 0xB62 PUSH2 0x76F JUMP JUMPDEST JUMPDEST PUSH2 0xB6F DUP7 DUP3 DUP8 ADD PUSH2 0xAD8 JUMP JUMPDEST SWAP3 POP POP PUSH1 0x40 PUSH2 0xB80 DUP7 DUP3 DUP8 ADD PUSH2 0xB06 JUMP JUMPDEST SWAP2 POP POP SWAP3 POP SWAP3 POP SWAP3 JUMP JUMPDEST PUSH1 0x0 DUP3 DUP3 MSTORE PUSH1 0x20 DUP3 ADD SWAP1 POP SWAP3 SWAP2 POP POP JUMP JUMPDEST PUSH32 0x596F7520617265206E6F7420616E20617574686F72697A65642070726F647563 PUSH1 0x0 DUP3 ADD MSTORE PUSH32 0x657220666F7220746869732070726F6475637400000000000000000000000000 PUSH1 0x20 DUP3 ADD MSTORE POP JUMP JUMPDEST PUSH1 0x0 PUSH2 0xBF7 PUSH1 0x33 DUP4 PUSH2 0xB8A JUMP JUMPDEST SWAP2 POP PUSH2 0xC02 DUP3 PUSH2 0xB9B JUMP JUMPDEST PUSH1 0x40 DUP3 ADD SWAP1 POP SWAP2 SWAP1 POP JUMP JUMPDEST PUSH1 0x0 PUSH1 0x20 DUP3 ADD SWAP1 POP DUP2 DUP2 SUB PUSH1 0x0 DUP4 ADD MSTORE PUSH2 0xC26 DUP2 PUSH2 0xBEA JUMP JUMPDEST SWAP1 POP SWAP2 SWAP1 POP JUMP JUMPDEST PUSH32 0x4E487B7100000000000000000000000000000000000000000000000000000000 PUSH1 0x0 MSTORE PUSH1 0x11 PUSH1 0x4 MSTORE PUSH1 0x24 PUSH1 0x0 REVERT JUMPDEST PUSH1 0x0 PUSH2 0xC67 DUP3 PUSH2 0x7D7 JUMP JUMPDEST SWAP2 POP PUSH2 0xC72 DUP4 PUSH2 0x7D7 JUMP JUMPDEST SWAP3 POP DUP3 DUP3 MUL PUSH2 0xC80 DUP2 PUSH2 0x7D7 JUMP JUMPDEST SWAP2 POP DUP3 DUP3 DIV DUP5 EQ DUP4 ISZERO OR PUSH2 0xC97 JUMPI PUSH2 0xC96 PUSH2 0xC2D JUMP JUMPDEST JUMPDEST POP SWAP3 SWAP2 POP POP JUMP JUMPDEST PUSH32 0x496E73756666696369656E742066756E647320746F2070757263686173650000 PUSH1 0x0 DUP3 ADD MSTORE POP JUMP JUMPDEST PUSH1 0x0 PUSH2 0xCD4 PUSH1 0x1E DUP4 PUSH2 0xB8A JUMP JUMPDEST SWAP2 POP PUSH2 0xCDF DUP3 PUSH2 0xC9E JUMP JUMPDEST PUSH1 0x20 DUP3 ADD SWAP1 POP SWAP2 SWAP1 POP JUMP JUMPDEST PUSH1 0x0 PUSH1 0x20 DUP3 ADD SWAP1 POP DUP2 DUP2 SUB PUSH1 0x0 DUP4 ADD MSTORE PUSH2 0xD03 DUP2 PUSH2 0xCC7 JUMP JUMPDEST SWAP1 POP SWAP2 SWAP1 POP JUMP JUMPDEST PUSH32 0x50726F64756374206E6F7420617661696C61626C6520696E2073756666696369 PUSH1 0x0 DUP3 ADD MSTORE PUSH32 0x656E74207175616E746974790000000000000000000000000000000000000000 PUSH1 0x20 DUP3 ADD MSTORE POP JUMP JUMPDEST PUSH1 0x0 PUSH2 0xD66 PUSH1 0x2C DUP4 PUSH2 0xB8A JUMP JUMPDEST SWAP2 POP PUSH2 0xD71 DUP3 PUSH2 0xD0A JUMP JUMPDEST PUSH1 0x40 DUP3 ADD SWAP1 POP SWAP2 SWAP1 POP JUMP JUMPDEST PUSH1 0x0 PUSH1 0x20 DUP3 ADD SWAP1 POP DUP2 DUP2 SUB PUSH1 0x0 DUP4 ADD MSTORE PUSH2 0xD95 DUP2 PUSH2 0xD59 JUMP JUMPDEST SWAP1 POP SWAP2 SWAP1 POP JUMP JUMPDEST PUSH1 0x0 PUSH2 0xDA7 DUP3 PUSH2 0x7D7 JUMP JUMPDEST SWAP2 POP PUSH2 0xDB2 DUP4 PUSH2 0x7D7 JUMP JUMPDEST SWAP3 POP DUP3 DUP3 SUB SWAP1 POP DUP2 DUP2 GT ISZERO PUSH2 0xDCA JUMPI PUSH2 0xDC9 PUSH2 0xC2D JUMP JUMPDEST JUMPDEST SWAP3 SWAP2 POP POP JUMP JUMPDEST PUSH32 0x4E487B7100000000000000000000000000000000000000000000000000000000 PUSH1 0x0 MSTORE PUSH1 0x12 PUSH1 0x4 MSTORE PUSH1 0x24 PUSH1 0x0 REVERT JUMPDEST PUSH1 0x0 PUSH2 0xE0A DUP3 PUSH2 0x7D7 JUMP JUMPDEST SWAP2 POP PUSH2 0xE15 DUP4 PUSH2 0x7D7 JUMP JUMPDEST SWAP3 POP DUP3 PUSH2 0xE25 JUMPI PUSH2 0xE24 PUSH2 0xDD0 JUMP JUMPDEST JUMPDEST DUP3 DUP3 DIV SWAP1 POP SWAP3 SWAP2 POP POP JUMP JUMPDEST PUSH1 0x0 PUSH2 0xE3B DUP3 PUSH2 0x7D7 JUMP JUMPDEST SWAP2 POP PUSH2 0xE46 DUP4 PUSH2 0x7D7 JUMP JUMPDEST SWAP3 POP DUP3 DUP3 ADD SWAP1 POP DUP1 DUP3 GT ISZERO PUSH2 0xE5E JUMPI PUSH2 0xE5D PUSH2 0xC2D JUMP JUMPDEST JUMPDEST SWAP3 SWAP2 POP POP JUMP INVALID LOG2 PUSH5 0x6970667358 0x22 SLT KECCAK256 BALANCE PUSH29 0xB1E9836B81E385EA7E3E6A5F35FD1BB954249F7BC36B084482435B093E SWAP16 PUSH5 0x736F6C6343 STOP ADDMOD SLT STOP CALLER "
				},
				"gasEstimates": {
					"creation": {
						"codeDepositCost": "747600",
						"executionCost": "infinite",
						"totalCost": "infinite"
					},
					"external": {
						"addProductToStore(bytes32,uint256,uint256)": "infinite",
						"checkProductAvailability(bytes32)": "2787",
						"depositContractAddress()": "2559",
						"identificationContractAddress()": "2537",
						"owner()": "2555",
						"purchaseProduct(bytes32,uint256)": "infinite",
						"setProductPrice(bytes32,uint256)": "infinite",
						"storeInventory(bytes32)": "infinite"
					}
				},
				"methodIdentifiers": {
					"addProductToStore(bytes32,uint256,uint256)": "88bac96d",
					"checkProductAvailability(bytes32)": "0162df93",
					"depositContractAddress()": "2a4dbd2b",
					"identificationContractAddress()": "14db1271",
					"owner()": "8da5cb5b",
					"purchaseProduct(bytes32,uint256)": "788e72a5",
					"setProductPrice(bytes32,uint256)": "58148048",
					"storeInventory(bytes32)": "d45fb2c4"
				}
			},
			"storageLayout": {
				"storage": [
					{
						"astId": 163,
						"contract": "contracts/ProductStore.sol:ProductStore",
						"label": "owner",
						"offset": 0,
						"slot": "0",
						"type": "t_address"
					},
					{
						"astId": 165,
						"contract": "contracts/ProductStore.sol:ProductStore",
						"label": "identificationContractAddress",
						"offset": 0,
						"slot": "1",
						"type": "t_address"
					},
					{
						"astId": 167,
						"contract": "contracts/ProductStore.sol:ProductStore",
						"label": "depositContractAddress",
						"offset": 0,
						"slot": "2",
						"type": "t_address"
					},
					{
						"astId": 177,
						"contract": "contracts/ProductStore.sol:ProductStore",
						"label": "storeInventory",
						"offset": 0,
						"slot": "3",
						"type": "t_mapping(t_bytes32,t_struct(Product)172_storage)"
					}
				],
				"types": {
					"t_address": {
						"encoding": "inplace",
						"label": "address",
						"numberOfBytes": "20"
					},
					"t_bytes32": {
						"encoding": "inplace",
						"label": "bytes32",
						"numberOfBytes": "32"
					},
					"t_mapping(t_bytes32,t_struct(Product)172_storage)": {
						"encoding": "mapping",
						"key": "t_bytes32",
						"label": "mapping(bytes32 => struct ProductStore.Product)",
						"numberOfBytes": "32",
						"value": "t_struct(Product)172_storage"
					},
					"t_struct(Product)172_storage": {
						"encoding": "inplace",
						"label": "struct ProductStore.Product",
						"members": [
							{
								"astId": 169,
								"contract": "contracts/ProductStore.sol:ProductStore",
								"label": "pricePerUnit",
								"offset": 0,
								"slot": "0",
								"type": "t_uint256"
							},
							{
								"astId": 171,
								"contract": "contracts/ProductStore.sol:ProductStore",
								"label": "quantity",
								"offset": 0,
								"slot": "1",
								"type": "t_uint256"
							}
						],
						"numberOfBytes": "64"
					},
					"t_uint256": {
						"encoding": "inplace",
						"label": "uint256",
						"numberOfBytes": "32"
					}
				}
			},
			"userdoc": {
				"kind": "user",
				"methods": {},
				"version": 1
			}
		}
	}
}