{
	"contracts/ProductIdentification.sol": {
		"ProductIdentification": {
			"abi": [
				{
					"inputs": [
						{
							"internalType": "uint256",
							"name": "_registrationFee",
							"type": "uint256"
						}
					],
					"stateMutability": "nonpayable",
					"type": "constructor"
				},
				{
					"inputs": [
						{
							"internalType": "bytes32",
							"name": "_productId",
							"type": "bytes32"
						}
					],
					"name": "getProducerAddress",
					"outputs": [
						{
							"internalType": "address",
							"name": "",
							"type": "address"
						}
					],
					"stateMutability": "view",
					"type": "function"
				},
				{
					"inputs": [
						{
							"internalType": "bytes32",
							"name": "_productId",
							"type": "bytes32"
						}
					],
					"name": "getProductInfo",
					"outputs": [
						{
							"internalType": "address",
							"name": "",
							"type": "address"
						},
						{
							"internalType": "string",
							"name": "",
							"type": "string"
						},
						{
							"internalType": "uint256",
							"name": "",
							"type": "uint256"
						}
					],
					"stateMutability": "view",
					"type": "function"
				},
				{
					"inputs": [
						{
							"internalType": "address",
							"name": "_producerAddress",
							"type": "address"
						}
					],
					"name": "isProducerRegistered",
					"outputs": [
						{
							"internalType": "bool",
							"name": "",
							"type": "bool"
						}
					],
					"stateMutability": "view",
					"type": "function"
				},
				{
					"inputs": [],
					"name": "owner",
					"outputs": [
						{
							"internalType": "address",
							"name": "",
							"type": "address"
						}
					],
					"stateMutability": "view",
					"type": "function"
				},
				{
					"inputs": [
						{
							"internalType": "bytes32",
							"name": "",
							"type": "bytes32"
						}
					],
					"name": "products",
					"outputs": [
						{
							"internalType": "address",
							"name": "producerAddress",
							"type": "address"
						},
						{
							"internalType": "string",
							"name": "productName",
							"type": "string"
						},
						{
							"internalType": "uint256",
							"name": "volume",
							"type": "uint256"
						}
					],
					"stateMutability": "view",
					"type": "function"
				},
				{
					"inputs": [
						{
							"internalType": "address",
							"name": "_producerAddress",
							"type": "address"
						},
						{
							"internalType": "string",
							"name": "_productName",
							"type": "string"
						},
						{
							"internalType": "uint256",
							"name": "_volume",
							"type": "uint256"
						}
					],
					"name": "registerProducer",
					"outputs": [],
					"stateMutability": "payable",
					"type": "function"
				},
				{
					"inputs": [
						{
							"internalType": "address",
							"name": "",
							"type": "address"
						}
					],
					"name": "registeredProducers",
					"outputs": [
						{
							"internalType": "bool",
							"name": "",
							"type": "bool"
						}
					],
					"stateMutability": "view",
					"type": "function"
				},
				{
					"inputs": [],
					"name": "registrationFee",
					"outputs": [
						{
							"internalType": "uint256",
							"name": "",
							"type": "uint256"
						}
					],
					"stateMutability": "view",
					"type": "function"
				}
			],
			"devdoc": {
				"kind": "dev",
				"methods": {},
				"version": 1
			},
			"evm": {
				"assembly": "    /* \"contracts/ProductIdentification.sol\":25:1690  contract ProductIdentification {... */\n  mstore(0x40, 0x80)\n    /* \"contracts/ProductIdentification.sol\":345:459  constructor(uint _registrationFee) {... */\n  callvalue\n  dup1\n  iszero\n  tag_1\n  jumpi\n  0x00\n  dup1\n  revert\ntag_1:\n  pop\n  mload(0x40)\n  sub(codesize, bytecodeSize)\n  dup1\n  bytecodeSize\n  dup4\n  codecopy\n  dup2\n  dup2\n  add\n  0x40\n  mstore\n  dup2\n  add\n  swap1\n  tag_2\n  swap2\n  swap1\n  tag_3\n  jump\t// in\ntag_2:\n    /* \"contracts/ProductIdentification.sol\":398:408  msg.sender */\n  caller\n    /* \"contracts/ProductIdentification.sol\":390:395  owner */\n  0x00\n  dup1\n    /* \"contracts/ProductIdentification.sol\":390:408  owner = msg.sender */\n  0x0100\n  exp\n  dup2\n  sload\n  dup2\n  0xffffffffffffffffffffffffffffffffffffffff\n  mul\n  not\n  and\n  swap1\n  dup4\n  0xffffffffffffffffffffffffffffffffffffffff\n  and\n  mul\n  or\n  swap1\n  sstore\n  pop\n    /* \"contracts/ProductIdentification.sol\":436:452  _registrationFee */\n  dup1\n    /* \"contracts/ProductIdentification.sol\":418:433  registrationFee */\n  0x01\n    /* \"contracts/ProductIdentification.sol\":418:452  registrationFee = _registrationFee */\n  dup2\n  swap1\n  sstore\n  pop\n    /* \"contracts/ProductIdentification.sol\":345:459  constructor(uint _registrationFee) {... */\n  pop\n    /* \"contracts/ProductIdentification.sol\":25:1690  contract ProductIdentification {... */\n  jump(tag_6)\n    /* \"#utility.yul\":88:205   */\ntag_8:\n    /* \"#utility.yul\":197:198   */\n  0x00\n    /* \"#utility.yul\":194:195   */\n  dup1\n    /* \"#utility.yul\":187:199   */\n  revert\n    /* \"#utility.yul\":334:411   */\ntag_10:\n    /* \"#utility.yul\":371:378   */\n  0x00\n    /* \"#utility.yul\":400:405   */\n  dup2\n    /* \"#utility.yul\":389:405   */\n  swap1\n  pop\n    /* \"#utility.yul\":334:411   */\n  swap2\n  swap1\n  pop\n  jump\t// out\n    /* \"#utility.yul\":417:539   */\ntag_11:\n    /* \"#utility.yul\":490:514   */\n  tag_19\n    /* \"#utility.yul\":508:513   */\n  dup2\n    /* \"#utility.yul\":490:514   */\n  tag_10\n  jump\t// in\ntag_19:\n    /* \"#utility.yul\":483:488   */\n  dup2\n    /* \"#utility.yul\":480:515   */\n  eq\n    /* \"#utility.yul\":470:533   */\n  tag_20\n  jumpi\n    /* \"#utility.yul\":529:530   */\n  0x00\n    /* \"#utility.yul\":526:527   */\n  dup1\n    /* \"#utility.yul\":519:531   */\n  revert\n    /* \"#utility.yul\":470:533   */\ntag_20:\n    /* \"#utility.yul\":417:539   */\n  pop\n  jump\t// out\n    /* \"#utility.yul\":545:688   */\ntag_12:\n    /* \"#utility.yul\":602:607   */\n  0x00\n    /* \"#utility.yul\":633:639   */\n  dup2\n    /* \"#utility.yul\":627:640   */\n  mload\n    /* \"#utility.yul\":618:640   */\n  swap1\n  pop\n    /* \"#utility.yul\":649:682   */\n  tag_22\n    /* \"#utility.yul\":676:681   */\n  dup2\n    /* \"#utility.yul\":649:682   */\n  tag_11\n  jump\t// in\ntag_22:\n    /* \"#utility.yul\":545:688   */\n  swap3\n  swap2\n  pop\n  pop\n  jump\t// out\n    /* \"#utility.yul\":694:1045   */\ntag_3:\n    /* \"#utility.yul\":764:770   */\n  0x00\n    /* \"#utility.yul\":813:815   */\n  0x20\n    /* \"#utility.yul\":801:810   */\n  dup3\n    /* \"#utility.yul\":792:799   */\n  dup5\n    /* \"#utility.yul\":788:811   */\n  sub\n    /* \"#utility.yul\":784:816   */\n  slt\n    /* \"#utility.yul\":781:900   */\n  iszero\n  tag_24\n  jumpi\n    /* \"#utility.yul\":819:898   */\n  tag_25\n  tag_8\n  jump\t// in\ntag_25:\n    /* \"#utility.yul\":781:900   */\ntag_24:\n    /* \"#utility.yul\":939:940   */\n  0x00\n    /* \"#utility.yul\":964:1028   */\n  tag_26\n    /* \"#utility.yul\":1020:1027   */\n  dup5\n    /* \"#utility.yul\":1011:1017   */\n  dup3\n    /* \"#utility.yul\":1000:1009   */\n  dup6\n    /* \"#utility.yul\":996:1018   */\n  add\n    /* \"#utility.yul\":964:1028   */\n  tag_12\n  jump\t// in\ntag_26:\n    /* \"#utility.yul\":954:1028   */\n  swap2\n  pop\n    /* \"#utility.yul\":910:1038   */\n  pop\n    /* \"#utility.yul\":694:1045   */\n  swap3\n  swap2\n  pop\n  pop\n  jump\t// out\n    /* \"contracts/ProductIdentification.sol\":25:1690  contract ProductIdentification {... */\ntag_6:\n  dataSize(sub_0)\n  dup1\n  dataOffset(sub_0)\n  0x00\n  codecopy\n  0x00\n  return\nstop\n\nsub_0: assembly {\n        /* \"contracts/ProductIdentification.sol\":25:1690  contract ProductIdentification {... */\n      mstore(0x40, 0x80)\n      jumpi(tag_1, lt(calldatasize, 0x04))\n      shr(0xe0, calldataload(0x00))\n      dup1\n      0x76bc59ec\n      gt\n      tag_10\n      jumpi\n      dup1\n      0x76bc59ec\n      eq\n      tag_6\n      jumpi\n      dup1\n      0x79054391\n      eq\n      tag_7\n      jumpi\n      dup1\n      0x8da5cb5b\n      eq\n      tag_8\n      jumpi\n      dup1\n      0xb92495c4\n      eq\n      tag_9\n      jumpi\n      jump(tag_1)\n    tag_10:\n      dup1\n      0x14c44e09\n      eq\n      tag_2\n      jumpi\n      dup1\n      0x238f1804\n      eq\n      tag_3\n      jumpi\n      dup1\n      0x5cbd47e3\n      eq\n      tag_4\n      jumpi\n      dup1\n      0x605f9998\n      eq\n      tag_5\n      jumpi\n    tag_1:\n      0x00\n      dup1\n      revert\n        /* \"contracts/ProductIdentification.sol\":88:115  uint public registrationFee */\n    tag_2:\n      callvalue\n      dup1\n      iszero\n      tag_11\n      jumpi\n      0x00\n      dup1\n      revert\n    tag_11:\n      pop\n      tag_12\n      tag_13\n      jump\t// in\n    tag_12:\n      mload(0x40)\n      tag_14\n      swap2\n      swap1\n      tag_15\n      jump\t// in\n    tag_14:\n      mload(0x40)\n      dup1\n      swap2\n      sub\n      swap1\n      return\n        /* \"contracts/ProductIdentification.sol\":589:1103  function registerProducer(address _producerAddress, string memory _productName, uint _volume) public payable {... */\n    tag_3:\n      tag_16\n      0x04\n      dup1\n      calldatasize\n      sub\n      dup2\n      add\n      swap1\n      tag_17\n      swap2\n      swap1\n      tag_18\n      jump\t// in\n    tag_17:\n      tag_19\n      jump\t// in\n    tag_16:\n      stop\n        /* \"contracts/ProductIdentification.sol\":1259:1500  function getProductInfo(bytes32 _productId) public view returns (address, string memory, uint) {... */\n    tag_4:\n      callvalue\n      dup1\n      iszero\n      tag_20\n      jumpi\n      0x00\n      dup1\n      revert\n    tag_20:\n      pop\n      tag_21\n      0x04\n      dup1\n      calldatasize\n      sub\n      dup2\n      add\n      swap1\n      tag_22\n      swap2\n      swap1\n      tag_23\n      jump\t// in\n    tag_22:\n      tag_24\n      jump\t// in\n    tag_21:\n      mload(0x40)\n      tag_25\n      swap4\n      swap3\n      swap2\n      swap1\n      tag_26\n      jump\t// in\n    tag_25:\n      mload(0x40)\n      dup1\n      swap2\n      sub\n      swap1\n      return\n        /* \"contracts/ProductIdentification.sol\":1109:1253  function isProducerRegistered(address _producerAddress) public view returns (bool) {... */\n    tag_5:\n      callvalue\n      dup1\n      iszero\n      tag_27\n      jumpi\n      0x00\n      dup1\n      revert\n    tag_27:\n      pop\n      tag_28\n      0x04\n      dup1\n      calldatasize\n      sub\n      dup2\n      add\n      swap1\n      tag_29\n      swap2\n      swap1\n      tag_30\n      jump\t// in\n    tag_29:\n      tag_31\n      jump\t// in\n    tag_28:\n      mload(0x40)\n      tag_32\n      swap2\n      swap1\n      tag_33\n      jump\t// in\n    tag_32:\n      mload(0x40)\n      dup1\n      swap2\n      sub\n      swap1\n      return\n        /* \"contracts/ProductIdentification.sol\":237:288  mapping(address => bool) public registeredProducers */\n    tag_6:\n      callvalue\n      dup1\n      iszero\n      tag_34\n      jumpi\n      0x00\n      dup1\n      revert\n    tag_34:\n      pop\n      tag_35\n      0x04\n      dup1\n      calldatasize\n      sub\n      dup2\n      add\n      swap1\n      tag_36\n      swap2\n      swap1\n      tag_30\n      jump\t// in\n    tag_36:\n      tag_37\n      jump\t// in\n    tag_35:\n      mload(0x40)\n      tag_38\n      swap2\n      swap1\n      tag_33\n      jump\t// in\n    tag_38:\n      mload(0x40)\n      dup1\n      swap2\n      sub\n      swap1\n      return\n        /* \"contracts/ProductIdentification.sol\":294:338  mapping(bytes32 => Producer) public products */\n    tag_7:\n      callvalue\n      dup1\n      iszero\n      tag_39\n      jumpi\n      0x00\n      dup1\n      revert\n    tag_39:\n      pop\n      tag_40\n      0x04\n      dup1\n      calldatasize\n      sub\n      dup2\n      add\n      swap1\n      tag_41\n      swap2\n      swap1\n      tag_23\n      jump\t// in\n    tag_41:\n      tag_42\n      jump\t// in\n    tag_40:\n      mload(0x40)\n      tag_43\n      swap4\n      swap3\n      swap2\n      swap1\n      tag_26\n      jump\t// in\n    tag_43:\n      mload(0x40)\n      dup1\n      swap2\n      sub\n      swap1\n      return\n        /* \"contracts/ProductIdentification.sol\":62:82  address public owner */\n    tag_8:\n      callvalue\n      dup1\n      iszero\n      tag_44\n      jumpi\n      0x00\n      dup1\n      revert\n    tag_44:\n      pop\n      tag_45\n      tag_46\n      jump\t// in\n    tag_45:\n      mload(0x40)\n      tag_47\n      swap2\n      swap1\n      tag_48\n      jump\t// in\n    tag_47:\n      mload(0x40)\n      dup1\n      swap2\n      sub\n      swap1\n      return\n        /* \"contracts/ProductIdentification.sol\":1505:1688  function getProducerAddress(bytes32 _productId) public view returns (address) {... */\n    tag_9:\n      callvalue\n      dup1\n      iszero\n      tag_49\n      jumpi\n      0x00\n      dup1\n      revert\n    tag_49:\n      pop\n      tag_50\n      0x04\n      dup1\n      calldatasize\n      sub\n      dup2\n      add\n      swap1\n      tag_51\n      swap2\n      swap1\n      tag_23\n      jump\t// in\n    tag_51:\n      tag_52\n      jump\t// in\n    tag_50:\n      mload(0x40)\n      tag_53\n      swap2\n      swap1\n      tag_48\n      jump\t// in\n    tag_53:\n      mload(0x40)\n      dup1\n      swap2\n      sub\n      swap1\n      return\n        /* \"contracts/ProductIdentification.sol\":88:115  uint public registrationFee */\n    tag_13:\n      sload(0x01)\n      dup2\n      jump\t// out\n        /* \"contracts/ProductIdentification.sol\":589:1103  function registerProducer(address _producerAddress, string memory _productName, uint _volume) public payable {... */\n    tag_19:\n        /* \"contracts/ProductIdentification.sol\":729:744  registrationFee */\n      sload(0x01)\n        /* \"contracts/ProductIdentification.sol\":716:725  msg.value */\n      callvalue\n        /* \"contracts/ProductIdentification.sol\":716:744  msg.value == registrationFee */\n      eq\n        /* \"contracts/ProductIdentification.sol\":708:775  require(msg.value == registrationFee, \"Registration fee not paid.\") */\n      tag_55\n      jumpi\n      mload(0x40)\n      0x08c379a000000000000000000000000000000000000000000000000000000000\n      dup2\n      mstore\n      0x04\n      add\n      tag_56\n      swap1\n      tag_57\n      jump\t// in\n    tag_56:\n      mload(0x40)\n      dup1\n      swap2\n      sub\n      swap1\n      revert\n    tag_55:\n        /* \"contracts/ProductIdentification.sol\":794:813  registeredProducers */\n      0x02\n        /* \"contracts/ProductIdentification.sol\":794:831  registeredProducers[_producerAddress] */\n      0x00\n        /* \"contracts/ProductIdentification.sol\":814:830  _producerAddress */\n      dup5\n        /* \"contracts/ProductIdentification.sol\":794:831  registeredProducers[_producerAddress] */\n      0xffffffffffffffffffffffffffffffffffffffff\n      and\n      0xffffffffffffffffffffffffffffffffffffffff\n      and\n      dup2\n      mstore\n      0x20\n      add\n      swap1\n      dup2\n      mstore\n      0x20\n      add\n      0x00\n      keccak256\n      0x00\n      swap1\n      sload\n      swap1\n      0x0100\n      exp\n      swap1\n      div\n      0xff\n      and\n        /* \"contracts/ProductIdentification.sol\":793:831  !registeredProducers[_producerAddress] */\n      iszero\n        /* \"contracts/ProductIdentification.sol\":785:863  require(!registeredProducers[_producerAddress], \"Producer already registered\") */\n      tag_58\n      jumpi\n      mload(0x40)\n      0x08c379a000000000000000000000000000000000000000000000000000000000\n      dup2\n      mstore\n      0x04\n      add\n      tag_59\n      swap1\n      tag_60\n      jump\t// in\n    tag_59:\n      mload(0x40)\n      dup1\n      swap2\n      sub\n      swap1\n      revert\n    tag_58:\n        /* \"contracts/ProductIdentification.sol\":882:899  bytes32 productId */\n      0x00\n        /* \"contracts/ProductIdentification.sol\":929:945  _producerAddress */\n      dup4\n        /* \"contracts/ProductIdentification.sol\":947:959  _productName */\n      dup4\n        /* \"contracts/ProductIdentification.sol\":912:960  abi.encodePacked(_producerAddress, _productName) */\n      add(0x20, mload(0x40))\n      tag_61\n      swap3\n      swap2\n      swap1\n      tag_62\n      jump\t// in\n    tag_61:\n      mload(0x40)\n      0x20\n      dup2\n      dup4\n      sub\n      sub\n      dup2\n      mstore\n      swap1\n      0x40\n      mstore\n        /* \"contracts/ProductIdentification.sol\":902:961  keccak256(abi.encodePacked(_producerAddress, _productName)) */\n      dup1\n      mload\n      swap1\n      0x20\n      add\n      keccak256\n        /* \"contracts/ProductIdentification.sol\":882:961  bytes32 productId = keccak256(abi.encodePacked(_producerAddress, _productName)) */\n      swap1\n      pop\n        /* \"contracts/ProductIdentification.sol\":993:1042  Producer(_producerAddress, _productName, _volume) */\n      mload(0x40)\n      dup1\n      0x60\n      add\n      0x40\n      mstore\n      dup1\n        /* \"contracts/ProductIdentification.sol\":1002:1018  _producerAddress */\n      dup6\n        /* \"contracts/ProductIdentification.sol\":993:1042  Producer(_producerAddress, _productName, _volume) */\n      0xffffffffffffffffffffffffffffffffffffffff\n      and\n      dup2\n      mstore\n      0x20\n      add\n        /* \"contracts/ProductIdentification.sol\":1020:1032  _productName */\n      dup5\n        /* \"contracts/ProductIdentification.sol\":993:1042  Producer(_producerAddress, _productName, _volume) */\n      dup2\n      mstore\n      0x20\n      add\n        /* \"contracts/ProductIdentification.sol\":1034:1041  _volume */\n      dup4\n        /* \"contracts/ProductIdentification.sol\":993:1042  Producer(_producerAddress, _productName, _volume) */\n      dup2\n      mstore\n      pop\n        /* \"contracts/ProductIdentification.sol\":971:979  products */\n      0x03\n        /* \"contracts/ProductIdentification.sol\":971:990  products[productId] */\n      0x00\n        /* \"contracts/ProductIdentification.sol\":980:989  productId */\n      dup4\n        /* \"contracts/ProductIdentification.sol\":971:990  products[productId] */\n      dup2\n      mstore\n      0x20\n      add\n      swap1\n      dup2\n      mstore\n      0x20\n      add\n      0x00\n      keccak256\n        /* \"contracts/ProductIdentification.sol\":971:1042  products[productId] = Producer(_producerAddress, _productName, _volume) */\n      0x00\n      dup3\n      add\n      mload\n      dup2\n      0x00\n      add\n      exp(0x0100, 0x00)\n      dup2\n      sload\n      dup2\n      0xffffffffffffffffffffffffffffffffffffffff\n      mul\n      not\n      and\n      swap1\n      dup4\n      0xffffffffffffffffffffffffffffffffffffffff\n      and\n      mul\n      or\n      swap1\n      sstore\n      pop\n      0x20\n      dup3\n      add\n      mload\n      dup2\n      0x01\n      add\n      swap1\n      dup2\n      tag_63\n      swap2\n      swap1\n      tag_64\n      jump\t// in\n    tag_63:\n      pop\n      0x40\n      dup3\n      add\n      mload\n      dup2\n      0x02\n      add\n      sstore\n      swap1\n      pop\n      pop\n        /* \"contracts/ProductIdentification.sol\":1092:1096  true */\n      0x01\n        /* \"contracts/ProductIdentification.sol\":1052:1071  registeredProducers */\n      0x02\n        /* \"contracts/ProductIdentification.sol\":1052:1089  registeredProducers[_producerAddress] */\n      0x00\n        /* \"contracts/ProductIdentification.sol\":1072:1088  _producerAddress */\n      dup7\n        /* \"contracts/ProductIdentification.sol\":1052:1089  registeredProducers[_producerAddress] */\n      0xffffffffffffffffffffffffffffffffffffffff\n      and\n      0xffffffffffffffffffffffffffffffffffffffff\n      and\n      dup2\n      mstore\n      0x20\n      add\n      swap1\n      dup2\n      mstore\n      0x20\n      add\n      0x00\n      keccak256\n      0x00\n        /* \"contracts/ProductIdentification.sol\":1052:1096  registeredProducers[_producerAddress] = true */\n      0x0100\n      exp\n      dup2\n      sload\n      dup2\n      0xff\n      mul\n      not\n      and\n      swap1\n      dup4\n      iszero\n      iszero\n      mul\n      or\n      swap1\n      sstore\n      pop\n        /* \"contracts/ProductIdentification.sol\":698:1103  {... */\n      pop\n        /* \"contracts/ProductIdentification.sol\":589:1103  function registerProducer(address _producerAddress, string memory _productName, uint _volume) public payable {... */\n      pop\n      pop\n      pop\n      jump\t// out\n        /* \"contracts/ProductIdentification.sol\":1259:1500  function getProductInfo(bytes32 _productId) public view returns (address, string memory, uint) {... */\n    tag_24:\n        /* \"contracts/ProductIdentification.sol\":1324:1331  address */\n      0x00\n        /* \"contracts/ProductIdentification.sol\":1333:1346  string memory */\n      0x60\n        /* \"contracts/ProductIdentification.sol\":1348:1352  uint */\n      0x00\n        /* \"contracts/ProductIdentification.sol\":1364:1388  Producer memory producer */\n      dup1\n        /* \"contracts/ProductIdentification.sol\":1391:1399  products */\n      0x03\n        /* \"contracts/ProductIdentification.sol\":1391:1411  products[_productId] */\n      0x00\n        /* \"contracts/ProductIdentification.sol\":1400:1410  _productId */\n      dup7\n        /* \"contracts/ProductIdentification.sol\":1391:1411  products[_productId] */\n      dup2\n      mstore\n      0x20\n      add\n      swap1\n      dup2\n      mstore\n      0x20\n      add\n      0x00\n      keccak256\n        /* \"contracts/ProductIdentification.sol\":1364:1411  Producer memory producer = products[_productId] */\n      mload(0x40)\n      dup1\n      0x60\n      add\n      0x40\n      mstore\n      swap1\n      dup2\n      0x00\n      dup3\n      add\n      0x00\n      swap1\n      sload\n      swap1\n      0x0100\n      exp\n      swap1\n      div\n      0xffffffffffffffffffffffffffffffffffffffff\n      and\n      0xffffffffffffffffffffffffffffffffffffffff\n      and\n      0xffffffffffffffffffffffffffffffffffffffff\n      and\n      dup2\n      mstore\n      0x20\n      add\n      0x01\n      dup3\n      add\n      dup1\n      sload\n      tag_66\n      swap1\n      tag_67\n      jump\t// in\n    tag_66:\n      dup1\n      0x1f\n      add\n      0x20\n      dup1\n      swap2\n      div\n      mul\n      0x20\n      add\n      mload(0x40)\n      swap1\n      dup2\n      add\n      0x40\n      mstore\n      dup1\n      swap3\n      swap2\n      swap1\n      dup2\n      dup2\n      mstore\n      0x20\n      add\n      dup3\n      dup1\n      sload\n      tag_68\n      swap1\n      tag_67\n      jump\t// in\n    tag_68:\n      dup1\n      iszero\n      tag_69\n      jumpi\n      dup1\n      0x1f\n      lt\n      tag_70\n      jumpi\n      0x0100\n      dup1\n      dup4\n      sload\n      div\n      mul\n      dup4\n      mstore\n      swap2\n      0x20\n      add\n      swap2\n      jump(tag_69)\n    tag_70:\n      dup3\n      add\n      swap2\n      swap1\n      0x00\n      mstore\n      keccak256(0x00, 0x20)\n      swap1\n    tag_71:\n      dup2\n      sload\n      dup2\n      mstore\n      swap1\n      0x01\n      add\n      swap1\n      0x20\n      add\n      dup1\n      dup4\n      gt\n      tag_71\n      jumpi\n      dup3\n      swap1\n      sub\n      0x1f\n      and\n      dup3\n      add\n      swap2\n    tag_69:\n      pop\n      pop\n      pop\n      pop\n      pop\n      dup2\n      mstore\n      0x20\n      add\n      0x02\n      dup3\n      add\n      sload\n      dup2\n      mstore\n      pop\n      pop\n      swap1\n      pop\n        /* \"contracts/ProductIdentification.sol\":1429:1437  producer */\n      dup1\n        /* \"contracts/ProductIdentification.sol\":1429:1453  producer.producerAddress */\n      0x00\n      add\n      mload\n        /* \"contracts/ProductIdentification.sol\":1455:1463  producer */\n      dup2\n        /* \"contracts/ProductIdentification.sol\":1455:1475  producer.productName */\n      0x20\n      add\n      mload\n        /* \"contracts/ProductIdentification.sol\":1477:1485  producer */\n      dup3\n        /* \"contracts/ProductIdentification.sol\":1477:1492  producer.volume */\n      0x40\n      add\n      mload\n        /* \"contracts/ProductIdentification.sol\":1421:1493  return (producer.producerAddress, producer.productName, producer.volume) */\n      swap4\n      pop\n      swap4\n      pop\n      swap4\n      pop\n      pop\n        /* \"contracts/ProductIdentification.sol\":1259:1500  function getProductInfo(bytes32 _productId) public view returns (address, string memory, uint) {... */\n      swap2\n      swap4\n      swap1\n      swap3\n      pop\n      jump\t// out\n        /* \"contracts/ProductIdentification.sol\":1109:1253  function isProducerRegistered(address _producerAddress) public view returns (bool) {... */\n    tag_31:\n        /* \"contracts/ProductIdentification.sol\":1186:1190  bool */\n      0x00\n        /* \"contracts/ProductIdentification.sol\":1209:1228  registeredProducers */\n      0x02\n        /* \"contracts/ProductIdentification.sol\":1209:1246  registeredProducers[_producerAddress] */\n      0x00\n        /* \"contracts/ProductIdentification.sol\":1229:1245  _producerAddress */\n      dup4\n        /* \"contracts/ProductIdentification.sol\":1209:1246  registeredProducers[_producerAddress] */\n      0xffffffffffffffffffffffffffffffffffffffff\n      and\n      0xffffffffffffffffffffffffffffffffffffffff\n      and\n      dup2\n      mstore\n      0x20\n      add\n      swap1\n      dup2\n      mstore\n      0x20\n      add\n      0x00\n      keccak256\n      0x00\n      swap1\n      sload\n      swap1\n      0x0100\n      exp\n      swap1\n      div\n      0xff\n      and\n        /* \"contracts/ProductIdentification.sol\":1202:1246  return registeredProducers[_producerAddress] */\n      swap1\n      pop\n        /* \"contracts/ProductIdentification.sol\":1109:1253  function isProducerRegistered(address _producerAddress) public view returns (bool) {... */\n      swap2\n      swap1\n      pop\n      jump\t// out\n        /* \"contracts/ProductIdentification.sol\":237:288  mapping(address => bool) public registeredProducers */\n    tag_37:\n      mstore(0x20, 0x02)\n      dup1\n      0x00\n      mstore\n      keccak256(0x00, 0x40)\n      0x00\n      swap2\n      pop\n      sload\n      swap1\n      0x0100\n      exp\n      swap1\n      div\n      0xff\n      and\n      dup2\n      jump\t// out\n        /* \"contracts/ProductIdentification.sol\":294:338  mapping(bytes32 => Producer) public products */\n    tag_42:\n      mstore(0x20, 0x03)\n      dup1\n      0x00\n      mstore\n      keccak256(0x00, 0x40)\n      0x00\n      swap2\n      pop\n      swap1\n      pop\n      dup1\n      0x00\n      add\n      0x00\n      swap1\n      sload\n      swap1\n      0x0100\n      exp\n      swap1\n      div\n      0xffffffffffffffffffffffffffffffffffffffff\n      and\n      swap1\n      dup1\n      0x01\n      add\n      dup1\n      sload\n      tag_73\n      swap1\n      tag_67\n      jump\t// in\n    tag_73:\n      dup1\n      0x1f\n      add\n      0x20\n      dup1\n      swap2\n      div\n      mul\n      0x20\n      add\n      mload(0x40)\n      swap1\n      dup2\n      add\n      0x40\n      mstore\n      dup1\n      swap3\n      swap2\n      swap1\n      dup2\n      dup2\n      mstore\n      0x20\n      add\n      dup3\n      dup1\n      sload\n      tag_74\n      swap1\n      tag_67\n      jump\t// in\n    tag_74:\n      dup1\n      iszero\n      tag_75\n      jumpi\n      dup1\n      0x1f\n      lt\n      tag_76\n      jumpi\n      0x0100\n      dup1\n      dup4\n      sload\n      div\n      mul\n      dup4\n      mstore\n      swap2\n      0x20\n      add\n      swap2\n      jump(tag_75)\n    tag_76:\n      dup3\n      add\n      swap2\n      swap1\n      0x00\n      mstore\n      keccak256(0x00, 0x20)\n      swap1\n    tag_77:\n      dup2\n      sload\n      dup2\n      mstore\n      swap1\n      0x01\n      add\n      swap1\n      0x20\n      add\n      dup1\n      dup4\n      gt\n      tag_77\n      jumpi\n      dup3\n      swap1\n      sub\n      0x1f\n      and\n      dup3\n      add\n      swap2\n    tag_75:\n      pop\n      pop\n      pop\n      pop\n      pop\n      swap1\n      dup1\n      0x02\n      add\n      sload\n      swap1\n      pop\n      dup4\n      jump\t// out\n        /* \"contracts/ProductIdentification.sol\":62:82  address public owner */\n    tag_46:\n      0x00\n      dup1\n      sload\n      swap1\n      0x0100\n      exp\n      swap1\n      div\n      0xffffffffffffffffffffffffffffffffffffffff\n      and\n      dup2\n      jump\t// out\n        /* \"contracts/ProductIdentification.sol\":1505:1688  function getProducerAddress(bytes32 _productId) public view returns (address) {... */\n    tag_52:\n        /* \"contracts/ProductIdentification.sol\":1574:1581  address */\n      0x00\n        /* \"contracts/ProductIdentification.sol\":1593:1617  Producer memory producer */\n      dup1\n        /* \"contracts/ProductIdentification.sol\":1620:1628  products */\n      0x03\n        /* \"contracts/ProductIdentification.sol\":1620:1640  products[_productId] */\n      0x00\n        /* \"contracts/ProductIdentification.sol\":1629:1639  _productId */\n      dup5\n        /* \"contracts/ProductIdentification.sol\":1620:1640  products[_productId] */\n      dup2\n      mstore\n      0x20\n      add\n      swap1\n      dup2\n      mstore\n      0x20\n      add\n      0x00\n      keccak256\n        /* \"contracts/ProductIdentification.sol\":1593:1640  Producer memory producer = products[_productId] */\n      mload(0x40)\n      dup1\n      0x60\n      add\n      0x40\n      mstore\n      swap1\n      dup2\n      0x00\n      dup3\n      add\n      0x00\n      swap1\n      sload\n      swap1\n      0x0100\n      exp\n      swap1\n      div\n      0xffffffffffffffffffffffffffffffffffffffff\n      and\n      0xffffffffffffffffffffffffffffffffffffffff\n      and\n      0xffffffffffffffffffffffffffffffffffffffff\n      and\n      dup2\n      mstore\n      0x20\n      add\n      0x01\n      dup3\n      add\n      dup1\n      sload\n      tag_79\n      swap1\n      tag_67\n      jump\t// in\n    tag_79:\n      dup1\n      0x1f\n      add\n      0x20\n      dup1\n      swap2\n      div\n      mul\n      0x20\n      add\n      mload(0x40)\n      swap1\n      dup2\n      add\n      0x40\n      mstore\n      dup1\n      swap3\n      swap2\n      swap1\n      dup2\n      dup2\n      mstore\n      0x20\n      add\n      dup3\n      dup1\n      sload\n      tag_80\n      swap1\n      tag_67\n      jump\t// in\n    tag_80:\n      dup1\n      iszero\n      tag_81\n      jumpi\n      dup1\n      0x1f\n      lt\n      tag_82\n      jumpi\n      0x0100\n      dup1\n      dup4\n      sload\n      div\n      mul\n      dup4\n      mstore\n      swap2\n      0x20\n      add\n      swap2\n      jump(tag_81)\n    tag_82:\n      dup3\n      add\n      swap2\n      swap1\n      0x00\n      mstore\n      keccak256(0x00, 0x20)\n      swap1\n    tag_83:\n      dup2\n      sload\n      dup2\n      mstore\n      swap1\n      0x01\n      add\n      swap1\n      0x20\n      add\n      dup1\n      dup4\n      gt\n      tag_83\n      jumpi\n      dup3\n      swap1\n      sub\n      0x1f\n      and\n      dup3\n      add\n      swap2\n    tag_81:\n      pop\n      pop\n      pop\n      pop\n      pop\n      dup2\n      mstore\n      0x20\n      add\n      0x02\n      dup3\n      add\n      sload\n      dup2\n      mstore\n      pop\n      pop\n      swap1\n      pop\n        /* \"contracts/ProductIdentification.sol\":1657:1665  producer */\n      dup1\n        /* \"contracts/ProductIdentification.sol\":1657:1681  producer.producerAddress */\n      0x00\n      add\n      mload\n        /* \"contracts/ProductIdentification.sol\":1650:1681  return producer.producerAddress */\n      swap2\n      pop\n      pop\n        /* \"contracts/ProductIdentification.sol\":1505:1688  function getProducerAddress(bytes32 _productId) public view returns (address) {... */\n      swap2\n      swap1\n      pop\n      jump\t// out\n        /* \"#utility.yul\":7:84   */\n    tag_84:\n        /* \"#utility.yul\":44:51   */\n      0x00\n        /* \"#utility.yul\":73:78   */\n      dup2\n        /* \"#utility.yul\":62:78   */\n      swap1\n      pop\n        /* \"#utility.yul\":7:84   */\n      swap2\n      swap1\n      pop\n      jump\t// out\n        /* \"#utility.yul\":90:208   */\n    tag_85:\n        /* \"#utility.yul\":177:201   */\n      tag_144\n        /* \"#utility.yul\":195:200   */\n      dup2\n        /* \"#utility.yul\":177:201   */\n      tag_84\n      jump\t// in\n    tag_144:\n        /* \"#utility.yul\":172:175   */\n      dup3\n        /* \"#utility.yul\":165:202   */\n      mstore\n        /* \"#utility.yul\":90:208   */\n      pop\n      pop\n      jump\t// out\n        /* \"#utility.yul\":214:436   */\n    tag_15:\n        /* \"#utility.yul\":307:311   */\n      0x00\n        /* \"#utility.yul\":345:347   */\n      0x20\n        /* \"#utility.yul\":334:343   */\n      dup3\n        /* \"#utility.yul\":330:348   */\n      add\n        /* \"#utility.yul\":322:348   */\n      swap1\n      pop\n        /* \"#utility.yul\":358:429   */\n      tag_146\n        /* \"#utility.yul\":426:427   */\n      0x00\n        /* \"#utility.yul\":415:424   */\n      dup4\n        /* \"#utility.yul\":411:428   */\n      add\n        /* \"#utility.yul\":402:408   */\n      dup5\n        /* \"#utility.yul\":358:429   */\n      tag_85\n      jump\t// in\n    tag_146:\n        /* \"#utility.yul\":214:436   */\n      swap3\n      swap2\n      pop\n      pop\n      jump\t// out\n        /* \"#utility.yul\":442:517   */\n    tag_86:\n        /* \"#utility.yul\":475:481   */\n      0x00\n        /* \"#utility.yul\":508:510   */\n      0x40\n        /* \"#utility.yul\":502:511   */\n      mload\n        /* \"#utility.yul\":492:511   */\n      swap1\n      pop\n        /* \"#utility.yul\":442:517   */\n      swap1\n      jump\t// out\n        /* \"#utility.yul\":523:640   */\n    tag_87:\n        /* \"#utility.yul\":632:633   */\n      0x00\n        /* \"#utility.yul\":629:630   */\n      dup1\n        /* \"#utility.yul\":622:634   */\n      revert\n        /* \"#utility.yul\":646:763   */\n    tag_88:\n        /* \"#utility.yul\":755:756   */\n      0x00\n        /* \"#utility.yul\":752:753   */\n      dup1\n        /* \"#utility.yul\":745:757   */\n      revert\n        /* \"#utility.yul\":769:895   */\n    tag_89:\n        /* \"#utility.yul\":806:813   */\n      0x00\n        /* \"#utility.yul\":846:888   */\n      0xffffffffffffffffffffffffffffffffffffffff\n        /* \"#utility.yul\":839:844   */\n      dup3\n        /* \"#utility.yul\":835:889   */\n      and\n        /* \"#utility.yul\":824:889   */\n      swap1\n      pop\n        /* \"#utility.yul\":769:895   */\n      swap2\n      swap1\n      pop\n      jump\t// out\n        /* \"#utility.yul\":901:997   */\n    tag_90:\n        /* \"#utility.yul\":938:945   */\n      0x00\n        /* \"#utility.yul\":967:991   */\n      tag_152\n        /* \"#utility.yul\":985:990   */\n      dup3\n        /* \"#utility.yul\":967:991   */\n      tag_89\n      jump\t// in\n    tag_152:\n        /* \"#utility.yul\":956:991   */\n      swap1\n      pop\n        /* \"#utility.yul\":901:997   */\n      swap2\n      swap1\n      pop\n      jump\t// out\n        /* \"#utility.yul\":1003:1125   */\n    tag_91:\n        /* \"#utility.yul\":1076:1100   */\n      tag_154\n        /* \"#utility.yul\":1094:1099   */\n      dup2\n        /* \"#utility.yul\":1076:1100   */\n      tag_90\n      jump\t// in\n    tag_154:\n        /* \"#utility.yul\":1069:1074   */\n      dup2\n        /* \"#utility.yul\":1066:1101   */\n      eq\n        /* \"#utility.yul\":1056:1119   */\n      tag_155\n      jumpi\n        /* \"#utility.yul\":1115:1116   */\n      0x00\n        /* \"#utility.yul\":1112:1113   */\n      dup1\n        /* \"#utility.yul\":1105:1117   */\n      revert\n        /* \"#utility.yul\":1056:1119   */\n    tag_155:\n        /* \"#utility.yul\":1003:1125   */\n      pop\n      jump\t// out\n        /* \"#utility.yul\":1131:1270   */\n    tag_92:\n        /* \"#utility.yul\":1177:1182   */\n      0x00\n        /* \"#utility.yul\":1215:1221   */\n      dup2\n        /* \"#utility.yul\":1202:1222   */\n      calldataload\n        /* \"#utility.yul\":1193:1222   */\n      swap1\n      pop\n        /* \"#utility.yul\":1231:1264   */\n      tag_157\n        /* \"#utility.yul\":1258:1263   */\n      dup2\n        /* \"#utility.yul\":1231:1264   */\n      tag_91\n      jump\t// in\n    tag_157:\n        /* \"#utility.yul\":1131:1270   */\n      swap3\n      swap2\n      pop\n      pop\n      jump\t// out\n        /* \"#utility.yul\":1276:1393   */\n    tag_93:\n        /* \"#utility.yul\":1385:1386   */\n      0x00\n        /* \"#utility.yul\":1382:1383   */\n      dup1\n        /* \"#utility.yul\":1375:1387   */\n      revert\n        /* \"#utility.yul\":1399:1516   */\n    tag_94:\n        /* \"#utility.yul\":1508:1509   */\n      0x00\n        /* \"#utility.yul\":1505:1506   */\n      dup1\n        /* \"#utility.yul\":1498:1510   */\n      revert\n        /* \"#utility.yul\":1522:1624   */\n    tag_95:\n        /* \"#utility.yul\":1563:1569   */\n      0x00\n        /* \"#utility.yul\":1614:1616   */\n      0x1f\n        /* \"#utility.yul\":1610:1617   */\n      not\n        /* \"#utility.yul\":1605:1607   */\n      0x1f\n        /* \"#utility.yul\":1598:1603   */\n      dup4\n        /* \"#utility.yul\":1594:1608   */\n      add\n        /* \"#utility.yul\":1590:1618   */\n      and\n        /* \"#utility.yul\":1580:1618   */\n      swap1\n      pop\n        /* \"#utility.yul\":1522:1624   */\n      swap2\n      swap1\n      pop\n      jump\t// out\n        /* \"#utility.yul\":1630:1810   */\n    tag_96:\n        /* \"#utility.yul\":1678:1755   */\n      0x4e487b7100000000000000000000000000000000000000000000000000000000\n        /* \"#utility.yul\":1675:1676   */\n      0x00\n        /* \"#utility.yul\":1668:1756   */\n      mstore\n        /* \"#utility.yul\":1775:1779   */\n      0x41\n        /* \"#utility.yul\":1772:1773   */\n      0x04\n        /* \"#utility.yul\":1765:1780   */\n      mstore\n        /* \"#utility.yul\":1799:1803   */\n      0x24\n        /* \"#utility.yul\":1796:1797   */\n      0x00\n        /* \"#utility.yul\":1789:1804   */\n      revert\n        /* \"#utility.yul\":1816:2097   */\n    tag_97:\n        /* \"#utility.yul\":1899:1926   */\n      tag_163\n        /* \"#utility.yul\":1921:1925   */\n      dup3\n        /* \"#utility.yul\":1899:1926   */\n      tag_95\n      jump\t// in\n    tag_163:\n        /* \"#utility.yul\":1891:1897   */\n      dup2\n        /* \"#utility.yul\":1887:1927   */\n      add\n        /* \"#utility.yul\":2029:2035   */\n      dup2\n        /* \"#utility.yul\":2017:2027   */\n      dup2\n        /* \"#utility.yul\":2014:2036   */\n      lt\n        /* \"#utility.yul\":1993:2011   */\n      0xffffffffffffffff\n        /* \"#utility.yul\":1981:1991   */\n      dup3\n        /* \"#utility.yul\":1978:2012   */\n      gt\n        /* \"#utility.yul\":1975:2037   */\n      or\n        /* \"#utility.yul\":1972:2060   */\n      iszero\n      tag_164\n      jumpi\n        /* \"#utility.yul\":2040:2058   */\n      tag_165\n      tag_96\n      jump\t// in\n    tag_165:\n        /* \"#utility.yul\":1972:2060   */\n    tag_164:\n        /* \"#utility.yul\":2080:2090   */\n      dup1\n        /* \"#utility.yul\":2076:2078   */\n      0x40\n        /* \"#utility.yul\":2069:2091   */\n      mstore\n        /* \"#utility.yul\":1859:2097   */\n      pop\n        /* \"#utility.yul\":1816:2097   */\n      pop\n      pop\n      jump\t// out\n        /* \"#utility.yul\":2103:2232   */\n    tag_98:\n        /* \"#utility.yul\":2137:2143   */\n      0x00\n        /* \"#utility.yul\":2164:2184   */\n      tag_167\n      tag_86\n      jump\t// in\n    tag_167:\n        /* \"#utility.yul\":2154:2184   */\n      swap1\n      pop\n        /* \"#utility.yul\":2193:2226   */\n      tag_168\n        /* \"#utility.yul\":2221:2225   */\n      dup3\n        /* \"#utility.yul\":2213:2219   */\n      dup3\n        /* \"#utility.yul\":2193:2226   */\n      tag_97\n      jump\t// in\n    tag_168:\n        /* \"#utility.yul\":2103:2232   */\n      swap2\n      swap1\n      pop\n      jump\t// out\n        /* \"#utility.yul\":2238:2546   */\n    tag_99:\n        /* \"#utility.yul\":2300:2304   */\n      0x00\n        /* \"#utility.yul\":2390:2408   */\n      0xffffffffffffffff\n        /* \"#utility.yul\":2382:2388   */\n      dup3\n        /* \"#utility.yul\":2379:2409   */\n      gt\n        /* \"#utility.yul\":2376:2432   */\n      iszero\n      tag_170\n      jumpi\n        /* \"#utility.yul\":2412:2430   */\n      tag_171\n      tag_96\n      jump\t// in\n    tag_171:\n        /* \"#utility.yul\":2376:2432   */\n    tag_170:\n        /* \"#utility.yul\":2450:2479   */\n      tag_172\n        /* \"#utility.yul\":2472:2478   */\n      dup3\n        /* \"#utility.yul\":2450:2479   */\n      tag_95\n      jump\t// in\n    tag_172:\n        /* \"#utility.yul\":2442:2479   */\n      swap1\n      pop\n        /* \"#utility.yul\":2534:2538   */\n      0x20\n        /* \"#utility.yul\":2528:2532   */\n      dup2\n        /* \"#utility.yul\":2524:2539   */\n      add\n        /* \"#utility.yul\":2516:2539   */\n      swap1\n      pop\n        /* \"#utility.yul\":2238:2546   */\n      swap2\n      swap1\n      pop\n      jump\t// out\n        /* \"#utility.yul\":2552:2698   */\n    tag_100:\n        /* \"#utility.yul\":2649:2655   */\n      dup3\n        /* \"#utility.yul\":2644:2647   */\n      dup2\n        /* \"#utility.yul\":2639:2642   */\n      dup4\n        /* \"#utility.yul\":2626:2656   */\n      calldatacopy\n        /* \"#utility.yul\":2690:2691   */\n      0x00\n        /* \"#utility.yul\":2681:2687   */\n      dup4\n        /* \"#utility.yul\":2676:2679   */\n      dup4\n        /* \"#utility.yul\":2672:2688   */\n      add\n        /* \"#utility.yul\":2665:2692   */\n      mstore\n        /* \"#utility.yul\":2552:2698   */\n      pop\n      pop\n      pop\n      jump\t// out\n        /* \"#utility.yul\":2704:3129   */\n    tag_101:\n        /* \"#utility.yul\":2782:2787   */\n      0x00\n        /* \"#utility.yul\":2807:2873   */\n      tag_175\n        /* \"#utility.yul\":2823:2872   */\n      tag_176\n        /* \"#utility.yul\":2865:2871   */\n      dup5\n        /* \"#utility.yul\":2823:2872   */\n      tag_99\n      jump\t// in\n    tag_176:\n        /* \"#utility.yul\":2807:2873   */\n      tag_98\n      jump\t// in\n    tag_175:\n        /* \"#utility.yul\":2798:2873   */\n      swap1\n      pop\n        /* \"#utility.yul\":2896:2902   */\n      dup3\n        /* \"#utility.yul\":2889:2894   */\n      dup2\n        /* \"#utility.yul\":2882:2903   */\n      mstore\n        /* \"#utility.yul\":2934:2938   */\n      0x20\n        /* \"#utility.yul\":2927:2932   */\n      dup2\n        /* \"#utility.yul\":2923:2939   */\n      add\n        /* \"#utility.yul\":2972:2975   */\n      dup5\n        /* \"#utility.yul\":2963:2969   */\n      dup5\n        /* \"#utility.yul\":2958:2961   */\n      dup5\n        /* \"#utility.yul\":2954:2970   */\n      add\n        /* \"#utility.yul\":2951:2976   */\n      gt\n        /* \"#utility.yul\":2948:3060   */\n      iszero\n      tag_177\n      jumpi\n        /* \"#utility.yul\":2979:3058   */\n      tag_178\n      tag_94\n      jump\t// in\n    tag_178:\n        /* \"#utility.yul\":2948:3060   */\n    tag_177:\n        /* \"#utility.yul\":3069:3123   */\n      tag_179\n        /* \"#utility.yul\":3116:3122   */\n      dup5\n        /* \"#utility.yul\":3111:3114   */\n      dup3\n        /* \"#utility.yul\":3106:3109   */\n      dup6\n        /* \"#utility.yul\":3069:3123   */\n      tag_100\n      jump\t// in\n    tag_179:\n        /* \"#utility.yul\":2788:3129   */\n      pop\n        /* \"#utility.yul\":2704:3129   */\n      swap4\n      swap3\n      pop\n      pop\n      pop\n      jump\t// out\n        /* \"#utility.yul\":3149:3489   */\n    tag_102:\n        /* \"#utility.yul\":3205:3210   */\n      0x00\n        /* \"#utility.yul\":3254:3257   */\n      dup3\n        /* \"#utility.yul\":3247:3251   */\n      0x1f\n        /* \"#utility.yul\":3239:3245   */\n      dup4\n        /* \"#utility.yul\":3235:3252   */\n      add\n        /* \"#utility.yul\":3231:3258   */\n      slt\n        /* \"#utility.yul\":3221:3343   */\n      tag_181\n      jumpi\n        /* \"#utility.yul\":3262:3341   */\n      tag_182\n      tag_93\n      jump\t// in\n    tag_182:\n        /* \"#utility.yul\":3221:3343   */\n    tag_181:\n        /* \"#utility.yul\":3379:3385   */\n      dup2\n        /* \"#utility.yul\":3366:3386   */\n      calldataload\n        /* \"#utility.yul\":3404:3483   */\n      tag_183\n        /* \"#utility.yul\":3479:3482   */\n      dup5\n        /* \"#utility.yul\":3471:3477   */\n      dup3\n        /* \"#utility.yul\":3464:3468   */\n      0x20\n        /* \"#utility.yul\":3456:3462   */\n      dup7\n        /* \"#utility.yul\":3452:3469   */\n      add\n        /* \"#utility.yul\":3404:3483   */\n      tag_101\n      jump\t// in\n    tag_183:\n        /* \"#utility.yul\":3395:3483   */\n      swap2\n      pop\n        /* \"#utility.yul\":3211:3489   */\n      pop\n        /* \"#utility.yul\":3149:3489   */\n      swap3\n      swap2\n      pop\n      pop\n      jump\t// out\n        /* \"#utility.yul\":3495:3617   */\n    tag_103:\n        /* \"#utility.yul\":3568:3592   */\n      tag_185\n        /* \"#utility.yul\":3586:3591   */\n      dup2\n        /* \"#utility.yul\":3568:3592   */\n      tag_84\n      jump\t// in\n    tag_185:\n        /* \"#utility.yul\":3561:3566   */\n      dup2\n        /* \"#utility.yul\":3558:3593   */\n      eq\n        /* \"#utility.yul\":3548:3611   */\n      tag_186\n      jumpi\n        /* \"#utility.yul\":3607:3608   */\n      0x00\n        /* \"#utility.yul\":3604:3605   */\n      dup1\n        /* \"#utility.yul\":3597:3609   */\n      revert\n        /* \"#utility.yul\":3548:3611   */\n    tag_186:\n        /* \"#utility.yul\":3495:3617   */\n      pop\n      jump\t// out\n        /* \"#utility.yul\":3623:3762   */\n    tag_104:\n        /* \"#utility.yul\":3669:3674   */\n      0x00\n        /* \"#utility.yul\":3707:3713   */\n      dup2\n        /* \"#utility.yul\":3694:3714   */\n      calldataload\n        /* \"#utility.yul\":3685:3714   */\n      swap1\n      pop\n        /* \"#utility.yul\":3723:3756   */\n      tag_188\n        /* \"#utility.yul\":3750:3755   */\n      dup2\n        /* \"#utility.yul\":3723:3756   */\n      tag_103\n      jump\t// in\n    tag_188:\n        /* \"#utility.yul\":3623:3762   */\n      swap3\n      swap2\n      pop\n      pop\n      jump\t// out\n        /* \"#utility.yul\":3768:4567   */\n    tag_18:\n        /* \"#utility.yul\":3855:3861   */\n      0x00\n        /* \"#utility.yul\":3863:3869   */\n      dup1\n        /* \"#utility.yul\":3871:3877   */\n      0x00\n        /* \"#utility.yul\":3920:3922   */\n      0x60\n        /* \"#utility.yul\":3908:3917   */\n      dup5\n        /* \"#utility.yul\":3899:3906   */\n      dup7\n        /* \"#utility.yul\":3895:3918   */\n      sub\n        /* \"#utility.yul\":3891:3923   */\n      slt\n        /* \"#utility.yul\":3888:4007   */\n      iszero\n      tag_190\n      jumpi\n        /* \"#utility.yul\":3926:4005   */\n      tag_191\n      tag_87\n      jump\t// in\n    tag_191:\n        /* \"#utility.yul\":3888:4007   */\n    tag_190:\n        /* \"#utility.yul\":4046:4047   */\n      0x00\n        /* \"#utility.yul\":4071:4124   */\n      tag_192\n        /* \"#utility.yul\":4116:4123   */\n      dup7\n        /* \"#utility.yul\":4107:4113   */\n      dup3\n        /* \"#utility.yul\":4096:4105   */\n      dup8\n        /* \"#utility.yul\":4092:4114   */\n      add\n        /* \"#utility.yul\":4071:4124   */\n      tag_92\n      jump\t// in\n    tag_192:\n        /* \"#utility.yul\":4061:4124   */\n      swap4\n      pop\n        /* \"#utility.yul\":4017:4134   */\n      pop\n        /* \"#utility.yul\":4201:4203   */\n      0x20\n        /* \"#utility.yul\":4190:4199   */\n      dup5\n        /* \"#utility.yul\":4186:4204   */\n      add\n        /* \"#utility.yul\":4173:4205   */\n      calldataload\n        /* \"#utility.yul\":4232:4250   */\n      0xffffffffffffffff\n        /* \"#utility.yul\":4224:4230   */\n      dup2\n        /* \"#utility.yul\":4221:4251   */\n      gt\n        /* \"#utility.yul\":4218:4335   */\n      iszero\n      tag_193\n      jumpi\n        /* \"#utility.yul\":4254:4333   */\n      tag_194\n      tag_88\n      jump\t// in\n    tag_194:\n        /* \"#utility.yul\":4218:4335   */\n    tag_193:\n        /* \"#utility.yul\":4359:4422   */\n      tag_195\n        /* \"#utility.yul\":4414:4421   */\n      dup7\n        /* \"#utility.yul\":4405:4411   */\n      dup3\n        /* \"#utility.yul\":4394:4403   */\n      dup8\n        /* \"#utility.yul\":4390:4412   */\n      add\n        /* \"#utility.yul\":4359:4422   */\n      tag_102\n      jump\t// in\n    tag_195:\n        /* \"#utility.yul\":4349:4422   */\n      swap3\n      pop\n        /* \"#utility.yul\":4144:4432   */\n      pop\n        /* \"#utility.yul\":4471:4473   */\n      0x40\n        /* \"#utility.yul\":4497:4550   */\n      tag_196\n        /* \"#utility.yul\":4542:4549   */\n      dup7\n        /* \"#utility.yul\":4533:4539   */\n      dup3\n        /* \"#utility.yul\":4522:4531   */\n      dup8\n        /* \"#utility.yul\":4518:4540   */\n      add\n        /* \"#utility.yul\":4497:4550   */\n      tag_104\n      jump\t// in\n    tag_196:\n        /* \"#utility.yul\":4487:4550   */\n      swap2\n      pop\n        /* \"#utility.yul\":4442:4560   */\n      pop\n        /* \"#utility.yul\":3768:4567   */\n      swap3\n      pop\n      swap3\n      pop\n      swap3\n      jump\t// out\n        /* \"#utility.yul\":4573:4650   */\n    tag_105:\n        /* \"#utility.yul\":4610:4617   */\n      0x00\n        /* \"#utility.yul\":4639:4644   */\n      dup2\n        /* \"#utility.yul\":4628:4644   */\n      swap1\n      pop\n        /* \"#utility.yul\":4573:4650   */\n      swap2\n      swap1\n      pop\n      jump\t// out\n        /* \"#utility.yul\":4656:4778   */\n    tag_106:\n        /* \"#utility.yul\":4729:4753   */\n      tag_199\n        /* \"#utility.yul\":4747:4752   */\n      dup2\n        /* \"#utility.yul\":4729:4753   */\n      tag_105\n      jump\t// in\n    tag_199:\n        /* \"#utility.yul\":4722:4727   */\n      dup2\n        /* \"#utility.yul\":4719:4754   */\n      eq\n        /* \"#utility.yul\":4709:4772   */\n      tag_200\n      jumpi\n        /* \"#utility.yul\":4768:4769   */\n      0x00\n        /* \"#utility.yul\":4765:4766   */\n      dup1\n        /* \"#utility.yul\":4758:4770   */\n      revert\n        /* \"#utility.yul\":4709:4772   */\n    tag_200:\n        /* \"#utility.yul\":4656:4778   */\n      pop\n      jump\t// out\n        /* \"#utility.yul\":4784:4923   */\n    tag_107:\n        /* \"#utility.yul\":4830:4835   */\n      0x00\n        /* \"#utility.yul\":4868:4874   */\n      dup2\n        /* \"#utility.yul\":4855:4875   */\n      calldataload\n        /* \"#utility.yul\":4846:4875   */\n      swap1\n      pop\n        /* \"#utility.yul\":4884:4917   */\n      tag_202\n        /* \"#utility.yul\":4911:4916   */\n      dup2\n        /* \"#utility.yul\":4884:4917   */\n      tag_106\n      jump\t// in\n    tag_202:\n        /* \"#utility.yul\":4784:4923   */\n      swap3\n      swap2\n      pop\n      pop\n      jump\t// out\n        /* \"#utility.yul\":4929:5258   */\n    tag_23:\n        /* \"#utility.yul\":4988:4994   */\n      0x00\n        /* \"#utility.yul\":5037:5039   */\n      0x20\n        /* \"#utility.yul\":5025:5034   */\n      dup3\n        /* \"#utility.yul\":5016:5023   */\n      dup5\n        /* \"#utility.yul\":5012:5035   */\n      sub\n        /* \"#utility.yul\":5008:5040   */\n      slt\n        /* \"#utility.yul\":5005:5124   */\n      iszero\n      tag_204\n      jumpi\n        /* \"#utility.yul\":5043:5122   */\n      tag_205\n      tag_87\n      jump\t// in\n    tag_205:\n        /* \"#utility.yul\":5005:5124   */\n    tag_204:\n        /* \"#utility.yul\":5163:5164   */\n      0x00\n        /* \"#utility.yul\":5188:5241   */\n      tag_206\n        /* \"#utility.yul\":5233:5240   */\n      dup5\n        /* \"#utility.yul\":5224:5230   */\n      dup3\n        /* \"#utility.yul\":5213:5222   */\n      dup6\n        /* \"#utility.yul\":5209:5231   */\n      add\n        /* \"#utility.yul\":5188:5241   */\n      tag_107\n      jump\t// in\n    tag_206:\n        /* \"#utility.yul\":5178:5241   */\n      swap2\n      pop\n        /* \"#utility.yul\":5134:5251   */\n      pop\n        /* \"#utility.yul\":4929:5258   */\n      swap3\n      swap2\n      pop\n      pop\n      jump\t// out\n        /* \"#utility.yul\":5264:5382   */\n    tag_108:\n        /* \"#utility.yul\":5351:5375   */\n      tag_208\n        /* \"#utility.yul\":5369:5374   */\n      dup2\n        /* \"#utility.yul\":5351:5375   */\n      tag_90\n      jump\t// in\n    tag_208:\n        /* \"#utility.yul\":5346:5349   */\n      dup3\n        /* \"#utility.yul\":5339:5376   */\n      mstore\n        /* \"#utility.yul\":5264:5382   */\n      pop\n      pop\n      jump\t// out\n        /* \"#utility.yul\":5388:5487   */\n    tag_109:\n        /* \"#utility.yul\":5440:5446   */\n      0x00\n        /* \"#utility.yul\":5474:5479   */\n      dup2\n        /* \"#utility.yul\":5468:5480   */\n      mload\n        /* \"#utility.yul\":5458:5480   */\n      swap1\n      pop\n        /* \"#utility.yul\":5388:5487   */\n      swap2\n      swap1\n      pop\n      jump\t// out\n        /* \"#utility.yul\":5493:5662   */\n    tag_110:\n        /* \"#utility.yul\":5577:5588   */\n      0x00\n        /* \"#utility.yul\":5611:5617   */\n      dup3\n        /* \"#utility.yul\":5606:5609   */\n      dup3\n        /* \"#utility.yul\":5599:5618   */\n      mstore\n        /* \"#utility.yul\":5651:5655   */\n      0x20\n        /* \"#utility.yul\":5646:5649   */\n      dup3\n        /* \"#utility.yul\":5642:5656   */\n      add\n        /* \"#utility.yul\":5627:5656   */\n      swap1\n      pop\n        /* \"#utility.yul\":5493:5662   */\n      swap3\n      swap2\n      pop\n      pop\n      jump\t// out\n        /* \"#utility.yul\":5668:5914   */\n    tag_111:\n        /* \"#utility.yul\":5749:5750   */\n      0x00\n        /* \"#utility.yul\":5759:5872   */\n    tag_212:\n        /* \"#utility.yul\":5773:5779   */\n      dup4\n        /* \"#utility.yul\":5770:5771   */\n      dup2\n        /* \"#utility.yul\":5767:5780   */\n      lt\n        /* \"#utility.yul\":5759:5872   */\n      iszero\n      tag_214\n      jumpi\n        /* \"#utility.yul\":5858:5859   */\n      dup1\n        /* \"#utility.yul\":5853:5856   */\n      dup3\n        /* \"#utility.yul\":5849:5860   */\n      add\n        /* \"#utility.yul\":5843:5861   */\n      mload\n        /* \"#utility.yul\":5839:5840   */\n      dup2\n        /* \"#utility.yul\":5834:5837   */\n      dup5\n        /* \"#utility.yul\":5830:5841   */\n      add\n        /* \"#utility.yul\":5823:5862   */\n      mstore\n        /* \"#utility.yul\":5795:5797   */\n      0x20\n        /* \"#utility.yul\":5792:5793   */\n      dup2\n        /* \"#utility.yul\":5788:5798   */\n      add\n        /* \"#utility.yul\":5783:5798   */\n      swap1\n      pop\n        /* \"#utility.yul\":5759:5872   */\n      jump(tag_212)\n    tag_214:\n        /* \"#utility.yul\":5906:5907   */\n      0x00\n        /* \"#utility.yul\":5897:5903   */\n      dup5\n        /* \"#utility.yul\":5892:5895   */\n      dup5\n        /* \"#utility.yul\":5888:5904   */\n      add\n        /* \"#utility.yul\":5881:5908   */\n      mstore\n        /* \"#utility.yul\":5730:5914   */\n      pop\n        /* \"#utility.yul\":5668:5914   */\n      pop\n      pop\n      pop\n      jump\t// out\n        /* \"#utility.yul\":5920:6297   */\n    tag_112:\n        /* \"#utility.yul\":6008:6011   */\n      0x00\n        /* \"#utility.yul\":6036:6075   */\n      tag_216\n        /* \"#utility.yul\":6069:6074   */\n      dup3\n        /* \"#utility.yul\":6036:6075   */\n      tag_109\n      jump\t// in\n    tag_216:\n        /* \"#utility.yul\":6091:6162   */\n      tag_217\n        /* \"#utility.yul\":6155:6161   */\n      dup2\n        /* \"#utility.yul\":6150:6153   */\n      dup6\n        /* \"#utility.yul\":6091:6162   */\n      tag_110\n      jump\t// in\n    tag_217:\n        /* \"#utility.yul\":6084:6162   */\n      swap4\n      pop\n        /* \"#utility.yul\":6171:6236   */\n      tag_218\n        /* \"#utility.yul\":6229:6235   */\n      dup2\n        /* \"#utility.yul\":6224:6227   */\n      dup6\n        /* \"#utility.yul\":6217:6221   */\n      0x20\n        /* \"#utility.yul\":6210:6215   */\n      dup7\n        /* \"#utility.yul\":6206:6222   */\n      add\n        /* \"#utility.yul\":6171:6236   */\n      tag_111\n      jump\t// in\n    tag_218:\n        /* \"#utility.yul\":6261:6290   */\n      tag_219\n        /* \"#utility.yul\":6283:6289   */\n      dup2\n        /* \"#utility.yul\":6261:6290   */\n      tag_95\n      jump\t// in\n    tag_219:\n        /* \"#utility.yul\":6256:6259   */\n      dup5\n        /* \"#utility.yul\":6252:6291   */\n      add\n        /* \"#utility.yul\":6245:6291   */\n      swap2\n      pop\n        /* \"#utility.yul\":6012:6297   */\n      pop\n        /* \"#utility.yul\":5920:6297   */\n      swap3\n      swap2\n      pop\n      pop\n      jump\t// out\n        /* \"#utility.yul\":6303:6836   */\n    tag_26:\n        /* \"#utility.yul\":6472:6476   */\n      0x00\n        /* \"#utility.yul\":6510:6512   */\n      0x60\n        /* \"#utility.yul\":6499:6508   */\n      dup3\n        /* \"#utility.yul\":6495:6513   */\n      add\n        /* \"#utility.yul\":6487:6513   */\n      swap1\n      pop\n        /* \"#utility.yul\":6523:6594   */\n      tag_221\n        /* \"#utility.yul\":6591:6592   */\n      0x00\n        /* \"#utility.yul\":6580:6589   */\n      dup4\n        /* \"#utility.yul\":6576:6593   */\n      add\n        /* \"#utility.yul\":6567:6573   */\n      dup7\n        /* \"#utility.yul\":6523:6594   */\n      tag_108\n      jump\t// in\n    tag_221:\n        /* \"#utility.yul\":6641:6650   */\n      dup2\n        /* \"#utility.yul\":6635:6639   */\n      dup2\n        /* \"#utility.yul\":6631:6651   */\n      sub\n        /* \"#utility.yul\":6626:6628   */\n      0x20\n        /* \"#utility.yul\":6615:6624   */\n      dup4\n        /* \"#utility.yul\":6611:6629   */\n      add\n        /* \"#utility.yul\":6604:6652   */\n      mstore\n        /* \"#utility.yul\":6669:6747   */\n      tag_222\n        /* \"#utility.yul\":6742:6746   */\n      dup2\n        /* \"#utility.yul\":6733:6739   */\n      dup6\n        /* \"#utility.yul\":6669:6747   */\n      tag_112\n      jump\t// in\n    tag_222:\n        /* \"#utility.yul\":6661:6747   */\n      swap1\n      pop\n        /* \"#utility.yul\":6757:6829   */\n      tag_223\n        /* \"#utility.yul\":6825:6827   */\n      0x40\n        /* \"#utility.yul\":6814:6823   */\n      dup4\n        /* \"#utility.yul\":6810:6828   */\n      add\n        /* \"#utility.yul\":6801:6807   */\n      dup5\n        /* \"#utility.yul\":6757:6829   */\n      tag_85\n      jump\t// in\n    tag_223:\n        /* \"#utility.yul\":6303:6836   */\n      swap5\n      swap4\n      pop\n      pop\n      pop\n      pop\n      jump\t// out\n        /* \"#utility.yul\":6842:7171   */\n    tag_30:\n        /* \"#utility.yul\":6901:6907   */\n      0x00\n        /* \"#utility.yul\":6950:6952   */\n      0x20\n        /* \"#utility.yul\":6938:6947   */\n      dup3\n        /* \"#utility.yul\":6929:6936   */\n      dup5\n        /* \"#utility.yul\":6925:6948   */\n      sub\n        /* \"#utility.yul\":6921:6953   */\n      slt\n        /* \"#utility.yul\":6918:7037   */\n      iszero\n      tag_225\n      jumpi\n        /* \"#utility.yul\":6956:7035   */\n      tag_226\n      tag_87\n      jump\t// in\n    tag_226:\n        /* \"#utility.yul\":6918:7037   */\n    tag_225:\n        /* \"#utility.yul\":7076:7077   */\n      0x00\n        /* \"#utility.yul\":7101:7154   */\n      tag_227\n        /* \"#utility.yul\":7146:7153   */\n      dup5\n        /* \"#utility.yul\":7137:7143   */\n      dup3\n        /* \"#utility.yul\":7126:7135   */\n      dup6\n        /* \"#utility.yul\":7122:7144   */\n      add\n        /* \"#utility.yul\":7101:7154   */\n      tag_92\n      jump\t// in\n    tag_227:\n        /* \"#utility.yul\":7091:7154   */\n      swap2\n      pop\n        /* \"#utility.yul\":7047:7164   */\n      pop\n        /* \"#utility.yul\":6842:7171   */\n      swap3\n      swap2\n      pop\n      pop\n      jump\t// out\n        /* \"#utility.yul\":7177:7267   */\n    tag_113:\n        /* \"#utility.yul\":7211:7218   */\n      0x00\n        /* \"#utility.yul\":7254:7259   */\n      dup2\n        /* \"#utility.yul\":7247:7260   */\n      iszero\n        /* \"#utility.yul\":7240:7261   */\n      iszero\n        /* \"#utility.yul\":7229:7261   */\n      swap1\n      pop\n        /* \"#utility.yul\":7177:7267   */\n      swap2\n      swap1\n      pop\n      jump\t// out\n        /* \"#utility.yul\":7273:7382   */\n    tag_114:\n        /* \"#utility.yul\":7354:7375   */\n      tag_230\n        /* \"#utility.yul\":7369:7374   */\n      dup2\n        /* \"#utility.yul\":7354:7375   */\n      tag_113\n      jump\t// in\n    tag_230:\n        /* \"#utility.yul\":7349:7352   */\n      dup3\n        /* \"#utility.yul\":7342:7376   */\n      mstore\n        /* \"#utility.yul\":7273:7382   */\n      pop\n      pop\n      jump\t// out\n        /* \"#utility.yul\":7388:7598   */\n    tag_33:\n        /* \"#utility.yul\":7475:7479   */\n      0x00\n        /* \"#utility.yul\":7513:7515   */\n      0x20\n        /* \"#utility.yul\":7502:7511   */\n      dup3\n        /* \"#utility.yul\":7498:7516   */\n      add\n        /* \"#utility.yul\":7490:7516   */\n      swap1\n      pop\n        /* \"#utility.yul\":7526:7591   */\n      tag_232\n        /* \"#utility.yul\":7588:7589   */\n      0x00\n        /* \"#utility.yul\":7577:7586   */\n      dup4\n        /* \"#utility.yul\":7573:7590   */\n      add\n        /* \"#utility.yul\":7564:7570   */\n      dup5\n        /* \"#utility.yul\":7526:7591   */\n      tag_114\n      jump\t// in\n    tag_232:\n        /* \"#utility.yul\":7388:7598   */\n      swap3\n      swap2\n      pop\n      pop\n      jump\t// out\n        /* \"#utility.yul\":7604:7826   */\n    tag_48:\n        /* \"#utility.yul\":7697:7701   */\n      0x00\n        /* \"#utility.yul\":7735:7737   */\n      0x20\n        /* \"#utility.yul\":7724:7733   */\n      dup3\n        /* \"#utility.yul\":7720:7738   */\n      add\n        /* \"#utility.yul\":7712:7738   */\n      swap1\n      pop\n        /* \"#utility.yul\":7748:7819   */\n      tag_234\n        /* \"#utility.yul\":7816:7817   */\n      0x00\n        /* \"#utility.yul\":7805:7814   */\n      dup4\n        /* \"#utility.yul\":7801:7818   */\n      add\n        /* \"#utility.yul\":7792:7798   */\n      dup5\n        /* \"#utility.yul\":7748:7819   */\n      tag_108\n      jump\t// in\n    tag_234:\n        /* \"#utility.yul\":7604:7826   */\n      swap3\n      swap2\n      pop\n      pop\n      jump\t// out\n        /* \"#utility.yul\":7832:8008   */\n    tag_115:\n        /* \"#utility.yul\":7972:8000   */\n      0x526567697374726174696f6e20666565206e6f7420706169642e000000000000\n        /* \"#utility.yul\":7968:7969   */\n      0x00\n        /* \"#utility.yul\":7960:7966   */\n      dup3\n        /* \"#utility.yul\":7956:7970   */\n      add\n        /* \"#utility.yul\":7949:8001   */\n      mstore\n        /* \"#utility.yul\":7832:8008   */\n      pop\n      jump\t// out\n        /* \"#utility.yul\":8014:8380   */\n    tag_116:\n        /* \"#utility.yul\":8156:8159   */\n      0x00\n        /* \"#utility.yul\":8177:8244   */\n      tag_237\n        /* \"#utility.yul\":8241:8243   */\n      0x1a\n        /* \"#utility.yul\":8236:8239   */\n      dup4\n        /* \"#utility.yul\":8177:8244   */\n      tag_110\n      jump\t// in\n    tag_237:\n        /* \"#utility.yul\":8170:8244   */\n      swap2\n      pop\n        /* \"#utility.yul\":8253:8346   */\n      tag_238\n        /* \"#utility.yul\":8342:8345   */\n      dup3\n        /* \"#utility.yul\":8253:8346   */\n      tag_115\n      jump\t// in\n    tag_238:\n        /* \"#utility.yul\":8371:8373   */\n      0x20\n        /* \"#utility.yul\":8366:8369   */\n      dup3\n        /* \"#utility.yul\":8362:8374   */\n      add\n        /* \"#utility.yul\":8355:8374   */\n      swap1\n      pop\n        /* \"#utility.yul\":8014:8380   */\n      swap2\n      swap1\n      pop\n      jump\t// out\n        /* \"#utility.yul\":8386:8805   */\n    tag_57:\n        /* \"#utility.yul\":8552:8556   */\n      0x00\n        /* \"#utility.yul\":8590:8592   */\n      0x20\n        /* \"#utility.yul\":8579:8588   */\n      dup3\n        /* \"#utility.yul\":8575:8593   */\n      add\n        /* \"#utility.yul\":8567:8593   */\n      swap1\n      pop\n        /* \"#utility.yul\":8639:8648   */\n      dup2\n        /* \"#utility.yul\":8633:8637   */\n      dup2\n        /* \"#utility.yul\":8629:8649   */\n      sub\n        /* \"#utility.yul\":8625:8626   */\n      0x00\n        /* \"#utility.yul\":8614:8623   */\n      dup4\n        /* \"#utility.yul\":8610:8627   */\n      add\n        /* \"#utility.yul\":8603:8650   */\n      mstore\n        /* \"#utility.yul\":8667:8798   */\n      tag_240\n        /* \"#utility.yul\":8793:8797   */\n      dup2\n        /* \"#utility.yul\":8667:8798   */\n      tag_116\n      jump\t// in\n    tag_240:\n        /* \"#utility.yul\":8659:8798   */\n      swap1\n      pop\n        /* \"#utility.yul\":8386:8805   */\n      swap2\n      swap1\n      pop\n      jump\t// out\n        /* \"#utility.yul\":8811:8988   */\n    tag_117:\n        /* \"#utility.yul\":8951:8980   */\n      0x50726f647563657220616c726561647920726567697374657265640000000000\n        /* \"#utility.yul\":8947:8948   */\n      0x00\n        /* \"#utility.yul\":8939:8945   */\n      dup3\n        /* \"#utility.yul\":8935:8949   */\n      add\n        /* \"#utility.yul\":8928:8981   */\n      mstore\n        /* \"#utility.yul\":8811:8988   */\n      pop\n      jump\t// out\n        /* \"#utility.yul\":8994:9360   */\n    tag_118:\n        /* \"#utility.yul\":9136:9139   */\n      0x00\n        /* \"#utility.yul\":9157:9224   */\n      tag_243\n        /* \"#utility.yul\":9221:9223   */\n      0x1b\n        /* \"#utility.yul\":9216:9219   */\n      dup4\n        /* \"#utility.yul\":9157:9224   */\n      tag_110\n      jump\t// in\n    tag_243:\n        /* \"#utility.yul\":9150:9224   */\n      swap2\n      pop\n        /* \"#utility.yul\":9233:9326   */\n      tag_244\n        /* \"#utility.yul\":9322:9325   */\n      dup3\n        /* \"#utility.yul\":9233:9326   */\n      tag_117\n      jump\t// in\n    tag_244:\n        /* \"#utility.yul\":9351:9353   */\n      0x20\n        /* \"#utility.yul\":9346:9349   */\n      dup3\n        /* \"#utility.yul\":9342:9354   */\n      add\n        /* \"#utility.yul\":9335:9354   */\n      swap1\n      pop\n        /* \"#utility.yul\":8994:9360   */\n      swap2\n      swap1\n      pop\n      jump\t// out\n        /* \"#utility.yul\":9366:9785   */\n    tag_60:\n        /* \"#utility.yul\":9532:9536   */\n      0x00\n        /* \"#utility.yul\":9570:9572   */\n      0x20\n        /* \"#utility.yul\":9559:9568   */\n      dup3\n        /* \"#utility.yul\":9555:9573   */\n      add\n        /* \"#utility.yul\":9547:9573   */\n      swap1\n      pop\n        /* \"#utility.yul\":9619:9628   */\n      dup2\n        /* \"#utility.yul\":9613:9617   */\n      dup2\n        /* \"#utility.yul\":9609:9629   */\n      sub\n        /* \"#utility.yul\":9605:9606   */\n      0x00\n        /* \"#utility.yul\":9594:9603   */\n      dup4\n        /* \"#utility.yul\":9590:9607   */\n      add\n        /* \"#utility.yul\":9583:9630   */\n      mstore\n        /* \"#utility.yul\":9647:9778   */\n      tag_246\n        /* \"#utility.yul\":9773:9777   */\n      dup2\n        /* \"#utility.yul\":9647:9778   */\n      tag_118\n      jump\t// in\n    tag_246:\n        /* \"#utility.yul\":9639:9778   */\n      swap1\n      pop\n        /* \"#utility.yul\":9366:9785   */\n      swap2\n      swap1\n      pop\n      jump\t// out\n        /* \"#utility.yul\":9791:9885   */\n    tag_119:\n        /* \"#utility.yul\":9824:9832   */\n      0x00\n        /* \"#utility.yul\":9872:9877   */\n      dup2\n        /* \"#utility.yul\":9868:9870   */\n      0x60\n        /* \"#utility.yul\":9864:9878   */\n      shl\n        /* \"#utility.yul\":9843:9878   */\n      swap1\n      pop\n        /* \"#utility.yul\":9791:9885   */\n      swap2\n      swap1\n      pop\n      jump\t// out\n        /* \"#utility.yul\":9891:9985   */\n    tag_120:\n        /* \"#utility.yul\":9930:9937   */\n      0x00\n        /* \"#utility.yul\":9959:9979   */\n      tag_249\n        /* \"#utility.yul\":9973:9978   */\n      dup3\n        /* \"#utility.yul\":9959:9979   */\n      tag_119\n      jump\t// in\n    tag_249:\n        /* \"#utility.yul\":9948:9979   */\n      swap1\n      pop\n        /* \"#utility.yul\":9891:9985   */\n      swap2\n      swap1\n      pop\n      jump\t// out\n        /* \"#utility.yul\":9991:10091   */\n    tag_121:\n        /* \"#utility.yul\":10030:10037   */\n      0x00\n        /* \"#utility.yul\":10059:10085   */\n      tag_251\n        /* \"#utility.yul\":10079:10084   */\n      dup3\n        /* \"#utility.yul\":10059:10085   */\n      tag_120\n      jump\t// in\n    tag_251:\n        /* \"#utility.yul\":10048:10085   */\n      swap1\n      pop\n        /* \"#utility.yul\":9991:10091   */\n      swap2\n      swap1\n      pop\n      jump\t// out\n        /* \"#utility.yul\":10097:10254   */\n    tag_122:\n        /* \"#utility.yul\":10202:10247   */\n      tag_253\n        /* \"#utility.yul\":10222:10246   */\n      tag_254\n        /* \"#utility.yul\":10240:10245   */\n      dup3\n        /* \"#utility.yul\":10222:10246   */\n      tag_90\n      jump\t// in\n    tag_254:\n        /* \"#utility.yul\":10202:10247   */\n      tag_121\n      jump\t// in\n    tag_253:\n        /* \"#utility.yul\":10197:10200   */\n      dup3\n        /* \"#utility.yul\":10190:10248   */\n      mstore\n        /* \"#utility.yul\":10097:10254   */\n      pop\n      pop\n      jump\t// out\n        /* \"#utility.yul\":10260:10408   */\n    tag_123:\n        /* \"#utility.yul\":10362:10373   */\n      0x00\n        /* \"#utility.yul\":10399:10402   */\n      dup2\n        /* \"#utility.yul\":10384:10402   */\n      swap1\n      pop\n        /* \"#utility.yul\":10260:10408   */\n      swap3\n      swap2\n      pop\n      pop\n      jump\t// out\n        /* \"#utility.yul\":10414:10804   */\n    tag_124:\n        /* \"#utility.yul\":10520:10523   */\n      0x00\n        /* \"#utility.yul\":10548:10587   */\n      tag_257\n        /* \"#utility.yul\":10581:10586   */\n      dup3\n        /* \"#utility.yul\":10548:10587   */\n      tag_109\n      jump\t// in\n    tag_257:\n        /* \"#utility.yul\":10603:10692   */\n      tag_258\n        /* \"#utility.yul\":10685:10691   */\n      dup2\n        /* \"#utility.yul\":10680:10683   */\n      dup6\n        /* \"#utility.yul\":10603:10692   */\n      tag_123\n      jump\t// in\n    tag_258:\n        /* \"#utility.yul\":10596:10692   */\n      swap4\n      pop\n        /* \"#utility.yul\":10701:10766   */\n      tag_259\n        /* \"#utility.yul\":10759:10765   */\n      dup2\n        /* \"#utility.yul\":10754:10757   */\n      dup6\n        /* \"#utility.yul\":10747:10751   */\n      0x20\n        /* \"#utility.yul\":10740:10745   */\n      dup7\n        /* \"#utility.yul\":10736:10752   */\n      add\n        /* \"#utility.yul\":10701:10766   */\n      tag_111\n      jump\t// in\n    tag_259:\n        /* \"#utility.yul\":10791:10797   */\n      dup1\n        /* \"#utility.yul\":10786:10789   */\n      dup5\n        /* \"#utility.yul\":10782:10798   */\n      add\n        /* \"#utility.yul\":10775:10798   */\n      swap2\n      pop\n        /* \"#utility.yul\":10524:10804   */\n      pop\n        /* \"#utility.yul\":10414:10804   */\n      swap3\n      swap2\n      pop\n      pop\n      jump\t// out\n        /* \"#utility.yul\":10810:11226   */\n    tag_62:\n        /* \"#utility.yul\":10970:10973   */\n      0x00\n        /* \"#utility.yul\":10985:11060   */\n      tag_261\n        /* \"#utility.yul\":11056:11059   */\n      dup3\n        /* \"#utility.yul\":11047:11053   */\n      dup6\n        /* \"#utility.yul\":10985:11060   */\n      tag_122\n      jump\t// in\n    tag_261:\n        /* \"#utility.yul\":11085:11087   */\n      0x14\n        /* \"#utility.yul\":11080:11083   */\n      dup3\n        /* \"#utility.yul\":11076:11088   */\n      add\n        /* \"#utility.yul\":11069:11088   */\n      swap2\n      pop\n        /* \"#utility.yul\":11105:11200   */\n      tag_262\n        /* \"#utility.yul\":11196:11199   */\n      dup3\n        /* \"#utility.yul\":11187:11193   */\n      dup5\n        /* \"#utility.yul\":11105:11200   */\n      tag_124\n      jump\t// in\n    tag_262:\n        /* \"#utility.yul\":11098:11200   */\n      swap2\n      pop\n        /* \"#utility.yul\":11217:11220   */\n      dup2\n        /* \"#utility.yul\":11210:11220   */\n      swap1\n      pop\n        /* \"#utility.yul\":10810:11226   */\n      swap4\n      swap3\n      pop\n      pop\n      pop\n      jump\t// out\n        /* \"#utility.yul\":11232:11412   */\n    tag_125:\n        /* \"#utility.yul\":11280:11357   */\n      0x4e487b7100000000000000000000000000000000000000000000000000000000\n        /* \"#utility.yul\":11277:11278   */\n      0x00\n        /* \"#utility.yul\":11270:11358   */\n      mstore\n        /* \"#utility.yul\":11377:11381   */\n      0x22\n        /* \"#utility.yul\":11374:11375   */\n      0x04\n        /* \"#utility.yul\":11367:11382   */\n      mstore\n        /* \"#utility.yul\":11401:11405   */\n      0x24\n        /* \"#utility.yul\":11398:11399   */\n      0x00\n        /* \"#utility.yul\":11391:11406   */\n      revert\n        /* \"#utility.yul\":11418:11738   */\n    tag_67:\n        /* \"#utility.yul\":11462:11468   */\n      0x00\n        /* \"#utility.yul\":11499:11500   */\n      0x02\n        /* \"#utility.yul\":11493:11497   */\n      dup3\n        /* \"#utility.yul\":11489:11501   */\n      div\n        /* \"#utility.yul\":11479:11501   */\n      swap1\n      pop\n        /* \"#utility.yul\":11546:11547   */\n      0x01\n        /* \"#utility.yul\":11540:11544   */\n      dup3\n        /* \"#utility.yul\":11536:11548   */\n      and\n        /* \"#utility.yul\":11567:11585   */\n      dup1\n        /* \"#utility.yul\":11557:11638   */\n      tag_265\n      jumpi\n        /* \"#utility.yul\":11623:11627   */\n      0x7f\n        /* \"#utility.yul\":11615:11621   */\n      dup3\n        /* \"#utility.yul\":11611:11628   */\n      and\n        /* \"#utility.yul\":11601:11628   */\n      swap2\n      pop\n        /* \"#utility.yul\":11557:11638   */\n    tag_265:\n        /* \"#utility.yul\":11685:11687   */\n      0x20\n        /* \"#utility.yul\":11677:11683   */\n      dup3\n        /* \"#utility.yul\":11674:11688   */\n      lt\n        /* \"#utility.yul\":11654:11672   */\n      dup2\n        /* \"#utility.yul\":11651:11689   */\n      sub\n        /* \"#utility.yul\":11648:11732   */\n      tag_266\n      jumpi\n        /* \"#utility.yul\":11704:11722   */\n      tag_267\n      tag_125\n      jump\t// in\n    tag_267:\n        /* \"#utility.yul\":11648:11732   */\n    tag_266:\n        /* \"#utility.yul\":11469:11738   */\n      pop\n        /* \"#utility.yul\":11418:11738   */\n      swap2\n      swap1\n      pop\n      jump\t// out\n        /* \"#utility.yul\":11744:11885   */\n    tag_126:\n        /* \"#utility.yul\":11793:11797   */\n      0x00\n        /* \"#utility.yul\":11816:11819   */\n      dup2\n        /* \"#utility.yul\":11808:11819   */\n      swap1\n      pop\n        /* \"#utility.yul\":11839:11842   */\n      dup2\n        /* \"#utility.yul\":11836:11837   */\n      0x00\n        /* \"#utility.yul\":11829:11843   */\n      mstore\n        /* \"#utility.yul\":11873:11877   */\n      0x20\n        /* \"#utility.yul\":11870:11871   */\n      0x00\n        /* \"#utility.yul\":11860:11878   */\n      keccak256\n        /* \"#utility.yul\":11852:11878   */\n      swap1\n      pop\n        /* \"#utility.yul\":11744:11885   */\n      swap2\n      swap1\n      pop\n      jump\t// out\n        /* \"#utility.yul\":11891:11984   */\n    tag_127:\n        /* \"#utility.yul\":11928:11934   */\n      0x00\n        /* \"#utility.yul\":11975:11977   */\n      0x20\n        /* \"#utility.yul\":11970:11972   */\n      0x1f\n        /* \"#utility.yul\":11963:11968   */\n      dup4\n        /* \"#utility.yul\":11959:11973   */\n      add\n        /* \"#utility.yul\":11955:11978   */\n      div\n        /* \"#utility.yul\":11945:11978   */\n      swap1\n      pop\n        /* \"#utility.yul\":11891:11984   */\n      swap2\n      swap1\n      pop\n      jump\t// out\n        /* \"#utility.yul\":11990:12097   */\n    tag_128:\n        /* \"#utility.yul\":12034:12042   */\n      0x00\n        /* \"#utility.yul\":12084:12089   */\n      dup3\n        /* \"#utility.yul\":12078:12082   */\n      dup3\n        /* \"#utility.yul\":12074:12090   */\n      shl\n        /* \"#utility.yul\":12053:12090   */\n      swap1\n      pop\n        /* \"#utility.yul\":11990:12097   */\n      swap3\n      swap2\n      pop\n      pop\n      jump\t// out\n        /* \"#utility.yul\":12103:12496   */\n    tag_129:\n        /* \"#utility.yul\":12172:12178   */\n      0x00\n        /* \"#utility.yul\":12222:12223   */\n      0x08\n        /* \"#utility.yul\":12210:12220   */\n      dup4\n        /* \"#utility.yul\":12206:12224   */\n      mul\n        /* \"#utility.yul\":12245:12342   */\n      tag_272\n        /* \"#utility.yul\":12275:12341   */\n      0xffffffffffffffffffffffffffffffffffffffffffffffffffffffffffffffff\n        /* \"#utility.yul\":12264:12273   */\n      dup3\n        /* \"#utility.yul\":12245:12342   */\n      tag_128\n      jump\t// in\n    tag_272:\n        /* \"#utility.yul\":12363:12402   */\n      tag_273\n        /* \"#utility.yul\":12393:12401   */\n      dup7\n        /* \"#utility.yul\":12382:12391   */\n      dup4\n        /* \"#utility.yul\":12363:12402   */\n      tag_128\n      jump\t// in\n    tag_273:\n        /* \"#utility.yul\":12351:12402   */\n      swap6\n      pop\n        /* \"#utility.yul\":12435:12439   */\n      dup1\n        /* \"#utility.yul\":12431:12440   */\n      not\n        /* \"#utility.yul\":12424:12429   */\n      dup5\n        /* \"#utility.yul\":12420:12441   */\n      and\n        /* \"#utility.yul\":12411:12441   */\n      swap4\n      pop\n        /* \"#utility.yul\":12484:12488   */\n      dup1\n        /* \"#utility.yul\":12474:12482   */\n      dup7\n        /* \"#utility.yul\":12470:12489   */\n      and\n        /* \"#utility.yul\":12463:12468   */\n      dup5\n        /* \"#utility.yul\":12460:12490   */\n      or\n        /* \"#utility.yul\":12450:12490   */\n      swap3\n      pop\n        /* \"#utility.yul\":12179:12496   */\n      pop\n      pop\n        /* \"#utility.yul\":12103:12496   */\n      swap4\n      swap3\n      pop\n      pop\n      pop\n      jump\t// out\n        /* \"#utility.yul\":12502:12562   */\n    tag_130:\n        /* \"#utility.yul\":12530:12533   */\n      0x00\n        /* \"#utility.yul\":12551:12556   */\n      dup2\n        /* \"#utility.yul\":12544:12556   */\n      swap1\n      pop\n        /* \"#utility.yul\":12502:12562   */\n      swap2\n      swap1\n      pop\n      jump\t// out\n        /* \"#utility.yul\":12568:12710   */\n    tag_131:\n        /* \"#utility.yul\":12618:12627   */\n      0x00\n        /* \"#utility.yul\":12651:12704   */\n      tag_276\n        /* \"#utility.yul\":12669:12703   */\n      tag_277\n        /* \"#utility.yul\":12678:12702   */\n      tag_278\n        /* \"#utility.yul\":12696:12701   */\n      dup5\n        /* \"#utility.yul\":12678:12702   */\n      tag_84\n      jump\t// in\n    tag_278:\n        /* \"#utility.yul\":12669:12703   */\n      tag_130\n      jump\t// in\n    tag_277:\n        /* \"#utility.yul\":12651:12704   */\n      tag_84\n      jump\t// in\n    tag_276:\n        /* \"#utility.yul\":12638:12704   */\n      swap1\n      pop\n        /* \"#utility.yul\":12568:12710   */\n      swap2\n      swap1\n      pop\n      jump\t// out\n        /* \"#utility.yul\":12716:12791   */\n    tag_132:\n        /* \"#utility.yul\":12759:12762   */\n      0x00\n        /* \"#utility.yul\":12780:12785   */\n      dup2\n        /* \"#utility.yul\":12773:12785   */\n      swap1\n      pop\n        /* \"#utility.yul\":12716:12791   */\n      swap2\n      swap1\n      pop\n      jump\t// out\n        /* \"#utility.yul\":12797:13066   */\n    tag_133:\n        /* \"#utility.yul\":12907:12946   */\n      tag_281\n        /* \"#utility.yul\":12938:12945   */\n      dup4\n        /* \"#utility.yul\":12907:12946   */\n      tag_131\n      jump\t// in\n    tag_281:\n        /* \"#utility.yul\":12968:13059   */\n      tag_282\n        /* \"#utility.yul\":13017:13058   */\n      tag_283\n        /* \"#utility.yul\":13041:13057   */\n      dup3\n        /* \"#utility.yul\":13017:13058   */\n      tag_132\n      jump\t// in\n    tag_283:\n        /* \"#utility.yul\":13009:13015   */\n      dup5\n        /* \"#utility.yul\":13002:13006   */\n      dup5\n        /* \"#utility.yul\":12996:13007   */\n      sload\n        /* \"#utility.yul\":12968:13059   */\n      tag_129\n      jump\t// in\n    tag_282:\n        /* \"#utility.yul\":12962:12966   */\n      dup3\n        /* \"#utility.yul\":12955:13060   */\n      sstore\n        /* \"#utility.yul\":12873:13066   */\n      pop\n        /* \"#utility.yul\":12797:13066   */\n      pop\n      pop\n      pop\n      jump\t// out\n        /* \"#utility.yul\":13072:13145   */\n    tag_134:\n        /* \"#utility.yul\":13117:13120   */\n      0x00\n        /* \"#utility.yul\":13072:13145   */\n      swap1\n      jump\t// out\n        /* \"#utility.yul\":13151:13340   */\n    tag_135:\n        /* \"#utility.yul\":13228:13260   */\n      tag_286\n      tag_134\n      jump\t// in\n    tag_286:\n        /* \"#utility.yul\":13269:13334   */\n      tag_287\n        /* \"#utility.yul\":13327:13333   */\n      dup2\n        /* \"#utility.yul\":13319:13325   */\n      dup5\n        /* \"#utility.yul\":13313:13317   */\n      dup5\n        /* \"#utility.yul\":13269:13334   */\n      tag_133\n      jump\t// in\n    tag_287:\n        /* \"#utility.yul\":13204:13340   */\n      pop\n        /* \"#utility.yul\":13151:13340   */\n      pop\n      pop\n      jump\t// out\n        /* \"#utility.yul\":13346:13532   */\n    tag_136:\n        /* \"#utility.yul\":13406:13526   */\n    tag_289:\n        /* \"#utility.yul\":13423:13426   */\n      dup2\n        /* \"#utility.yul\":13416:13421   */\n      dup2\n        /* \"#utility.yul\":13413:13427   */\n      lt\n        /* \"#utility.yul\":13406:13526   */\n      iszero\n      tag_291\n      jumpi\n        /* \"#utility.yul\":13477:13516   */\n      tag_292\n        /* \"#utility.yul\":13514:13515   */\n      0x00\n        /* \"#utility.yul\":13507:13512   */\n      dup3\n        /* \"#utility.yul\":13477:13516   */\n      tag_135\n      jump\t// in\n    tag_292:\n        /* \"#utility.yul\":13450:13451   */\n      0x01\n        /* \"#utility.yul\":13443:13448   */\n      dup2\n        /* \"#utility.yul\":13439:13452   */\n      add\n        /* \"#utility.yul\":13430:13452   */\n      swap1\n      pop\n        /* \"#utility.yul\":13406:13526   */\n      jump(tag_289)\n    tag_291:\n        /* \"#utility.yul\":13346:13532   */\n      pop\n      pop\n      jump\t// out\n        /* \"#utility.yul\":13538:14081   */\n    tag_137:\n        /* \"#utility.yul\":13639:13641   */\n      0x1f\n        /* \"#utility.yul\":13634:13637   */\n      dup3\n        /* \"#utility.yul\":13631:13642   */\n      gt\n        /* \"#utility.yul\":13628:14074   */\n      iszero\n      tag_294\n      jumpi\n        /* \"#utility.yul\":13673:13711   */\n      tag_295\n        /* \"#utility.yul\":13705:13710   */\n      dup2\n        /* \"#utility.yul\":13673:13711   */\n      tag_126\n      jump\t// in\n    tag_295:\n        /* \"#utility.yul\":13757:13786   */\n      tag_296\n        /* \"#utility.yul\":13775:13785   */\n      dup5\n        /* \"#utility.yul\":13757:13786   */\n      tag_127\n      jump\t// in\n    tag_296:\n        /* \"#utility.yul\":13747:13755   */\n      dup2\n        /* \"#utility.yul\":13743:13787   */\n      add\n        /* \"#utility.yul\":13940:13942   */\n      0x20\n        /* \"#utility.yul\":13928:13938   */\n      dup6\n        /* \"#utility.yul\":13925:13943   */\n      lt\n        /* \"#utility.yul\":13922:13971   */\n      iszero\n      tag_297\n      jumpi\n        /* \"#utility.yul\":13961:13969   */\n      dup2\n        /* \"#utility.yul\":13946:13969   */\n      swap1\n      pop\n        /* \"#utility.yul\":13922:13971   */\n    tag_297:\n        /* \"#utility.yul\":13984:14064   */\n      tag_298\n        /* \"#utility.yul\":14040:14062   */\n      tag_299\n        /* \"#utility.yul\":14058:14061   */\n      dup6\n        /* \"#utility.yul\":14040:14062   */\n      tag_127\n      jump\t// in\n    tag_299:\n        /* \"#utility.yul\":14030:14038   */\n      dup4\n        /* \"#utility.yul\":14026:14063   */\n      add\n        /* \"#utility.yul\":14013:14024   */\n      dup3\n        /* \"#utility.yul\":13984:14064   */\n      tag_136\n      jump\t// in\n    tag_298:\n        /* \"#utility.yul\":13643:14074   */\n      pop\n      pop\n        /* \"#utility.yul\":13628:14074   */\n    tag_294:\n        /* \"#utility.yul\":13538:14081   */\n      pop\n      pop\n      pop\n      jump\t// out\n        /* \"#utility.yul\":14087:14204   */\n    tag_138:\n        /* \"#utility.yul\":14141:14149   */\n      0x00\n        /* \"#utility.yul\":14191:14196   */\n      dup3\n        /* \"#utility.yul\":14185:14189   */\n      dup3\n        /* \"#utility.yul\":14181:14197   */\n      shr\n        /* \"#utility.yul\":14160:14197   */\n      swap1\n      pop\n        /* \"#utility.yul\":14087:14204   */\n      swap3\n      swap2\n      pop\n      pop\n      jump\t// out\n        /* \"#utility.yul\":14210:14379   */\n    tag_139:\n        /* \"#utility.yul\":14254:14260   */\n      0x00\n        /* \"#utility.yul\":14287:14338   */\n      tag_302\n        /* \"#utility.yul\":14335:14336   */\n      0x00\n        /* \"#utility.yul\":14331:14337   */\n      not\n        /* \"#utility.yul\":14323:14328   */\n      dup5\n        /* \"#utility.yul\":14320:14321   */\n      0x08\n        /* \"#utility.yul\":14316:14329   */\n      mul\n        /* \"#utility.yul\":14287:14338   */\n      tag_138\n      jump\t// in\n    tag_302:\n        /* \"#utility.yul\":14283:14339   */\n      not\n        /* \"#utility.yul\":14368:14372   */\n      dup1\n        /* \"#utility.yul\":14362:14366   */\n      dup4\n        /* \"#utility.yul\":14358:14373   */\n      and\n        /* \"#utility.yul\":14348:14373   */\n      swap2\n      pop\n        /* \"#utility.yul\":14261:14379   */\n      pop\n        /* \"#utility.yul\":14210:14379   */\n      swap3\n      swap2\n      pop\n      pop\n      jump\t// out\n        /* \"#utility.yul\":14384:14679   */\n    tag_140:\n        /* \"#utility.yul\":14460:14464   */\n      0x00\n        /* \"#utility.yul\":14606:14635   */\n      tag_304\n        /* \"#utility.yul\":14631:14634   */\n      dup4\n        /* \"#utility.yul\":14625:14629   */\n      dup4\n        /* \"#utility.yul\":14606:14635   */\n      tag_139\n      jump\t// in\n    tag_304:\n        /* \"#utility.yul\":14598:14635   */\n      swap2\n      pop\n        /* \"#utility.yul\":14668:14671   */\n      dup3\n        /* \"#utility.yul\":14665:14666   */\n      0x02\n        /* \"#utility.yul\":14661:14672   */\n      mul\n        /* \"#utility.yul\":14655:14659   */\n      dup3\n        /* \"#utility.yul\":14652:14673   */\n      or\n        /* \"#utility.yul\":14644:14673   */\n      swap1\n      pop\n        /* \"#utility.yul\":14384:14679   */\n      swap3\n      swap2\n      pop\n      pop\n      jump\t// out\n        /* \"#utility.yul\":14684:16079   */\n    tag_64:\n        /* \"#utility.yul\":14801:14838   */\n      tag_306\n        /* \"#utility.yul\":14834:14837   */\n      dup3\n        /* \"#utility.yul\":14801:14838   */\n      tag_109\n      jump\t// in\n    tag_306:\n        /* \"#utility.yul\":14903:14921   */\n      0xffffffffffffffff\n        /* \"#utility.yul\":14895:14901   */\n      dup2\n        /* \"#utility.yul\":14892:14922   */\n      gt\n        /* \"#utility.yul\":14889:14945   */\n      iszero\n      tag_307\n      jumpi\n        /* \"#utility.yul\":14925:14943   */\n      tag_308\n      tag_96\n      jump\t// in\n    tag_308:\n        /* \"#utility.yul\":14889:14945   */\n    tag_307:\n        /* \"#utility.yul\":14969:15007   */\n      tag_309\n        /* \"#utility.yul\":15001:15005   */\n      dup3\n        /* \"#utility.yul\":14995:15006   */\n      sload\n        /* \"#utility.yul\":14969:15007   */\n      tag_67\n      jump\t// in\n    tag_309:\n        /* \"#utility.yul\":15054:15121   */\n      tag_310\n        /* \"#utility.yul\":15114:15120   */\n      dup3\n        /* \"#utility.yul\":15106:15112   */\n      dup3\n        /* \"#utility.yul\":15100:15104   */\n      dup6\n        /* \"#utility.yul\":15054:15121   */\n      tag_137\n      jump\t// in\n    tag_310:\n        /* \"#utility.yul\":15148:15149   */\n      0x00\n        /* \"#utility.yul\":15172:15176   */\n      0x20\n        /* \"#utility.yul\":15159:15176   */\n      swap1\n      pop\n        /* \"#utility.yul\":15204:15206   */\n      0x1f\n        /* \"#utility.yul\":15196:15202   */\n      dup4\n        /* \"#utility.yul\":15193:15207   */\n      gt\n        /* \"#utility.yul\":15221:15222   */\n      0x01\n        /* \"#utility.yul\":15216:15834   */\n      dup2\n      eq\n      tag_312\n      jumpi\n        /* \"#utility.yul\":15878:15879   */\n      0x00\n        /* \"#utility.yul\":15895:15901   */\n      dup5\n        /* \"#utility.yul\":15892:15969   */\n      iszero\n      tag_313\n      jumpi\n        /* \"#utility.yul\":15944:15953   */\n      dup3\n        /* \"#utility.yul\":15939:15942   */\n      dup8\n        /* \"#utility.yul\":15935:15954   */\n      add\n        /* \"#utility.yul\":15929:15955   */\n      mload\n        /* \"#utility.yul\":15920:15955   */\n      swap1\n      pop\n        /* \"#utility.yul\":15892:15969   */\n    tag_313:\n        /* \"#utility.yul\":15995:16062   */\n      tag_314\n        /* \"#utility.yul\":16055:16061   */\n      dup6\n        /* \"#utility.yul\":16048:16053   */\n      dup3\n        /* \"#utility.yul\":15995:16062   */\n      tag_140\n      jump\t// in\n    tag_314:\n        /* \"#utility.yul\":15989:15993   */\n      dup7\n        /* \"#utility.yul\":15982:16063   */\n      sstore\n        /* \"#utility.yul\":15851:16073   */\n      pop\n        /* \"#utility.yul\":15186:16073   */\n      jump(tag_311)\n        /* \"#utility.yul\":15216:15834   */\n    tag_312:\n        /* \"#utility.yul\":15268:15272   */\n      0x1f\n        /* \"#utility.yul\":15264:15273   */\n      not\n        /* \"#utility.yul\":15256:15262   */\n      dup5\n        /* \"#utility.yul\":15252:15274   */\n      and\n        /* \"#utility.yul\":15302:15339   */\n      tag_315\n        /* \"#utility.yul\":15334:15338   */\n      dup7\n        /* \"#utility.yul\":15302:15339   */\n      tag_126\n      jump\t// in\n    tag_315:\n        /* \"#utility.yul\":15361:15362   */\n      0x00\n        /* \"#utility.yul\":15375:15583   */\n    tag_316:\n        /* \"#utility.yul\":15389:15396   */\n      dup3\n        /* \"#utility.yul\":15386:15387   */\n      dup2\n        /* \"#utility.yul\":15383:15397   */\n      lt\n        /* \"#utility.yul\":15375:15583   */\n      iszero\n      tag_318\n      jumpi\n        /* \"#utility.yul\":15468:15477   */\n      dup5\n        /* \"#utility.yul\":15463:15466   */\n      dup10\n        /* \"#utility.yul\":15459:15478   */\n      add\n        /* \"#utility.yul\":15453:15479   */\n      mload\n        /* \"#utility.yul\":15445:15451   */\n      dup3\n        /* \"#utility.yul\":15438:15480   */\n      sstore\n        /* \"#utility.yul\":15519:15520   */\n      0x01\n        /* \"#utility.yul\":15511:15517   */\n      dup3\n        /* \"#utility.yul\":15507:15521   */\n      add\n        /* \"#utility.yul\":15497:15521   */\n      swap2\n      pop\n        /* \"#utility.yul\":15566:15568   */\n      0x20\n        /* \"#utility.yul\":15555:15564   */\n      dup6\n        /* \"#utility.yul\":15551:15569   */\n      add\n        /* \"#utility.yul\":15538:15569   */\n      swap5\n      pop\n        /* \"#utility.yul\":15412:15416   */\n      0x20\n        /* \"#utility.yul\":15409:15410   */\n      dup2\n        /* \"#utility.yul\":15405:15417   */\n      add\n        /* \"#utility.yul\":15400:15417   */\n      swap1\n      pop\n        /* \"#utility.yul\":15375:15583   */\n      jump(tag_316)\n    tag_318:\n        /* \"#utility.yul\":15611:15617   */\n      dup7\n        /* \"#utility.yul\":15602:15609   */\n      dup4\n        /* \"#utility.yul\":15599:15618   */\n      lt\n        /* \"#utility.yul\":15596:15775   */\n      iszero\n      tag_319\n      jumpi\n        /* \"#utility.yul\":15669:15678   */\n      dup5\n        /* \"#utility.yul\":15664:15667   */\n      dup10\n        /* \"#utility.yul\":15660:15679   */\n      add\n        /* \"#utility.yul\":15654:15680   */\n      mload\n        /* \"#utility.yul\":15712:15760   */\n      tag_320\n        /* \"#utility.yul\":15754:15758   */\n      0x1f\n        /* \"#utility.yul\":15746:15752   */\n      dup10\n        /* \"#utility.yul\":15742:15759   */\n      and\n        /* \"#utility.yul\":15731:15740   */\n      dup3\n        /* \"#utility.yul\":15712:15760   */\n      tag_139\n      jump\t// in\n    tag_320:\n        /* \"#utility.yul\":15704:15710   */\n      dup4\n        /* \"#utility.yul\":15697:15761   */\n      sstore\n        /* \"#utility.yul\":15619:15775   */\n      pop\n        /* \"#utility.yul\":15596:15775   */\n    tag_319:\n        /* \"#utility.yul\":15821:15822   */\n      0x01\n        /* \"#utility.yul\":15817:15818   */\n      0x02\n        /* \"#utility.yul\":15809:15815   */\n      dup9\n        /* \"#utility.yul\":15805:15819   */\n      mul\n        /* \"#utility.yul\":15801:15823   */\n      add\n        /* \"#utility.yul\":15795:15799   */\n      dup9\n        /* \"#utility.yul\":15788:15824   */\n      sstore\n        /* \"#utility.yul\":15223:15834   */\n      pop\n      pop\n      pop\n        /* \"#utility.yul\":15186:16073   */\n    tag_311:\n      pop\n        /* \"#utility.yul\":14776:16079   */\n      pop\n      pop\n      pop\n        /* \"#utility.yul\":14684:16079   */\n      pop\n      pop\n      jump\t// out\n\n    auxdata: 0xa264697066735822122004e9c05ce98052b13fc3fe78c0500e2a420c744e29cb952ddfd5578c203a0a5864736f6c63430008120033\n}\n",
				"bytecode": {
					"linkReferences": {},
					"object": "608060405234801561001057600080fd5b50604051620011c0380380620011c0833981810160405281019061003491906100bc565b336000806101000a81548173ffffffffffffffffffffffffffffffffffffffff021916908373ffffffffffffffffffffffffffffffffffffffff16021790555080600181905550506100e9565b600080fd5b6000819050919050565b61009981610086565b81146100a457600080fd5b50565b6000815190506100b681610090565b92915050565b6000602082840312156100d2576100d1610081565b5b60006100e0848285016100a7565b91505092915050565b6110c780620000f96000396000f3fe60806040526004361061007b5760003560e01c806376bc59ec1161004e57806376bc59ec1461014357806379054391146101805780638da5cb5b146101bf578063b92495c4146101ea5761007b565b806314c44e0914610080578063238f1804146100ab5780635cbd47e3146100c7578063605f999814610106575b600080fd5b34801561008c57600080fd5b50610095610227565b6040516100a29190610814565b60405180910390f35b6100c560048036038101906100c09190610a13565b61022d565b005b3480156100d357600080fd5b506100ee60048036038101906100e99190610ab8565b610437565b6040516100fd93929190610b73565b60405180910390f35b34801561011257600080fd5b5061012d60048036038101906101289190610bb1565b61056d565b60405161013a9190610bf9565b60405180910390f35b34801561014f57600080fd5b5061016a60048036038101906101659190610bb1565b6105c3565b6040516101779190610bf9565b60405180910390f35b34801561018c57600080fd5b506101a760048036038101906101a29190610ab8565b6105e3565b6040516101b693929190610b73565b60405180910390f35b3480156101cb57600080fd5b506101d46106b5565b6040516101e19190610c14565b60405180910390f35b3480156101f657600080fd5b50610211600480360381019061020c9190610ab8565b6106d9565b60405161021e9190610c14565b60405180910390f35b60015481565b6001543414610271576040517f08c379a000000000000000000000000000000000000000000000000000000000815260040161026890610c7b565b60405180910390fd5b600260008473ffffffffffffffffffffffffffffffffffffffff1673ffffffffffffffffffffffffffffffffffffffff16815260200190815260200160002060009054906101000a900460ff16156102fe576040517f08c379a00000000000000000000000000000000000000000000000000000000081526004016102f590610ce7565b60405180910390fd5b60008383604051602001610313929190610d8b565b60405160208183030381529060405280519060200120905060405180606001604052808573ffffffffffffffffffffffffffffffffffffffff168152602001848152602001838152506003600083815260200190815260200160002060008201518160000160006101000a81548173ffffffffffffffffffffffffffffffffffffffff021916908373ffffffffffffffffffffffffffffffffffffffff16021790555060208201518160010190816103cb9190610fbf565b50604082015181600201559050506001600260008673ffffffffffffffffffffffffffffffffffffffff1673ffffffffffffffffffffffffffffffffffffffff16815260200190815260200160002060006101000a81548160ff02191690831515021790555050505050565b60006060600080600360008681526020019081526020016000206040518060600160405290816000820160009054906101000a900473ffffffffffffffffffffffffffffffffffffffff1673ffffffffffffffffffffffffffffffffffffffff1673ffffffffffffffffffffffffffffffffffffffff1681526020016001820180546104c290610de2565b80601f01602080910402602001604051908101604052809291908181526020018280546104ee90610de2565b801561053b5780601f106105105761010080835404028352916020019161053b565b820191906000526020600020905b81548152906001019060200180831161051e57829003601f168201915b505050505081526020016002820154815250509050806000015181602001518260400151935093509350509193909250565b6000600260008373ffffffffffffffffffffffffffffffffffffffff1673ffffffffffffffffffffffffffffffffffffffff16815260200190815260200160002060009054906101000a900460ff169050919050565b60026020528060005260406000206000915054906101000a900460ff1681565b60036020528060005260406000206000915090508060000160009054906101000a900473ffffffffffffffffffffffffffffffffffffffff169080600101805461062c90610de2565b80601f016020809104026020016040519081016040528092919081815260200182805461065890610de2565b80156106a55780601f1061067a576101008083540402835291602001916106a5565b820191906000526020600020905b81548152906001019060200180831161068857829003601f168201915b5050505050908060020154905083565b60008054906101000a900473ffffffffffffffffffffffffffffffffffffffff1681565b600080600360008481526020019081526020016000206040518060600160405290816000820160009054906101000a900473ffffffffffffffffffffffffffffffffffffffff1673ffffffffffffffffffffffffffffffffffffffff1673ffffffffffffffffffffffffffffffffffffffff16815260200160018201805461076090610de2565b80601f016020809104026020016040519081016040528092919081815260200182805461078c90610de2565b80156107d95780601f106107ae576101008083540402835291602001916107d9565b820191906000526020600020905b8154815290600101906020018083116107bc57829003601f168201915b5050505050815260200160028201548152505090508060000151915050919050565b6000819050919050565b61080e816107fb565b82525050565b60006020820190506108296000830184610805565b92915050565b6000604051905090565b600080fd5b600080fd5b600073ffffffffffffffffffffffffffffffffffffffff82169050919050565b600061086e82610843565b9050919050565b61087e81610863565b811461088957600080fd5b50565b60008135905061089b81610875565b92915050565b600080fd5b600080fd5b6000601f19601f8301169050919050565b7f4e487b7100000000000000000000000000000000000000000000000000000000600052604160045260246000fd5b6108f4826108ab565b810181811067ffffffffffffffff82111715610913576109126108bc565b5b80604052505050565b600061092661082f565b905061093282826108eb565b919050565b600067ffffffffffffffff821115610952576109516108bc565b5b61095b826108ab565b9050602081019050919050565b82818337600083830152505050565b600061098a61098584610937565b61091c565b9050828152602081018484840111156109a6576109a56108a6565b5b6109b1848285610968565b509392505050565b600082601f8301126109ce576109cd6108a1565b5b81356109de848260208601610977565b91505092915050565b6109f0816107fb565b81146109fb57600080fd5b50565b600081359050610a0d816109e7565b92915050565b600080600060608486031215610a2c57610a2b610839565b5b6000610a3a8682870161088c565b935050602084013567ffffffffffffffff811115610a5b57610a5a61083e565b5b610a67868287016109b9565b9250506040610a78868287016109fe565b9150509250925092565b6000819050919050565b610a9581610a82565b8114610aa057600080fd5b50565b600081359050610ab281610a8c565b92915050565b600060208284031215610ace57610acd610839565b5b6000610adc84828501610aa3565b91505092915050565b610aee81610863565b82525050565b600081519050919050565b600082825260208201905092915050565b60005b83811015610b2e578082015181840152602081019050610b13565b60008484015250505050565b6000610b4582610af4565b610b4f8185610aff565b9350610b5f818560208601610b10565b610b68816108ab565b840191505092915050565b6000606082019050610b886000830186610ae5565b8181036020830152610b9a8185610b3a565b9050610ba96040830184610805565b949350505050565b600060208284031215610bc757610bc6610839565b5b6000610bd58482850161088c565b91505092915050565b60008115159050919050565b610bf381610bde565b82525050565b6000602082019050610c0e6000830184610bea565b92915050565b6000602082019050610c296000830184610ae5565b92915050565b7f526567697374726174696f6e20666565206e6f7420706169642e000000000000600082015250565b6000610c65601a83610aff565b9150610c7082610c2f565b602082019050919050565b60006020820190508181036000830152610c9481610c58565b9050919050565b7f50726f647563657220616c726561647920726567697374657265640000000000600082015250565b6000610cd1601b83610aff565b9150610cdc82610c9b565b602082019050919050565b60006020820190508181036000830152610d0081610cc4565b9050919050565b60008160601b9050919050565b6000610d1f82610d07565b9050919050565b6000610d3182610d14565b9050919050565b610d49610d4482610863565b610d26565b82525050565b600081905092915050565b6000610d6582610af4565b610d6f8185610d4f565b9350610d7f818560208601610b10565b80840191505092915050565b6000610d978285610d38565b601482019150610da78284610d5a565b91508190509392505050565b7f4e487b7100000000000000000000000000000000000000000000000000000000600052602260045260246000fd5b60006002820490506001821680610dfa57607f821691505b602082108103610e0d57610e0c610db3565b5b50919050565b60008190508160005260206000209050919050565b60006020601f8301049050919050565b600082821b905092915050565b600060088302610e757fffffffffffffffffffffffffffffffffffffffffffffffffffffffffffffffff82610e38565b610e7f8683610e38565b95508019841693508086168417925050509392505050565b6000819050919050565b6000610ebc610eb7610eb2846107fb565b610e97565b6107fb565b9050919050565b6000819050919050565b610ed683610ea1565b610eea610ee282610ec3565b848454610e45565b825550505050565b600090565b610eff610ef2565b610f0a818484610ecd565b505050565b5b81811015610f2e57610f23600082610ef7565b600181019050610f10565b5050565b601f821115610f7357610f4481610e13565b610f4d84610e28565b81016020851015610f5c578190505b610f70610f6885610e28565b830182610f0f565b50505b505050565b600082821c905092915050565b6000610f9660001984600802610f78565b1980831691505092915050565b6000610faf8383610f85565b9150826002028217905092915050565b610fc882610af4565b67ffffffffffffffff811115610fe157610fe06108bc565b5b610feb8254610de2565b610ff6828285610f32565b600060209050601f8311600181146110295760008415611017578287015190505b6110218582610fa3565b865550611089565b601f19841661103786610e13565b60005b8281101561105f5784890151825560018201915060208501945060208101905061103a565b8683101561107c5784890151611078601f891682610f85565b8355505b6001600288020188555050505b50505050505056fea264697066735822122004e9c05ce98052b13fc3fe78c0500e2a420c744e29cb952ddfd5578c203a0a5864736f6c63430008120033",
					"opcodes": "PUSH1 0x80 PUSH1 0x40 MSTORE CALLVALUE DUP1 ISZERO PUSH2 0x10 JUMPI PUSH1 0x0 DUP1 REVERT JUMPDEST POP PUSH1 0x40 MLOAD PUSH3 0x11C0 CODESIZE SUB DUP1 PUSH3 0x11C0 DUP4 CODECOPY DUP2 DUP2 ADD PUSH1 0x40 MSTORE DUP2 ADD SWAP1 PUSH2 0x34 SWAP2 SWAP1 PUSH2 0xBC JUMP JUMPDEST CALLER PUSH1 0x0 DUP1 PUSH2 0x100 EXP DUP2 SLOAD DUP2 PUSH20 0xFFFFFFFFFFFFFFFFFFFFFFFFFFFFFFFFFFFFFFFF MUL NOT AND SWAP1 DUP4 PUSH20 0xFFFFFFFFFFFFFFFFFFFFFFFFFFFFFFFFFFFFFFFF AND MUL OR SWAP1 SSTORE POP DUP1 PUSH1 0x1 DUP2 SWAP1 SSTORE POP POP PUSH2 0xE9 JUMP JUMPDEST PUSH1 0x0 DUP1 REVERT JUMPDEST PUSH1 0x0 DUP2 SWAP1 POP SWAP2 SWAP1 POP JUMP JUMPDEST PUSH2 0x99 DUP2 PUSH2 0x86 JUMP JUMPDEST DUP2 EQ PUSH2 0xA4 JUMPI PUSH1 0x0 DUP1 REVERT JUMPDEST POP JUMP JUMPDEST PUSH1 0x0 DUP2 MLOAD SWAP1 POP PUSH2 0xB6 DUP2 PUSH2 0x90 JUMP JUMPDEST SWAP3 SWAP2 POP POP JUMP JUMPDEST PUSH1 0x0 PUSH1 0x20 DUP3 DUP5 SUB SLT ISZERO PUSH2 0xD2 JUMPI PUSH2 0xD1 PUSH2 0x81 JUMP JUMPDEST JUMPDEST PUSH1 0x0 PUSH2 0xE0 DUP5 DUP3 DUP6 ADD PUSH2 0xA7 JUMP JUMPDEST SWAP2 POP POP SWAP3 SWAP2 POP POP JUMP JUMPDEST PUSH2 0x10C7 DUP1 PUSH3 0xF9 PUSH1 0x0 CODECOPY PUSH1 0x0 RETURN INVALID PUSH1 0x80 PUSH1 0x40 MSTORE PUSH1 0x4 CALLDATASIZE LT PUSH2 0x7B JUMPI PUSH1 0x0 CALLDATALOAD PUSH1 0xE0 SHR DUP1 PUSH4 0x76BC59EC GT PUSH2 0x4E JUMPI DUP1 PUSH4 0x76BC59EC EQ PUSH2 0x143 JUMPI DUP1 PUSH4 0x79054391 EQ PUSH2 0x180 JUMPI DUP1 PUSH4 0x8DA5CB5B EQ PUSH2 0x1BF JUMPI DUP1 PUSH4 0xB92495C4 EQ PUSH2 0x1EA JUMPI PUSH2 0x7B JUMP JUMPDEST DUP1 PUSH4 0x14C44E09 EQ PUSH2 0x80 JUMPI DUP1 PUSH4 0x238F1804 EQ PUSH2 0xAB JUMPI DUP1 PUSH4 0x5CBD47E3 EQ PUSH2 0xC7 JUMPI DUP1 PUSH4 0x605F9998 EQ PUSH2 0x106 JUMPI JUMPDEST PUSH1 0x0 DUP1 REVERT JUMPDEST CALLVALUE DUP1 ISZERO PUSH2 0x8C JUMPI PUSH1 0x0 DUP1 REVERT JUMPDEST POP PUSH2 0x95 PUSH2 0x227 JUMP JUMPDEST PUSH1 0x40 MLOAD PUSH2 0xA2 SWAP2 SWAP1 PUSH2 0x814 JUMP JUMPDEST PUSH1 0x40 MLOAD DUP1 SWAP2 SUB SWAP1 RETURN JUMPDEST PUSH2 0xC5 PUSH1 0x4 DUP1 CALLDATASIZE SUB DUP2 ADD SWAP1 PUSH2 0xC0 SWAP2 SWAP1 PUSH2 0xA13 JUMP JUMPDEST PUSH2 0x22D JUMP JUMPDEST STOP JUMPDEST CALLVALUE DUP1 ISZERO PUSH2 0xD3 JUMPI PUSH1 0x0 DUP1 REVERT JUMPDEST POP PUSH2 0xEE PUSH1 0x4 DUP1 CALLDATASIZE SUB DUP2 ADD SWAP1 PUSH2 0xE9 SWAP2 SWAP1 PUSH2 0xAB8 JUMP JUMPDEST PUSH2 0x437 JUMP JUMPDEST PUSH1 0x40 MLOAD PUSH2 0xFD SWAP4 SWAP3 SWAP2 SWAP1 PUSH2 0xB73 JUMP JUMPDEST PUSH1 0x40 MLOAD DUP1 SWAP2 SUB SWAP1 RETURN JUMPDEST CALLVALUE DUP1 ISZERO PUSH2 0x112 JUMPI PUSH1 0x0 DUP1 REVERT JUMPDEST POP PUSH2 0x12D PUSH1 0x4 DUP1 CALLDATASIZE SUB DUP2 ADD SWAP1 PUSH2 0x128 SWAP2 SWAP1 PUSH2 0xBB1 JUMP JUMPDEST PUSH2 0x56D JUMP JUMPDEST PUSH1 0x40 MLOAD PUSH2 0x13A SWAP2 SWAP1 PUSH2 0xBF9 JUMP JUMPDEST PUSH1 0x40 MLOAD DUP1 SWAP2 SUB SWAP1 RETURN JUMPDEST CALLVALUE DUP1 ISZERO PUSH2 0x14F JUMPI PUSH1 0x0 DUP1 REVERT JUMPDEST POP PUSH2 0x16A PUSH1 0x4 DUP1 CALLDATASIZE SUB DUP2 ADD SWAP1 PUSH2 0x165 SWAP2 SWAP1 PUSH2 0xBB1 JUMP JUMPDEST PUSH2 0x5C3 JUMP JUMPDEST PUSH1 0x40 MLOAD PUSH2 0x177 SWAP2 SWAP1 PUSH2 0xBF9 JUMP JUMPDEST PUSH1 0x40 MLOAD DUP1 SWAP2 SUB SWAP1 RETURN JUMPDEST CALLVALUE DUP1 ISZERO PUSH2 0x18C JUMPI PUSH1 0x0 DUP1 REVERT JUMPDEST POP PUSH2 0x1A7 PUSH1 0x4 DUP1 CALLDATASIZE SUB DUP2 ADD SWAP1 PUSH2 0x1A2 SWAP2 SWAP1 PUSH2 0xAB8 JUMP JUMPDEST PUSH2 0x5E3 JUMP JUMPDEST PUSH1 0x40 MLOAD PUSH2 0x1B6 SWAP4 SWAP3 SWAP2 SWAP1 PUSH2 0xB73 JUMP JUMPDEST PUSH1 0x40 MLOAD DUP1 SWAP2 SUB SWAP1 RETURN JUMPDEST CALLVALUE DUP1 ISZERO PUSH2 0x1CB JUMPI PUSH1 0x0 DUP1 REVERT JUMPDEST POP PUSH2 0x1D4 PUSH2 0x6B5 JUMP JUMPDEST PUSH1 0x40 MLOAD PUSH2 0x1E1 SWAP2 SWAP1 PUSH2 0xC14 JUMP JUMPDEST PUSH1 0x40 MLOAD DUP1 SWAP2 SUB SWAP1 RETURN JUMPDEST CALLVALUE DUP1 ISZERO PUSH2 0x1F6 JUMPI PUSH1 0x0 DUP1 REVERT JUMPDEST POP PUSH2 0x211 PUSH1 0x4 DUP1 CALLDATASIZE SUB DUP2 ADD SWAP1 PUSH2 0x20C SWAP2 SWAP1 PUSH2 0xAB8 JUMP JUMPDEST PUSH2 0x6D9 JUMP JUMPDEST PUSH1 0x40 MLOAD PUSH2 0x21E SWAP2 SWAP1 PUSH2 0xC14 JUMP JUMPDEST PUSH1 0x40 MLOAD DUP1 SWAP2 SUB SWAP1 RETURN JUMPDEST PUSH1 0x1 SLOAD DUP2 JUMP JUMPDEST PUSH1 0x1 SLOAD CALLVALUE EQ PUSH2 0x271 JUMPI PUSH1 0x40 MLOAD PUSH32 0x8C379A000000000000000000000000000000000000000000000000000000000 DUP2 MSTORE PUSH1 0x4 ADD PUSH2 0x268 SWAP1 PUSH2 0xC7B JUMP JUMPDEST PUSH1 0x40 MLOAD DUP1 SWAP2 SUB SWAP1 REVERT JUMPDEST PUSH1 0x2 PUSH1 0x0 DUP5 PUSH20 0xFFFFFFFFFFFFFFFFFFFFFFFFFFFFFFFFFFFFFFFF AND PUSH20 0xFFFFFFFFFFFFFFFFFFFFFFFFFFFFFFFFFFFFFFFF AND DUP2 MSTORE PUSH1 0x20 ADD SWAP1 DUP2 MSTORE PUSH1 0x20 ADD PUSH1 0x0 KECCAK256 PUSH1 0x0 SWAP1 SLOAD SWAP1 PUSH2 0x100 EXP SWAP1 DIV PUSH1 0xFF AND ISZERO PUSH2 0x2FE JUMPI PUSH1 0x40 MLOAD PUSH32 0x8C379A000000000000000000000000000000000000000000000000000000000 DUP2 MSTORE PUSH1 0x4 ADD PUSH2 0x2F5 SWAP1 PUSH2 0xCE7 JUMP JUMPDEST PUSH1 0x40 MLOAD DUP1 SWAP2 SUB SWAP1 REVERT JUMPDEST PUSH1 0x0 DUP4 DUP4 PUSH1 0x40 MLOAD PUSH1 0x20 ADD PUSH2 0x313 SWAP3 SWAP2 SWAP1 PUSH2 0xD8B JUMP JUMPDEST PUSH1 0x40 MLOAD PUSH1 0x20 DUP2 DUP4 SUB SUB DUP2 MSTORE SWAP1 PUSH1 0x40 MSTORE DUP1 MLOAD SWAP1 PUSH1 0x20 ADD KECCAK256 SWAP1 POP PUSH1 0x40 MLOAD DUP1 PUSH1 0x60 ADD PUSH1 0x40 MSTORE DUP1 DUP6 PUSH20 0xFFFFFFFFFFFFFFFFFFFFFFFFFFFFFFFFFFFFFFFF AND DUP2 MSTORE PUSH1 0x20 ADD DUP5 DUP2 MSTORE PUSH1 0x20 ADD DUP4 DUP2 MSTORE POP PUSH1 0x3 PUSH1 0x0 DUP4 DUP2 MSTORE PUSH1 0x20 ADD SWAP1 DUP2 MSTORE PUSH1 0x20 ADD PUSH1 0x0 KECCAK256 PUSH1 0x0 DUP3 ADD MLOAD DUP2 PUSH1 0x0 ADD PUSH1 0x0 PUSH2 0x100 EXP DUP2 SLOAD DUP2 PUSH20 0xFFFFFFFFFFFFFFFFFFFFFFFFFFFFFFFFFFFFFFFF MUL NOT AND SWAP1 DUP4 PUSH20 0xFFFFFFFFFFFFFFFFFFFFFFFFFFFFFFFFFFFFFFFF AND MUL OR SWAP1 SSTORE POP PUSH1 0x20 DUP3 ADD MLOAD DUP2 PUSH1 0x1 ADD SWAP1 DUP2 PUSH2 0x3CB SWAP2 SWAP1 PUSH2 0xFBF JUMP JUMPDEST POP PUSH1 0x40 DUP3 ADD MLOAD DUP2 PUSH1 0x2 ADD SSTORE SWAP1 POP POP PUSH1 0x1 PUSH1 0x2 PUSH1 0x0 DUP7 PUSH20 0xFFFFFFFFFFFFFFFFFFFFFFFFFFFFFFFFFFFFFFFF AND PUSH20 0xFFFFFFFFFFFFFFFFFFFFFFFFFFFFFFFFFFFFFFFF AND DUP2 MSTORE PUSH1 0x20 ADD SWAP1 DUP2 MSTORE PUSH1 0x20 ADD PUSH1 0x0 KECCAK256 PUSH1 0x0 PUSH2 0x100 EXP DUP2 SLOAD DUP2 PUSH1 0xFF MUL NOT AND SWAP1 DUP4 ISZERO ISZERO MUL OR SWAP1 SSTORE POP POP POP POP POP JUMP JUMPDEST PUSH1 0x0 PUSH1 0x60 PUSH1 0x0 DUP1 PUSH1 0x3 PUSH1 0x0 DUP7 DUP2 MSTORE PUSH1 0x20 ADD SWAP1 DUP2 MSTORE PUSH1 0x20 ADD PUSH1 0x0 KECCAK256 PUSH1 0x40 MLOAD DUP1 PUSH1 0x60 ADD PUSH1 0x40 MSTORE SWAP1 DUP2 PUSH1 0x0 DUP3 ADD PUSH1 0x0 SWAP1 SLOAD SWAP1 PUSH2 0x100 EXP SWAP1 DIV PUSH20 0xFFFFFFFFFFFFFFFFFFFFFFFFFFFFFFFFFFFFFFFF AND PUSH20 0xFFFFFFFFFFFFFFFFFFFFFFFFFFFFFFFFFFFFFFFF AND PUSH20 0xFFFFFFFFFFFFFFFFFFFFFFFFFFFFFFFFFFFFFFFF AND DUP2 MSTORE PUSH1 0x20 ADD PUSH1 0x1 DUP3 ADD DUP1 SLOAD PUSH2 0x4C2 SWAP1 PUSH2 0xDE2 JUMP JUMPDEST DUP1 PUSH1 0x1F ADD PUSH1 0x20 DUP1 SWAP2 DIV MUL PUSH1 0x20 ADD PUSH1 0x40 MLOAD SWAP1 DUP2 ADD PUSH1 0x40 MSTORE DUP1 SWAP3 SWAP2 SWAP1 DUP2 DUP2 MSTORE PUSH1 0x20 ADD DUP3 DUP1 SLOAD PUSH2 0x4EE SWAP1 PUSH2 0xDE2 JUMP JUMPDEST DUP1 ISZERO PUSH2 0x53B JUMPI DUP1 PUSH1 0x1F LT PUSH2 0x510 JUMPI PUSH2 0x100 DUP1 DUP4 SLOAD DIV MUL DUP4 MSTORE SWAP2 PUSH1 0x20 ADD SWAP2 PUSH2 0x53B JUMP JUMPDEST DUP3 ADD SWAP2 SWAP1 PUSH1 0x0 MSTORE PUSH1 0x20 PUSH1 0x0 KECCAK256 SWAP1 JUMPDEST DUP2 SLOAD DUP2 MSTORE SWAP1 PUSH1 0x1 ADD SWAP1 PUSH1 0x20 ADD DUP1 DUP4 GT PUSH2 0x51E JUMPI DUP3 SWAP1 SUB PUSH1 0x1F AND DUP3 ADD SWAP2 JUMPDEST POP POP POP POP POP DUP2 MSTORE PUSH1 0x20 ADD PUSH1 0x2 DUP3 ADD SLOAD DUP2 MSTORE POP POP SWAP1 POP DUP1 PUSH1 0x0 ADD MLOAD DUP2 PUSH1 0x20 ADD MLOAD DUP3 PUSH1 0x40 ADD MLOAD SWAP4 POP SWAP4 POP SWAP4 POP POP SWAP2 SWAP4 SWAP1 SWAP3 POP JUMP JUMPDEST PUSH1 0x0 PUSH1 0x2 PUSH1 0x0 DUP4 PUSH20 0xFFFFFFFFFFFFFFFFFFFFFFFFFFFFFFFFFFFFFFFF AND PUSH20 0xFFFFFFFFFFFFFFFFFFFFFFFFFFFFFFFFFFFFFFFF AND DUP2 MSTORE PUSH1 0x20 ADD SWAP1 DUP2 MSTORE PUSH1 0x20 ADD PUSH1 0x0 KECCAK256 PUSH1 0x0 SWAP1 SLOAD SWAP1 PUSH2 0x100 EXP SWAP1 DIV PUSH1 0xFF AND SWAP1 POP SWAP2 SWAP1 POP JUMP JUMPDEST PUSH1 0x2 PUSH1 0x20 MSTORE DUP1 PUSH1 0x0 MSTORE PUSH1 0x40 PUSH1 0x0 KECCAK256 PUSH1 0x0 SWAP2 POP SLOAD SWAP1 PUSH2 0x100 EXP SWAP1 DIV PUSH1 0xFF AND DUP2 JUMP JUMPDEST PUSH1 0x3 PUSH1 0x20 MSTORE DUP1 PUSH1 0x0 MSTORE PUSH1 0x40 PUSH1 0x0 KECCAK256 PUSH1 0x0 SWAP2 POP SWAP1 POP DUP1 PUSH1 0x0 ADD PUSH1 0x0 SWAP1 SLOAD SWAP1 PUSH2 0x100 EXP SWAP1 DIV PUSH20 0xFFFFFFFFFFFFFFFFFFFFFFFFFFFFFFFFFFFFFFFF AND SWAP1 DUP1 PUSH1 0x1 ADD DUP1 SLOAD PUSH2 0x62C SWAP1 PUSH2 0xDE2 JUMP JUMPDEST DUP1 PUSH1 0x1F ADD PUSH1 0x20 DUP1 SWAP2 DIV MUL PUSH1 0x20 ADD PUSH1 0x40 MLOAD SWAP1 DUP2 ADD PUSH1 0x40 MSTORE DUP1 SWAP3 SWAP2 SWAP1 DUP2 DUP2 MSTORE PUSH1 0x20 ADD DUP3 DUP1 SLOAD PUSH2 0x658 SWAP1 PUSH2 0xDE2 JUMP JUMPDEST DUP1 ISZERO PUSH2 0x6A5 JUMPI DUP1 PUSH1 0x1F LT PUSH2 0x67A JUMPI PUSH2 0x100 DUP1 DUP4 SLOAD DIV MUL DUP4 MSTORE SWAP2 PUSH1 0x20 ADD SWAP2 PUSH2 0x6A5 JUMP JUMPDEST DUP3 ADD SWAP2 SWAP1 PUSH1 0x0 MSTORE PUSH1 0x20 PUSH1 0x0 KECCAK256 SWAP1 JUMPDEST DUP2 SLOAD DUP2 MSTORE SWAP1 PUSH1 0x1 ADD SWAP1 PUSH1 0x20 ADD DUP1 DUP4 GT PUSH2 0x688 JUMPI DUP3 SWAP1 SUB PUSH1 0x1F AND DUP3 ADD SWAP2 JUMPDEST POP POP POP POP POP SWAP1 DUP1 PUSH1 0x2 ADD SLOAD SWAP1 POP DUP4 JUMP JUMPDEST PUSH1 0x0 DUP1 SLOAD SWAP1 PUSH2 0x100 EXP SWAP1 DIV PUSH20 0xFFFFFFFFFFFFFFFFFFFFFFFFFFFFFFFFFFFFFFFF AND DUP2 JUMP JUMPDEST PUSH1 0x0 DUP1 PUSH1 0x3 PUSH1 0x0 DUP5 DUP2 MSTORE PUSH1 0x20 ADD SWAP1 DUP2 MSTORE PUSH1 0x20 ADD PUSH1 0x0 KECCAK256 PUSH1 0x40 MLOAD DUP1 PUSH1 0x60 ADD PUSH1 0x40 MSTORE SWAP1 DUP2 PUSH1 0x0 DUP3 ADD PUSH1 0x0 SWAP1 SLOAD SWAP1 PUSH2 0x100 EXP SWAP1 DIV PUSH20 0xFFFFFFFFFFFFFFFFFFFFFFFFFFFFFFFFFFFFFFFF AND PUSH20 0xFFFFFFFFFFFFFFFFFFFFFFFFFFFFFFFFFFFFFFFF AND PUSH20 0xFFFFFFFFFFFFFFFFFFFFFFFFFFFFFFFFFFFFFFFF AND DUP2 MSTORE PUSH1 0x20 ADD PUSH1 0x1 DUP3 ADD DUP1 SLOAD PUSH2 0x760 SWAP1 PUSH2 0xDE2 JUMP JUMPDEST DUP1 PUSH1 0x1F ADD PUSH1 0x20 DUP1 SWAP2 DIV MUL PUSH1 0x20 ADD PUSH1 0x40 MLOAD SWAP1 DUP2 ADD PUSH1 0x40 MSTORE DUP1 SWAP3 SWAP2 SWAP1 DUP2 DUP2 MSTORE PUSH1 0x20 ADD DUP3 DUP1 SLOAD PUSH2 0x78C SWAP1 PUSH2 0xDE2 JUMP JUMPDEST DUP1 ISZERO PUSH2 0x7D9 JUMPI DUP1 PUSH1 0x1F LT PUSH2 0x7AE JUMPI PUSH2 0x100 DUP1 DUP4 SLOAD DIV MUL DUP4 MSTORE SWAP2 PUSH1 0x20 ADD SWAP2 PUSH2 0x7D9 JUMP JUMPDEST DUP3 ADD SWAP2 SWAP1 PUSH1 0x0 MSTORE PUSH1 0x20 PUSH1 0x0 KECCAK256 SWAP1 JUMPDEST DUP2 SLOAD DUP2 MSTORE SWAP1 PUSH1 0x1 ADD SWAP1 PUSH1 0x20 ADD DUP1 DUP4 GT PUSH2 0x7BC JUMPI DUP3 SWAP1 SUB PUSH1 0x1F AND DUP3 ADD SWAP2 JUMPDEST POP POP POP POP POP DUP2 MSTORE PUSH1 0x20 ADD PUSH1 0x2 DUP3 ADD SLOAD DUP2 MSTORE POP POP SWAP1 POP DUP1 PUSH1 0x0 ADD MLOAD SWAP2 POP POP SWAP2 SWAP1 POP JUMP JUMPDEST PUSH1 0x0 DUP2 SWAP1 POP SWAP2 SWAP1 POP JUMP JUMPDEST PUSH2 0x80E DUP2 PUSH2 0x7FB JUMP JUMPDEST DUP3 MSTORE POP POP JUMP JUMPDEST PUSH1 0x0 PUSH1 0x20 DUP3 ADD SWAP1 POP PUSH2 0x829 PUSH1 0x0 DUP4 ADD DUP5 PUSH2 0x805 JUMP JUMPDEST SWAP3 SWAP2 POP POP JUMP JUMPDEST PUSH1 0x0 PUSH1 0x40 MLOAD SWAP1 POP SWAP1 JUMP JUMPDEST PUSH1 0x0 DUP1 REVERT JUMPDEST PUSH1 0x0 DUP1 REVERT JUMPDEST PUSH1 0x0 PUSH20 0xFFFFFFFFFFFFFFFFFFFFFFFFFFFFFFFFFFFFFFFF DUP3 AND SWAP1 POP SWAP2 SWAP1 POP JUMP JUMPDEST PUSH1 0x0 PUSH2 0x86E DUP3 PUSH2 0x843 JUMP JUMPDEST SWAP1 POP SWAP2 SWAP1 POP JUMP JUMPDEST PUSH2 0x87E DUP2 PUSH2 0x863 JUMP JUMPDEST DUP2 EQ PUSH2 0x889 JUMPI PUSH1 0x0 DUP1 REVERT JUMPDEST POP JUMP JUMPDEST PUSH1 0x0 DUP2 CALLDATALOAD SWAP1 POP PUSH2 0x89B DUP2 PUSH2 0x875 JUMP JUMPDEST SWAP3 SWAP2 POP POP JUMP JUMPDEST PUSH1 0x0 DUP1 REVERT JUMPDEST PUSH1 0x0 DUP1 REVERT JUMPDEST PUSH1 0x0 PUSH1 0x1F NOT PUSH1 0x1F DUP4 ADD AND SWAP1 POP SWAP2 SWAP1 POP JUMP JUMPDEST PUSH32 0x4E487B7100000000000000000000000000000000000000000000000000000000 PUSH1 0x0 MSTORE PUSH1 0x41 PUSH1 0x4 MSTORE PUSH1 0x24 PUSH1 0x0 REVERT JUMPDEST PUSH2 0x8F4 DUP3 PUSH2 0x8AB JUMP JUMPDEST DUP2 ADD DUP2 DUP2 LT PUSH8 0xFFFFFFFFFFFFFFFF DUP3 GT OR ISZERO PUSH2 0x913 JUMPI PUSH2 0x912 PUSH2 0x8BC JUMP JUMPDEST JUMPDEST DUP1 PUSH1 0x40 MSTORE POP POP POP JUMP JUMPDEST PUSH1 0x0 PUSH2 0x926 PUSH2 0x82F JUMP JUMPDEST SWAP1 POP PUSH2 0x932 DUP3 DUP3 PUSH2 0x8EB JUMP JUMPDEST SWAP2 SWAP1 POP JUMP JUMPDEST PUSH1 0x0 PUSH8 0xFFFFFFFFFFFFFFFF DUP3 GT ISZERO PUSH2 0x952 JUMPI PUSH2 0x951 PUSH2 0x8BC JUMP JUMPDEST JUMPDEST PUSH2 0x95B DUP3 PUSH2 0x8AB JUMP JUMPDEST SWAP1 POP PUSH1 0x20 DUP2 ADD SWAP1 POP SWAP2 SWAP1 POP JUMP JUMPDEST DUP3 DUP2 DUP4 CALLDATACOPY PUSH1 0x0 DUP4 DUP4 ADD MSTORE POP POP POP JUMP JUMPDEST PUSH1 0x0 PUSH2 0x98A PUSH2 0x985 DUP5 PUSH2 0x937 JUMP JUMPDEST PUSH2 0x91C JUMP JUMPDEST SWAP1 POP DUP3 DUP2 MSTORE PUSH1 0x20 DUP2 ADD DUP5 DUP5 DUP5 ADD GT ISZERO PUSH2 0x9A6 JUMPI PUSH2 0x9A5 PUSH2 0x8A6 JUMP JUMPDEST JUMPDEST PUSH2 0x9B1 DUP5 DUP3 DUP6 PUSH2 0x968 JUMP JUMPDEST POP SWAP4 SWAP3 POP POP POP JUMP JUMPDEST PUSH1 0x0 DUP3 PUSH1 0x1F DUP4 ADD SLT PUSH2 0x9CE JUMPI PUSH2 0x9CD PUSH2 0x8A1 JUMP JUMPDEST JUMPDEST DUP2 CALLDATALOAD PUSH2 0x9DE DUP5 DUP3 PUSH1 0x20 DUP7 ADD PUSH2 0x977 JUMP JUMPDEST SWAP2 POP POP SWAP3 SWAP2 POP POP JUMP JUMPDEST PUSH2 0x9F0 DUP2 PUSH2 0x7FB JUMP JUMPDEST DUP2 EQ PUSH2 0x9FB JUMPI PUSH1 0x0 DUP1 REVERT JUMPDEST POP JUMP JUMPDEST PUSH1 0x0 DUP2 CALLDATALOAD SWAP1 POP PUSH2 0xA0D DUP2 PUSH2 0x9E7 JUMP JUMPDEST SWAP3 SWAP2 POP POP JUMP JUMPDEST PUSH1 0x0 DUP1 PUSH1 0x0 PUSH1 0x60 DUP5 DUP7 SUB SLT ISZERO PUSH2 0xA2C JUMPI PUSH2 0xA2B PUSH2 0x839 JUMP JUMPDEST JUMPDEST PUSH1 0x0 PUSH2 0xA3A DUP7 DUP3 DUP8 ADD PUSH2 0x88C JUMP JUMPDEST SWAP4 POP POP PUSH1 0x20 DUP5 ADD CALLDATALOAD PUSH8 0xFFFFFFFFFFFFFFFF DUP2 GT ISZERO PUSH2 0xA5B JUMPI PUSH2 0xA5A PUSH2 0x83E JUMP JUMPDEST JUMPDEST PUSH2 0xA67 DUP7 DUP3 DUP8 ADD PUSH2 0x9B9 JUMP JUMPDEST SWAP3 POP POP PUSH1 0x40 PUSH2 0xA78 DUP7 DUP3 DUP8 ADD PUSH2 0x9FE JUMP JUMPDEST SWAP2 POP POP SWAP3 POP SWAP3 POP SWAP3 JUMP JUMPDEST PUSH1 0x0 DUP2 SWAP1 POP SWAP2 SWAP1 POP JUMP JUMPDEST PUSH2 0xA95 DUP2 PUSH2 0xA82 JUMP JUMPDEST DUP2 EQ PUSH2 0xAA0 JUMPI PUSH1 0x0 DUP1 REVERT JUMPDEST POP JUMP JUMPDEST PUSH1 0x0 DUP2 CALLDATALOAD SWAP1 POP PUSH2 0xAB2 DUP2 PUSH2 0xA8C JUMP JUMPDEST SWAP3 SWAP2 POP POP JUMP JUMPDEST PUSH1 0x0 PUSH1 0x20 DUP3 DUP5 SUB SLT ISZERO PUSH2 0xACE JUMPI PUSH2 0xACD PUSH2 0x839 JUMP JUMPDEST JUMPDEST PUSH1 0x0 PUSH2 0xADC DUP5 DUP3 DUP6 ADD PUSH2 0xAA3 JUMP JUMPDEST SWAP2 POP POP SWAP3 SWAP2 POP POP JUMP JUMPDEST PUSH2 0xAEE DUP2 PUSH2 0x863 JUMP JUMPDEST DUP3 MSTORE POP POP JUMP JUMPDEST PUSH1 0x0 DUP2 MLOAD SWAP1 POP SWAP2 SWAP1 POP JUMP JUMPDEST PUSH1 0x0 DUP3 DUP3 MSTORE PUSH1 0x20 DUP3 ADD SWAP1 POP SWAP3 SWAP2 POP POP JUMP JUMPDEST PUSH1 0x0 JUMPDEST DUP4 DUP2 LT ISZERO PUSH2 0xB2E JUMPI DUP1 DUP3 ADD MLOAD DUP2 DUP5 ADD MSTORE PUSH1 0x20 DUP2 ADD SWAP1 POP PUSH2 0xB13 JUMP JUMPDEST PUSH1 0x0 DUP5 DUP5 ADD MSTORE POP POP POP POP JUMP JUMPDEST PUSH1 0x0 PUSH2 0xB45 DUP3 PUSH2 0xAF4 JUMP JUMPDEST PUSH2 0xB4F DUP2 DUP6 PUSH2 0xAFF JUMP JUMPDEST SWAP4 POP PUSH2 0xB5F DUP2 DUP6 PUSH1 0x20 DUP7 ADD PUSH2 0xB10 JUMP JUMPDEST PUSH2 0xB68 DUP2 PUSH2 0x8AB JUMP JUMPDEST DUP5 ADD SWAP2 POP POP SWAP3 SWAP2 POP POP JUMP JUMPDEST PUSH1 0x0 PUSH1 0x60 DUP3 ADD SWAP1 POP PUSH2 0xB88 PUSH1 0x0 DUP4 ADD DUP7 PUSH2 0xAE5 JUMP JUMPDEST DUP2 DUP2 SUB PUSH1 0x20 DUP4 ADD MSTORE PUSH2 0xB9A DUP2 DUP6 PUSH2 0xB3A JUMP JUMPDEST SWAP1 POP PUSH2 0xBA9 PUSH1 0x40 DUP4 ADD DUP5 PUSH2 0x805 JUMP JUMPDEST SWAP5 SWAP4 POP POP POP POP JUMP JUMPDEST PUSH1 0x0 PUSH1 0x20 DUP3 DUP5 SUB SLT ISZERO PUSH2 0xBC7 JUMPI PUSH2 0xBC6 PUSH2 0x839 JUMP JUMPDEST JUMPDEST PUSH1 0x0 PUSH2 0xBD5 DUP5 DUP3 DUP6 ADD PUSH2 0x88C JUMP JUMPDEST SWAP2 POP POP SWAP3 SWAP2 POP POP JUMP JUMPDEST PUSH1 0x0 DUP2 ISZERO ISZERO SWAP1 POP SWAP2 SWAP1 POP JUMP JUMPDEST PUSH2 0xBF3 DUP2 PUSH2 0xBDE JUMP JUMPDEST DUP3 MSTORE POP POP JUMP JUMPDEST PUSH1 0x0 PUSH1 0x20 DUP3 ADD SWAP1 POP PUSH2 0xC0E PUSH1 0x0 DUP4 ADD DUP5 PUSH2 0xBEA JUMP JUMPDEST SWAP3 SWAP2 POP POP JUMP JUMPDEST PUSH1 0x0 PUSH1 0x20 DUP3 ADD SWAP1 POP PUSH2 0xC29 PUSH1 0x0 DUP4 ADD DUP5 PUSH2 0xAE5 JUMP JUMPDEST SWAP3 SWAP2 POP POP JUMP JUMPDEST PUSH32 0x526567697374726174696F6E20666565206E6F7420706169642E000000000000 PUSH1 0x0 DUP3 ADD MSTORE POP JUMP JUMPDEST PUSH1 0x0 PUSH2 0xC65 PUSH1 0x1A DUP4 PUSH2 0xAFF JUMP JUMPDEST SWAP2 POP PUSH2 0xC70 DUP3 PUSH2 0xC2F JUMP JUMPDEST PUSH1 0x20 DUP3 ADD SWAP1 POP SWAP2 SWAP1 POP JUMP JUMPDEST PUSH1 0x0 PUSH1 0x20 DUP3 ADD SWAP1 POP DUP2 DUP2 SUB PUSH1 0x0 DUP4 ADD MSTORE PUSH2 0xC94 DUP2 PUSH2 0xC58 JUMP JUMPDEST SWAP1 POP SWAP2 SWAP1 POP JUMP JUMPDEST PUSH32 0x50726F647563657220616C726561647920726567697374657265640000000000 PUSH1 0x0 DUP3 ADD MSTORE POP JUMP JUMPDEST PUSH1 0x0 PUSH2 0xCD1 PUSH1 0x1B DUP4 PUSH2 0xAFF JUMP JUMPDEST SWAP2 POP PUSH2 0xCDC DUP3 PUSH2 0xC9B JUMP JUMPDEST PUSH1 0x20 DUP3 ADD SWAP1 POP SWAP2 SWAP1 POP JUMP JUMPDEST PUSH1 0x0 PUSH1 0x20 DUP3 ADD SWAP1 POP DUP2 DUP2 SUB PUSH1 0x0 DUP4 ADD MSTORE PUSH2 0xD00 DUP2 PUSH2 0xCC4 JUMP JUMPDEST SWAP1 POP SWAP2 SWAP1 POP JUMP JUMPDEST PUSH1 0x0 DUP2 PUSH1 0x60 SHL SWAP1 POP SWAP2 SWAP1 POP JUMP JUMPDEST PUSH1 0x0 PUSH2 0xD1F DUP3 PUSH2 0xD07 JUMP JUMPDEST SWAP1 POP SWAP2 SWAP1 POP JUMP JUMPDEST PUSH1 0x0 PUSH2 0xD31 DUP3 PUSH2 0xD14 JUMP JUMPDEST SWAP1 POP SWAP2 SWAP1 POP JUMP JUMPDEST PUSH2 0xD49 PUSH2 0xD44 DUP3 PUSH2 0x863 JUMP JUMPDEST PUSH2 0xD26 JUMP JUMPDEST DUP3 MSTORE POP POP JUMP JUMPDEST PUSH1 0x0 DUP2 SWAP1 POP SWAP3 SWAP2 POP POP JUMP JUMPDEST PUSH1 0x0 PUSH2 0xD65 DUP3 PUSH2 0xAF4 JUMP JUMPDEST PUSH2 0xD6F DUP2 DUP6 PUSH2 0xD4F JUMP JUMPDEST SWAP4 POP PUSH2 0xD7F DUP2 DUP6 PUSH1 0x20 DUP7 ADD PUSH2 0xB10 JUMP JUMPDEST DUP1 DUP5 ADD SWAP2 POP POP SWAP3 SWAP2 POP POP JUMP JUMPDEST PUSH1 0x0 PUSH2 0xD97 DUP3 DUP6 PUSH2 0xD38 JUMP JUMPDEST PUSH1 0x14 DUP3 ADD SWAP2 POP PUSH2 0xDA7 DUP3 DUP5 PUSH2 0xD5A JUMP JUMPDEST SWAP2 POP DUP2 SWAP1 POP SWAP4 SWAP3 POP POP POP JUMP JUMPDEST PUSH32 0x4E487B7100000000000000000000000000000000000000000000000000000000 PUSH1 0x0 MSTORE PUSH1 0x22 PUSH1 0x4 MSTORE PUSH1 0x24 PUSH1 0x0 REVERT JUMPDEST PUSH1 0x0 PUSH1 0x2 DUP3 DIV SWAP1 POP PUSH1 0x1 DUP3 AND DUP1 PUSH2 0xDFA JUMPI PUSH1 0x7F DUP3 AND SWAP2 POP JUMPDEST PUSH1 0x20 DUP3 LT DUP2 SUB PUSH2 0xE0D JUMPI PUSH2 0xE0C PUSH2 0xDB3 JUMP JUMPDEST JUMPDEST POP SWAP2 SWAP1 POP JUMP JUMPDEST PUSH1 0x0 DUP2 SWAP1 POP DUP2 PUSH1 0x0 MSTORE PUSH1 0x20 PUSH1 0x0 KECCAK256 SWAP1 POP SWAP2 SWAP1 POP JUMP JUMPDEST PUSH1 0x0 PUSH1 0x20 PUSH1 0x1F DUP4 ADD DIV SWAP1 POP SWAP2 SWAP1 POP JUMP JUMPDEST PUSH1 0x0 DUP3 DUP3 SHL SWAP1 POP SWAP3 SWAP2 POP POP JUMP JUMPDEST PUSH1 0x0 PUSH1 0x8 DUP4 MUL PUSH2 0xE75 PUSH32 0xFFFFFFFFFFFFFFFFFFFFFFFFFFFFFFFFFFFFFFFFFFFFFFFFFFFFFFFFFFFFFFFF DUP3 PUSH2 0xE38 JUMP JUMPDEST PUSH2 0xE7F DUP7 DUP4 PUSH2 0xE38 JUMP JUMPDEST SWAP6 POP DUP1 NOT DUP5 AND SWAP4 POP DUP1 DUP7 AND DUP5 OR SWAP3 POP POP POP SWAP4 SWAP3 POP POP POP JUMP JUMPDEST PUSH1 0x0 DUP2 SWAP1 POP SWAP2 SWAP1 POP JUMP JUMPDEST PUSH1 0x0 PUSH2 0xEBC PUSH2 0xEB7 PUSH2 0xEB2 DUP5 PUSH2 0x7FB JUMP JUMPDEST PUSH2 0xE97 JUMP JUMPDEST PUSH2 0x7FB JUMP JUMPDEST SWAP1 POP SWAP2 SWAP1 POP JUMP JUMPDEST PUSH1 0x0 DUP2 SWAP1 POP SWAP2 SWAP1 POP JUMP JUMPDEST PUSH2 0xED6 DUP4 PUSH2 0xEA1 JUMP JUMPDEST PUSH2 0xEEA PUSH2 0xEE2 DUP3 PUSH2 0xEC3 JUMP JUMPDEST DUP5 DUP5 SLOAD PUSH2 0xE45 JUMP JUMPDEST DUP3 SSTORE POP POP POP POP JUMP JUMPDEST PUSH1 0x0 SWAP1 JUMP JUMPDEST PUSH2 0xEFF PUSH2 0xEF2 JUMP JUMPDEST PUSH2 0xF0A DUP2 DUP5 DUP5 PUSH2 0xECD JUMP JUMPDEST POP POP POP JUMP JUMPDEST JUMPDEST DUP2 DUP2 LT ISZERO PUSH2 0xF2E JUMPI PUSH2 0xF23 PUSH1 0x0 DUP3 PUSH2 0xEF7 JUMP JUMPDEST PUSH1 0x1 DUP2 ADD SWAP1 POP PUSH2 0xF10 JUMP JUMPDEST POP POP JUMP JUMPDEST PUSH1 0x1F DUP3 GT ISZERO PUSH2 0xF73 JUMPI PUSH2 0xF44 DUP2 PUSH2 0xE13 JUMP JUMPDEST PUSH2 0xF4D DUP5 PUSH2 0xE28 JUMP JUMPDEST DUP2 ADD PUSH1 0x20 DUP6 LT ISZERO PUSH2 0xF5C JUMPI DUP2 SWAP1 POP JUMPDEST PUSH2 0xF70 PUSH2 0xF68 DUP6 PUSH2 0xE28 JUMP JUMPDEST DUP4 ADD DUP3 PUSH2 0xF0F JUMP JUMPDEST POP POP JUMPDEST POP POP POP JUMP JUMPDEST PUSH1 0x0 DUP3 DUP3 SHR SWAP1 POP SWAP3 SWAP2 POP POP JUMP JUMPDEST PUSH1 0x0 PUSH2 0xF96 PUSH1 0x0 NOT DUP5 PUSH1 0x8 MUL PUSH2 0xF78 JUMP JUMPDEST NOT DUP1 DUP4 AND SWAP2 POP POP SWAP3 SWAP2 POP POP JUMP JUMPDEST PUSH1 0x0 PUSH2 0xFAF DUP4 DUP4 PUSH2 0xF85 JUMP JUMPDEST SWAP2 POP DUP3 PUSH1 0x2 MUL DUP3 OR SWAP1 POP SWAP3 SWAP2 POP POP JUMP JUMPDEST PUSH2 0xFC8 DUP3 PUSH2 0xAF4 JUMP JUMPDEST PUSH8 0xFFFFFFFFFFFFFFFF DUP2 GT ISZERO PUSH2 0xFE1 JUMPI PUSH2 0xFE0 PUSH2 0x8BC JUMP JUMPDEST JUMPDEST PUSH2 0xFEB DUP3 SLOAD PUSH2 0xDE2 JUMP JUMPDEST PUSH2 0xFF6 DUP3 DUP3 DUP6 PUSH2 0xF32 JUMP JUMPDEST PUSH1 0x0 PUSH1 0x20 SWAP1 POP PUSH1 0x1F DUP4 GT PUSH1 0x1 DUP2 EQ PUSH2 0x1029 JUMPI PUSH1 0x0 DUP5 ISZERO PUSH2 0x1017 JUMPI DUP3 DUP8 ADD MLOAD SWAP1 POP JUMPDEST PUSH2 0x1021 DUP6 DUP3 PUSH2 0xFA3 JUMP JUMPDEST DUP7 SSTORE POP PUSH2 0x1089 JUMP JUMPDEST PUSH1 0x1F NOT DUP5 AND PUSH2 0x1037 DUP7 PUSH2 0xE13 JUMP JUMPDEST PUSH1 0x0 JUMPDEST DUP3 DUP2 LT ISZERO PUSH2 0x105F JUMPI DUP5 DUP10 ADD MLOAD DUP3 SSTORE PUSH1 0x1 DUP3 ADD SWAP2 POP PUSH1 0x20 DUP6 ADD SWAP5 POP PUSH1 0x20 DUP2 ADD SWAP1 POP PUSH2 0x103A JUMP JUMPDEST DUP7 DUP4 LT ISZERO PUSH2 0x107C JUMPI DUP5 DUP10 ADD MLOAD PUSH2 0x1078 PUSH1 0x1F DUP10 AND DUP3 PUSH2 0xF85 JUMP JUMPDEST DUP4 SSTORE POP JUMPDEST PUSH1 0x1 PUSH1 0x2 DUP9 MUL ADD DUP9 SSTORE POP POP POP JUMPDEST POP POP POP POP POP POP JUMP INVALID LOG2 PUSH5 0x6970667358 0x22 SLT KECCAK256 DIV 0xE9 0xC0 0x5C 0xE9 DUP1 MSTORE 0xB1 EXTCODEHASH 0xC3 INVALID PUSH25 0xC0500E2A420C744E29CB952DDFD5578C203A0A5864736F6C63 NUMBER STOP ADDMOD SLT STOP CALLER "
				},
				"gasEstimates": {
					"creation": {
						"codeDepositCost": "859000",
						"executionCost": "infinite",
						"totalCost": "infinite"
					},
					"external": {
						"getProducerAddress(bytes32)": "infinite",
						"getProductInfo(bytes32)": "infinite",
						"isProducerRegistered(address)": "2950",
						"owner()": "2555",
						"products(bytes32)": "infinite",
						"registerProducer(address,string,uint256)": "infinite",
						"registeredProducers(address)": "2845",
						"registrationFee()": "2430"
					}
				},
				"methodIdentifiers": {
					"getProducerAddress(bytes32)": "b92495c4",
					"getProductInfo(bytes32)": "5cbd47e3",
					"isProducerRegistered(address)": "605f9998",
					"owner()": "8da5cb5b",
					"products(bytes32)": "79054391",
					"registerProducer(address,string,uint256)": "238f1804",
					"registeredProducers(address)": "76bc59ec",
					"registrationFee()": "14c44e09"
				}
			},
			"storageLayout": {
				"storage": [
					{
						"astId": 3,
						"contract": "contracts/ProductIdentification.sol:ProductIdentification",
						"label": "owner",
						"offset": 0,
						"slot": "0",
						"type": "t_address"
					},
					{
						"astId": 5,
						"contract": "contracts/ProductIdentification.sol:ProductIdentification",
						"label": "registrationFee",
						"offset": 0,
						"slot": "1",
						"type": "t_uint256"
					},
					{
						"astId": 16,
						"contract": "contracts/ProductIdentification.sol:ProductIdentification",
						"label": "registeredProducers",
						"offset": 0,
						"slot": "2",
						"type": "t_mapping(t_address,t_bool)"
					},
					{
						"astId": 21,
						"contract": "contracts/ProductIdentification.sol:ProductIdentification",
						"label": "products",
						"offset": 0,
						"slot": "3",
						"type": "t_mapping(t_bytes32,t_struct(Producer)12_storage)"
					}
				],
				"types": {
					"t_address": {
						"encoding": "inplace",
						"label": "address",
						"numberOfBytes": "20"
					},
					"t_bool": {
						"encoding": "inplace",
						"label": "bool",
						"numberOfBytes": "1"
					},
					"t_bytes32": {
						"encoding": "inplace",
						"label": "bytes32",
						"numberOfBytes": "32"
					},
					"t_mapping(t_address,t_bool)": {
						"encoding": "mapping",
						"key": "t_address",
						"label": "mapping(address => bool)",
						"numberOfBytes": "32",
						"value": "t_bool"
					},
					"t_mapping(t_bytes32,t_struct(Producer)12_storage)": {
						"encoding": "mapping",
						"key": "t_bytes32",
						"label": "mapping(bytes32 => struct ProductIdentification.Producer)",
						"numberOfBytes": "32",
						"value": "t_struct(Producer)12_storage"
					},
					"t_string_storage": {
						"encoding": "bytes",
						"label": "string",
						"numberOfBytes": "32"
					},
					"t_struct(Producer)12_storage": {
						"encoding": "inplace",
						"label": "struct ProductIdentification.Producer",
						"members": [
							{
								"astId": 7,
								"contract": "contracts/ProductIdentification.sol:ProductIdentification",
								"label": "producerAddress",
								"offset": 0,
								"slot": "0",
								"type": "t_address"
							},
							{
								"astId": 9,
								"contract": "contracts/ProductIdentification.sol:ProductIdentification",
								"label": "productName",
								"offset": 0,
								"slot": "1",
								"type": "t_string_storage"
							},
							{
								"astId": 11,
								"contract": "contracts/ProductIdentification.sol:ProductIdentification",
								"label": "volume",
								"offset": 0,
								"slot": "2",
								"type": "t_uint256"
							}
						],
						"numberOfBytes": "96"
					},
					"t_uint256": {
						"encoding": "inplace",
						"label": "uint256",
						"numberOfBytes": "32"
					}
				}
			},
			"userdoc": {
				"kind": "user",
				"methods": {},
				"version": 1
			}
		}
	}
}