{
	"contracts/ProductDeposit.sol": {
		"ProductDeposit": {
			"abi": [
				{
					"inputs": [
						{
							"internalType": "uint256",
							"name": "_storageFee",
							"type": "uint256"
						},
						{
							"internalType": "uint256",
							"name": "_maxStorageVolume",
							"type": "uint256"
						}
					],
					"stateMutability": "nonpayable",
					"type": "constructor"
				},
				{
					"inputs": [
						{
							"internalType": "address",
							"name": "_storeAddress",
							"type": "address"
						}
					],
					"name": "authorizeStore",
					"outputs": [],
					"stateMutability": "nonpayable",
					"type": "function"
				},
				{
					"inputs": [
						{
							"internalType": "address",
							"name": "",
							"type": "address"
						}
					],
					"name": "authorizedStores",
					"outputs": [
						{
							"internalType": "address",
							"name": "",
							"type": "address"
						}
					],
					"stateMutability": "view",
					"type": "function"
				},
				{
					"inputs": [
						{
							"internalType": "bytes4",
							"name": "_productId",
							"type": "bytes4"
						},
						{
							"internalType": "uint256",
							"name": "_quantity",
							"type": "uint256"
						}
					],
					"name": "depositProduct",
					"outputs": [],
					"stateMutability": "payable",
					"type": "function"
				},
				{
					"inputs": [],
					"name": "maxStorageVolume",
					"outputs": [
						{
							"internalType": "uint256",
							"name": "",
							"type": "uint256"
						}
					],
					"stateMutability": "view",
					"type": "function"
				},
				{
					"inputs": [],
					"name": "owner",
					"outputs": [
						{
							"internalType": "address",
							"name": "",
							"type": "address"
						}
					],
					"stateMutability": "view",
					"type": "function"
				},
				{
					"inputs": [
						{
							"internalType": "bytes4",
							"name": "",
							"type": "bytes4"
						}
					],
					"name": "productDeposits",
					"outputs": [
						{
							"internalType": "address",
							"name": "producer",
							"type": "address"
						},
						{
							"internalType": "uint256",
							"name": "quantity",
							"type": "uint256"
						}
					],
					"stateMutability": "view",
					"type": "function"
				},
				{
					"inputs": [],
					"name": "storageFee",
					"outputs": [
						{
							"internalType": "uint256",
							"name": "",
							"type": "uint256"
						}
					],
					"stateMutability": "view",
					"type": "function"
				},
				{
					"inputs": [
						{
							"internalType": "bytes4",
							"name": "_productId",
							"type": "bytes4"
						},
						{
							"internalType": "uint256",
							"name": "_quantity",
							"type": "uint256"
						}
					],
					"name": "withdrawProduct",
					"outputs": [],
					"stateMutability": "nonpayable",
					"type": "function"
				}
			],
			"devdoc": {
				"kind": "dev",
				"methods": {},
				"version": 1
			},
			"evm": {
				"assembly": "    /* \"contracts/ProductDeposit.sol\":64:2306  contract ProductDeposit {... */\n  mstore(0x40, 0x80)\n    /* \"contracts/ProductDeposit.sol\":230:272  0x5A86858aA3b595FD6663c2296741eF4cd8BC4d01 */\n  0x5a86858aa3b595fd6663c2296741ef4cd8bc4d01\n    /* \"contracts/ProductDeposit.sol\":182:272  address private identificationContractAddress = 0x5A86858aA3b595FD6663c2296741eF4cd8BC4d01 */\n  0x03\n  exp(0x0100, 0x00)\n  dup2\n  sload\n  dup2\n  0xffffffffffffffffffffffffffffffffffffffff\n  mul\n  not\n  and\n  swap1\n  dup4\n  0xffffffffffffffffffffffffffffffffffffffff\n  and\n  mul\n  or\n  swap1\n  sstore\n  pop\n    /* \"contracts/ProductDeposit.sol\":540:709  constructor(uint _storageFee, uint _maxStorageVolume) {... */\n  callvalue\n  dup1\n  iszero\n  tag_1\n  jumpi\n  0x00\n  dup1\n  revert\ntag_1:\n  pop\n  mload(0x40)\n  sub(codesize, bytecodeSize)\n  dup1\n  bytecodeSize\n  dup4\n  codecopy\n  dup2\n  dup2\n  add\n  0x40\n  mstore\n  dup2\n  add\n  swap1\n  tag_2\n  swap2\n  swap1\n  tag_3\n  jump\t// in\ntag_2:\n    /* \"contracts/ProductDeposit.sol\":612:622  msg.sender */\n  caller\n    /* \"contracts/ProductDeposit.sol\":604:609  owner */\n  0x00\n  dup1\n    /* \"contracts/ProductDeposit.sol\":604:622  owner = msg.sender */\n  0x0100\n  exp\n  dup2\n  sload\n  dup2\n  0xffffffffffffffffffffffffffffffffffffffff\n  mul\n  not\n  and\n  swap1\n  dup4\n  0xffffffffffffffffffffffffffffffffffffffff\n  and\n  mul\n  or\n  swap1\n  sstore\n  pop\n    /* \"contracts/ProductDeposit.sol\":645:656  _storageFee */\n  dup2\n    /* \"contracts/ProductDeposit.sol\":632:642  storageFee */\n  0x01\n    /* \"contracts/ProductDeposit.sol\":632:656  storageFee = _storageFee */\n  dup2\n  swap1\n  sstore\n  pop\n    /* \"contracts/ProductDeposit.sol\":685:702  _maxStorageVolume */\n  dup1\n    /* \"contracts/ProductDeposit.sol\":666:682  maxStorageVolume */\n  0x02\n    /* \"contracts/ProductDeposit.sol\":666:702  maxStorageVolume = _maxStorageVolume */\n  dup2\n  swap1\n  sstore\n  pop\n    /* \"contracts/ProductDeposit.sol\":540:709  constructor(uint _storageFee, uint _maxStorageVolume) {... */\n  pop\n  pop\n    /* \"contracts/ProductDeposit.sol\":64:2306  contract ProductDeposit {... */\n  jump(tag_6)\n    /* \"#utility.yul\":88:205   */\ntag_8:\n    /* \"#utility.yul\":197:198   */\n  0x00\n    /* \"#utility.yul\":194:195   */\n  dup1\n    /* \"#utility.yul\":187:199   */\n  revert\n    /* \"#utility.yul\":334:411   */\ntag_10:\n    /* \"#utility.yul\":371:378   */\n  0x00\n    /* \"#utility.yul\":400:405   */\n  dup2\n    /* \"#utility.yul\":389:405   */\n  swap1\n  pop\n    /* \"#utility.yul\":334:411   */\n  swap2\n  swap1\n  pop\n  jump\t// out\n    /* \"#utility.yul\":417:539   */\ntag_11:\n    /* \"#utility.yul\":490:514   */\n  tag_19\n    /* \"#utility.yul\":508:513   */\n  dup2\n    /* \"#utility.yul\":490:514   */\n  tag_10\n  jump\t// in\ntag_19:\n    /* \"#utility.yul\":483:488   */\n  dup2\n    /* \"#utility.yul\":480:515   */\n  eq\n    /* \"#utility.yul\":470:533   */\n  tag_20\n  jumpi\n    /* \"#utility.yul\":529:530   */\n  0x00\n    /* \"#utility.yul\":526:527   */\n  dup1\n    /* \"#utility.yul\":519:531   */\n  revert\n    /* \"#utility.yul\":470:533   */\ntag_20:\n    /* \"#utility.yul\":417:539   */\n  pop\n  jump\t// out\n    /* \"#utility.yul\":545:688   */\ntag_12:\n    /* \"#utility.yul\":602:607   */\n  0x00\n    /* \"#utility.yul\":633:639   */\n  dup2\n    /* \"#utility.yul\":627:640   */\n  mload\n    /* \"#utility.yul\":618:640   */\n  swap1\n  pop\n    /* \"#utility.yul\":649:682   */\n  tag_22\n    /* \"#utility.yul\":676:681   */\n  dup2\n    /* \"#utility.yul\":649:682   */\n  tag_11\n  jump\t// in\ntag_22:\n    /* \"#utility.yul\":545:688   */\n  swap3\n  swap2\n  pop\n  pop\n  jump\t// out\n    /* \"#utility.yul\":694:1201   */\ntag_3:\n    /* \"#utility.yul\":773:779   */\n  0x00\n    /* \"#utility.yul\":781:787   */\n  dup1\n    /* \"#utility.yul\":830:832   */\n  0x40\n    /* \"#utility.yul\":818:827   */\n  dup4\n    /* \"#utility.yul\":809:816   */\n  dup6\n    /* \"#utility.yul\":805:828   */\n  sub\n    /* \"#utility.yul\":801:833   */\n  slt\n    /* \"#utility.yul\":798:917   */\n  iszero\n  tag_24\n  jumpi\n    /* \"#utility.yul\":836:915   */\n  tag_25\n  tag_8\n  jump\t// in\ntag_25:\n    /* \"#utility.yul\":798:917   */\ntag_24:\n    /* \"#utility.yul\":956:957   */\n  0x00\n    /* \"#utility.yul\":981:1045   */\n  tag_26\n    /* \"#utility.yul\":1037:1044   */\n  dup6\n    /* \"#utility.yul\":1028:1034   */\n  dup3\n    /* \"#utility.yul\":1017:1026   */\n  dup7\n    /* \"#utility.yul\":1013:1035   */\n  add\n    /* \"#utility.yul\":981:1045   */\n  tag_12\n  jump\t// in\ntag_26:\n    /* \"#utility.yul\":971:1045   */\n  swap3\n  pop\n    /* \"#utility.yul\":927:1055   */\n  pop\n    /* \"#utility.yul\":1094:1096   */\n  0x20\n    /* \"#utility.yul\":1120:1184   */\n  tag_27\n    /* \"#utility.yul\":1176:1183   */\n  dup6\n    /* \"#utility.yul\":1167:1173   */\n  dup3\n    /* \"#utility.yul\":1156:1165   */\n  dup7\n    /* \"#utility.yul\":1152:1174   */\n  add\n    /* \"#utility.yul\":1120:1184   */\n  tag_12\n  jump\t// in\ntag_27:\n    /* \"#utility.yul\":1110:1184   */\n  swap2\n  pop\n    /* \"#utility.yul\":1065:1194   */\n  pop\n    /* \"#utility.yul\":694:1201   */\n  swap3\n  pop\n  swap3\n  swap1\n  pop\n  jump\t// out\n    /* \"contracts/ProductDeposit.sol\":64:2306  contract ProductDeposit {... */\ntag_6:\n  dataSize(sub_0)\n  dup1\n  dataOffset(sub_0)\n  0x00\n  codecopy\n  0x00\n  return\nstop\n\nsub_0: assembly {\n        /* \"contracts/ProductDeposit.sol\":64:2306  contract ProductDeposit {... */\n      mstore(0x40, 0x80)\n      jumpi(tag_1, lt(calldatasize, 0x04))\n      shr(0xe0, calldataload(0x00))\n      dup1\n      0x8da5cb5b\n      gt\n      tag_10\n      jumpi\n      dup1\n      0x8da5cb5b\n      eq\n      tag_6\n      jumpi\n      dup1\n      0xb489b365\n      eq\n      tag_7\n      jumpi\n      dup1\n      0xbc94994a\n      eq\n      tag_8\n      jumpi\n      dup1\n      0xcafdf0e2\n      eq\n      tag_9\n      jumpi\n      jump(tag_1)\n    tag_10:\n      dup1\n      0x2cc6a670\n      eq\n      tag_2\n      jumpi\n      dup1\n      0x4aba3c90\n      eq\n      tag_3\n      jumpi\n      dup1\n      0x773f0b18\n      eq\n      tag_4\n      jumpi\n      dup1\n      0x87b85c05\n      eq\n      tag_5\n      jumpi\n    tag_1:\n      0x00\n      dup1\n      revert\n        /* \"contracts/ProductDeposit.sol\":484:533  mapping(bytes4 => Deposit) public productDeposits */\n    tag_2:\n      callvalue\n      dup1\n      iszero\n      tag_11\n      jumpi\n      0x00\n      dup1\n      revert\n    tag_11:\n      pop\n      tag_12\n      0x04\n      dup1\n      calldatasize\n      sub\n      dup2\n      add\n      swap1\n      tag_13\n      swap2\n      swap1\n      tag_14\n      jump\t// in\n    tag_13:\n      tag_15\n      jump\t// in\n    tag_12:\n      mload(0x40)\n      tag_16\n      swap3\n      swap2\n      swap1\n      tag_17\n      jump\t// in\n    tag_16:\n      mload(0x40)\n      dup1\n      swap2\n      sub\n      swap1\n      return\n        /* \"contracts/ProductDeposit.sol\":1134:1558  function depositProduct(bytes4 _productId, uint _quantity) public payable AuthorizedProducer(_productId) {... */\n    tag_3:\n      tag_18\n      0x04\n      dup1\n      calldatasize\n      sub\n      dup2\n      add\n      swap1\n      tag_19\n      swap2\n      swap1\n      tag_20\n      jump\t// in\n    tag_19:\n      tag_21\n      jump\t// in\n    tag_18:\n      stop\n        /* \"contracts/ProductDeposit.sol\":120:142  uint public storageFee */\n    tag_4:\n      callvalue\n      dup1\n      iszero\n      tag_22\n      jumpi\n      0x00\n      dup1\n      revert\n    tag_22:\n      pop\n      tag_23\n      tag_24\n      jump\t// in\n    tag_23:\n      mload(0x40)\n      tag_25\n      swap2\n      swap1\n      tag_26\n      jump\t// in\n    tag_25:\n      mload(0x40)\n      dup1\n      swap2\n      sub\n      swap1\n      return\n        /* \"contracts/ProductDeposit.sol\":1564:2056  function withdrawProduct(bytes4 _productId, uint _quantity) public {... */\n    tag_5:\n      callvalue\n      dup1\n      iszero\n      tag_27\n      jumpi\n      0x00\n      dup1\n      revert\n    tag_27:\n      pop\n      tag_28\n      0x04\n      dup1\n      calldatasize\n      sub\n      dup2\n      add\n      swap1\n      tag_29\n      swap2\n      swap1\n      tag_20\n      jump\t// in\n    tag_29:\n      tag_30\n      jump\t// in\n    tag_28:\n      stop\n        /* \"contracts/ProductDeposit.sol\":94:114  address public owner */\n    tag_6:\n      callvalue\n      dup1\n      iszero\n      tag_31\n      jumpi\n      0x00\n      dup1\n      revert\n    tag_31:\n      pop\n      tag_32\n      tag_33\n      jump\t// in\n    tag_32:\n      mload(0x40)\n      tag_34\n      swap2\n      swap1\n      tag_35\n      jump\t// in\n    tag_34:\n      mload(0x40)\n      dup1\n      swap2\n      sub\n      swap1\n      return\n        /* \"contracts/ProductDeposit.sol\":2062:2302  function authorizeStore(address _storeAddress) public {... */\n    tag_7:\n      callvalue\n      dup1\n      iszero\n      tag_36\n      jumpi\n      0x00\n      dup1\n      revert\n    tag_36:\n      pop\n      tag_37\n      0x04\n      dup1\n      calldatasize\n      sub\n      dup2\n      add\n      swap1\n      tag_38\n      swap2\n      swap1\n      tag_39\n      jump\t// in\n    tag_38:\n      tag_40\n      jump\t// in\n    tag_37:\n      stop\n        /* \"contracts/ProductDeposit.sol\":148:176  uint public maxStorageVolume */\n    tag_8:\n      callvalue\n      dup1\n      iszero\n      tag_41\n      jumpi\n      0x00\n      dup1\n      revert\n    tag_41:\n      pop\n      tag_42\n      tag_43\n      jump\t// in\n    tag_42:\n      mload(0x40)\n      tag_44\n      swap2\n      swap1\n      tag_26\n      jump\t// in\n    tag_44:\n      mload(0x40)\n      dup1\n      swap2\n      sub\n      swap1\n      return\n        /* \"contracts/ProductDeposit.sol\":426:477  mapping(address => address) public authorizedStores */\n    tag_9:\n      callvalue\n      dup1\n      iszero\n      tag_45\n      jumpi\n      0x00\n      dup1\n      revert\n    tag_45:\n      pop\n      tag_46\n      0x04\n      dup1\n      calldatasize\n      sub\n      dup2\n      add\n      swap1\n      tag_47\n      swap2\n      swap1\n      tag_39\n      jump\t// in\n    tag_47:\n      tag_48\n      jump\t// in\n    tag_46:\n      mload(0x40)\n      tag_49\n      swap2\n      swap1\n      tag_35\n      jump\t// in\n    tag_49:\n      mload(0x40)\n      dup1\n      swap2\n      sub\n      swap1\n      return\n        /* \"contracts/ProductDeposit.sol\":484:533  mapping(bytes4 => Deposit) public productDeposits */\n    tag_15:\n      mstore(0x20, 0x05)\n      dup1\n      0x00\n      mstore\n      keccak256(0x00, 0x40)\n      0x00\n      swap2\n      pop\n      swap1\n      pop\n      dup1\n      0x00\n      add\n      0x00\n      swap1\n      sload\n      swap1\n      0x0100\n      exp\n      swap1\n      div\n      0xffffffffffffffffffffffffffffffffffffffff\n      and\n      swap1\n      dup1\n      0x01\n      add\n      sload\n      swap1\n      pop\n      dup3\n      jump\t// out\n        /* \"contracts/ProductDeposit.sol\":1134:1558  function depositProduct(bytes4 _productId, uint _quantity) public payable AuthorizedProducer(_productId) {... */\n    tag_21:\n        /* \"contracts/ProductDeposit.sol\":1227:1237  _productId */\n      dup2\n        /* \"contracts/ProductDeposit.sol\":773:796  address producerAddress */\n      0x00\n        /* \"contracts/ProductDeposit.sol\":826:855  identificationContractAddress */\n      0x03\n      0x00\n      swap1\n      sload\n      swap1\n      0x0100\n      exp\n      swap1\n      div\n      0xffffffffffffffffffffffffffffffffffffffff\n      and\n        /* \"contracts/ProductDeposit.sol\":804:871  ProductIdentification(identificationContractAddress).getProductInfo */\n      0xffffffffffffffffffffffffffffffffffffffff\n      and\n      0xe5ec18c2\n        /* \"contracts/ProductDeposit.sol\":872:882  _productId */\n      dup4\n        /* \"contracts/ProductDeposit.sol\":804:883  ProductIdentification(identificationContractAddress).getProductInfo(_productId) */\n      mload(0x40)\n      dup3\n      0xffffffff\n      and\n      0xe0\n      shl\n      dup2\n      mstore\n      0x04\n      add\n      tag_51\n      swap2\n      swap1\n      tag_52\n      jump\t// in\n    tag_51:\n      0x00\n      mload(0x40)\n      dup1\n      dup4\n      sub\n      dup2\n      dup7\n      gas\n      staticcall\n      iszero\n      dup1\n      iszero\n      tag_54\n      jumpi\n      returndatasize\n      0x00\n      dup1\n      returndatacopy\n      revert(0x00, returndatasize)\n    tag_54:\n      pop\n      pop\n      pop\n      pop\n      mload(0x40)\n      returndatasize\n      0x00\n      dup3\n      returndatacopy\n      returndatasize\n      not(0x1f)\n      0x1f\n      dup3\n      add\n      and\n      dup3\n      add\n      dup1\n      0x40\n      mstore\n      pop\n      dup2\n      add\n      swap1\n      tag_55\n      swap2\n      swap1\n      tag_56\n      jump\t// in\n    tag_55:\n        /* \"contracts/ProductDeposit.sol\":772:883  (address producerAddress, , ) = ProductIdentification(identificationContractAddress).getProductInfo(_productId) */\n      pop\n      pop\n      swap1\n      pop\n        /* \"contracts/ProductDeposit.sol\":920:930  msg.sender */\n      caller\n        /* \"contracts/ProductDeposit.sol\":901:930  producerAddress == msg.sender */\n      0xffffffffffffffffffffffffffffffffffffffff\n      and\n        /* \"contracts/ProductDeposit.sol\":901:916  producerAddress */\n      dup2\n        /* \"contracts/ProductDeposit.sol\":901:930  producerAddress == msg.sender */\n      0xffffffffffffffffffffffffffffffffffffffff\n      and\n      eq\n        /* \"contracts/ProductDeposit.sol\":893:986  require(producerAddress == msg.sender, \"You are not an authorized producer for this product\") */\n      tag_57\n      jumpi\n      mload(0x40)\n      0x08c379a000000000000000000000000000000000000000000000000000000000\n      dup2\n      mstore\n      0x04\n      add\n      tag_58\n      swap1\n      tag_59\n      jump\t// in\n    tag_58:\n      mload(0x40)\n      dup1\n      swap2\n      sub\n      swap1\n      revert\n    tag_57:\n        /* \"contracts/ProductDeposit.sol\":1282:1292  storageFee */\n      sload(0x01)\n        /* \"contracts/ProductDeposit.sol\":1270:1279  _quantity */\n      dup4\n        /* \"contracts/ProductDeposit.sol\":1270:1292  _quantity * storageFee */\n      tag_61\n      swap2\n      swap1\n      tag_62\n      jump\t// in\n    tag_61:\n        /* \"contracts/ProductDeposit.sol\":1257:1266  msg.value */\n      callvalue\n        /* \"contracts/ProductDeposit.sol\":1257:1292  msg.value == _quantity * storageFee */\n      eq\n        /* \"contracts/ProductDeposit.sol\":1249:1318  require(msg.value == _quantity * storageFee, \"Storage fee not paid.\") */\n      tag_63\n      jumpi\n      mload(0x40)\n      0x08c379a000000000000000000000000000000000000000000000000000000000\n      dup2\n      mstore\n      0x04\n      add\n      tag_64\n      swap1\n      tag_65\n      jump\t// in\n    tag_64:\n      mload(0x40)\n      dup1\n      swap2\n      sub\n      swap1\n      revert\n    tag_63:\n        /* \"contracts/ProductDeposit.sol\":1349:1365  maxStorageVolume */\n      sload(0x02)\n        /* \"contracts/ProductDeposit.sol\":1336:1345  _quantity */\n      dup4\n        /* \"contracts/ProductDeposit.sol\":1336:1365  _quantity <= maxStorageVolume */\n      gt\n      iszero\n        /* \"contracts/ProductDeposit.sol\":1328:1409  require(_quantity <= maxStorageVolume, \"Quantity exceeds maximum storage volume\") */\n      tag_66\n      jumpi\n      mload(0x40)\n      0x08c379a000000000000000000000000000000000000000000000000000000000\n      dup2\n      mstore\n      0x04\n      add\n      tag_67\n      swap1\n      tag_68\n      jump\t// in\n    tag_67:\n      mload(0x40)\n      dup1\n      swap2\n      sub\n      swap1\n      revert\n    tag_66:\n        /* \"contracts/ProductDeposit.sol\":1420:1443  Deposit storage deposit */\n      0x00\n        /* \"contracts/ProductDeposit.sol\":1446:1461  productDeposits */\n      0x05\n        /* \"contracts/ProductDeposit.sol\":1446:1473  productDeposits[_productId] */\n      0x00\n        /* \"contracts/ProductDeposit.sol\":1462:1472  _productId */\n      dup7\n        /* \"contracts/ProductDeposit.sol\":1446:1473  productDeposits[_productId] */\n      not(0xffffffffffffffffffffffffffffffffffffffffffffffffffffffff)\n      and\n      not(0xffffffffffffffffffffffffffffffffffffffffffffffffffffffff)\n      and\n      dup2\n      mstore\n      0x20\n      add\n      swap1\n      dup2\n      mstore\n      0x20\n      add\n      0x00\n      keccak256\n        /* \"contracts/ProductDeposit.sol\":1420:1473  Deposit storage deposit = productDeposits[_productId] */\n      swap1\n      pop\n        /* \"contracts/ProductDeposit.sol\":1502:1512  msg.sender */\n      caller\n        /* \"contracts/ProductDeposit.sol\":1483:1490  deposit */\n      dup2\n        /* \"contracts/ProductDeposit.sol\":1483:1499  deposit.producer */\n      0x00\n      add\n      0x00\n        /* \"contracts/ProductDeposit.sol\":1483:1512  deposit.producer = msg.sender */\n      0x0100\n      exp\n      dup2\n      sload\n      dup2\n      0xffffffffffffffffffffffffffffffffffffffff\n      mul\n      not\n      and\n      swap1\n      dup4\n      0xffffffffffffffffffffffffffffffffffffffff\n      and\n      mul\n      or\n      swap1\n      sstore\n      pop\n        /* \"contracts/ProductDeposit.sol\":1542:1551  _quantity */\n      dup4\n        /* \"contracts/ProductDeposit.sol\":1522:1529  deposit */\n      dup2\n        /* \"contracts/ProductDeposit.sol\":1522:1538  deposit.quantity */\n      0x01\n      add\n      0x00\n        /* \"contracts/ProductDeposit.sol\":1522:1551  deposit.quantity += _quantity */\n      dup3\n      dup3\n      sload\n      tag_69\n      swap2\n      swap1\n      tag_70\n      jump\t// in\n    tag_69:\n      swap3\n      pop\n      pop\n      dup2\n      swap1\n      sstore\n      pop\n        /* \"contracts/ProductDeposit.sol\":1239:1558  {... */\n      pop\n        /* \"contracts/ProductDeposit.sol\":762:1004  {... */\n      pop\n        /* \"contracts/ProductDeposit.sol\":1134:1558  function depositProduct(bytes4 _productId, uint _quantity) public payable AuthorizedProducer(_productId) {... */\n      pop\n      pop\n      pop\n      jump\t// out\n        /* \"contracts/ProductDeposit.sol\":120:142  uint public storageFee */\n    tag_24:\n      sload(0x01)\n      dup2\n      jump\t// out\n        /* \"contracts/ProductDeposit.sol\":1564:2056  function withdrawProduct(bytes4 _productId, uint _quantity) public {... */\n    tag_30:\n        /* \"contracts/ProductDeposit.sol\":1663:1678  productDeposits */\n      0x05\n        /* \"contracts/ProductDeposit.sol\":1663:1690  productDeposits[_productId] */\n      0x00\n        /* \"contracts/ProductDeposit.sol\":1679:1689  _productId */\n      dup4\n        /* \"contracts/ProductDeposit.sol\":1663:1690  productDeposits[_productId] */\n      not(0xffffffffffffffffffffffffffffffffffffffffffffffffffffffff)\n      and\n      not(0xffffffffffffffffffffffffffffffffffffffffffffffffffffffff)\n      and\n      dup2\n      mstore\n      0x20\n      add\n      swap1\n      dup2\n      mstore\n      0x20\n      add\n      0x00\n      keccak256\n        /* \"contracts/ProductDeposit.sol\":1663:1699  productDeposits[_productId].producer */\n      0x00\n      add\n      0x00\n      swap1\n      sload\n      swap1\n      0x0100\n      exp\n      swap1\n      div\n      0xffffffffffffffffffffffffffffffffffffffff\n      and\n        /* \"contracts/ProductDeposit.sol\":1649:1699  msg.sender == productDeposits[_productId].producer */\n      0xffffffffffffffffffffffffffffffffffffffff\n      and\n        /* \"contracts/ProductDeposit.sol\":1649:1659  msg.sender */\n      caller\n        /* \"contracts/ProductDeposit.sol\":1649:1699  msg.sender == productDeposits[_productId].producer */\n      0xffffffffffffffffffffffffffffffffffffffff\n      and\n      eq\n        /* \"contracts/ProductDeposit.sol\":1649:1743  msg.sender == productDeposits[_productId].producer || authorizedStores[msg.sender]==msg.sender */\n      dup1\n      tag_72\n      jumpi\n      pop\n        /* \"contracts/ProductDeposit.sol\":1733:1743  msg.sender */\n      caller\n        /* \"contracts/ProductDeposit.sol\":1703:1743  authorizedStores[msg.sender]==msg.sender */\n      0xffffffffffffffffffffffffffffffffffffffff\n      and\n        /* \"contracts/ProductDeposit.sol\":1703:1719  authorizedStores */\n      0x04\n        /* \"contracts/ProductDeposit.sol\":1703:1731  authorizedStores[msg.sender] */\n      0x00\n        /* \"contracts/ProductDeposit.sol\":1720:1730  msg.sender */\n      caller\n        /* \"contracts/ProductDeposit.sol\":1703:1731  authorizedStores[msg.sender] */\n      0xffffffffffffffffffffffffffffffffffffffff\n      and\n      0xffffffffffffffffffffffffffffffffffffffff\n      and\n      dup2\n      mstore\n      0x20\n      add\n      swap1\n      dup2\n      mstore\n      0x20\n      add\n      0x00\n      keccak256\n      0x00\n      swap1\n      sload\n      swap1\n      0x0100\n      exp\n      swap1\n      div\n      0xffffffffffffffffffffffffffffffffffffffff\n      and\n        /* \"contracts/ProductDeposit.sol\":1703:1743  authorizedStores[msg.sender]==msg.sender */\n      0xffffffffffffffffffffffffffffffffffffffff\n      and\n      eq\n        /* \"contracts/ProductDeposit.sol\":1649:1743  msg.sender == productDeposits[_productId].producer || authorizedStores[msg.sender]==msg.sender */\n    tag_72:\n        /* \"contracts/ProductDeposit.sol\":1641:1785  require(msg.sender == productDeposits[_productId].producer || authorizedStores[msg.sender]==msg.sender, \"Not authorized to perform this action\") */\n      tag_73\n      jumpi\n      mload(0x40)\n      0x08c379a000000000000000000000000000000000000000000000000000000000\n      dup2\n      mstore\n      0x04\n      add\n      tag_74\n      swap1\n      tag_75\n      jump\t// in\n    tag_74:\n      mload(0x40)\n      dup1\n      swap2\n      sub\n      swap1\n      revert\n    tag_73:\n        /* \"contracts/ProductDeposit.sol\":1795:1818  Deposit storage deposit */\n      0x00\n        /* \"contracts/ProductDeposit.sol\":1821:1836  productDeposits */\n      0x05\n        /* \"contracts/ProductDeposit.sol\":1821:1848  productDeposits[_productId] */\n      0x00\n        /* \"contracts/ProductDeposit.sol\":1837:1847  _productId */\n      dup5\n        /* \"contracts/ProductDeposit.sol\":1821:1848  productDeposits[_productId] */\n      not(0xffffffffffffffffffffffffffffffffffffffffffffffffffffffff)\n      and\n      not(0xffffffffffffffffffffffffffffffffffffffffffffffffffffffff)\n      and\n      dup2\n      mstore\n      0x20\n      add\n      swap1\n      dup2\n      mstore\n      0x20\n      add\n      0x00\n      keccak256\n        /* \"contracts/ProductDeposit.sol\":1795:1848  Deposit storage deposit = productDeposits[_productId] */\n      swap1\n      pop\n        /* \"contracts/ProductDeposit.sol\":1886:1896  msg.sender */\n      caller\n        /* \"contracts/ProductDeposit.sol\":1866:1896  deposit.producer == msg.sender */\n      0xffffffffffffffffffffffffffffffffffffffff\n      and\n        /* \"contracts/ProductDeposit.sol\":1866:1873  deposit */\n      dup2\n        /* \"contracts/ProductDeposit.sol\":1866:1882  deposit.producer */\n      0x00\n      add\n      0x00\n      swap1\n      sload\n      swap1\n      0x0100\n      exp\n      swap1\n      div\n      0xffffffffffffffffffffffffffffffffffffffff\n      and\n        /* \"contracts/ProductDeposit.sol\":1866:1896  deposit.producer == msg.sender */\n      0xffffffffffffffffffffffffffffffffffffffff\n      and\n      eq\n        /* \"contracts/ProductDeposit.sol\":1858:1925  require(deposit.producer == msg.sender, \"You are not the producer\") */\n      tag_76\n      jumpi\n      mload(0x40)\n      0x08c379a000000000000000000000000000000000000000000000000000000000\n      dup2\n      mstore\n      0x04\n      add\n      tag_77\n      swap1\n      tag_78\n      jump\t// in\n    tag_77:\n      mload(0x40)\n      dup1\n      swap2\n      sub\n      swap1\n      revert\n    tag_76:\n        /* \"contracts/ProductDeposit.sol\":1956:1963  deposit */\n      dup1\n        /* \"contracts/ProductDeposit.sol\":1956:1972  deposit.quantity */\n      0x01\n      add\n      sload\n        /* \"contracts/ProductDeposit.sol\":1943:1952  _quantity */\n      dup3\n        /* \"contracts/ProductDeposit.sol\":1943:1972  _quantity <= deposit.quantity */\n      gt\n      iszero\n        /* \"contracts/ProductDeposit.sol\":1935:2009  require(_quantity <= deposit.quantity, \"Insufficient quantity in deposit\") */\n      tag_79\n      jumpi\n      mload(0x40)\n      0x08c379a000000000000000000000000000000000000000000000000000000000\n      dup2\n      mstore\n      0x04\n      add\n      tag_80\n      swap1\n      tag_81\n      jump\t// in\n    tag_80:\n      mload(0x40)\n      dup1\n      swap2\n      sub\n      swap1\n      revert\n    tag_79:\n        /* \"contracts/ProductDeposit.sol\":2040:2049  _quantity */\n      dup2\n        /* \"contracts/ProductDeposit.sol\":2020:2027  deposit */\n      dup2\n        /* \"contracts/ProductDeposit.sol\":2020:2036  deposit.quantity */\n      0x01\n      add\n      0x00\n        /* \"contracts/ProductDeposit.sol\":2020:2049  deposit.quantity -= _quantity */\n      dup3\n      dup3\n      sload\n      tag_82\n      swap2\n      swap1\n      tag_83\n      jump\t// in\n    tag_82:\n      swap3\n      pop\n      pop\n      dup2\n      swap1\n      sstore\n      pop\n        /* \"contracts/ProductDeposit.sol\":1631:2056  {... */\n      pop\n        /* \"contracts/ProductDeposit.sol\":1564:2056  function withdrawProduct(bytes4 _productId, uint _quantity) public {... */\n      pop\n      pop\n      jump\t// out\n        /* \"contracts/ProductDeposit.sol\":94:114  address public owner */\n    tag_33:\n      0x00\n      dup1\n      sload\n      swap1\n      0x0100\n      exp\n      swap1\n      div\n      0xffffffffffffffffffffffffffffffffffffffff\n      and\n      dup2\n      jump\t// out\n        /* \"contracts/ProductDeposit.sol\":2062:2302  function authorizeStore(address _storeAddress) public {... */\n    tag_40:\n        /* \"contracts/ProductDeposit.sol\":2148:2153  owner */\n      0x00\n      dup1\n      sload\n      swap1\n      0x0100\n      exp\n      swap1\n      div\n      0xffffffffffffffffffffffffffffffffffffffff\n      and\n        /* \"contracts/ProductDeposit.sol\":2134:2153  msg.sender == owner */\n      0xffffffffffffffffffffffffffffffffffffffff\n      and\n        /* \"contracts/ProductDeposit.sol\":2134:2144  msg.sender */\n      caller\n        /* \"contracts/ProductDeposit.sol\":2134:2153  msg.sender == owner */\n      0xffffffffffffffffffffffffffffffffffffffff\n      and\n      eq\n        /* \"contracts/ProductDeposit.sol\":2134:2199  msg.sender == owner || msg.sender == authorizedStores[msg.sender] */\n      dup1\n      tag_85\n      jumpi\n      pop\n        /* \"contracts/ProductDeposit.sol\":2171:2187  authorizedStores */\n      0x04\n        /* \"contracts/ProductDeposit.sol\":2171:2199  authorizedStores[msg.sender] */\n      0x00\n        /* \"contracts/ProductDeposit.sol\":2188:2198  msg.sender */\n      caller\n        /* \"contracts/ProductDeposit.sol\":2171:2199  authorizedStores[msg.sender] */\n      0xffffffffffffffffffffffffffffffffffffffff\n      and\n      0xffffffffffffffffffffffffffffffffffffffff\n      and\n      dup2\n      mstore\n      0x20\n      add\n      swap1\n      dup2\n      mstore\n      0x20\n      add\n      0x00\n      keccak256\n      0x00\n      swap1\n      sload\n      swap1\n      0x0100\n      exp\n      swap1\n      div\n      0xffffffffffffffffffffffffffffffffffffffff\n      and\n        /* \"contracts/ProductDeposit.sol\":2157:2199  msg.sender == authorizedStores[msg.sender] */\n      0xffffffffffffffffffffffffffffffffffffffff\n      and\n        /* \"contracts/ProductDeposit.sol\":2157:2167  msg.sender */\n      caller\n        /* \"contracts/ProductDeposit.sol\":2157:2199  msg.sender == authorizedStores[msg.sender] */\n      0xffffffffffffffffffffffffffffffffffffffff\n      and\n      eq\n        /* \"contracts/ProductDeposit.sol\":2134:2199  msg.sender == owner || msg.sender == authorizedStores[msg.sender] */\n    tag_85:\n        /* \"contracts/ProductDeposit.sol\":2126:2241  require(msg.sender == owner || msg.sender == authorizedStores[msg.sender], \"Not authorized to perform this action\") */\n      tag_86\n      jumpi\n      mload(0x40)\n      0x08c379a000000000000000000000000000000000000000000000000000000000\n      dup2\n      mstore\n      0x04\n      add\n      tag_87\n      swap1\n      tag_75\n      jump\t// in\n    tag_87:\n      mload(0x40)\n      dup1\n      swap2\n      sub\n      swap1\n      revert\n    tag_86:\n        /* \"contracts/ProductDeposit.sol\":2282:2295  _storeAddress */\n      dup1\n        /* \"contracts/ProductDeposit.sol\":2251:2267  authorizedStores */\n      0x04\n        /* \"contracts/ProductDeposit.sol\":2251:2279  authorizedStores[msg.sender] */\n      0x00\n        /* \"contracts/ProductDeposit.sol\":2268:2278  msg.sender */\n      caller\n        /* \"contracts/ProductDeposit.sol\":2251:2279  authorizedStores[msg.sender] */\n      0xffffffffffffffffffffffffffffffffffffffff\n      and\n      0xffffffffffffffffffffffffffffffffffffffff\n      and\n      dup2\n      mstore\n      0x20\n      add\n      swap1\n      dup2\n      mstore\n      0x20\n      add\n      0x00\n      keccak256\n      0x00\n        /* \"contracts/ProductDeposit.sol\":2251:2295  authorizedStores[msg.sender] = _storeAddress */\n      0x0100\n      exp\n      dup2\n      sload\n      dup2\n      0xffffffffffffffffffffffffffffffffffffffff\n      mul\n      not\n      and\n      swap1\n      dup4\n      0xffffffffffffffffffffffffffffffffffffffff\n      and\n      mul\n      or\n      swap1\n      sstore\n      pop\n        /* \"contracts/ProductDeposit.sol\":2062:2302  function authorizeStore(address _storeAddress) public {... */\n      pop\n      jump\t// out\n        /* \"contracts/ProductDeposit.sol\":148:176  uint public maxStorageVolume */\n    tag_43:\n      sload(0x02)\n      dup2\n      jump\t// out\n        /* \"contracts/ProductDeposit.sol\":426:477  mapping(address => address) public authorizedStores */\n    tag_48:\n      mstore(0x20, 0x04)\n      dup1\n      0x00\n      mstore\n      keccak256(0x00, 0x40)\n      0x00\n      swap2\n      pop\n      sload\n      swap1\n      0x0100\n      exp\n      swap1\n      div\n      0xffffffffffffffffffffffffffffffffffffffff\n      and\n      dup2\n      jump\t// out\n        /* \"#utility.yul\":7:82   */\n    tag_88:\n        /* \"#utility.yul\":40:46   */\n      0x00\n        /* \"#utility.yul\":73:75   */\n      0x40\n        /* \"#utility.yul\":67:76   */\n      mload\n        /* \"#utility.yul\":57:76   */\n      swap1\n      pop\n        /* \"#utility.yul\":7:82   */\n      swap1\n      jump\t// out\n        /* \"#utility.yul\":88:205   */\n    tag_89:\n        /* \"#utility.yul\":197:198   */\n      0x00\n        /* \"#utility.yul\":194:195   */\n      dup1\n        /* \"#utility.yul\":187:199   */\n      revert\n        /* \"#utility.yul\":211:328   */\n    tag_90:\n        /* \"#utility.yul\":320:321   */\n      0x00\n        /* \"#utility.yul\":317:318   */\n      dup1\n        /* \"#utility.yul\":310:322   */\n      revert\n        /* \"#utility.yul\":334:483   */\n    tag_91:\n        /* \"#utility.yul\":370:377   */\n      0x00\n        /* \"#utility.yul\":410:476   */\n      0xffffffff00000000000000000000000000000000000000000000000000000000\n        /* \"#utility.yul\":403:408   */\n      dup3\n        /* \"#utility.yul\":399:477   */\n      and\n        /* \"#utility.yul\":388:477   */\n      swap1\n      pop\n        /* \"#utility.yul\":334:483   */\n      swap2\n      swap1\n      pop\n      jump\t// out\n        /* \"#utility.yul\":489:609   */\n    tag_92:\n        /* \"#utility.yul\":561:584   */\n      tag_136\n        /* \"#utility.yul\":578:583   */\n      dup2\n        /* \"#utility.yul\":561:584   */\n      tag_91\n      jump\t// in\n    tag_136:\n        /* \"#utility.yul\":554:559   */\n      dup2\n        /* \"#utility.yul\":551:585   */\n      eq\n        /* \"#utility.yul\":541:603   */\n      tag_137\n      jumpi\n        /* \"#utility.yul\":599:600   */\n      0x00\n        /* \"#utility.yul\":596:597   */\n      dup1\n        /* \"#utility.yul\":589:601   */\n      revert\n        /* \"#utility.yul\":541:603   */\n    tag_137:\n        /* \"#utility.yul\":489:609   */\n      pop\n      jump\t// out\n        /* \"#utility.yul\":615:752   */\n    tag_93:\n        /* \"#utility.yul\":660:665   */\n      0x00\n        /* \"#utility.yul\":698:704   */\n      dup2\n        /* \"#utility.yul\":685:705   */\n      calldataload\n        /* \"#utility.yul\":676:705   */\n      swap1\n      pop\n        /* \"#utility.yul\":714:746   */\n      tag_139\n        /* \"#utility.yul\":740:745   */\n      dup2\n        /* \"#utility.yul\":714:746   */\n      tag_92\n      jump\t// in\n    tag_139:\n        /* \"#utility.yul\":615:752   */\n      swap3\n      swap2\n      pop\n      pop\n      jump\t// out\n        /* \"#utility.yul\":758:1085   */\n    tag_14:\n        /* \"#utility.yul\":816:822   */\n      0x00\n        /* \"#utility.yul\":865:867   */\n      0x20\n        /* \"#utility.yul\":853:862   */\n      dup3\n        /* \"#utility.yul\":844:851   */\n      dup5\n        /* \"#utility.yul\":840:863   */\n      sub\n        /* \"#utility.yul\":836:868   */\n      slt\n        /* \"#utility.yul\":833:952   */\n      iszero\n      tag_141\n      jumpi\n        /* \"#utility.yul\":871:950   */\n      tag_142\n      tag_89\n      jump\t// in\n    tag_142:\n        /* \"#utility.yul\":833:952   */\n    tag_141:\n        /* \"#utility.yul\":991:992   */\n      0x00\n        /* \"#utility.yul\":1016:1068   */\n      tag_143\n        /* \"#utility.yul\":1060:1067   */\n      dup5\n        /* \"#utility.yul\":1051:1057   */\n      dup3\n        /* \"#utility.yul\":1040:1049   */\n      dup6\n        /* \"#utility.yul\":1036:1058   */\n      add\n        /* \"#utility.yul\":1016:1068   */\n      tag_93\n      jump\t// in\n    tag_143:\n        /* \"#utility.yul\":1006:1068   */\n      swap2\n      pop\n        /* \"#utility.yul\":962:1078   */\n      pop\n        /* \"#utility.yul\":758:1085   */\n      swap3\n      swap2\n      pop\n      pop\n      jump\t// out\n        /* \"#utility.yul\":1091:1217   */\n    tag_94:\n        /* \"#utility.yul\":1128:1135   */\n      0x00\n        /* \"#utility.yul\":1168:1210   */\n      0xffffffffffffffffffffffffffffffffffffffff\n        /* \"#utility.yul\":1161:1166   */\n      dup3\n        /* \"#utility.yul\":1157:1211   */\n      and\n        /* \"#utility.yul\":1146:1211   */\n      swap1\n      pop\n        /* \"#utility.yul\":1091:1217   */\n      swap2\n      swap1\n      pop\n      jump\t// out\n        /* \"#utility.yul\":1223:1319   */\n    tag_95:\n        /* \"#utility.yul\":1260:1267   */\n      0x00\n        /* \"#utility.yul\":1289:1313   */\n      tag_146\n        /* \"#utility.yul\":1307:1312   */\n      dup3\n        /* \"#utility.yul\":1289:1313   */\n      tag_94\n      jump\t// in\n    tag_146:\n        /* \"#utility.yul\":1278:1313   */\n      swap1\n      pop\n        /* \"#utility.yul\":1223:1319   */\n      swap2\n      swap1\n      pop\n      jump\t// out\n        /* \"#utility.yul\":1325:1443   */\n    tag_96:\n        /* \"#utility.yul\":1412:1436   */\n      tag_148\n        /* \"#utility.yul\":1430:1435   */\n      dup2\n        /* \"#utility.yul\":1412:1436   */\n      tag_95\n      jump\t// in\n    tag_148:\n        /* \"#utility.yul\":1407:1410   */\n      dup3\n        /* \"#utility.yul\":1400:1437   */\n      mstore\n        /* \"#utility.yul\":1325:1443   */\n      pop\n      pop\n      jump\t// out\n        /* \"#utility.yul\":1449:1526   */\n    tag_97:\n        /* \"#utility.yul\":1486:1493   */\n      0x00\n        /* \"#utility.yul\":1515:1520   */\n      dup2\n        /* \"#utility.yul\":1504:1520   */\n      swap1\n      pop\n        /* \"#utility.yul\":1449:1526   */\n      swap2\n      swap1\n      pop\n      jump\t// out\n        /* \"#utility.yul\":1532:1650   */\n    tag_98:\n        /* \"#utility.yul\":1619:1643   */\n      tag_151\n        /* \"#utility.yul\":1637:1642   */\n      dup2\n        /* \"#utility.yul\":1619:1643   */\n      tag_97\n      jump\t// in\n    tag_151:\n        /* \"#utility.yul\":1614:1617   */\n      dup3\n        /* \"#utility.yul\":1607:1644   */\n      mstore\n        /* \"#utility.yul\":1532:1650   */\n      pop\n      pop\n      jump\t// out\n        /* \"#utility.yul\":1656:1988   */\n    tag_17:\n        /* \"#utility.yul\":1777:1781   */\n      0x00\n        /* \"#utility.yul\":1815:1817   */\n      0x40\n        /* \"#utility.yul\":1804:1813   */\n      dup3\n        /* \"#utility.yul\":1800:1818   */\n      add\n        /* \"#utility.yul\":1792:1818   */\n      swap1\n      pop\n        /* \"#utility.yul\":1828:1899   */\n      tag_153\n        /* \"#utility.yul\":1896:1897   */\n      0x00\n        /* \"#utility.yul\":1885:1894   */\n      dup4\n        /* \"#utility.yul\":1881:1898   */\n      add\n        /* \"#utility.yul\":1872:1878   */\n      dup6\n        /* \"#utility.yul\":1828:1899   */\n      tag_96\n      jump\t// in\n    tag_153:\n        /* \"#utility.yul\":1909:1981   */\n      tag_154\n        /* \"#utility.yul\":1977:1979   */\n      0x20\n        /* \"#utility.yul\":1966:1975   */\n      dup4\n        /* \"#utility.yul\":1962:1980   */\n      add\n        /* \"#utility.yul\":1953:1959   */\n      dup5\n        /* \"#utility.yul\":1909:1981   */\n      tag_98\n      jump\t// in\n    tag_154:\n        /* \"#utility.yul\":1656:1988   */\n      swap4\n      swap3\n      pop\n      pop\n      pop\n      jump\t// out\n        /* \"#utility.yul\":1994:2116   */\n    tag_99:\n        /* \"#utility.yul\":2067:2091   */\n      tag_156\n        /* \"#utility.yul\":2085:2090   */\n      dup2\n        /* \"#utility.yul\":2067:2091   */\n      tag_97\n      jump\t// in\n    tag_156:\n        /* \"#utility.yul\":2060:2065   */\n      dup2\n        /* \"#utility.yul\":2057:2092   */\n      eq\n        /* \"#utility.yul\":2047:2110   */\n      tag_157\n      jumpi\n        /* \"#utility.yul\":2106:2107   */\n      0x00\n        /* \"#utility.yul\":2103:2104   */\n      dup1\n        /* \"#utility.yul\":2096:2108   */\n      revert\n        /* \"#utility.yul\":2047:2110   */\n    tag_157:\n        /* \"#utility.yul\":1994:2116   */\n      pop\n      jump\t// out\n        /* \"#utility.yul\":2122:2261   */\n    tag_100:\n        /* \"#utility.yul\":2168:2173   */\n      0x00\n        /* \"#utility.yul\":2206:2212   */\n      dup2\n        /* \"#utility.yul\":2193:2213   */\n      calldataload\n        /* \"#utility.yul\":2184:2213   */\n      swap1\n      pop\n        /* \"#utility.yul\":2222:2255   */\n      tag_159\n        /* \"#utility.yul\":2249:2254   */\n      dup2\n        /* \"#utility.yul\":2222:2255   */\n      tag_99\n      jump\t// in\n    tag_159:\n        /* \"#utility.yul\":2122:2261   */\n      swap3\n      swap2\n      pop\n      pop\n      jump\t// out\n        /* \"#utility.yul\":2267:2739   */\n    tag_20:\n        /* \"#utility.yul\":2334:2340   */\n      0x00\n        /* \"#utility.yul\":2342:2348   */\n      dup1\n        /* \"#utility.yul\":2391:2393   */\n      0x40\n        /* \"#utility.yul\":2379:2388   */\n      dup4\n        /* \"#utility.yul\":2370:2377   */\n      dup6\n        /* \"#utility.yul\":2366:2389   */\n      sub\n        /* \"#utility.yul\":2362:2394   */\n      slt\n        /* \"#utility.yul\":2359:2478   */\n      iszero\n      tag_161\n      jumpi\n        /* \"#utility.yul\":2397:2476   */\n      tag_162\n      tag_89\n      jump\t// in\n    tag_162:\n        /* \"#utility.yul\":2359:2478   */\n    tag_161:\n        /* \"#utility.yul\":2517:2518   */\n      0x00\n        /* \"#utility.yul\":2542:2594   */\n      tag_163\n        /* \"#utility.yul\":2586:2593   */\n      dup6\n        /* \"#utility.yul\":2577:2583   */\n      dup3\n        /* \"#utility.yul\":2566:2575   */\n      dup7\n        /* \"#utility.yul\":2562:2584   */\n      add\n        /* \"#utility.yul\":2542:2594   */\n      tag_93\n      jump\t// in\n    tag_163:\n        /* \"#utility.yul\":2532:2594   */\n      swap3\n      pop\n        /* \"#utility.yul\":2488:2604   */\n      pop\n        /* \"#utility.yul\":2643:2645   */\n      0x20\n        /* \"#utility.yul\":2669:2722   */\n      tag_164\n        /* \"#utility.yul\":2714:2721   */\n      dup6\n        /* \"#utility.yul\":2705:2711   */\n      dup3\n        /* \"#utility.yul\":2694:2703   */\n      dup7\n        /* \"#utility.yul\":2690:2712   */\n      add\n        /* \"#utility.yul\":2669:2722   */\n      tag_100\n      jump\t// in\n    tag_164:\n        /* \"#utility.yul\":2659:2722   */\n      swap2\n      pop\n        /* \"#utility.yul\":2614:2732   */\n      pop\n        /* \"#utility.yul\":2267:2739   */\n      swap3\n      pop\n      swap3\n      swap1\n      pop\n      jump\t// out\n        /* \"#utility.yul\":2745:2967   */\n    tag_26:\n        /* \"#utility.yul\":2838:2842   */\n      0x00\n        /* \"#utility.yul\":2876:2878   */\n      0x20\n        /* \"#utility.yul\":2865:2874   */\n      dup3\n        /* \"#utility.yul\":2861:2879   */\n      add\n        /* \"#utility.yul\":2853:2879   */\n      swap1\n      pop\n        /* \"#utility.yul\":2889:2960   */\n      tag_166\n        /* \"#utility.yul\":2957:2958   */\n      0x00\n        /* \"#utility.yul\":2946:2955   */\n      dup4\n        /* \"#utility.yul\":2942:2959   */\n      add\n        /* \"#utility.yul\":2933:2939   */\n      dup5\n        /* \"#utility.yul\":2889:2960   */\n      tag_98\n      jump\t// in\n    tag_166:\n        /* \"#utility.yul\":2745:2967   */\n      swap3\n      swap2\n      pop\n      pop\n      jump\t// out\n        /* \"#utility.yul\":2973:3195   */\n    tag_35:\n        /* \"#utility.yul\":3066:3070   */\n      0x00\n        /* \"#utility.yul\":3104:3106   */\n      0x20\n        /* \"#utility.yul\":3093:3102   */\n      dup3\n        /* \"#utility.yul\":3089:3107   */\n      add\n        /* \"#utility.yul\":3081:3107   */\n      swap1\n      pop\n        /* \"#utility.yul\":3117:3188   */\n      tag_168\n        /* \"#utility.yul\":3185:3186   */\n      0x00\n        /* \"#utility.yul\":3174:3183   */\n      dup4\n        /* \"#utility.yul\":3170:3187   */\n      add\n        /* \"#utility.yul\":3161:3167   */\n      dup5\n        /* \"#utility.yul\":3117:3188   */\n      tag_96\n      jump\t// in\n    tag_168:\n        /* \"#utility.yul\":2973:3195   */\n      swap3\n      swap2\n      pop\n      pop\n      jump\t// out\n        /* \"#utility.yul\":3201:3323   */\n    tag_101:\n        /* \"#utility.yul\":3274:3298   */\n      tag_170\n        /* \"#utility.yul\":3292:3297   */\n      dup2\n        /* \"#utility.yul\":3274:3298   */\n      tag_95\n      jump\t// in\n    tag_170:\n        /* \"#utility.yul\":3267:3272   */\n      dup2\n        /* \"#utility.yul\":3264:3299   */\n      eq\n        /* \"#utility.yul\":3254:3317   */\n      tag_171\n      jumpi\n        /* \"#utility.yul\":3313:3314   */\n      0x00\n        /* \"#utility.yul\":3310:3311   */\n      dup1\n        /* \"#utility.yul\":3303:3315   */\n      revert\n        /* \"#utility.yul\":3254:3317   */\n    tag_171:\n        /* \"#utility.yul\":3201:3323   */\n      pop\n      jump\t// out\n        /* \"#utility.yul\":3329:3468   */\n    tag_102:\n        /* \"#utility.yul\":3375:3380   */\n      0x00\n        /* \"#utility.yul\":3413:3419   */\n      dup2\n        /* \"#utility.yul\":3400:3420   */\n      calldataload\n        /* \"#utility.yul\":3391:3420   */\n      swap1\n      pop\n        /* \"#utility.yul\":3429:3462   */\n      tag_173\n        /* \"#utility.yul\":3456:3461   */\n      dup2\n        /* \"#utility.yul\":3429:3462   */\n      tag_101\n      jump\t// in\n    tag_173:\n        /* \"#utility.yul\":3329:3468   */\n      swap3\n      swap2\n      pop\n      pop\n      jump\t// out\n        /* \"#utility.yul\":3474:3803   */\n    tag_39:\n        /* \"#utility.yul\":3533:3539   */\n      0x00\n        /* \"#utility.yul\":3582:3584   */\n      0x20\n        /* \"#utility.yul\":3570:3579   */\n      dup3\n        /* \"#utility.yul\":3561:3568   */\n      dup5\n        /* \"#utility.yul\":3557:3580   */\n      sub\n        /* \"#utility.yul\":3553:3585   */\n      slt\n        /* \"#utility.yul\":3550:3669   */\n      iszero\n      tag_175\n      jumpi\n        /* \"#utility.yul\":3588:3667   */\n      tag_176\n      tag_89\n      jump\t// in\n    tag_176:\n        /* \"#utility.yul\":3550:3669   */\n    tag_175:\n        /* \"#utility.yul\":3708:3709   */\n      0x00\n        /* \"#utility.yul\":3733:3786   */\n      tag_177\n        /* \"#utility.yul\":3778:3785   */\n      dup5\n        /* \"#utility.yul\":3769:3775   */\n      dup3\n        /* \"#utility.yul\":3758:3767   */\n      dup6\n        /* \"#utility.yul\":3754:3776   */\n      add\n        /* \"#utility.yul\":3733:3786   */\n      tag_102\n      jump\t// in\n    tag_177:\n        /* \"#utility.yul\":3723:3786   */\n      swap2\n      pop\n        /* \"#utility.yul\":3679:3796   */\n      pop\n        /* \"#utility.yul\":3474:3803   */\n      swap3\n      swap2\n      pop\n      pop\n      jump\t// out\n        /* \"#utility.yul\":3809:3924   */\n    tag_103:\n        /* \"#utility.yul\":3894:3917   */\n      tag_179\n        /* \"#utility.yul\":3911:3916   */\n      dup2\n        /* \"#utility.yul\":3894:3917   */\n      tag_91\n      jump\t// in\n    tag_179:\n        /* \"#utility.yul\":3889:3892   */\n      dup3\n        /* \"#utility.yul\":3882:3918   */\n      mstore\n        /* \"#utility.yul\":3809:3924   */\n      pop\n      pop\n      jump\t// out\n        /* \"#utility.yul\":3930:4148   */\n    tag_52:\n        /* \"#utility.yul\":4021:4025   */\n      0x00\n        /* \"#utility.yul\":4059:4061   */\n      0x20\n        /* \"#utility.yul\":4048:4057   */\n      dup3\n        /* \"#utility.yul\":4044:4062   */\n      add\n        /* \"#utility.yul\":4036:4062   */\n      swap1\n      pop\n        /* \"#utility.yul\":4072:4141   */\n      tag_181\n        /* \"#utility.yul\":4138:4139   */\n      0x00\n        /* \"#utility.yul\":4127:4136   */\n      dup4\n        /* \"#utility.yul\":4123:4140   */\n      add\n        /* \"#utility.yul\":4114:4120   */\n      dup5\n        /* \"#utility.yul\":4072:4141   */\n      tag_103\n      jump\t// in\n    tag_181:\n        /* \"#utility.yul\":3930:4148   */\n      swap3\n      swap2\n      pop\n      pop\n      jump\t// out\n        /* \"#utility.yul\":4154:4297   */\n    tag_104:\n        /* \"#utility.yul\":4211:4216   */\n      0x00\n        /* \"#utility.yul\":4242:4248   */\n      dup2\n        /* \"#utility.yul\":4236:4249   */\n      mload\n        /* \"#utility.yul\":4227:4249   */\n      swap1\n      pop\n        /* \"#utility.yul\":4258:4291   */\n      tag_183\n        /* \"#utility.yul\":4285:4290   */\n      dup2\n        /* \"#utility.yul\":4258:4291   */\n      tag_101\n      jump\t// in\n    tag_183:\n        /* \"#utility.yul\":4154:4297   */\n      swap3\n      swap2\n      pop\n      pop\n      jump\t// out\n        /* \"#utility.yul\":4303:4420   */\n    tag_105:\n        /* \"#utility.yul\":4412:4413   */\n      0x00\n        /* \"#utility.yul\":4409:4410   */\n      dup1\n        /* \"#utility.yul\":4402:4414   */\n      revert\n        /* \"#utility.yul\":4426:4543   */\n    tag_106:\n        /* \"#utility.yul\":4535:4536   */\n      0x00\n        /* \"#utility.yul\":4532:4533   */\n      dup1\n        /* \"#utility.yul\":4525:4537   */\n      revert\n        /* \"#utility.yul\":4549:4651   */\n    tag_107:\n        /* \"#utility.yul\":4590:4596   */\n      0x00\n        /* \"#utility.yul\":4641:4643   */\n      0x1f\n        /* \"#utility.yul\":4637:4644   */\n      not\n        /* \"#utility.yul\":4632:4634   */\n      0x1f\n        /* \"#utility.yul\":4625:4630   */\n      dup4\n        /* \"#utility.yul\":4621:4635   */\n      add\n        /* \"#utility.yul\":4617:4645   */\n      and\n        /* \"#utility.yul\":4607:4645   */\n      swap1\n      pop\n        /* \"#utility.yul\":4549:4651   */\n      swap2\n      swap1\n      pop\n      jump\t// out\n        /* \"#utility.yul\":4657:4837   */\n    tag_108:\n        /* \"#utility.yul\":4705:4782   */\n      0x4e487b7100000000000000000000000000000000000000000000000000000000\n        /* \"#utility.yul\":4702:4703   */\n      0x00\n        /* \"#utility.yul\":4695:4783   */\n      mstore\n        /* \"#utility.yul\":4802:4806   */\n      0x41\n        /* \"#utility.yul\":4799:4800   */\n      0x04\n        /* \"#utility.yul\":4792:4807   */\n      mstore\n        /* \"#utility.yul\":4826:4830   */\n      0x24\n        /* \"#utility.yul\":4823:4824   */\n      0x00\n        /* \"#utility.yul\":4816:4831   */\n      revert\n        /* \"#utility.yul\":4843:5124   */\n    tag_109:\n        /* \"#utility.yul\":4926:4953   */\n      tag_189\n        /* \"#utility.yul\":4948:4952   */\n      dup3\n        /* \"#utility.yul\":4926:4953   */\n      tag_107\n      jump\t// in\n    tag_189:\n        /* \"#utility.yul\":4918:4924   */\n      dup2\n        /* \"#utility.yul\":4914:4954   */\n      add\n        /* \"#utility.yul\":5056:5062   */\n      dup2\n        /* \"#utility.yul\":5044:5054   */\n      dup2\n        /* \"#utility.yul\":5041:5063   */\n      lt\n        /* \"#utility.yul\":5020:5038   */\n      0xffffffffffffffff\n        /* \"#utility.yul\":5008:5018   */\n      dup3\n        /* \"#utility.yul\":5005:5039   */\n      gt\n        /* \"#utility.yul\":5002:5064   */\n      or\n        /* \"#utility.yul\":4999:5087   */\n      iszero\n      tag_190\n      jumpi\n        /* \"#utility.yul\":5067:5085   */\n      tag_191\n      tag_108\n      jump\t// in\n    tag_191:\n        /* \"#utility.yul\":4999:5087   */\n    tag_190:\n        /* \"#utility.yul\":5107:5117   */\n      dup1\n        /* \"#utility.yul\":5103:5105   */\n      0x40\n        /* \"#utility.yul\":5096:5118   */\n      mstore\n        /* \"#utility.yul\":4886:5124   */\n      pop\n        /* \"#utility.yul\":4843:5124   */\n      pop\n      pop\n      jump\t// out\n        /* \"#utility.yul\":5130:5259   */\n    tag_110:\n        /* \"#utility.yul\":5164:5170   */\n      0x00\n        /* \"#utility.yul\":5191:5211   */\n      tag_193\n      tag_88\n      jump\t// in\n    tag_193:\n        /* \"#utility.yul\":5181:5211   */\n      swap1\n      pop\n        /* \"#utility.yul\":5220:5253   */\n      tag_194\n        /* \"#utility.yul\":5248:5252   */\n      dup3\n        /* \"#utility.yul\":5240:5246   */\n      dup3\n        /* \"#utility.yul\":5220:5253   */\n      tag_109\n      jump\t// in\n    tag_194:\n        /* \"#utility.yul\":5130:5259   */\n      swap2\n      swap1\n      pop\n      jump\t// out\n        /* \"#utility.yul\":5265:5573   */\n    tag_111:\n        /* \"#utility.yul\":5327:5331   */\n      0x00\n        /* \"#utility.yul\":5417:5435   */\n      0xffffffffffffffff\n        /* \"#utility.yul\":5409:5415   */\n      dup3\n        /* \"#utility.yul\":5406:5436   */\n      gt\n        /* \"#utility.yul\":5403:5459   */\n      iszero\n      tag_196\n      jumpi\n        /* \"#utility.yul\":5439:5457   */\n      tag_197\n      tag_108\n      jump\t// in\n    tag_197:\n        /* \"#utility.yul\":5403:5459   */\n    tag_196:\n        /* \"#utility.yul\":5477:5506   */\n      tag_198\n        /* \"#utility.yul\":5499:5505   */\n      dup3\n        /* \"#utility.yul\":5477:5506   */\n      tag_107\n      jump\t// in\n    tag_198:\n        /* \"#utility.yul\":5469:5506   */\n      swap1\n      pop\n        /* \"#utility.yul\":5561:5565   */\n      0x20\n        /* \"#utility.yul\":5555:5559   */\n      dup2\n        /* \"#utility.yul\":5551:5566   */\n      add\n        /* \"#utility.yul\":5543:5566   */\n      swap1\n      pop\n        /* \"#utility.yul\":5265:5573   */\n      swap2\n      swap1\n      pop\n      jump\t// out\n        /* \"#utility.yul\":5579:5825   */\n    tag_112:\n        /* \"#utility.yul\":5660:5661   */\n      0x00\n        /* \"#utility.yul\":5670:5783   */\n    tag_200:\n        /* \"#utility.yul\":5684:5690   */\n      dup4\n        /* \"#utility.yul\":5681:5682   */\n      dup2\n        /* \"#utility.yul\":5678:5691   */\n      lt\n        /* \"#utility.yul\":5670:5783   */\n      iszero\n      tag_202\n      jumpi\n        /* \"#utility.yul\":5769:5770   */\n      dup1\n        /* \"#utility.yul\":5764:5767   */\n      dup3\n        /* \"#utility.yul\":5760:5771   */\n      add\n        /* \"#utility.yul\":5754:5772   */\n      mload\n        /* \"#utility.yul\":5750:5751   */\n      dup2\n        /* \"#utility.yul\":5745:5748   */\n      dup5\n        /* \"#utility.yul\":5741:5752   */\n      add\n        /* \"#utility.yul\":5734:5773   */\n      mstore\n        /* \"#utility.yul\":5706:5708   */\n      0x20\n        /* \"#utility.yul\":5703:5704   */\n      dup2\n        /* \"#utility.yul\":5699:5709   */\n      add\n        /* \"#utility.yul\":5694:5709   */\n      swap1\n      pop\n        /* \"#utility.yul\":5670:5783   */\n      jump(tag_200)\n    tag_202:\n        /* \"#utility.yul\":5817:5818   */\n      0x00\n        /* \"#utility.yul\":5808:5814   */\n      dup5\n        /* \"#utility.yul\":5803:5806   */\n      dup5\n        /* \"#utility.yul\":5799:5815   */\n      add\n        /* \"#utility.yul\":5792:5819   */\n      mstore\n        /* \"#utility.yul\":5641:5825   */\n      pop\n        /* \"#utility.yul\":5579:5825   */\n      pop\n      pop\n      pop\n      jump\t// out\n        /* \"#utility.yul\":5831:6265   */\n    tag_113:\n        /* \"#utility.yul\":5920:5925   */\n      0x00\n        /* \"#utility.yul\":5945:6011   */\n      tag_204\n        /* \"#utility.yul\":5961:6010   */\n      tag_205\n        /* \"#utility.yul\":6003:6009   */\n      dup5\n        /* \"#utility.yul\":5961:6010   */\n      tag_111\n      jump\t// in\n    tag_205:\n        /* \"#utility.yul\":5945:6011   */\n      tag_110\n      jump\t// in\n    tag_204:\n        /* \"#utility.yul\":5936:6011   */\n      swap1\n      pop\n        /* \"#utility.yul\":6034:6040   */\n      dup3\n        /* \"#utility.yul\":6027:6032   */\n      dup2\n        /* \"#utility.yul\":6020:6041   */\n      mstore\n        /* \"#utility.yul\":6072:6076   */\n      0x20\n        /* \"#utility.yul\":6065:6070   */\n      dup2\n        /* \"#utility.yul\":6061:6077   */\n      add\n        /* \"#utility.yul\":6110:6113   */\n      dup5\n        /* \"#utility.yul\":6101:6107   */\n      dup5\n        /* \"#utility.yul\":6096:6099   */\n      dup5\n        /* \"#utility.yul\":6092:6108   */\n      add\n        /* \"#utility.yul\":6089:6114   */\n      gt\n        /* \"#utility.yul\":6086:6198   */\n      iszero\n      tag_206\n      jumpi\n        /* \"#utility.yul\":6117:6196   */\n      tag_207\n      tag_106\n      jump\t// in\n    tag_207:\n        /* \"#utility.yul\":6086:6198   */\n    tag_206:\n        /* \"#utility.yul\":6207:6259   */\n      tag_208\n        /* \"#utility.yul\":6252:6258   */\n      dup5\n        /* \"#utility.yul\":6247:6250   */\n      dup3\n        /* \"#utility.yul\":6242:6245   */\n      dup6\n        /* \"#utility.yul\":6207:6259   */\n      tag_112\n      jump\t// in\n    tag_208:\n        /* \"#utility.yul\":5926:6265   */\n      pop\n        /* \"#utility.yul\":5831:6265   */\n      swap4\n      swap3\n      pop\n      pop\n      pop\n      jump\t// out\n        /* \"#utility.yul\":6285:6640   */\n    tag_114:\n        /* \"#utility.yul\":6352:6357   */\n      0x00\n        /* \"#utility.yul\":6401:6404   */\n      dup3\n        /* \"#utility.yul\":6394:6398   */\n      0x1f\n        /* \"#utility.yul\":6386:6392   */\n      dup4\n        /* \"#utility.yul\":6382:6399   */\n      add\n        /* \"#utility.yul\":6378:6405   */\n      slt\n        /* \"#utility.yul\":6368:6490   */\n      tag_210\n      jumpi\n        /* \"#utility.yul\":6409:6488   */\n      tag_211\n      tag_105\n      jump\t// in\n    tag_211:\n        /* \"#utility.yul\":6368:6490   */\n    tag_210:\n        /* \"#utility.yul\":6519:6525   */\n      dup2\n        /* \"#utility.yul\":6513:6526   */\n      mload\n        /* \"#utility.yul\":6544:6634   */\n      tag_212\n        /* \"#utility.yul\":6630:6633   */\n      dup5\n        /* \"#utility.yul\":6622:6628   */\n      dup3\n        /* \"#utility.yul\":6615:6619   */\n      0x20\n        /* \"#utility.yul\":6607:6613   */\n      dup7\n        /* \"#utility.yul\":6603:6620   */\n      add\n        /* \"#utility.yul\":6544:6634   */\n      tag_113\n      jump\t// in\n    tag_212:\n        /* \"#utility.yul\":6535:6634   */\n      swap2\n      pop\n        /* \"#utility.yul\":6358:6640   */\n      pop\n        /* \"#utility.yul\":6285:6640   */\n      swap3\n      swap2\n      pop\n      pop\n      jump\t// out\n        /* \"#utility.yul\":6646:6789   */\n    tag_115:\n        /* \"#utility.yul\":6703:6708   */\n      0x00\n        /* \"#utility.yul\":6734:6740   */\n      dup2\n        /* \"#utility.yul\":6728:6741   */\n      mload\n        /* \"#utility.yul\":6719:6741   */\n      swap1\n      pop\n        /* \"#utility.yul\":6750:6783   */\n      tag_214\n        /* \"#utility.yul\":6777:6782   */\n      dup2\n        /* \"#utility.yul\":6750:6783   */\n      tag_99\n      jump\t// in\n    tag_214:\n        /* \"#utility.yul\":6646:6789   */\n      swap3\n      swap2\n      pop\n      pop\n      jump\t// out\n        /* \"#utility.yul\":6795:7631   */\n    tag_56:\n        /* \"#utility.yul\":6893:6899   */\n      0x00\n        /* \"#utility.yul\":6901:6907   */\n      dup1\n        /* \"#utility.yul\":6909:6915   */\n      0x00\n        /* \"#utility.yul\":6958:6960   */\n      0x60\n        /* \"#utility.yul\":6946:6955   */\n      dup5\n        /* \"#utility.yul\":6937:6944   */\n      dup7\n        /* \"#utility.yul\":6933:6956   */\n      sub\n        /* \"#utility.yul\":6929:6961   */\n      slt\n        /* \"#utility.yul\":6926:7045   */\n      iszero\n      tag_216\n      jumpi\n        /* \"#utility.yul\":6964:7043   */\n      tag_217\n      tag_89\n      jump\t// in\n    tag_217:\n        /* \"#utility.yul\":6926:7045   */\n    tag_216:\n        /* \"#utility.yul\":7084:7085   */\n      0x00\n        /* \"#utility.yul\":7109:7173   */\n      tag_218\n        /* \"#utility.yul\":7165:7172   */\n      dup7\n        /* \"#utility.yul\":7156:7162   */\n      dup3\n        /* \"#utility.yul\":7145:7154   */\n      dup8\n        /* \"#utility.yul\":7141:7163   */\n      add\n        /* \"#utility.yul\":7109:7173   */\n      tag_104\n      jump\t// in\n    tag_218:\n        /* \"#utility.yul\":7099:7173   */\n      swap4\n      pop\n        /* \"#utility.yul\":7055:7183   */\n      pop\n        /* \"#utility.yul\":7243:7245   */\n      0x20\n        /* \"#utility.yul\":7232:7241   */\n      dup5\n        /* \"#utility.yul\":7228:7246   */\n      add\n        /* \"#utility.yul\":7222:7247   */\n      mload\n        /* \"#utility.yul\":7274:7292   */\n      0xffffffffffffffff\n        /* \"#utility.yul\":7266:7272   */\n      dup2\n        /* \"#utility.yul\":7263:7293   */\n      gt\n        /* \"#utility.yul\":7260:7377   */\n      iszero\n      tag_219\n      jumpi\n        /* \"#utility.yul\":7296:7375   */\n      tag_220\n      tag_90\n      jump\t// in\n    tag_220:\n        /* \"#utility.yul\":7260:7377   */\n    tag_219:\n        /* \"#utility.yul\":7401:7475   */\n      tag_221\n        /* \"#utility.yul\":7467:7474   */\n      dup7\n        /* \"#utility.yul\":7458:7464   */\n      dup3\n        /* \"#utility.yul\":7447:7456   */\n      dup8\n        /* \"#utility.yul\":7443:7465   */\n      add\n        /* \"#utility.yul\":7401:7475   */\n      tag_114\n      jump\t// in\n    tag_221:\n        /* \"#utility.yul\":7391:7475   */\n      swap3\n      pop\n        /* \"#utility.yul\":7193:7485   */\n      pop\n        /* \"#utility.yul\":7524:7526   */\n      0x40\n        /* \"#utility.yul\":7550:7614   */\n      tag_222\n        /* \"#utility.yul\":7606:7613   */\n      dup7\n        /* \"#utility.yul\":7597:7603   */\n      dup3\n        /* \"#utility.yul\":7586:7595   */\n      dup8\n        /* \"#utility.yul\":7582:7604   */\n      add\n        /* \"#utility.yul\":7550:7614   */\n      tag_115\n      jump\t// in\n    tag_222:\n        /* \"#utility.yul\":7540:7614   */\n      swap2\n      pop\n        /* \"#utility.yul\":7495:7624   */\n      pop\n        /* \"#utility.yul\":6795:7631   */\n      swap3\n      pop\n      swap3\n      pop\n      swap3\n      jump\t// out\n        /* \"#utility.yul\":7637:7806   */\n    tag_116:\n        /* \"#utility.yul\":7721:7732   */\n      0x00\n        /* \"#utility.yul\":7755:7761   */\n      dup3\n        /* \"#utility.yul\":7750:7753   */\n      dup3\n        /* \"#utility.yul\":7743:7762   */\n      mstore\n        /* \"#utility.yul\":7795:7799   */\n      0x20\n        /* \"#utility.yul\":7790:7793   */\n      dup3\n        /* \"#utility.yul\":7786:7800   */\n      add\n        /* \"#utility.yul\":7771:7800   */\n      swap1\n      pop\n        /* \"#utility.yul\":7637:7806   */\n      swap3\n      swap2\n      pop\n      pop\n      jump\t// out\n        /* \"#utility.yul\":7812:8050   */\n    tag_117:\n        /* \"#utility.yul\":7952:7986   */\n      0x596f7520617265206e6f7420616e20617574686f72697a65642070726f647563\n        /* \"#utility.yul\":7948:7949   */\n      0x00\n        /* \"#utility.yul\":7940:7946   */\n      dup3\n        /* \"#utility.yul\":7936:7950   */\n      add\n        /* \"#utility.yul\":7929:7987   */\n      mstore\n        /* \"#utility.yul\":8021:8042   */\n      0x657220666f7220746869732070726f6475637400000000000000000000000000\n        /* \"#utility.yul\":8016:8018   */\n      0x20\n        /* \"#utility.yul\":8008:8014   */\n      dup3\n        /* \"#utility.yul\":8004:8019   */\n      add\n        /* \"#utility.yul\":7997:8043   */\n      mstore\n        /* \"#utility.yul\":7812:8050   */\n      pop\n      jump\t// out\n        /* \"#utility.yul\":8056:8422   */\n    tag_118:\n        /* \"#utility.yul\":8198:8201   */\n      0x00\n        /* \"#utility.yul\":8219:8286   */\n      tag_226\n        /* \"#utility.yul\":8283:8285   */\n      0x33\n        /* \"#utility.yul\":8278:8281   */\n      dup4\n        /* \"#utility.yul\":8219:8286   */\n      tag_116\n      jump\t// in\n    tag_226:\n        /* \"#utility.yul\":8212:8286   */\n      swap2\n      pop\n        /* \"#utility.yul\":8295:8388   */\n      tag_227\n        /* \"#utility.yul\":8384:8387   */\n      dup3\n        /* \"#utility.yul\":8295:8388   */\n      tag_117\n      jump\t// in\n    tag_227:\n        /* \"#utility.yul\":8413:8415   */\n      0x40\n        /* \"#utility.yul\":8408:8411   */\n      dup3\n        /* \"#utility.yul\":8404:8416   */\n      add\n        /* \"#utility.yul\":8397:8416   */\n      swap1\n      pop\n        /* \"#utility.yul\":8056:8422   */\n      swap2\n      swap1\n      pop\n      jump\t// out\n        /* \"#utility.yul\":8428:8847   */\n    tag_59:\n        /* \"#utility.yul\":8594:8598   */\n      0x00\n        /* \"#utility.yul\":8632:8634   */\n      0x20\n        /* \"#utility.yul\":8621:8630   */\n      dup3\n        /* \"#utility.yul\":8617:8635   */\n      add\n        /* \"#utility.yul\":8609:8635   */\n      swap1\n      pop\n        /* \"#utility.yul\":8681:8690   */\n      dup2\n        /* \"#utility.yul\":8675:8679   */\n      dup2\n        /* \"#utility.yul\":8671:8691   */\n      sub\n        /* \"#utility.yul\":8667:8668   */\n      0x00\n        /* \"#utility.yul\":8656:8665   */\n      dup4\n        /* \"#utility.yul\":8652:8669   */\n      add\n        /* \"#utility.yul\":8645:8692   */\n      mstore\n        /* \"#utility.yul\":8709:8840   */\n      tag_229\n        /* \"#utility.yul\":8835:8839   */\n      dup2\n        /* \"#utility.yul\":8709:8840   */\n      tag_118\n      jump\t// in\n    tag_229:\n        /* \"#utility.yul\":8701:8840   */\n      swap1\n      pop\n        /* \"#utility.yul\":8428:8847   */\n      swap2\n      swap1\n      pop\n      jump\t// out\n        /* \"#utility.yul\":8853:9033   */\n    tag_119:\n        /* \"#utility.yul\":8901:8978   */\n      0x4e487b7100000000000000000000000000000000000000000000000000000000\n        /* \"#utility.yul\":8898:8899   */\n      0x00\n        /* \"#utility.yul\":8891:8979   */\n      mstore\n        /* \"#utility.yul\":8998:9002   */\n      0x11\n        /* \"#utility.yul\":8995:8996   */\n      0x04\n        /* \"#utility.yul\":8988:9003   */\n      mstore\n        /* \"#utility.yul\":9022:9026   */\n      0x24\n        /* \"#utility.yul\":9019:9020   */\n      0x00\n        /* \"#utility.yul\":9012:9027   */\n      revert\n        /* \"#utility.yul\":9039:9449   */\n    tag_62:\n        /* \"#utility.yul\":9079:9086   */\n      0x00\n        /* \"#utility.yul\":9102:9122   */\n      tag_232\n        /* \"#utility.yul\":9120:9121   */\n      dup3\n        /* \"#utility.yul\":9102:9122   */\n      tag_97\n      jump\t// in\n    tag_232:\n        /* \"#utility.yul\":9097:9122   */\n      swap2\n      pop\n        /* \"#utility.yul\":9136:9156   */\n      tag_233\n        /* \"#utility.yul\":9154:9155   */\n      dup4\n        /* \"#utility.yul\":9136:9156   */\n      tag_97\n      jump\t// in\n    tag_233:\n        /* \"#utility.yul\":9131:9156   */\n      swap3\n      pop\n        /* \"#utility.yul\":9191:9192   */\n      dup3\n        /* \"#utility.yul\":9188:9189   */\n      dup3\n        /* \"#utility.yul\":9184:9193   */\n      mul\n        /* \"#utility.yul\":9213:9243   */\n      tag_234\n        /* \"#utility.yul\":9231:9242   */\n      dup2\n        /* \"#utility.yul\":9213:9243   */\n      tag_97\n      jump\t// in\n    tag_234:\n        /* \"#utility.yul\":9202:9243   */\n      swap2\n      pop\n        /* \"#utility.yul\":9392:9393   */\n      dup3\n        /* \"#utility.yul\":9383:9390   */\n      dup3\n        /* \"#utility.yul\":9379:9394   */\n      div\n        /* \"#utility.yul\":9376:9377   */\n      dup5\n        /* \"#utility.yul\":9373:9395   */\n      eq\n        /* \"#utility.yul\":9353:9354   */\n      dup4\n        /* \"#utility.yul\":9346:9355   */\n      iszero\n        /* \"#utility.yul\":9326:9409   */\n      or\n        /* \"#utility.yul\":9303:9442   */\n      tag_235\n      jumpi\n        /* \"#utility.yul\":9422:9440   */\n      tag_236\n      tag_119\n      jump\t// in\n    tag_236:\n        /* \"#utility.yul\":9303:9442   */\n    tag_235:\n        /* \"#utility.yul\":9087:9449   */\n      pop\n        /* \"#utility.yul\":9039:9449   */\n      swap3\n      swap2\n      pop\n      pop\n      jump\t// out\n        /* \"#utility.yul\":9455:9626   */\n    tag_120:\n        /* \"#utility.yul\":9595:9618   */\n      0x53746f7261676520666565206e6f7420706169642e0000000000000000000000\n        /* \"#utility.yul\":9591:9592   */\n      0x00\n        /* \"#utility.yul\":9583:9589   */\n      dup3\n        /* \"#utility.yul\":9579:9593   */\n      add\n        /* \"#utility.yul\":9572:9619   */\n      mstore\n        /* \"#utility.yul\":9455:9626   */\n      pop\n      jump\t// out\n        /* \"#utility.yul\":9632:9998   */\n    tag_121:\n        /* \"#utility.yul\":9774:9777   */\n      0x00\n        /* \"#utility.yul\":9795:9862   */\n      tag_239\n        /* \"#utility.yul\":9859:9861   */\n      0x15\n        /* \"#utility.yul\":9854:9857   */\n      dup4\n        /* \"#utility.yul\":9795:9862   */\n      tag_116\n      jump\t// in\n    tag_239:\n        /* \"#utility.yul\":9788:9862   */\n      swap2\n      pop\n        /* \"#utility.yul\":9871:9964   */\n      tag_240\n        /* \"#utility.yul\":9960:9963   */\n      dup3\n        /* \"#utility.yul\":9871:9964   */\n      tag_120\n      jump\t// in\n    tag_240:\n        /* \"#utility.yul\":9989:9991   */\n      0x20\n        /* \"#utility.yul\":9984:9987   */\n      dup3\n        /* \"#utility.yul\":9980:9992   */\n      add\n        /* \"#utility.yul\":9973:9992   */\n      swap1\n      pop\n        /* \"#utility.yul\":9632:9998   */\n      swap2\n      swap1\n      pop\n      jump\t// out\n        /* \"#utility.yul\":10004:10423   */\n    tag_65:\n        /* \"#utility.yul\":10170:10174   */\n      0x00\n        /* \"#utility.yul\":10208:10210   */\n      0x20\n        /* \"#utility.yul\":10197:10206   */\n      dup3\n        /* \"#utility.yul\":10193:10211   */\n      add\n        /* \"#utility.yul\":10185:10211   */\n      swap1\n      pop\n        /* \"#utility.yul\":10257:10266   */\n      dup2\n        /* \"#utility.yul\":10251:10255   */\n      dup2\n        /* \"#utility.yul\":10247:10267   */\n      sub\n        /* \"#utility.yul\":10243:10244   */\n      0x00\n        /* \"#utility.yul\":10232:10241   */\n      dup4\n        /* \"#utility.yul\":10228:10245   */\n      add\n        /* \"#utility.yul\":10221:10268   */\n      mstore\n        /* \"#utility.yul\":10285:10416   */\n      tag_242\n        /* \"#utility.yul\":10411:10415   */\n      dup2\n        /* \"#utility.yul\":10285:10416   */\n      tag_121\n      jump\t// in\n    tag_242:\n        /* \"#utility.yul\":10277:10416   */\n      swap1\n      pop\n        /* \"#utility.yul\":10004:10423   */\n      swap2\n      swap1\n      pop\n      jump\t// out\n        /* \"#utility.yul\":10429:10655   */\n    tag_122:\n        /* \"#utility.yul\":10569:10603   */\n      0x5175616e746974792065786365656473206d6178696d756d2073746f72616765\n        /* \"#utility.yul\":10565:10566   */\n      0x00\n        /* \"#utility.yul\":10557:10563   */\n      dup3\n        /* \"#utility.yul\":10553:10567   */\n      add\n        /* \"#utility.yul\":10546:10604   */\n      mstore\n        /* \"#utility.yul\":10638:10647   */\n      0x20766f6c756d6500000000000000000000000000000000000000000000000000\n        /* \"#utility.yul\":10633:10635   */\n      0x20\n        /* \"#utility.yul\":10625:10631   */\n      dup3\n        /* \"#utility.yul\":10621:10636   */\n      add\n        /* \"#utility.yul\":10614:10648   */\n      mstore\n        /* \"#utility.yul\":10429:10655   */\n      pop\n      jump\t// out\n        /* \"#utility.yul\":10661:11027   */\n    tag_123:\n        /* \"#utility.yul\":10803:10806   */\n      0x00\n        /* \"#utility.yul\":10824:10891   */\n      tag_245\n        /* \"#utility.yul\":10888:10890   */\n      0x27\n        /* \"#utility.yul\":10883:10886   */\n      dup4\n        /* \"#utility.yul\":10824:10891   */\n      tag_116\n      jump\t// in\n    tag_245:\n        /* \"#utility.yul\":10817:10891   */\n      swap2\n      pop\n        /* \"#utility.yul\":10900:10993   */\n      tag_246\n        /* \"#utility.yul\":10989:10992   */\n      dup3\n        /* \"#utility.yul\":10900:10993   */\n      tag_122\n      jump\t// in\n    tag_246:\n        /* \"#utility.yul\":11018:11020   */\n      0x40\n        /* \"#utility.yul\":11013:11016   */\n      dup3\n        /* \"#utility.yul\":11009:11021   */\n      add\n        /* \"#utility.yul\":11002:11021   */\n      swap1\n      pop\n        /* \"#utility.yul\":10661:11027   */\n      swap2\n      swap1\n      pop\n      jump\t// out\n        /* \"#utility.yul\":11033:11452   */\n    tag_68:\n        /* \"#utility.yul\":11199:11203   */\n      0x00\n        /* \"#utility.yul\":11237:11239   */\n      0x20\n        /* \"#utility.yul\":11226:11235   */\n      dup3\n        /* \"#utility.yul\":11222:11240   */\n      add\n        /* \"#utility.yul\":11214:11240   */\n      swap1\n      pop\n        /* \"#utility.yul\":11286:11295   */\n      dup2\n        /* \"#utility.yul\":11280:11284   */\n      dup2\n        /* \"#utility.yul\":11276:11296   */\n      sub\n        /* \"#utility.yul\":11272:11273   */\n      0x00\n        /* \"#utility.yul\":11261:11270   */\n      dup4\n        /* \"#utility.yul\":11257:11274   */\n      add\n        /* \"#utility.yul\":11250:11297   */\n      mstore\n        /* \"#utility.yul\":11314:11445   */\n      tag_248\n        /* \"#utility.yul\":11440:11444   */\n      dup2\n        /* \"#utility.yul\":11314:11445   */\n      tag_123\n      jump\t// in\n    tag_248:\n        /* \"#utility.yul\":11306:11445   */\n      swap1\n      pop\n        /* \"#utility.yul\":11033:11452   */\n      swap2\n      swap1\n      pop\n      jump\t// out\n        /* \"#utility.yul\":11458:11649   */\n    tag_70:\n        /* \"#utility.yul\":11498:11501   */\n      0x00\n        /* \"#utility.yul\":11517:11537   */\n      tag_250\n        /* \"#utility.yul\":11535:11536   */\n      dup3\n        /* \"#utility.yul\":11517:11537   */\n      tag_97\n      jump\t// in\n    tag_250:\n        /* \"#utility.yul\":11512:11537   */\n      swap2\n      pop\n        /* \"#utility.yul\":11551:11571   */\n      tag_251\n        /* \"#utility.yul\":11569:11570   */\n      dup4\n        /* \"#utility.yul\":11551:11571   */\n      tag_97\n      jump\t// in\n    tag_251:\n        /* \"#utility.yul\":11546:11571   */\n      swap3\n      pop\n        /* \"#utility.yul\":11594:11595   */\n      dup3\n        /* \"#utility.yul\":11591:11592   */\n      dup3\n        /* \"#utility.yul\":11587:11596   */\n      add\n        /* \"#utility.yul\":11580:11596   */\n      swap1\n      pop\n        /* \"#utility.yul\":11615:11618   */\n      dup1\n        /* \"#utility.yul\":11612:11613   */\n      dup3\n        /* \"#utility.yul\":11609:11619   */\n      gt\n        /* \"#utility.yul\":11606:11642   */\n      iszero\n      tag_252\n      jumpi\n        /* \"#utility.yul\":11622:11640   */\n      tag_253\n      tag_119\n      jump\t// in\n    tag_253:\n        /* \"#utility.yul\":11606:11642   */\n    tag_252:\n        /* \"#utility.yul\":11458:11649   */\n      swap3\n      swap2\n      pop\n      pop\n      jump\t// out\n        /* \"#utility.yul\":11655:11879   */\n    tag_124:\n        /* \"#utility.yul\":11795:11829   */\n      0x4e6f7420617574686f72697a656420746f20706572666f726d20746869732061\n        /* \"#utility.yul\":11791:11792   */\n      0x00\n        /* \"#utility.yul\":11783:11789   */\n      dup3\n        /* \"#utility.yul\":11779:11793   */\n      add\n        /* \"#utility.yul\":11772:11830   */\n      mstore\n        /* \"#utility.yul\":11864:11871   */\n      0x6374696f6e000000000000000000000000000000000000000000000000000000\n        /* \"#utility.yul\":11859:11861   */\n      0x20\n        /* \"#utility.yul\":11851:11857   */\n      dup3\n        /* \"#utility.yul\":11847:11862   */\n      add\n        /* \"#utility.yul\":11840:11872   */\n      mstore\n        /* \"#utility.yul\":11655:11879   */\n      pop\n      jump\t// out\n        /* \"#utility.yul\":11885:12251   */\n    tag_125:\n        /* \"#utility.yul\":12027:12030   */\n      0x00\n        /* \"#utility.yul\":12048:12115   */\n      tag_256\n        /* \"#utility.yul\":12112:12114   */\n      0x25\n        /* \"#utility.yul\":12107:12110   */\n      dup4\n        /* \"#utility.yul\":12048:12115   */\n      tag_116\n      jump\t// in\n    tag_256:\n        /* \"#utility.yul\":12041:12115   */\n      swap2\n      pop\n        /* \"#utility.yul\":12124:12217   */\n      tag_257\n        /* \"#utility.yul\":12213:12216   */\n      dup3\n        /* \"#utility.yul\":12124:12217   */\n      tag_124\n      jump\t// in\n    tag_257:\n        /* \"#utility.yul\":12242:12244   */\n      0x40\n        /* \"#utility.yul\":12237:12240   */\n      dup3\n        /* \"#utility.yul\":12233:12245   */\n      add\n        /* \"#utility.yul\":12226:12245   */\n      swap1\n      pop\n        /* \"#utility.yul\":11885:12251   */\n      swap2\n      swap1\n      pop\n      jump\t// out\n        /* \"#utility.yul\":12257:12676   */\n    tag_75:\n        /* \"#utility.yul\":12423:12427   */\n      0x00\n        /* \"#utility.yul\":12461:12463   */\n      0x20\n        /* \"#utility.yul\":12450:12459   */\n      dup3\n        /* \"#utility.yul\":12446:12464   */\n      add\n        /* \"#utility.yul\":12438:12464   */\n      swap1\n      pop\n        /* \"#utility.yul\":12510:12519   */\n      dup2\n        /* \"#utility.yul\":12504:12508   */\n      dup2\n        /* \"#utility.yul\":12500:12520   */\n      sub\n        /* \"#utility.yul\":12496:12497   */\n      0x00\n        /* \"#utility.yul\":12485:12494   */\n      dup4\n        /* \"#utility.yul\":12481:12498   */\n      add\n        /* \"#utility.yul\":12474:12521   */\n      mstore\n        /* \"#utility.yul\":12538:12669   */\n      tag_259\n        /* \"#utility.yul\":12664:12668   */\n      dup2\n        /* \"#utility.yul\":12538:12669   */\n      tag_125\n      jump\t// in\n    tag_259:\n        /* \"#utility.yul\":12530:12669   */\n      swap1\n      pop\n        /* \"#utility.yul\":12257:12676   */\n      swap2\n      swap1\n      pop\n      jump\t// out\n        /* \"#utility.yul\":12682:12856   */\n    tag_126:\n        /* \"#utility.yul\":12822:12848   */\n      0x596f7520617265206e6f74207468652070726f64756365720000000000000000\n        /* \"#utility.yul\":12818:12819   */\n      0x00\n        /* \"#utility.yul\":12810:12816   */\n      dup3\n        /* \"#utility.yul\":12806:12820   */\n      add\n        /* \"#utility.yul\":12799:12849   */\n      mstore\n        /* \"#utility.yul\":12682:12856   */\n      pop\n      jump\t// out\n        /* \"#utility.yul\":12862:13228   */\n    tag_127:\n        /* \"#utility.yul\":13004:13007   */\n      0x00\n        /* \"#utility.yul\":13025:13092   */\n      tag_262\n        /* \"#utility.yul\":13089:13091   */\n      0x18\n        /* \"#utility.yul\":13084:13087   */\n      dup4\n        /* \"#utility.yul\":13025:13092   */\n      tag_116\n      jump\t// in\n    tag_262:\n        /* \"#utility.yul\":13018:13092   */\n      swap2\n      pop\n        /* \"#utility.yul\":13101:13194   */\n      tag_263\n        /* \"#utility.yul\":13190:13193   */\n      dup3\n        /* \"#utility.yul\":13101:13194   */\n      tag_126\n      jump\t// in\n    tag_263:\n        /* \"#utility.yul\":13219:13221   */\n      0x20\n        /* \"#utility.yul\":13214:13217   */\n      dup3\n        /* \"#utility.yul\":13210:13222   */\n      add\n        /* \"#utility.yul\":13203:13222   */\n      swap1\n      pop\n        /* \"#utility.yul\":12862:13228   */\n      swap2\n      swap1\n      pop\n      jump\t// out\n        /* \"#utility.yul\":13234:13653   */\n    tag_78:\n        /* \"#utility.yul\":13400:13404   */\n      0x00\n        /* \"#utility.yul\":13438:13440   */\n      0x20\n        /* \"#utility.yul\":13427:13436   */\n      dup3\n        /* \"#utility.yul\":13423:13441   */\n      add\n        /* \"#utility.yul\":13415:13441   */\n      swap1\n      pop\n        /* \"#utility.yul\":13487:13496   */\n      dup2\n        /* \"#utility.yul\":13481:13485   */\n      dup2\n        /* \"#utility.yul\":13477:13497   */\n      sub\n        /* \"#utility.yul\":13473:13474   */\n      0x00\n        /* \"#utility.yul\":13462:13471   */\n      dup4\n        /* \"#utility.yul\":13458:13475   */\n      add\n        /* \"#utility.yul\":13451:13498   */\n      mstore\n        /* \"#utility.yul\":13515:13646   */\n      tag_265\n        /* \"#utility.yul\":13641:13645   */\n      dup2\n        /* \"#utility.yul\":13515:13646   */\n      tag_127\n      jump\t// in\n    tag_265:\n        /* \"#utility.yul\":13507:13646   */\n      swap1\n      pop\n        /* \"#utility.yul\":13234:13653   */\n      swap2\n      swap1\n      pop\n      jump\t// out\n        /* \"#utility.yul\":13659:13841   */\n    tag_128:\n        /* \"#utility.yul\":13799:13833   */\n      0x496e73756666696369656e74207175616e7469747920696e206465706f736974\n        /* \"#utility.yul\":13795:13796   */\n      0x00\n        /* \"#utility.yul\":13787:13793   */\n      dup3\n        /* \"#utility.yul\":13783:13797   */\n      add\n        /* \"#utility.yul\":13776:13834   */\n      mstore\n        /* \"#utility.yul\":13659:13841   */\n      pop\n      jump\t// out\n        /* \"#utility.yul\":13847:14213   */\n    tag_129:\n        /* \"#utility.yul\":13989:13992   */\n      0x00\n        /* \"#utility.yul\":14010:14077   */\n      tag_268\n        /* \"#utility.yul\":14074:14076   */\n      0x20\n        /* \"#utility.yul\":14069:14072   */\n      dup4\n        /* \"#utility.yul\":14010:14077   */\n      tag_116\n      jump\t// in\n    tag_268:\n        /* \"#utility.yul\":14003:14077   */\n      swap2\n      pop\n        /* \"#utility.yul\":14086:14179   */\n      tag_269\n        /* \"#utility.yul\":14175:14178   */\n      dup3\n        /* \"#utility.yul\":14086:14179   */\n      tag_128\n      jump\t// in\n    tag_269:\n        /* \"#utility.yul\":14204:14206   */\n      0x20\n        /* \"#utility.yul\":14199:14202   */\n      dup3\n        /* \"#utility.yul\":14195:14207   */\n      add\n        /* \"#utility.yul\":14188:14207   */\n      swap1\n      pop\n        /* \"#utility.yul\":13847:14213   */\n      swap2\n      swap1\n      pop\n      jump\t// out\n        /* \"#utility.yul\":14219:14638   */\n    tag_81:\n        /* \"#utility.yul\":14385:14389   */\n      0x00\n        /* \"#utility.yul\":14423:14425   */\n      0x20\n        /* \"#utility.yul\":14412:14421   */\n      dup3\n        /* \"#utility.yul\":14408:14426   */\n      add\n        /* \"#utility.yul\":14400:14426   */\n      swap1\n      pop\n        /* \"#utility.yul\":14472:14481   */\n      dup2\n        /* \"#utility.yul\":14466:14470   */\n      dup2\n        /* \"#utility.yul\":14462:14482   */\n      sub\n        /* \"#utility.yul\":14458:14459   */\n      0x00\n        /* \"#utility.yul\":14447:14456   */\n      dup4\n        /* \"#utility.yul\":14443:14460   */\n      add\n        /* \"#utility.yul\":14436:14483   */\n      mstore\n        /* \"#utility.yul\":14500:14631   */\n      tag_271\n        /* \"#utility.yul\":14626:14630   */\n      dup2\n        /* \"#utility.yul\":14500:14631   */\n      tag_129\n      jump\t// in\n    tag_271:\n        /* \"#utility.yul\":14492:14631   */\n      swap1\n      pop\n        /* \"#utility.yul\":14219:14638   */\n      swap2\n      swap1\n      pop\n      jump\t// out\n        /* \"#utility.yul\":14644:14838   */\n    tag_83:\n        /* \"#utility.yul\":14684:14688   */\n      0x00\n        /* \"#utility.yul\":14704:14724   */\n      tag_273\n        /* \"#utility.yul\":14722:14723   */\n      dup3\n        /* \"#utility.yul\":14704:14724   */\n      tag_97\n      jump\t// in\n    tag_273:\n        /* \"#utility.yul\":14699:14724   */\n      swap2\n      pop\n        /* \"#utility.yul\":14738:14758   */\n      tag_274\n        /* \"#utility.yul\":14756:14757   */\n      dup4\n        /* \"#utility.yul\":14738:14758   */\n      tag_97\n      jump\t// in\n    tag_274:\n        /* \"#utility.yul\":14733:14758   */\n      swap3\n      pop\n        /* \"#utility.yul\":14782:14783   */\n      dup3\n        /* \"#utility.yul\":14779:14780   */\n      dup3\n        /* \"#utility.yul\":14775:14784   */\n      sub\n        /* \"#utility.yul\":14767:14784   */\n      swap1\n      pop\n        /* \"#utility.yul\":14806:14807   */\n      dup2\n        /* \"#utility.yul\":14800:14804   */\n      dup2\n        /* \"#utility.yul\":14797:14808   */\n      gt\n        /* \"#utility.yul\":14794:14831   */\n      iszero\n      tag_275\n      jumpi\n        /* \"#utility.yul\":14811:14829   */\n      tag_276\n      tag_119\n      jump\t// in\n    tag_276:\n        /* \"#utility.yul\":14794:14831   */\n    tag_275:\n        /* \"#utility.yul\":14644:14838   */\n      swap3\n      swap2\n      pop\n      pop\n      jump\t// out\n\n    auxdata: 0xa26469706673582212203e730736cf0d6c59468fe7e4f1e243c76845b222166d6f9223b05f0190900d7564736f6c63430008120033\n}\n",
				"bytecode": {
					"linkReferences": {},
					"object": "6080604052735a86858aa3b595fd6663c2296741ef4cd8bc4d01600360006101000a81548173ffffffffffffffffffffffffffffffffffffffff021916908373ffffffffffffffffffffffffffffffffffffffff1602179055503480156200006657600080fd5b506040516200132c3803806200132c83398181016040528101906200008c919062000122565b336000806101000a81548173ffffffffffffffffffffffffffffffffffffffff021916908373ffffffffffffffffffffffffffffffffffffffff1602179055508160018190555080600281905550505062000169565b600080fd5b6000819050919050565b620000fc81620000e7565b81146200010857600080fd5b50565b6000815190506200011c81620000f1565b92915050565b600080604083850312156200013c576200013b620000e2565b5b60006200014c858286016200010b565b92505060206200015f858286016200010b565b9150509250929050565b6111b380620001796000396000f3fe60806040526004361061007b5760003560e01c80638da5cb5b1161004e5780638da5cb5b1461012e578063b489b36514610159578063bc94994a14610182578063cafdf0e2146101ad5761007b565b80632cc6a670146100805780634aba3c90146100be578063773f0b18146100da57806387b85c0514610105575b600080fd5b34801561008c57600080fd5b506100a760048036038101906100a291906109ca565b6101ea565b6040516100b5929190610a51565b60405180910390f35b6100d860048036038101906100d39190610aa6565b61022e565b005b3480156100e657600080fd5b506100ef610492565b6040516100fc9190610ae6565b60405180910390f35b34801561011157600080fd5b5061012c60048036038101906101279190610aa6565b610498565b005b34801561013a57600080fd5b5061014361075d565b6040516101509190610b01565b60405180910390f35b34801561016557600080fd5b50610180600480360381019061017b9190610b48565b610781565b005b34801561018e57600080fd5b50610197610925565b6040516101a49190610ae6565b60405180910390f35b3480156101b957600080fd5b506101d460048036038101906101cf9190610b48565b61092b565b6040516101e19190610b01565b60405180910390f35b60056020528060005260406000206000915090508060000160009054906101000a900473ffffffffffffffffffffffffffffffffffffffff16908060010154905082565b816000600360009054906101000a900473ffffffffffffffffffffffffffffffffffffffff1673ffffffffffffffffffffffffffffffffffffffff1663e5ec18c2836040518263ffffffff1660e01b815260040161028c9190610b84565b600060405180830381865afa1580156102a9573d6000803e3d6000fd5b505050506040513d6000823e3d601f19601f820116820180604052508101906102d29190610d2a565b505090503373ffffffffffffffffffffffffffffffffffffffff168173ffffffffffffffffffffffffffffffffffffffff1614610344576040517f08c379a000000000000000000000000000000000000000000000000000000000815260040161033b90610e1c565b60405180910390fd5b600154836103529190610e6b565b3414610393576040517f08c379a000000000000000000000000000000000000000000000000000000000815260040161038a90610ef9565b60405180910390fd5b6002548311156103d8576040517f08c379a00000000000000000000000000000000000000000000000000000000081526004016103cf90610f8b565b60405180910390fd5b600060056000867bffffffffffffffffffffffffffffffffffffffffffffffffffffffff19167bffffffffffffffffffffffffffffffffffffffffffffffffffffffff191681526020019081526020016000209050338160000160006101000a81548173ffffffffffffffffffffffffffffffffffffffff021916908373ffffffffffffffffffffffffffffffffffffffff160217905550838160010160008282546104849190610fab565b925050819055505050505050565b60015481565b60056000837bffffffffffffffffffffffffffffffffffffffffffffffffffffffff19167bffffffffffffffffffffffffffffffffffffffffffffffffffffffff1916815260200190815260200160002060000160009054906101000a900473ffffffffffffffffffffffffffffffffffffffff1673ffffffffffffffffffffffffffffffffffffffff163373ffffffffffffffffffffffffffffffffffffffff1614806105d057503373ffffffffffffffffffffffffffffffffffffffff16600460003373ffffffffffffffffffffffffffffffffffffffff1673ffffffffffffffffffffffffffffffffffffffff16815260200190815260200160002060009054906101000a900473ffffffffffffffffffffffffffffffffffffffff1673ffffffffffffffffffffffffffffffffffffffff16145b61060f576040517f08c379a000000000000000000000000000000000000000000000000000000000815260040161060690611051565b60405180910390fd5b600060056000847bffffffffffffffffffffffffffffffffffffffffffffffffffffffff19167bffffffffffffffffffffffffffffffffffffffffffffffffffffffff1916815260200190815260200160002090503373ffffffffffffffffffffffffffffffffffffffff168160000160009054906101000a900473ffffffffffffffffffffffffffffffffffffffff1673ffffffffffffffffffffffffffffffffffffffff16146106f6576040517f08c379a00000000000000000000000000000000000000000000000000000000081526004016106ed906110bd565b60405180910390fd5b806001015482111561073d576040517f08c379a000000000000000000000000000000000000000000000000000000000815260040161073490611129565b60405180910390fd5b818160010160008282546107519190611149565b92505081905550505050565b60008054906101000a900473ffffffffffffffffffffffffffffffffffffffff1681565b60008054906101000a900473ffffffffffffffffffffffffffffffffffffffff1673ffffffffffffffffffffffffffffffffffffffff163373ffffffffffffffffffffffffffffffffffffffff1614806108655750600460003373ffffffffffffffffffffffffffffffffffffffff1673ffffffffffffffffffffffffffffffffffffffff16815260200190815260200160002060009054906101000a900473ffffffffffffffffffffffffffffffffffffffff1673ffffffffffffffffffffffffffffffffffffffff163373ffffffffffffffffffffffffffffffffffffffff16145b6108a4576040517f08c379a000000000000000000000000000000000000000000000000000000000815260040161089b90611051565b60405180910390fd5b80600460003373ffffffffffffffffffffffffffffffffffffffff1673ffffffffffffffffffffffffffffffffffffffff16815260200190815260200160002060006101000a81548173ffffffffffffffffffffffffffffffffffffffff021916908373ffffffffffffffffffffffffffffffffffffffff16021790555050565b60025481565b60046020528060005260406000206000915054906101000a900473ffffffffffffffffffffffffffffffffffffffff1681565b6000604051905090565b600080fd5b600080fd5b60007fffffffff0000000000000000000000000000000000000000000000000000000082169050919050565b6109a781610972565b81146109b257600080fd5b50565b6000813590506109c48161099e565b92915050565b6000602082840312156109e0576109df610968565b5b60006109ee848285016109b5565b91505092915050565b600073ffffffffffffffffffffffffffffffffffffffff82169050919050565b6000610a22826109f7565b9050919050565b610a3281610a17565b82525050565b6000819050919050565b610a4b81610a38565b82525050565b6000604082019050610a666000830185610a29565b610a736020830184610a42565b9392505050565b610a8381610a38565b8114610a8e57600080fd5b50565b600081359050610aa081610a7a565b92915050565b60008060408385031215610abd57610abc610968565b5b6000610acb858286016109b5565b9250506020610adc85828601610a91565b9150509250929050565b6000602082019050610afb6000830184610a42565b92915050565b6000602082019050610b166000830184610a29565b92915050565b610b2581610a17565b8114610b3057600080fd5b50565b600081359050610b4281610b1c565b92915050565b600060208284031215610b5e57610b5d610968565b5b6000610b6c84828501610b33565b91505092915050565b610b7e81610972565b82525050565b6000602082019050610b996000830184610b75565b92915050565b600081519050610bae81610b1c565b92915050565b600080fd5b600080fd5b6000601f19601f8301169050919050565b7f4e487b7100000000000000000000000000000000000000000000000000000000600052604160045260246000fd5b610c0782610bbe565b810181811067ffffffffffffffff82111715610c2657610c25610bcf565b5b80604052505050565b6000610c3961095e565b9050610c458282610bfe565b919050565b600067ffffffffffffffff821115610c6557610c64610bcf565b5b610c6e82610bbe565b9050602081019050919050565b60005b83811015610c99578082015181840152602081019050610c7e565b60008484015250505050565b6000610cb8610cb384610c4a565b610c2f565b905082815260208101848484011115610cd457610cd3610bb9565b5b610cdf848285610c7b565b509392505050565b600082601f830112610cfc57610cfb610bb4565b5b8151610d0c848260208601610ca5565b91505092915050565b600081519050610d2481610a7a565b92915050565b600080600060608486031215610d4357610d42610968565b5b6000610d5186828701610b9f565b935050602084015167ffffffffffffffff811115610d7257610d7161096d565b5b610d7e86828701610ce7565b9250506040610d8f86828701610d15565b9150509250925092565b600082825260208201905092915050565b7f596f7520617265206e6f7420616e20617574686f72697a65642070726f64756360008201527f657220666f7220746869732070726f6475637400000000000000000000000000602082015250565b6000610e06603383610d99565b9150610e1182610daa565b604082019050919050565b60006020820190508181036000830152610e3581610df9565b9050919050565b7f4e487b7100000000000000000000000000000000000000000000000000000000600052601160045260246000fd5b6000610e7682610a38565b9150610e8183610a38565b9250828202610e8f81610a38565b91508282048414831517610ea657610ea5610e3c565b5b5092915050565b7f53746f7261676520666565206e6f7420706169642e0000000000000000000000600082015250565b6000610ee3601583610d99565b9150610eee82610ead565b602082019050919050565b60006020820190508181036000830152610f1281610ed6565b9050919050565b7f5175616e746974792065786365656473206d6178696d756d2073746f7261676560008201527f20766f6c756d6500000000000000000000000000000000000000000000000000602082015250565b6000610f75602783610d99565b9150610f8082610f19565b604082019050919050565b60006020820190508181036000830152610fa481610f68565b9050919050565b6000610fb682610a38565b9150610fc183610a38565b9250828201905080821115610fd957610fd8610e3c565b5b92915050565b7f4e6f7420617574686f72697a656420746f20706572666f726d2074686973206160008201527f6374696f6e000000000000000000000000000000000000000000000000000000602082015250565b600061103b602583610d99565b915061104682610fdf565b604082019050919050565b6000602082019050818103600083015261106a8161102e565b9050919050565b7f596f7520617265206e6f74207468652070726f64756365720000000000000000600082015250565b60006110a7601883610d99565b91506110b282611071565b602082019050919050565b600060208201905081810360008301526110d68161109a565b9050919050565b7f496e73756666696369656e74207175616e7469747920696e206465706f736974600082015250565b6000611113602083610d99565b915061111e826110dd565b602082019050919050565b6000602082019050818103600083015261114281611106565b9050919050565b600061115482610a38565b915061115f83610a38565b925082820390508181111561117757611176610e3c565b5b9291505056fea26469706673582212203e730736cf0d6c59468fe7e4f1e243c76845b222166d6f9223b05f0190900d7564736f6c63430008120033",
					"opcodes": "PUSH1 0x80 PUSH1 0x40 MSTORE PUSH20 0x5A86858AA3B595FD6663C2296741EF4CD8BC4D01 PUSH1 0x3 PUSH1 0x0 PUSH2 0x100 EXP DUP2 SLOAD DUP2 PUSH20 0xFFFFFFFFFFFFFFFFFFFFFFFFFFFFFFFFFFFFFFFF MUL NOT AND SWAP1 DUP4 PUSH20 0xFFFFFFFFFFFFFFFFFFFFFFFFFFFFFFFFFFFFFFFF AND MUL OR SWAP1 SSTORE POP CALLVALUE DUP1 ISZERO PUSH3 0x66 JUMPI PUSH1 0x0 DUP1 REVERT JUMPDEST POP PUSH1 0x40 MLOAD PUSH3 0x132C CODESIZE SUB DUP1 PUSH3 0x132C DUP4 CODECOPY DUP2 DUP2 ADD PUSH1 0x40 MSTORE DUP2 ADD SWAP1 PUSH3 0x8C SWAP2 SWAP1 PUSH3 0x122 JUMP JUMPDEST CALLER PUSH1 0x0 DUP1 PUSH2 0x100 EXP DUP2 SLOAD DUP2 PUSH20 0xFFFFFFFFFFFFFFFFFFFFFFFFFFFFFFFFFFFFFFFF MUL NOT AND SWAP1 DUP4 PUSH20 0xFFFFFFFFFFFFFFFFFFFFFFFFFFFFFFFFFFFFFFFF AND MUL OR SWAP1 SSTORE POP DUP2 PUSH1 0x1 DUP2 SWAP1 SSTORE POP DUP1 PUSH1 0x2 DUP2 SWAP1 SSTORE POP POP POP PUSH3 0x169 JUMP JUMPDEST PUSH1 0x0 DUP1 REVERT JUMPDEST PUSH1 0x0 DUP2 SWAP1 POP SWAP2 SWAP1 POP JUMP JUMPDEST PUSH3 0xFC DUP2 PUSH3 0xE7 JUMP JUMPDEST DUP2 EQ PUSH3 0x108 JUMPI PUSH1 0x0 DUP1 REVERT JUMPDEST POP JUMP JUMPDEST PUSH1 0x0 DUP2 MLOAD SWAP1 POP PUSH3 0x11C DUP2 PUSH3 0xF1 JUMP JUMPDEST SWAP3 SWAP2 POP POP JUMP JUMPDEST PUSH1 0x0 DUP1 PUSH1 0x40 DUP4 DUP6 SUB SLT ISZERO PUSH3 0x13C JUMPI PUSH3 0x13B PUSH3 0xE2 JUMP JUMPDEST JUMPDEST PUSH1 0x0 PUSH3 0x14C DUP6 DUP3 DUP7 ADD PUSH3 0x10B JUMP JUMPDEST SWAP3 POP POP PUSH1 0x20 PUSH3 0x15F DUP6 DUP3 DUP7 ADD PUSH3 0x10B JUMP JUMPDEST SWAP2 POP POP SWAP3 POP SWAP3 SWAP1 POP JUMP JUMPDEST PUSH2 0x11B3 DUP1 PUSH3 0x179 PUSH1 0x0 CODECOPY PUSH1 0x0 RETURN INVALID PUSH1 0x80 PUSH1 0x40 MSTORE PUSH1 0x4 CALLDATASIZE LT PUSH2 0x7B JUMPI PUSH1 0x0 CALLDATALOAD PUSH1 0xE0 SHR DUP1 PUSH4 0x8DA5CB5B GT PUSH2 0x4E JUMPI DUP1 PUSH4 0x8DA5CB5B EQ PUSH2 0x12E JUMPI DUP1 PUSH4 0xB489B365 EQ PUSH2 0x159 JUMPI DUP1 PUSH4 0xBC94994A EQ PUSH2 0x182 JUMPI DUP1 PUSH4 0xCAFDF0E2 EQ PUSH2 0x1AD JUMPI PUSH2 0x7B JUMP JUMPDEST DUP1 PUSH4 0x2CC6A670 EQ PUSH2 0x80 JUMPI DUP1 PUSH4 0x4ABA3C90 EQ PUSH2 0xBE JUMPI DUP1 PUSH4 0x773F0B18 EQ PUSH2 0xDA JUMPI DUP1 PUSH4 0x87B85C05 EQ PUSH2 0x105 JUMPI JUMPDEST PUSH1 0x0 DUP1 REVERT JUMPDEST CALLVALUE DUP1 ISZERO PUSH2 0x8C JUMPI PUSH1 0x0 DUP1 REVERT JUMPDEST POP PUSH2 0xA7 PUSH1 0x4 DUP1 CALLDATASIZE SUB DUP2 ADD SWAP1 PUSH2 0xA2 SWAP2 SWAP1 PUSH2 0x9CA JUMP JUMPDEST PUSH2 0x1EA JUMP JUMPDEST PUSH1 0x40 MLOAD PUSH2 0xB5 SWAP3 SWAP2 SWAP1 PUSH2 0xA51 JUMP JUMPDEST PUSH1 0x40 MLOAD DUP1 SWAP2 SUB SWAP1 RETURN JUMPDEST PUSH2 0xD8 PUSH1 0x4 DUP1 CALLDATASIZE SUB DUP2 ADD SWAP1 PUSH2 0xD3 SWAP2 SWAP1 PUSH2 0xAA6 JUMP JUMPDEST PUSH2 0x22E JUMP JUMPDEST STOP JUMPDEST CALLVALUE DUP1 ISZERO PUSH2 0xE6 JUMPI PUSH1 0x0 DUP1 REVERT JUMPDEST POP PUSH2 0xEF PUSH2 0x492 JUMP JUMPDEST PUSH1 0x40 MLOAD PUSH2 0xFC SWAP2 SWAP1 PUSH2 0xAE6 JUMP JUMPDEST PUSH1 0x40 MLOAD DUP1 SWAP2 SUB SWAP1 RETURN JUMPDEST CALLVALUE DUP1 ISZERO PUSH2 0x111 JUMPI PUSH1 0x0 DUP1 REVERT JUMPDEST POP PUSH2 0x12C PUSH1 0x4 DUP1 CALLDATASIZE SUB DUP2 ADD SWAP1 PUSH2 0x127 SWAP2 SWAP1 PUSH2 0xAA6 JUMP JUMPDEST PUSH2 0x498 JUMP JUMPDEST STOP JUMPDEST CALLVALUE DUP1 ISZERO PUSH2 0x13A JUMPI PUSH1 0x0 DUP1 REVERT JUMPDEST POP PUSH2 0x143 PUSH2 0x75D JUMP JUMPDEST PUSH1 0x40 MLOAD PUSH2 0x150 SWAP2 SWAP1 PUSH2 0xB01 JUMP JUMPDEST PUSH1 0x40 MLOAD DUP1 SWAP2 SUB SWAP1 RETURN JUMPDEST CALLVALUE DUP1 ISZERO PUSH2 0x165 JUMPI PUSH1 0x0 DUP1 REVERT JUMPDEST POP PUSH2 0x180 PUSH1 0x4 DUP1 CALLDATASIZE SUB DUP2 ADD SWAP1 PUSH2 0x17B SWAP2 SWAP1 PUSH2 0xB48 JUMP JUMPDEST PUSH2 0x781 JUMP JUMPDEST STOP JUMPDEST CALLVALUE DUP1 ISZERO PUSH2 0x18E JUMPI PUSH1 0x0 DUP1 REVERT JUMPDEST POP PUSH2 0x197 PUSH2 0x925 JUMP JUMPDEST PUSH1 0x40 MLOAD PUSH2 0x1A4 SWAP2 SWAP1 PUSH2 0xAE6 JUMP JUMPDEST PUSH1 0x40 MLOAD DUP1 SWAP2 SUB SWAP1 RETURN JUMPDEST CALLVALUE DUP1 ISZERO PUSH2 0x1B9 JUMPI PUSH1 0x0 DUP1 REVERT JUMPDEST POP PUSH2 0x1D4 PUSH1 0x4 DUP1 CALLDATASIZE SUB DUP2 ADD SWAP1 PUSH2 0x1CF SWAP2 SWAP1 PUSH2 0xB48 JUMP JUMPDEST PUSH2 0x92B JUMP JUMPDEST PUSH1 0x40 MLOAD PUSH2 0x1E1 SWAP2 SWAP1 PUSH2 0xB01 JUMP JUMPDEST PUSH1 0x40 MLOAD DUP1 SWAP2 SUB SWAP1 RETURN JUMPDEST PUSH1 0x5 PUSH1 0x20 MSTORE DUP1 PUSH1 0x0 MSTORE PUSH1 0x40 PUSH1 0x0 KECCAK256 PUSH1 0x0 SWAP2 POP SWAP1 POP DUP1 PUSH1 0x0 ADD PUSH1 0x0 SWAP1 SLOAD SWAP1 PUSH2 0x100 EXP SWAP1 DIV PUSH20 0xFFFFFFFFFFFFFFFFFFFFFFFFFFFFFFFFFFFFFFFF AND SWAP1 DUP1 PUSH1 0x1 ADD SLOAD SWAP1 POP DUP3 JUMP JUMPDEST DUP2 PUSH1 0x0 PUSH1 0x3 PUSH1 0x0 SWAP1 SLOAD SWAP1 PUSH2 0x100 EXP SWAP1 DIV PUSH20 0xFFFFFFFFFFFFFFFFFFFFFFFFFFFFFFFFFFFFFFFF AND PUSH20 0xFFFFFFFFFFFFFFFFFFFFFFFFFFFFFFFFFFFFFFFF AND PUSH4 0xE5EC18C2 DUP4 PUSH1 0x40 MLOAD DUP3 PUSH4 0xFFFFFFFF AND PUSH1 0xE0 SHL DUP2 MSTORE PUSH1 0x4 ADD PUSH2 0x28C SWAP2 SWAP1 PUSH2 0xB84 JUMP JUMPDEST PUSH1 0x0 PUSH1 0x40 MLOAD DUP1 DUP4 SUB DUP2 DUP7 GAS STATICCALL ISZERO DUP1 ISZERO PUSH2 0x2A9 JUMPI RETURNDATASIZE PUSH1 0x0 DUP1 RETURNDATACOPY RETURNDATASIZE PUSH1 0x0 REVERT JUMPDEST POP POP POP POP PUSH1 0x40 MLOAD RETURNDATASIZE PUSH1 0x0 DUP3 RETURNDATACOPY RETURNDATASIZE PUSH1 0x1F NOT PUSH1 0x1F DUP3 ADD AND DUP3 ADD DUP1 PUSH1 0x40 MSTORE POP DUP2 ADD SWAP1 PUSH2 0x2D2 SWAP2 SWAP1 PUSH2 0xD2A JUMP JUMPDEST POP POP SWAP1 POP CALLER PUSH20 0xFFFFFFFFFFFFFFFFFFFFFFFFFFFFFFFFFFFFFFFF AND DUP2 PUSH20 0xFFFFFFFFFFFFFFFFFFFFFFFFFFFFFFFFFFFFFFFF AND EQ PUSH2 0x344 JUMPI PUSH1 0x40 MLOAD PUSH32 0x8C379A000000000000000000000000000000000000000000000000000000000 DUP2 MSTORE PUSH1 0x4 ADD PUSH2 0x33B SWAP1 PUSH2 0xE1C JUMP JUMPDEST PUSH1 0x40 MLOAD DUP1 SWAP2 SUB SWAP1 REVERT JUMPDEST PUSH1 0x1 SLOAD DUP4 PUSH2 0x352 SWAP2 SWAP1 PUSH2 0xE6B JUMP JUMPDEST CALLVALUE EQ PUSH2 0x393 JUMPI PUSH1 0x40 MLOAD PUSH32 0x8C379A000000000000000000000000000000000000000000000000000000000 DUP2 MSTORE PUSH1 0x4 ADD PUSH2 0x38A SWAP1 PUSH2 0xEF9 JUMP JUMPDEST PUSH1 0x40 MLOAD DUP1 SWAP2 SUB SWAP1 REVERT JUMPDEST PUSH1 0x2 SLOAD DUP4 GT ISZERO PUSH2 0x3D8 JUMPI PUSH1 0x40 MLOAD PUSH32 0x8C379A000000000000000000000000000000000000000000000000000000000 DUP2 MSTORE PUSH1 0x4 ADD PUSH2 0x3CF SWAP1 PUSH2 0xF8B JUMP JUMPDEST PUSH1 0x40 MLOAD DUP1 SWAP2 SUB SWAP1 REVERT JUMPDEST PUSH1 0x0 PUSH1 0x5 PUSH1 0x0 DUP7 PUSH28 0xFFFFFFFFFFFFFFFFFFFFFFFFFFFFFFFFFFFFFFFFFFFFFFFFFFFFFFFF NOT AND PUSH28 0xFFFFFFFFFFFFFFFFFFFFFFFFFFFFFFFFFFFFFFFFFFFFFFFFFFFFFFFF NOT AND DUP2 MSTORE PUSH1 0x20 ADD SWAP1 DUP2 MSTORE PUSH1 0x20 ADD PUSH1 0x0 KECCAK256 SWAP1 POP CALLER DUP2 PUSH1 0x0 ADD PUSH1 0x0 PUSH2 0x100 EXP DUP2 SLOAD DUP2 PUSH20 0xFFFFFFFFFFFFFFFFFFFFFFFFFFFFFFFFFFFFFFFF MUL NOT AND SWAP1 DUP4 PUSH20 0xFFFFFFFFFFFFFFFFFFFFFFFFFFFFFFFFFFFFFFFF AND MUL OR SWAP1 SSTORE POP DUP4 DUP2 PUSH1 0x1 ADD PUSH1 0x0 DUP3 DUP3 SLOAD PUSH2 0x484 SWAP2 SWAP1 PUSH2 0xFAB JUMP JUMPDEST SWAP3 POP POP DUP2 SWAP1 SSTORE POP POP POP POP POP POP JUMP JUMPDEST PUSH1 0x1 SLOAD DUP2 JUMP JUMPDEST PUSH1 0x5 PUSH1 0x0 DUP4 PUSH28 0xFFFFFFFFFFFFFFFFFFFFFFFFFFFFFFFFFFFFFFFFFFFFFFFFFFFFFFFF NOT AND PUSH28 0xFFFFFFFFFFFFFFFFFFFFFFFFFFFFFFFFFFFFFFFFFFFFFFFFFFFFFFFF NOT AND DUP2 MSTORE PUSH1 0x20 ADD SWAP1 DUP2 MSTORE PUSH1 0x20 ADD PUSH1 0x0 KECCAK256 PUSH1 0x0 ADD PUSH1 0x0 SWAP1 SLOAD SWAP1 PUSH2 0x100 EXP SWAP1 DIV PUSH20 0xFFFFFFFFFFFFFFFFFFFFFFFFFFFFFFFFFFFFFFFF AND PUSH20 0xFFFFFFFFFFFFFFFFFFFFFFFFFFFFFFFFFFFFFFFF AND CALLER PUSH20 0xFFFFFFFFFFFFFFFFFFFFFFFFFFFFFFFFFFFFFFFF AND EQ DUP1 PUSH2 0x5D0 JUMPI POP CALLER PUSH20 0xFFFFFFFFFFFFFFFFFFFFFFFFFFFFFFFFFFFFFFFF AND PUSH1 0x4 PUSH1 0x0 CALLER PUSH20 0xFFFFFFFFFFFFFFFFFFFFFFFFFFFFFFFFFFFFFFFF AND PUSH20 0xFFFFFFFFFFFFFFFFFFFFFFFFFFFFFFFFFFFFFFFF AND DUP2 MSTORE PUSH1 0x20 ADD SWAP1 DUP2 MSTORE PUSH1 0x20 ADD PUSH1 0x0 KECCAK256 PUSH1 0x0 SWAP1 SLOAD SWAP1 PUSH2 0x100 EXP SWAP1 DIV PUSH20 0xFFFFFFFFFFFFFFFFFFFFFFFFFFFFFFFFFFFFFFFF AND PUSH20 0xFFFFFFFFFFFFFFFFFFFFFFFFFFFFFFFFFFFFFFFF AND EQ JUMPDEST PUSH2 0x60F JUMPI PUSH1 0x40 MLOAD PUSH32 0x8C379A000000000000000000000000000000000000000000000000000000000 DUP2 MSTORE PUSH1 0x4 ADD PUSH2 0x606 SWAP1 PUSH2 0x1051 JUMP JUMPDEST PUSH1 0x40 MLOAD DUP1 SWAP2 SUB SWAP1 REVERT JUMPDEST PUSH1 0x0 PUSH1 0x5 PUSH1 0x0 DUP5 PUSH28 0xFFFFFFFFFFFFFFFFFFFFFFFFFFFFFFFFFFFFFFFFFFFFFFFFFFFFFFFF NOT AND PUSH28 0xFFFFFFFFFFFFFFFFFFFFFFFFFFFFFFFFFFFFFFFFFFFFFFFFFFFFFFFF NOT AND DUP2 MSTORE PUSH1 0x20 ADD SWAP1 DUP2 MSTORE PUSH1 0x20 ADD PUSH1 0x0 KECCAK256 SWAP1 POP CALLER PUSH20 0xFFFFFFFFFFFFFFFFFFFFFFFFFFFFFFFFFFFFFFFF AND DUP2 PUSH1 0x0 ADD PUSH1 0x0 SWAP1 SLOAD SWAP1 PUSH2 0x100 EXP SWAP1 DIV PUSH20 0xFFFFFFFFFFFFFFFFFFFFFFFFFFFFFFFFFFFFFFFF AND PUSH20 0xFFFFFFFFFFFFFFFFFFFFFFFFFFFFFFFFFFFFFFFF AND EQ PUSH2 0x6F6 JUMPI PUSH1 0x40 MLOAD PUSH32 0x8C379A000000000000000000000000000000000000000000000000000000000 DUP2 MSTORE PUSH1 0x4 ADD PUSH2 0x6ED SWAP1 PUSH2 0x10BD JUMP JUMPDEST PUSH1 0x40 MLOAD DUP1 SWAP2 SUB SWAP1 REVERT JUMPDEST DUP1 PUSH1 0x1 ADD SLOAD DUP3 GT ISZERO PUSH2 0x73D JUMPI PUSH1 0x40 MLOAD PUSH32 0x8C379A000000000000000000000000000000000000000000000000000000000 DUP2 MSTORE PUSH1 0x4 ADD PUSH2 0x734 SWAP1 PUSH2 0x1129 JUMP JUMPDEST PUSH1 0x40 MLOAD DUP1 SWAP2 SUB SWAP1 REVERT JUMPDEST DUP2 DUP2 PUSH1 0x1 ADD PUSH1 0x0 DUP3 DUP3 SLOAD PUSH2 0x751 SWAP2 SWAP1 PUSH2 0x1149 JUMP JUMPDEST SWAP3 POP POP DUP2 SWAP1 SSTORE POP POP POP POP JUMP JUMPDEST PUSH1 0x0 DUP1 SLOAD SWAP1 PUSH2 0x100 EXP SWAP1 DIV PUSH20 0xFFFFFFFFFFFFFFFFFFFFFFFFFFFFFFFFFFFFFFFF AND DUP2 JUMP JUMPDEST PUSH1 0x0 DUP1 SLOAD SWAP1 PUSH2 0x100 EXP SWAP1 DIV PUSH20 0xFFFFFFFFFFFFFFFFFFFFFFFFFFFFFFFFFFFFFFFF AND PUSH20 0xFFFFFFFFFFFFFFFFFFFFFFFFFFFFFFFFFFFFFFFF AND CALLER PUSH20 0xFFFFFFFFFFFFFFFFFFFFFFFFFFFFFFFFFFFFFFFF AND EQ DUP1 PUSH2 0x865 JUMPI POP PUSH1 0x4 PUSH1 0x0 CALLER PUSH20 0xFFFFFFFFFFFFFFFFFFFFFFFFFFFFFFFFFFFFFFFF AND PUSH20 0xFFFFFFFFFFFFFFFFFFFFFFFFFFFFFFFFFFFFFFFF AND DUP2 MSTORE PUSH1 0x20 ADD SWAP1 DUP2 MSTORE PUSH1 0x20 ADD PUSH1 0x0 KECCAK256 PUSH1 0x0 SWAP1 SLOAD SWAP1 PUSH2 0x100 EXP SWAP1 DIV PUSH20 0xFFFFFFFFFFFFFFFFFFFFFFFFFFFFFFFFFFFFFFFF AND PUSH20 0xFFFFFFFFFFFFFFFFFFFFFFFFFFFFFFFFFFFFFFFF AND CALLER PUSH20 0xFFFFFFFFFFFFFFFFFFFFFFFFFFFFFFFFFFFFFFFF AND EQ JUMPDEST PUSH2 0x8A4 JUMPI PUSH1 0x40 MLOAD PUSH32 0x8C379A000000000000000000000000000000000000000000000000000000000 DUP2 MSTORE PUSH1 0x4 ADD PUSH2 0x89B SWAP1 PUSH2 0x1051 JUMP JUMPDEST PUSH1 0x40 MLOAD DUP1 SWAP2 SUB SWAP1 REVERT JUMPDEST DUP1 PUSH1 0x4 PUSH1 0x0 CALLER PUSH20 0xFFFFFFFFFFFFFFFFFFFFFFFFFFFFFFFFFFFFFFFF AND PUSH20 0xFFFFFFFFFFFFFFFFFFFFFFFFFFFFFFFFFFFFFFFF AND DUP2 MSTORE PUSH1 0x20 ADD SWAP1 DUP2 MSTORE PUSH1 0x20 ADD PUSH1 0x0 KECCAK256 PUSH1 0x0 PUSH2 0x100 EXP DUP2 SLOAD DUP2 PUSH20 0xFFFFFFFFFFFFFFFFFFFFFFFFFFFFFFFFFFFFFFFF MUL NOT AND SWAP1 DUP4 PUSH20 0xFFFFFFFFFFFFFFFFFFFFFFFFFFFFFFFFFFFFFFFF AND MUL OR SWAP1 SSTORE POP POP JUMP JUMPDEST PUSH1 0x2 SLOAD DUP2 JUMP JUMPDEST PUSH1 0x4 PUSH1 0x20 MSTORE DUP1 PUSH1 0x0 MSTORE PUSH1 0x40 PUSH1 0x0 KECCAK256 PUSH1 0x0 SWAP2 POP SLOAD SWAP1 PUSH2 0x100 EXP SWAP1 DIV PUSH20 0xFFFFFFFFFFFFFFFFFFFFFFFFFFFFFFFFFFFFFFFF AND DUP2 JUMP JUMPDEST PUSH1 0x0 PUSH1 0x40 MLOAD SWAP1 POP SWAP1 JUMP JUMPDEST PUSH1 0x0 DUP1 REVERT JUMPDEST PUSH1 0x0 DUP1 REVERT JUMPDEST PUSH1 0x0 PUSH32 0xFFFFFFFF00000000000000000000000000000000000000000000000000000000 DUP3 AND SWAP1 POP SWAP2 SWAP1 POP JUMP JUMPDEST PUSH2 0x9A7 DUP2 PUSH2 0x972 JUMP JUMPDEST DUP2 EQ PUSH2 0x9B2 JUMPI PUSH1 0x0 DUP1 REVERT JUMPDEST POP JUMP JUMPDEST PUSH1 0x0 DUP2 CALLDATALOAD SWAP1 POP PUSH2 0x9C4 DUP2 PUSH2 0x99E JUMP JUMPDEST SWAP3 SWAP2 POP POP JUMP JUMPDEST PUSH1 0x0 PUSH1 0x20 DUP3 DUP5 SUB SLT ISZERO PUSH2 0x9E0 JUMPI PUSH2 0x9DF PUSH2 0x968 JUMP JUMPDEST JUMPDEST PUSH1 0x0 PUSH2 0x9EE DUP5 DUP3 DUP6 ADD PUSH2 0x9B5 JUMP JUMPDEST SWAP2 POP POP SWAP3 SWAP2 POP POP JUMP JUMPDEST PUSH1 0x0 PUSH20 0xFFFFFFFFFFFFFFFFFFFFFFFFFFFFFFFFFFFFFFFF DUP3 AND SWAP1 POP SWAP2 SWAP1 POP JUMP JUMPDEST PUSH1 0x0 PUSH2 0xA22 DUP3 PUSH2 0x9F7 JUMP JUMPDEST SWAP1 POP SWAP2 SWAP1 POP JUMP JUMPDEST PUSH2 0xA32 DUP2 PUSH2 0xA17 JUMP JUMPDEST DUP3 MSTORE POP POP JUMP JUMPDEST PUSH1 0x0 DUP2 SWAP1 POP SWAP2 SWAP1 POP JUMP JUMPDEST PUSH2 0xA4B DUP2 PUSH2 0xA38 JUMP JUMPDEST DUP3 MSTORE POP POP JUMP JUMPDEST PUSH1 0x0 PUSH1 0x40 DUP3 ADD SWAP1 POP PUSH2 0xA66 PUSH1 0x0 DUP4 ADD DUP6 PUSH2 0xA29 JUMP JUMPDEST PUSH2 0xA73 PUSH1 0x20 DUP4 ADD DUP5 PUSH2 0xA42 JUMP JUMPDEST SWAP4 SWAP3 POP POP POP JUMP JUMPDEST PUSH2 0xA83 DUP2 PUSH2 0xA38 JUMP JUMPDEST DUP2 EQ PUSH2 0xA8E JUMPI PUSH1 0x0 DUP1 REVERT JUMPDEST POP JUMP JUMPDEST PUSH1 0x0 DUP2 CALLDATALOAD SWAP1 POP PUSH2 0xAA0 DUP2 PUSH2 0xA7A JUMP JUMPDEST SWAP3 SWAP2 POP POP JUMP JUMPDEST PUSH1 0x0 DUP1 PUSH1 0x40 DUP4 DUP6 SUB SLT ISZERO PUSH2 0xABD JUMPI PUSH2 0xABC PUSH2 0x968 JUMP JUMPDEST JUMPDEST PUSH1 0x0 PUSH2 0xACB DUP6 DUP3 DUP7 ADD PUSH2 0x9B5 JUMP JUMPDEST SWAP3 POP POP PUSH1 0x20 PUSH2 0xADC DUP6 DUP3 DUP7 ADD PUSH2 0xA91 JUMP JUMPDEST SWAP2 POP POP SWAP3 POP SWAP3 SWAP1 POP JUMP JUMPDEST PUSH1 0x0 PUSH1 0x20 DUP3 ADD SWAP1 POP PUSH2 0xAFB PUSH1 0x0 DUP4 ADD DUP5 PUSH2 0xA42 JUMP JUMPDEST SWAP3 SWAP2 POP POP JUMP JUMPDEST PUSH1 0x0 PUSH1 0x20 DUP3 ADD SWAP1 POP PUSH2 0xB16 PUSH1 0x0 DUP4 ADD DUP5 PUSH2 0xA29 JUMP JUMPDEST SWAP3 SWAP2 POP POP JUMP JUMPDEST PUSH2 0xB25 DUP2 PUSH2 0xA17 JUMP JUMPDEST DUP2 EQ PUSH2 0xB30 JUMPI PUSH1 0x0 DUP1 REVERT JUMPDEST POP JUMP JUMPDEST PUSH1 0x0 DUP2 CALLDATALOAD SWAP1 POP PUSH2 0xB42 DUP2 PUSH2 0xB1C JUMP JUMPDEST SWAP3 SWAP2 POP POP JUMP JUMPDEST PUSH1 0x0 PUSH1 0x20 DUP3 DUP5 SUB SLT ISZERO PUSH2 0xB5E JUMPI PUSH2 0xB5D PUSH2 0x968 JUMP JUMPDEST JUMPDEST PUSH1 0x0 PUSH2 0xB6C DUP5 DUP3 DUP6 ADD PUSH2 0xB33 JUMP JUMPDEST SWAP2 POP POP SWAP3 SWAP2 POP POP JUMP JUMPDEST PUSH2 0xB7E DUP2 PUSH2 0x972 JUMP JUMPDEST DUP3 MSTORE POP POP JUMP JUMPDEST PUSH1 0x0 PUSH1 0x20 DUP3 ADD SWAP1 POP PUSH2 0xB99 PUSH1 0x0 DUP4 ADD DUP5 PUSH2 0xB75 JUMP JUMPDEST SWAP3 SWAP2 POP POP JUMP JUMPDEST PUSH1 0x0 DUP2 MLOAD SWAP1 POP PUSH2 0xBAE DUP2 PUSH2 0xB1C JUMP JUMPDEST SWAP3 SWAP2 POP POP JUMP JUMPDEST PUSH1 0x0 DUP1 REVERT JUMPDEST PUSH1 0x0 DUP1 REVERT JUMPDEST PUSH1 0x0 PUSH1 0x1F NOT PUSH1 0x1F DUP4 ADD AND SWAP1 POP SWAP2 SWAP1 POP JUMP JUMPDEST PUSH32 0x4E487B7100000000000000000000000000000000000000000000000000000000 PUSH1 0x0 MSTORE PUSH1 0x41 PUSH1 0x4 MSTORE PUSH1 0x24 PUSH1 0x0 REVERT JUMPDEST PUSH2 0xC07 DUP3 PUSH2 0xBBE JUMP JUMPDEST DUP2 ADD DUP2 DUP2 LT PUSH8 0xFFFFFFFFFFFFFFFF DUP3 GT OR ISZERO PUSH2 0xC26 JUMPI PUSH2 0xC25 PUSH2 0xBCF JUMP JUMPDEST JUMPDEST DUP1 PUSH1 0x40 MSTORE POP POP POP JUMP JUMPDEST PUSH1 0x0 PUSH2 0xC39 PUSH2 0x95E JUMP JUMPDEST SWAP1 POP PUSH2 0xC45 DUP3 DUP3 PUSH2 0xBFE JUMP JUMPDEST SWAP2 SWAP1 POP JUMP JUMPDEST PUSH1 0x0 PUSH8 0xFFFFFFFFFFFFFFFF DUP3 GT ISZERO PUSH2 0xC65 JUMPI PUSH2 0xC64 PUSH2 0xBCF JUMP JUMPDEST JUMPDEST PUSH2 0xC6E DUP3 PUSH2 0xBBE JUMP JUMPDEST SWAP1 POP PUSH1 0x20 DUP2 ADD SWAP1 POP SWAP2 SWAP1 POP JUMP JUMPDEST PUSH1 0x0 JUMPDEST DUP4 DUP2 LT ISZERO PUSH2 0xC99 JUMPI DUP1 DUP3 ADD MLOAD DUP2 DUP5 ADD MSTORE PUSH1 0x20 DUP2 ADD SWAP1 POP PUSH2 0xC7E JUMP JUMPDEST PUSH1 0x0 DUP5 DUP5 ADD MSTORE POP POP POP POP JUMP JUMPDEST PUSH1 0x0 PUSH2 0xCB8 PUSH2 0xCB3 DUP5 PUSH2 0xC4A JUMP JUMPDEST PUSH2 0xC2F JUMP JUMPDEST SWAP1 POP DUP3 DUP2 MSTORE PUSH1 0x20 DUP2 ADD DUP5 DUP5 DUP5 ADD GT ISZERO PUSH2 0xCD4 JUMPI PUSH2 0xCD3 PUSH2 0xBB9 JUMP JUMPDEST JUMPDEST PUSH2 0xCDF DUP5 DUP3 DUP6 PUSH2 0xC7B JUMP JUMPDEST POP SWAP4 SWAP3 POP POP POP JUMP JUMPDEST PUSH1 0x0 DUP3 PUSH1 0x1F DUP4 ADD SLT PUSH2 0xCFC JUMPI PUSH2 0xCFB PUSH2 0xBB4 JUMP JUMPDEST JUMPDEST DUP2 MLOAD PUSH2 0xD0C DUP5 DUP3 PUSH1 0x20 DUP7 ADD PUSH2 0xCA5 JUMP JUMPDEST SWAP2 POP POP SWAP3 SWAP2 POP POP JUMP JUMPDEST PUSH1 0x0 DUP2 MLOAD SWAP1 POP PUSH2 0xD24 DUP2 PUSH2 0xA7A JUMP JUMPDEST SWAP3 SWAP2 POP POP JUMP JUMPDEST PUSH1 0x0 DUP1 PUSH1 0x0 PUSH1 0x60 DUP5 DUP7 SUB SLT ISZERO PUSH2 0xD43 JUMPI PUSH2 0xD42 PUSH2 0x968 JUMP JUMPDEST JUMPDEST PUSH1 0x0 PUSH2 0xD51 DUP7 DUP3 DUP8 ADD PUSH2 0xB9F JUMP JUMPDEST SWAP4 POP POP PUSH1 0x20 DUP5 ADD MLOAD PUSH8 0xFFFFFFFFFFFFFFFF DUP2 GT ISZERO PUSH2 0xD72 JUMPI PUSH2 0xD71 PUSH2 0x96D JUMP JUMPDEST JUMPDEST PUSH2 0xD7E DUP7 DUP3 DUP8 ADD PUSH2 0xCE7 JUMP JUMPDEST SWAP3 POP POP PUSH1 0x40 PUSH2 0xD8F DUP7 DUP3 DUP8 ADD PUSH2 0xD15 JUMP JUMPDEST SWAP2 POP POP SWAP3 POP SWAP3 POP SWAP3 JUMP JUMPDEST PUSH1 0x0 DUP3 DUP3 MSTORE PUSH1 0x20 DUP3 ADD SWAP1 POP SWAP3 SWAP2 POP POP JUMP JUMPDEST PUSH32 0x596F7520617265206E6F7420616E20617574686F72697A65642070726F647563 PUSH1 0x0 DUP3 ADD MSTORE PUSH32 0x657220666F7220746869732070726F6475637400000000000000000000000000 PUSH1 0x20 DUP3 ADD MSTORE POP JUMP JUMPDEST PUSH1 0x0 PUSH2 0xE06 PUSH1 0x33 DUP4 PUSH2 0xD99 JUMP JUMPDEST SWAP2 POP PUSH2 0xE11 DUP3 PUSH2 0xDAA JUMP JUMPDEST PUSH1 0x40 DUP3 ADD SWAP1 POP SWAP2 SWAP1 POP JUMP JUMPDEST PUSH1 0x0 PUSH1 0x20 DUP3 ADD SWAP1 POP DUP2 DUP2 SUB PUSH1 0x0 DUP4 ADD MSTORE PUSH2 0xE35 DUP2 PUSH2 0xDF9 JUMP JUMPDEST SWAP1 POP SWAP2 SWAP1 POP JUMP JUMPDEST PUSH32 0x4E487B7100000000000000000000000000000000000000000000000000000000 PUSH1 0x0 MSTORE PUSH1 0x11 PUSH1 0x4 MSTORE PUSH1 0x24 PUSH1 0x0 REVERT JUMPDEST PUSH1 0x0 PUSH2 0xE76 DUP3 PUSH2 0xA38 JUMP JUMPDEST SWAP2 POP PUSH2 0xE81 DUP4 PUSH2 0xA38 JUMP JUMPDEST SWAP3 POP DUP3 DUP3 MUL PUSH2 0xE8F DUP2 PUSH2 0xA38 JUMP JUMPDEST SWAP2 POP DUP3 DUP3 DIV DUP5 EQ DUP4 ISZERO OR PUSH2 0xEA6 JUMPI PUSH2 0xEA5 PUSH2 0xE3C JUMP JUMPDEST JUMPDEST POP SWAP3 SWAP2 POP POP JUMP JUMPDEST PUSH32 0x53746F7261676520666565206E6F7420706169642E0000000000000000000000 PUSH1 0x0 DUP3 ADD MSTORE POP JUMP JUMPDEST PUSH1 0x0 PUSH2 0xEE3 PUSH1 0x15 DUP4 PUSH2 0xD99 JUMP JUMPDEST SWAP2 POP PUSH2 0xEEE DUP3 PUSH2 0xEAD JUMP JUMPDEST PUSH1 0x20 DUP3 ADD SWAP1 POP SWAP2 SWAP1 POP JUMP JUMPDEST PUSH1 0x0 PUSH1 0x20 DUP3 ADD SWAP1 POP DUP2 DUP2 SUB PUSH1 0x0 DUP4 ADD MSTORE PUSH2 0xF12 DUP2 PUSH2 0xED6 JUMP JUMPDEST SWAP1 POP SWAP2 SWAP1 POP JUMP JUMPDEST PUSH32 0x5175616E746974792065786365656473206D6178696D756D2073746F72616765 PUSH1 0x0 DUP3 ADD MSTORE PUSH32 0x20766F6C756D6500000000000000000000000000000000000000000000000000 PUSH1 0x20 DUP3 ADD MSTORE POP JUMP JUMPDEST PUSH1 0x0 PUSH2 0xF75 PUSH1 0x27 DUP4 PUSH2 0xD99 JUMP JUMPDEST SWAP2 POP PUSH2 0xF80 DUP3 PUSH2 0xF19 JUMP JUMPDEST PUSH1 0x40 DUP3 ADD SWAP1 POP SWAP2 SWAP1 POP JUMP JUMPDEST PUSH1 0x0 PUSH1 0x20 DUP3 ADD SWAP1 POP DUP2 DUP2 SUB PUSH1 0x0 DUP4 ADD MSTORE PUSH2 0xFA4 DUP2 PUSH2 0xF68 JUMP JUMPDEST SWAP1 POP SWAP2 SWAP1 POP JUMP JUMPDEST PUSH1 0x0 PUSH2 0xFB6 DUP3 PUSH2 0xA38 JUMP JUMPDEST SWAP2 POP PUSH2 0xFC1 DUP4 PUSH2 0xA38 JUMP JUMPDEST SWAP3 POP DUP3 DUP3 ADD SWAP1 POP DUP1 DUP3 GT ISZERO PUSH2 0xFD9 JUMPI PUSH2 0xFD8 PUSH2 0xE3C JUMP JUMPDEST JUMPDEST SWAP3 SWAP2 POP POP JUMP JUMPDEST PUSH32 0x4E6F7420617574686F72697A656420746F20706572666F726D20746869732061 PUSH1 0x0 DUP3 ADD MSTORE PUSH32 0x6374696F6E000000000000000000000000000000000000000000000000000000 PUSH1 0x20 DUP3 ADD MSTORE POP JUMP JUMPDEST PUSH1 0x0 PUSH2 0x103B PUSH1 0x25 DUP4 PUSH2 0xD99 JUMP JUMPDEST SWAP2 POP PUSH2 0x1046 DUP3 PUSH2 0xFDF JUMP JUMPDEST PUSH1 0x40 DUP3 ADD SWAP1 POP SWAP2 SWAP1 POP JUMP JUMPDEST PUSH1 0x0 PUSH1 0x20 DUP3 ADD SWAP1 POP DUP2 DUP2 SUB PUSH1 0x0 DUP4 ADD MSTORE PUSH2 0x106A DUP2 PUSH2 0x102E JUMP JUMPDEST SWAP1 POP SWAP2 SWAP1 POP JUMP JUMPDEST PUSH32 0x596F7520617265206E6F74207468652070726F64756365720000000000000000 PUSH1 0x0 DUP3 ADD MSTORE POP JUMP JUMPDEST PUSH1 0x0 PUSH2 0x10A7 PUSH1 0x18 DUP4 PUSH2 0xD99 JUMP JUMPDEST SWAP2 POP PUSH2 0x10B2 DUP3 PUSH2 0x1071 JUMP JUMPDEST PUSH1 0x20 DUP3 ADD SWAP1 POP SWAP2 SWAP1 POP JUMP JUMPDEST PUSH1 0x0 PUSH1 0x20 DUP3 ADD SWAP1 POP DUP2 DUP2 SUB PUSH1 0x0 DUP4 ADD MSTORE PUSH2 0x10D6 DUP2 PUSH2 0x109A JUMP JUMPDEST SWAP1 POP SWAP2 SWAP1 POP JUMP JUMPDEST PUSH32 0x496E73756666696369656E74207175616E7469747920696E206465706F736974 PUSH1 0x0 DUP3 ADD MSTORE POP JUMP JUMPDEST PUSH1 0x0 PUSH2 0x1113 PUSH1 0x20 DUP4 PUSH2 0xD99 JUMP JUMPDEST SWAP2 POP PUSH2 0x111E DUP3 PUSH2 0x10DD JUMP JUMPDEST PUSH1 0x20 DUP3 ADD SWAP1 POP SWAP2 SWAP1 POP JUMP JUMPDEST PUSH1 0x0 PUSH1 0x20 DUP3 ADD SWAP1 POP DUP2 DUP2 SUB PUSH1 0x0 DUP4 ADD MSTORE PUSH2 0x1142 DUP2 PUSH2 0x1106 JUMP JUMPDEST SWAP1 POP SWAP2 SWAP1 POP JUMP JUMPDEST PUSH1 0x0 PUSH2 0x1154 DUP3 PUSH2 0xA38 JUMP JUMPDEST SWAP2 POP PUSH2 0x115F DUP4 PUSH2 0xA38 JUMP JUMPDEST SWAP3 POP DUP3 DUP3 SUB SWAP1 POP DUP2 DUP2 GT ISZERO PUSH2 0x1177 JUMPI PUSH2 0x1176 PUSH2 0xE3C JUMP JUMPDEST JUMPDEST SWAP3 SWAP2 POP POP JUMP INVALID LOG2 PUSH5 0x6970667358 0x22 SLT KECCAK256 RETURNDATACOPY PUSH20 0x736CF0D6C59468FE7E4F1E243C76845B222166D PUSH16 0x9223B05F0190900D7564736F6C634300 ADDMOD SLT STOP CALLER "
				},
				"gasEstimates": {
					"creation": {
						"codeDepositCost": "906200",
						"executionCost": "infinite",
						"totalCost": "infinite"
					},
					"external": {
						"authorizeStore(address)": "29264",
						"authorizedStores(address)": "infinite",
						"depositProduct(bytes4,uint256)": "infinite",
						"maxStorageVolume()": "2473",
						"owner()": "2511",
						"productDeposits(bytes4)": "5083",
						"storageFee()": "2474",
						"withdrawProduct(bytes4,uint256)": "infinite"
					}
				},
				"methodIdentifiers": {
					"authorizeStore(address)": "b489b365",
					"authorizedStores(address)": "cafdf0e2",
					"depositProduct(bytes4,uint256)": "4aba3c90",
					"maxStorageVolume()": "bc94994a",
					"owner()": "8da5cb5b",
					"productDeposits(bytes4)": "2cc6a670",
					"storageFee()": "773f0b18",
					"withdrawProduct(bytes4,uint256)": "87b85c05"
				}
			},
			"storageLayout": {
				"storage": [
					{
						"astId": 4,
						"contract": "contracts/ProductDeposit.sol:ProductDeposit",
						"label": "owner",
						"offset": 0,
						"slot": "0",
						"type": "t_address"
					},
					{
						"astId": 6,
						"contract": "contracts/ProductDeposit.sol:ProductDeposit",
						"label": "storageFee",
						"offset": 0,
						"slot": "1",
						"type": "t_uint256"
					},
					{
						"astId": 8,
						"contract": "contracts/ProductDeposit.sol:ProductDeposit",
						"label": "maxStorageVolume",
						"offset": 0,
						"slot": "2",
						"type": "t_uint256"
					},
					{
						"astId": 11,
						"contract": "contracts/ProductDeposit.sol:ProductDeposit",
						"label": "identificationContractAddress",
						"offset": 0,
						"slot": "3",
						"type": "t_address"
					},
					{
						"astId": 20,
						"contract": "contracts/ProductDeposit.sol:ProductDeposit",
						"label": "authorizedStores",
						"offset": 0,
						"slot": "4",
						"type": "t_mapping(t_address,t_address)"
					},
					{
						"astId": 25,
						"contract": "contracts/ProductDeposit.sol:ProductDeposit",
						"label": "productDeposits",
						"offset": 0,
						"slot": "5",
						"type": "t_mapping(t_bytes4,t_struct(Deposit)16_storage)"
					}
				],
				"types": {
					"t_address": {
						"encoding": "inplace",
						"label": "address",
						"numberOfBytes": "20"
					},
					"t_bytes4": {
						"encoding": "inplace",
						"label": "bytes4",
						"numberOfBytes": "4"
					},
					"t_mapping(t_address,t_address)": {
						"encoding": "mapping",
						"key": "t_address",
						"label": "mapping(address => address)",
						"numberOfBytes": "32",
						"value": "t_address"
					},
					"t_mapping(t_bytes4,t_struct(Deposit)16_storage)": {
						"encoding": "mapping",
						"key": "t_bytes4",
						"label": "mapping(bytes4 => struct ProductDeposit.Deposit)",
						"numberOfBytes": "32",
						"value": "t_struct(Deposit)16_storage"
					},
					"t_struct(Deposit)16_storage": {
						"encoding": "inplace",
						"label": "struct ProductDeposit.Deposit",
						"members": [
							{
								"astId": 13,
								"contract": "contracts/ProductDeposit.sol:ProductDeposit",
								"label": "producer",
								"offset": 0,
								"slot": "0",
								"type": "t_address"
							},
							{
								"astId": 15,
								"contract": "contracts/ProductDeposit.sol:ProductDeposit",
								"label": "quantity",
								"offset": 0,
								"slot": "1",
								"type": "t_uint256"
							}
						],
						"numberOfBytes": "64"
					},
					"t_uint256": {
						"encoding": "inplace",
						"label": "uint256",
						"numberOfBytes": "32"
					}
				}
			},
			"userdoc": {
				"kind": "user",
				"methods": {},
				"version": 1
			}
		}
	}
}